{
  "address": "0xe694865D87e27Fb4681c855946ee36a6c947ef3A",
  "abi": [
    {
      "anonymous": false,
      "inputs": [
        {
          "indexed": false,
          "internalType": "address",
          "name": "previousAdmin",
          "type": "address"
        },
        {
          "indexed": false,
          "internalType": "address",
          "name": "newAdmin",
          "type": "address"
        }
      ],
      "name": "AdminChanged",
      "type": "event"
    },
    {
      "anonymous": false,
      "inputs": [
        {
          "indexed": true,
          "internalType": "address",
          "name": "owner",
          "type": "address"
        },
        {
          "indexed": true,
          "internalType": "address",
          "name": "approved",
          "type": "address"
        },
        {
          "indexed": true,
          "internalType": "uint256",
          "name": "tokenId",
          "type": "uint256"
        }
      ],
      "name": "Approval",
      "type": "event"
    },
    {
      "anonymous": false,
      "inputs": [
        {
          "indexed": true,
          "internalType": "address",
          "name": "owner",
          "type": "address"
        },
        {
          "indexed": true,
          "internalType": "address",
          "name": "operator",
          "type": "address"
        },
        {
          "indexed": false,
          "internalType": "bool",
          "name": "approved",
          "type": "bool"
        }
      ],
      "name": "ApprovalForAll",
      "type": "event"
    },
    {
      "anonymous": false,
      "inputs": [
        {
          "indexed": false,
          "internalType": "string",
          "name": "baseUri",
          "type": "string"
        }
      ],
      "name": "BaseUriUpdated",
      "type": "event"
    },
    {
      "anonymous": false,
      "inputs": [
        {
          "indexed": true,
          "internalType": "address",
          "name": "beacon",
          "type": "address"
        }
      ],
      "name": "BeaconUpgraded",
      "type": "event"
    },
    {
      "anonymous": false,
      "inputs": [
        {
          "indexed": true,
          "internalType": "address",
          "name": "previousOwner",
          "type": "address"
        },
        {
          "indexed": true,
          "internalType": "address",
          "name": "newOwner",
          "type": "address"
        }
      ],
      "name": "OwnershipTransferred",
      "type": "event"
    },
    {
      "anonymous": false,
      "inputs": [
        {
          "indexed": true,
          "internalType": "address",
          "name": "from",
          "type": "address"
        },
        {
          "indexed": true,
          "internalType": "address",
          "name": "to",
          "type": "address"
        },
        {
          "indexed": true,
          "internalType": "uint256",
          "name": "tokenId",
          "type": "uint256"
        }
      ],
      "name": "Transfer",
      "type": "event"
    },
    {
      "anonymous": false,
      "inputs": [
        {
          "indexed": true,
          "internalType": "address",
          "name": "implementation",
          "type": "address"
        }
      ],
      "name": "Upgraded",
      "type": "event"
    },
    {
      "inputs": [
        {
          "internalType": "address",
          "name": "to",
          "type": "address"
        },
        {
          "internalType": "uint256",
          "name": "tokenId",
          "type": "uint256"
        }
      ],
      "name": "approve",
      "outputs": [],
      "stateMutability": "nonpayable",
      "type": "function"
    },
    {
      "inputs": [
        {
          "internalType": "address",
          "name": "owner",
          "type": "address"
        }
      ],
      "name": "balanceOf",
      "outputs": [
        {
          "internalType": "uint256",
          "name": "",
          "type": "uint256"
        }
      ],
      "stateMutability": "view",
      "type": "function"
    },
    {
      "inputs": [
        {
          "internalType": "uint256",
          "name": "tokenId",
          "type": "uint256"
        }
      ],
      "name": "getApproved",
      "outputs": [
        {
          "internalType": "address",
          "name": "",
          "type": "address"
        }
      ],
      "stateMutability": "view",
      "type": "function"
    },
    {
      "inputs": [],
      "name": "imxMinter",
      "outputs": [
        {
          "internalType": "address",
          "name": "",
          "type": "address"
        }
      ],
      "stateMutability": "view",
      "type": "function"
    },
    {
      "inputs": [
        {
          "internalType": "string",
          "name": "name_",
          "type": "string"
        },
        {
          "internalType": "string",
          "name": "symbol_",
          "type": "string"
        },
        {
          "internalType": "address",
          "name": "imxMinter_",
          "type": "address"
        }
      ],
      "name": "initialize",
      "outputs": [],
      "stateMutability": "nonpayable",
      "type": "function"
    },
    {
      "inputs": [
        {
          "internalType": "address",
          "name": "owner",
          "type": "address"
        },
        {
          "internalType": "address",
          "name": "operator",
          "type": "address"
        }
      ],
      "name": "isApprovedForAll",
      "outputs": [
        {
          "internalType": "bool",
          "name": "",
          "type": "bool"
        }
      ],
      "stateMutability": "view",
      "type": "function"
    },
    {
      "inputs": [
        {
          "internalType": "uint256",
          "name": "",
          "type": "uint256"
        }
      ],
      "name": "metadata",
      "outputs": [
        {
          "internalType": "bool",
          "name": "initialized",
          "type": "bool"
        },
        {
          "internalType": "enum BoxType",
          "name": "boxType",
          "type": "uint8"
        },
        {
          "internalType": "uint8",
          "name": "tier",
          "type": "uint8"
        },
        {
          "internalType": "enum AccessoryType",
          "name": "accessoryType",
          "type": "uint8"
        }
      ],
      "stateMutability": "view",
      "type": "function"
    },
    {
      "inputs": [
        {
          "internalType": "address",
          "name": "to",
          "type": "address"
        },
        {
          "internalType": "uint256",
          "name": "quantity",
          "type": "uint256"
        },
        {
          "internalType": "bytes",
          "name": "mintingBlob",
          "type": "bytes"
        }
      ],
      "name": "mintFor",
      "outputs": [],
      "stateMutability": "nonpayable",
      "type": "function"
    },
    {
      "inputs": [],
      "name": "name",
      "outputs": [
        {
          "internalType": "string",
          "name": "",
          "type": "string"
        }
      ],
      "stateMutability": "view",
      "type": "function"
    },
    {
      "inputs": [],
      "name": "owner",
      "outputs": [
        {
          "internalType": "address",
          "name": "",
          "type": "address"
        }
      ],
      "stateMutability": "view",
      "type": "function"
    },
    {
      "inputs": [
        {
          "internalType": "uint256",
          "name": "tokenId",
          "type": "uint256"
        }
      ],
      "name": "ownerOf",
      "outputs": [
        {
          "internalType": "address",
          "name": "",
          "type": "address"
        }
      ],
      "stateMutability": "view",
      "type": "function"
    },
    {
      "inputs": [],
      "name": "renounceOwnership",
      "outputs": [],
      "stateMutability": "nonpayable",
      "type": "function"
    },
    {
      "inputs": [
        {
          "internalType": "address",
          "name": "from",
          "type": "address"
        },
        {
          "internalType": "address",
          "name": "to",
          "type": "address"
        },
        {
          "internalType": "uint256",
          "name": "tokenId",
          "type": "uint256"
        }
      ],
      "name": "safeTransferFrom",
      "outputs": [],
      "stateMutability": "nonpayable",
      "type": "function"
    },
    {
      "inputs": [
        {
          "internalType": "address",
          "name": "from",
          "type": "address"
        },
        {
          "internalType": "address",
          "name": "to",
          "type": "address"
        },
        {
          "internalType": "uint256",
          "name": "tokenId",
          "type": "uint256"
        },
        {
          "internalType": "bytes",
          "name": "_data",
          "type": "bytes"
        }
      ],
      "name": "safeTransferFrom",
      "outputs": [],
      "stateMutability": "nonpayable",
      "type": "function"
    },
    {
      "inputs": [
        {
          "internalType": "address",
          "name": "operator",
          "type": "address"
        },
        {
          "internalType": "bool",
          "name": "approved",
          "type": "bool"
        }
      ],
      "name": "setApprovalForAll",
      "outputs": [],
      "stateMutability": "nonpayable",
      "type": "function"
    },
    {
      "inputs": [
        {
          "internalType": "string",
          "name": "_baseUri_",
          "type": "string"
        }
      ],
      "name": "setBaseUri",
      "outputs": [],
      "stateMutability": "nonpayable",
      "type": "function"
    },
    {
      "inputs": [
        {
          "internalType": "bytes4",
          "name": "interfaceId",
          "type": "bytes4"
        }
      ],
      "name": "supportsInterface",
      "outputs": [
        {
          "internalType": "bool",
          "name": "",
          "type": "bool"
        }
      ],
      "stateMutability": "view",
      "type": "function"
    },
    {
      "inputs": [],
      "name": "symbol",
      "outputs": [
        {
          "internalType": "string",
          "name": "",
          "type": "string"
        }
      ],
      "stateMutability": "view",
      "type": "function"
    },
    {
      "inputs": [
        {
          "internalType": "uint256",
          "name": "index",
          "type": "uint256"
        }
      ],
      "name": "tokenByIndex",
      "outputs": [
        {
          "internalType": "uint256",
          "name": "",
          "type": "uint256"
        }
      ],
      "stateMutability": "view",
      "type": "function"
    },
    {
      "inputs": [
        {
          "internalType": "address",
          "name": "owner",
          "type": "address"
        },
        {
          "internalType": "uint256",
          "name": "index",
          "type": "uint256"
        }
      ],
      "name": "tokenOfOwnerByIndex",
      "outputs": [
        {
          "internalType": "uint256",
          "name": "",
          "type": "uint256"
        }
      ],
      "stateMutability": "view",
      "type": "function"
    },
    {
      "inputs": [
        {
          "internalType": "uint256",
          "name": "tokenId",
          "type": "uint256"
        }
      ],
      "name": "tokenURI",
      "outputs": [
        {
          "internalType": "string",
          "name": "",
          "type": "string"
        }
      ],
      "stateMutability": "view",
      "type": "function"
    },
    {
      "inputs": [],
      "name": "totalSupply",
      "outputs": [
        {
          "internalType": "uint256",
          "name": "",
          "type": "uint256"
        }
      ],
      "stateMutability": "view",
      "type": "function"
    },
    {
      "inputs": [
        {
          "internalType": "address",
          "name": "from",
          "type": "address"
        },
        {
          "internalType": "address",
          "name": "to",
          "type": "address"
        },
        {
          "internalType": "uint256",
          "name": "tokenId",
          "type": "uint256"
        }
      ],
      "name": "transferFrom",
      "outputs": [],
      "stateMutability": "nonpayable",
      "type": "function"
    },
    {
      "inputs": [
        {
          "internalType": "address",
          "name": "newOwner",
          "type": "address"
        }
      ],
      "name": "transferOwnership",
      "outputs": [],
      "stateMutability": "nonpayable",
      "type": "function"
    },
    {
      "inputs": [
        {
          "internalType": "address",
          "name": "newImplementation",
          "type": "address"
        }
      ],
      "name": "upgradeTo",
      "outputs": [],
      "stateMutability": "nonpayable",
      "type": "function"
    },
    {
      "inputs": [
        {
          "internalType": "address",
          "name": "newImplementation",
          "type": "address"
        },
        {
          "internalType": "bytes",
          "name": "data",
          "type": "bytes"
        }
      ],
      "name": "upgradeToAndCall",
      "outputs": [],
      "stateMutability": "payable",
      "type": "function"
    }
  ],
  "transactionHash": "0x86b6e3c71ea845b2f312325ffe3348ebd0c2113a21879e9103326759e6618bf7",
  "args": [
    "Illuvitar EyeWear Accessory",
    "IEA",
    "0x4527BE8f31E2ebFbEF4fCADDb5a17447B27d2aef"
  ],
  "numDeployments": 1,
  "solcInputHash": "054dbf8cd87470ab2826987903ba38eb",
  "bytecode": "0x60a06040523060805234801561001457600080fd5b506080516130e3610045600039600081816109af015281816109ef01528181610a930152610ad301526130e36000f3fe6080604052600436106101815760003560e01c80636352211e116100d1578063a22cb4651161008a578063e3684e3911610064578063e3684e3914610452578063e985e9c5146104af578063f2fde38b146104f8578063fb91a7d21461051857600080fd5b8063a22cb465146103f2578063b88d4fde14610412578063c87b56dd1461043257600080fd5b80636352211e1461034957806370a0823114610369578063715018a6146103895780638da5cb5b1461039e57806395d89b41146103bd578063a0bcfc7f146103d257600080fd5b806319ee6e3f1161013e5780633659cfe6116101185780633659cfe6146102d657806342842e0e146102f65780634f1ef286146103165780634f6ccce71461032957600080fd5b806319ee6e3f1461027657806323b872dd146102965780632f745c59146102b657600080fd5b806301ffc9a71461018657806306fdde03146101bb578063077f224a146101dd578063081812fc146101ff578063095ea7b31461023757806318160ddd14610257575b600080fd5b34801561019257600080fd5b506101a66101a13660046127e4565b610539565b60405190151581526020015b60405180910390f35b3480156101c757600080fd5b506101d0610564565b6040516101b29190612859565b3480156101e957600080fd5b506101fd6101f836600461292b565b6105f6565b005b34801561020b57600080fd5b5061021f61021a36600461299f565b610679565b6040516001600160a01b0390911681526020016101b2565b34801561024357600080fd5b506101fd6102523660046129b8565b61070e565b34801561026357600080fd5b506099545b6040519081526020016101b2565b34801561028257600080fd5b506101fd6102913660046129e2565b610824565b3480156102a257600080fd5b506101fd6102b1366004612a69565b6108dd565b3480156102c257600080fd5b506102686102d13660046129b8565b61090e565b3480156102e257600080fd5b506101fd6102f1366004612aa5565b6109a4565b34801561030257600080fd5b506101fd610311366004612a69565b610a6d565b6101fd610324366004612ac0565b610a88565b34801561033557600080fd5b5061026861034436600461299f565b610b42565b34801561035557600080fd5b5061021f61036436600461299f565b610bd5565b34801561037557600080fd5b50610268610384366004612aa5565b610c4c565b34801561039557600080fd5b506101fd610cd3565b3480156103aa57600080fd5b5061012d546001600160a01b031661021f565b3480156103c957600080fd5b506101d0610d0a565b3480156103de57600080fd5b506101fd6103ed366004612b0e565b610d19565b3480156103fe57600080fd5b506101fd61040d366004612b43565b610d93565b34801561041e57600080fd5b506101fd61042d366004612b7f565b610d9e565b34801561043e57600080fd5b506101d061044d36600461299f565b610dd0565b34801561045e57600080fd5b5061049f61046d36600461299f565b61018b6020526000908152604090205460ff808216916101008104821691620100008204811691630100000090041684565b6040516101b29493929190612bfd565b3480156104bb57600080fd5b506101a66104ca366004612c44565b6001600160a01b039182166000908152606a6020908152604080832093909416825291909152205460ff1690565b34801561050457600080fd5b506101fd610513366004612aa5565b610eab565b34801561052457600080fd5b5061015f5461021f906001600160a01b031681565b60006001600160e01b0319821663780e9d6360e01b148061055e575061055e82610f44565b92915050565b60606065805461057390612c77565b80601f016020809104026020016040519081016040528092919081815260200182805461059f90612c77565b80156105ec5780601f106105c1576101008083540402835291602001916105ec565b820191906000526020600020905b8154815290600101906020018083116105cf57829003601f168201915b5050505050905090565b600054610100900460ff168061060f575060005460ff16155b6106345760405162461bcd60e51b815260040161062b90612cb2565b60405180910390fd5b600054610100900460ff16158015610656576000805461ffff19166101011790555b610661848484610f94565b8015610673576000805461ff00191690555b50505050565b6000818152606760205260408120546001600160a01b03166106f25760405162461bcd60e51b815260206004820152602c60248201527f4552433732313a20617070726f76656420717565727920666f72206e6f6e657860448201526b34b9ba32b73a103a37b5b2b760a11b606482015260840161062b565b506000908152606960205260409020546001600160a01b031690565b600061071982610bd5565b9050806001600160a01b0316836001600160a01b031614156107875760405162461bcd60e51b815260206004820152602160248201527f4552433732313a20617070726f76616c20746f2063757272656e74206f776e656044820152603960f91b606482015260840161062b565b336001600160a01b03821614806107a357506107a381336104ca565b6108155760405162461bcd60e51b815260206004820152603860248201527f4552433732313a20617070726f76652063616c6c6572206973206e6f74206f7760448201527f6e6572206e6f7220617070726f76656420666f7220616c6c0000000000000000606482015260840161062b565b61081f8383611083565b505050565b826001146108675760405162461bcd60e51b815260206004820152601060248201526f416d6f756e74206d757374206265203160801b604482015260640161062b565b61015f546001600160a01b031633146108b95760405162461bcd60e51b815260206004820152601460248201527331b0b63632b91034b9903737ba1036b4b73a32b960611b604482015260640161062b565b6000806108c684846110f1565b915091506108d58683836112ac565b505050505050565b6108e733826113d7565b6109035760405162461bcd60e51b815260040161062b90612d00565b61081f8383836114ce565b600061091983610c4c565b821061097b5760405162461bcd60e51b815260206004820152602b60248201527f455243373231456e756d657261626c653a206f776e657220696e646578206f7560448201526a74206f6620626f756e647360a81b606482015260840161062b565b506001600160a01b03919091166000908152609760209081526040808320938352929052205490565b306001600160a01b037f00000000000000000000000000000000000000000000000000000000000000001614156109ed5760405162461bcd60e51b815260040161062b90612d51565b7f00000000000000000000000000000000000000000000000000000000000000006001600160a01b0316610a1f611679565b6001600160a01b031614610a455760405162461bcd60e51b815260040161062b90612d9d565b610a4e816116a7565b60408051600080825260208201909252610a6a918391906116d2565b50565b61081f83838360405180602001604052806000815250610d9e565b306001600160a01b037f0000000000000000000000000000000000000000000000000000000000000000161415610ad15760405162461bcd60e51b815260040161062b90612d51565b7f00000000000000000000000000000000000000000000000000000000000000006001600160a01b0316610b03611679565b6001600160a01b031614610b295760405162461bcd60e51b815260040161062b90612d9d565b610b32826116a7565b610b3e828260016116d2565b5050565b6000610b4d60995490565b8210610bb05760405162461bcd60e51b815260206004820152602c60248201527f455243373231456e756d657261626c653a20676c6f62616c20696e646578206f60448201526b7574206f6620626f756e647360a01b606482015260840161062b565b60998281548110610bc357610bc3612de9565b90600052602060002001549050919050565b6000818152606760205260408120546001600160a01b03168061055e5760405162461bcd60e51b815260206004820152602960248201527f4552433732313a206f776e657220717565727920666f72206e6f6e657869737460448201526832b73a103a37b5b2b760b91b606482015260840161062b565b60006001600160a01b038216610cb75760405162461bcd60e51b815260206004820152602a60248201527f4552433732313a2062616c616e636520717565727920666f7220746865207a65604482015269726f206164647265737360b01b606482015260840161062b565b506001600160a01b031660009081526068602052604090205490565b61012d546001600160a01b03163314610cfe5760405162461bcd60e51b815260040161062b90612dff565b610d08600061181d565b565b60606066805461057390612c77565b61012d546001600160a01b03163314610d445760405162461bcd60e51b815260040161062b90612dff565b8051610d5890610160906020840190612735565b507f24a9152dc695ecc801ad580886331ee12d7aac0fa2ae341a5ae3c2ccae36cb4f81604051610d889190612859565b60405180910390a150565b610b3e338383611870565b610da833836113d7565b610dc45760405162461bcd60e51b815260040161062b90612d00565b6106738484848461193f565b6000818152606760205260409020546060906001600160a01b0316610e4f5760405162461bcd60e51b815260206004820152602f60248201527f4552433732314d657461646174613a2055524920717565727920666f72206e6f60448201526e3732bc34b9ba32b73a103a37b5b2b760891b606482015260840161062b565b6000610e59611972565b90506000815111610e795760405180602001604052806000815250610ea4565b80610e8384611982565b604051602001610e94929190612e34565b6040516020818303038152906040525b9392505050565b61012d546001600160a01b03163314610ed65760405162461bcd60e51b815260040161062b90612dff565b6001600160a01b038116610f3b5760405162461bcd60e51b815260206004820152602660248201527f4f776e61626c653a206e6577206f776e657220697320746865207a65726f206160448201526564647265737360d01b606482015260840161062b565b610a6a8161181d565b60006001600160e01b031982166380ac58cd60e01b1480610f7557506001600160e01b03198216635b5e139f60e01b145b8061055e57506301ffc9a760e01b6001600160e01b031983161461055e565b600054610100900460ff1680610fad575060005460ff16155b610fc95760405162461bcd60e51b815260040161062b90612cb2565b600054610100900460ff16158015610feb576000805461ffff19166101011790555b610ff58484611a80565b610ffd611b07565b611005611b8a565b6001600160a01b0382166110505760405162461bcd60e51b81526020600482015260126024820152714d696e7465722063616e6e6f74207a65726f60701b604482015260640161062b565b61015f80546001600160a01b0319166001600160a01b0384161790558015610673576000805461ff001916905550505050565b600081815260696020526040902080546001600160a01b0319166001600160a01b03841690811790915581906110b882610bd5565b6001600160a01b03167f8c5be1e5ebec7d5bd14f71427d1e84f3dd0314c0f7b2291e5b200ac8c7c3b92560405160405180910390a45050565b60006060600061114f85858080601f01602080910402602001604051908101604052809392919081815260200183838082843760009201829052506040805180820190915260018152601d60f91b602082015293509150611bf19050565b905060008112156111995760405162461bcd60e51b815260206004820152601460248201527314d95c185c985d1bdc881b5d5cdd08195e1a5cdd60621b604482015260640161062b565b60006111f3866001876111ac8287612e79565b926111b993929190612e90565b8080601f016020809104026020016040519081016040528093929190818152602001838380828437600092019190915250611c8992505050565b9050600060036112038488612e79565b61120d9190612e79565b905080611231578160405180602001604052806000815250945094505050506112a5565b3660008888611241876002612eba565b9061124d60018c612e79565b9261125a93929190612e90565b9150915083828281818080601f016020809104026020016040519081016040528093929190818152602001838380828437600092019190915250959c50919a50505050505050505050505b9250929050565b6112b68383611d61565b600082815261018b602052604090205460ff1661081f5760008060006112db84611d7b565b925092509250604051806080016040528060011515815260200184600581111561130757611307612be7565b81526020018360ff16815260200182600481111561132757611327612be7565b9052600086815261018b602090815260409091208251815490151560ff19821681178355928401519192839161ff001990911661ffff199091161761010083600581111561137757611377612be7565b02179055506040820151815460ff909116620100000262ff000019821681178355606084015191839163ff000000191663ffff0000199091161763010000008360048111156113c8576113c8612be7565b02179055505050505050505050565b6000818152606760205260408120546001600160a01b03166114505760405162461bcd60e51b815260206004820152602c60248201527f4552433732313a206f70657261746f7220717565727920666f72206e6f6e657860448201526b34b9ba32b73a103a37b5b2b760a11b606482015260840161062b565b600061145b83610bd5565b9050806001600160a01b0316846001600160a01b031614806114965750836001600160a01b031661148b84610679565b6001600160a01b0316145b806114c657506001600160a01b038082166000908152606a602090815260408083209388168352929052205460ff165b949350505050565b826001600160a01b03166114e182610bd5565b6001600160a01b0316146115495760405162461bcd60e51b815260206004820152602960248201527f4552433732313a207472616e73666572206f6620746f6b656e2074686174206960448201526839903737ba1037bbb760b91b606482015260840161062b565b6001600160a01b0382166115ab5760405162461bcd60e51b8152602060048201526024808201527f4552433732313a207472616e7366657220746f20746865207a65726f206164646044820152637265737360e01b606482015260840161062b565b6115b6838383611ed8565b6115c1600082611083565b6001600160a01b03831660009081526068602052604081208054600192906115ea908490612e79565b90915550506001600160a01b0382166000908152606860205260408120805460019290611618908490612eba565b909155505060008181526067602052604080822080546001600160a01b0319166001600160a01b0386811691821790925591518493918716917fddf252ad1be2c89b69c2b068fc378daa952ba7f163c4a11628f55a4df523b3ef91a4505050565b7f360894a13ba1a3210667c828492db98dca3e2076cc3735a920a3ca505d382bbc546001600160a01b031690565b61012d546001600160a01b03163314610a6a5760405162461bcd60e51b815260040161062b90612dff565b60006116dc611679565b90506116e784611f90565b6000835111806116f45750815b15611705576117038484612035565b505b7f4910fdfa16fed3260ed0e7147f7cc6da11a60208b5b9406d12a635614ffd9143805460ff1661181657805460ff191660011781556040516001600160a01b038316602482015261178490869060440160408051601f198184030181529190526020810180516001600160e01b0316631b2ce7f360e11b179052612035565b50805460ff19168155611795611679565b6001600160a01b0316826001600160a01b03161461180d5760405162461bcd60e51b815260206004820152602f60248201527f45524331393637557067726164653a207570677261646520627265616b73206660448201526e75727468657220757067726164657360881b606482015260840161062b565b61181685612120565b5050505050565b61012d80546001600160a01b038381166001600160a01b0319831681179093556040519116919082907f8be0079c531659141344cd1fd0a4f28419497f9722a3daafe3b4186f6b6457e090600090a35050565b816001600160a01b0316836001600160a01b031614156118d25760405162461bcd60e51b815260206004820152601960248201527f4552433732313a20617070726f766520746f2063616c6c657200000000000000604482015260640161062b565b6001600160a01b038381166000818152606a6020908152604080832094871680845294825291829020805460ff191686151590811790915591519182527f17307eab39ab6107e8899845ad3d59bd9653f200f220920489ca2b5937696c31910160405180910390a3505050565b61194a8484846114ce565b61195684848484612160565b6106735760405162461bcd60e51b815260040161062b90612ed2565b6060610160805461057390612c77565b6060816119a65750506040805180820190915260018152600360fc1b602082015290565b8160005b81156119d057806119ba81612f24565b91506119c99050600a83612f55565b91506119aa565b60008167ffffffffffffffff8111156119eb576119eb61286c565b6040519080825280601f01601f191660200182016040528015611a15576020820181803683370190505b5090505b84156114c657611a2a600183612e79565b9150611a37600a86612f69565b611a42906030612eba565b60f81b818381518110611a5757611a57612de9565b60200101906001600160f81b031916908160001a905350611a79600a86612f55565b9450611a19565b600054610100900460ff1680611a99575060005460ff16155b611ab55760405162461bcd60e51b815260040161062b90612cb2565b600054610100900460ff16158015611ad7576000805461ffff19166101011790555b611adf61226d565b611ae761226d565b611af183836122d7565b801561081f576000805461ff0019169055505050565b600054610100900460ff1680611b20575060005460ff16155b611b3c5760405162461bcd60e51b815260040161062b90612cb2565b600054610100900460ff16158015611b5e576000805461ffff19166101011790555b611b6661226d565b611b6e61226d565b611b7661226d565b8015610a6a576000805461ff001916905550565b600054610100900460ff1680611ba3575060005460ff16155b611bbf5760405162461bcd60e51b815260040161062b90612cb2565b600054610100900460ff16158015611be1576000805461ffff19166101011790555b611be961226d565b611b7661236c565b81516000908390600114611c0757611c07612f7d565b825b8551811015611c7c5781600081518110611c2557611c25612de9565b602001015160f81c60f81b6001600160f81b031916868281518110611c4c57611c4c612de9565b01602001516001600160f81b0319161415611c6a579150610ea49050565b80611c7481612f24565b915050611c09565b5060001995945050505050565b600080805b8351811015611d5a576000848281518110611cab57611cab612de9565b016020015160f81c905060308110801590611cc7575060398111155b15611cf357611cd7603082612e79565b611ce284600a612f93565b611cec9190612eba565b9250611d47565b60405162461bcd60e51b815260206004820152602360248201527f696e76616c696420696e7075742c206f6e6c79206e756d6265727320616c6c6f6044820152621dd95960ea1b606482015260840161062b565b5080611d5281612f24565b915050611c8e565b5092915050565b610b3e8282604051806020016040528060008152506123cc565b6040805160038082526080820190925260009182918291829182916020820160608036833701905050865190915060005b81811015611e4f57611ddd888281518110611dc957611dc9612de9565b01602001516001600160f81b0319166123ff565b15611e3d576030888281518110611df657611df6612de9565b0160200151611e08919060f81c612fb2565b838560ff1681518110611e1d57611e1d612de9565b60ff90921660209283029190910190910152611e3a600185612fd5565b93505b611e48600182612eba565b9050611dac565b5081600081518110611e6357611e63612de9565b602002602001015160ff166005811115611e7f57611e7f612be7565b955081600181518110611e9457611e94612de9565b6020026020010151945081600281518110611eb157611eb1612de9565b602002602001015160ff166004811115611ecd57611ecd612be7565b959794965050505050565b6001600160a01b038316611f3357611f2e81609980546000838152609a60205260408120829055600182018355919091527f72a152ddfb8e864297c917af52ea6c1c68aead0fee1a62673fcc7e0c94979d000155565b611f56565b816001600160a01b0316836001600160a01b031614611f5657611f56838261241e565b6001600160a01b038216611f6d5761081f816124bb565b826001600160a01b0316826001600160a01b03161461081f5761081f828261256a565b803b611ff45760405162461bcd60e51b815260206004820152602d60248201527f455243313936373a206e657720696d706c656d656e746174696f6e206973206e60448201526c1bdd08184818dbdb9d1c9858dd609a1b606482015260840161062b565b7f360894a13ba1a3210667c828492db98dca3e2076cc3735a920a3ca505d382bbc80546001600160a01b0319166001600160a01b0392909216919091179055565b6060823b6120945760405162461bcd60e51b815260206004820152602660248201527f416464726573733a2064656c65676174652063616c6c20746f206e6f6e2d636f6044820152651b9d1c9858dd60d21b606482015260840161062b565b600080846001600160a01b0316846040516120af9190612ffa565b600060405180830381855af49150503d80600081146120ea576040519150601f19603f3d011682016040523d82523d6000602084013e6120ef565b606091505b50915091506121178282604051806060016040528060278152602001613087602791396125ae565b95945050505050565b61212981611f90565b6040516001600160a01b038216907fbc7cd75a20ee27fd9adebab32041f755214dbc6bffa90cc0225b39da2e5c2d3b90600090a250565b60006001600160a01b0384163b1561226257604051630a85bd0160e11b81526001600160a01b0385169063150b7a02906121a4903390899088908890600401613016565b602060405180830381600087803b1580156121be57600080fd5b505af19250505080156121ee575060408051601f3d908101601f191682019092526121eb91810190613053565b60015b612248573d80801561221c576040519150601f19603f3d011682016040523d82523d6000602084013e612221565b606091505b5080516122405760405162461bcd60e51b815260040161062b90612ed2565b805181602001fd5b6001600160e01b031916630a85bd0160e11b1490506114c6565b506001949350505050565b600054610100900460ff1680612286575060005460ff16155b6122a25760405162461bcd60e51b815260040161062b90612cb2565b600054610100900460ff16158015611b76576000805461ffff19166101011790558015610a6a576000805461ff001916905550565b600054610100900460ff16806122f0575060005460ff16155b61230c5760405162461bcd60e51b815260040161062b90612cb2565b600054610100900460ff1615801561232e576000805461ffff19166101011790555b8251612341906065906020860190612735565b508151612355906066906020850190612735565b50801561081f576000805461ff0019169055505050565b600054610100900460ff1680612385575060005460ff16155b6123a15760405162461bcd60e51b815260040161062b90612cb2565b600054610100900460ff161580156123c3576000805461ffff19166101011790555b611b763361181d565b6123d683836125e7565b6123e36000848484612160565b61081f5760405162461bcd60e51b815260040161062b90612ed2565b6000603060f883901c1080159061055e575050603a60f89190911c1090565b6000600161242b84610c4c565b6124359190612e79565b600083815260986020526040902054909150808214612488576001600160a01b03841660009081526097602090815260408083208584528252808320548484528184208190558352609890915290208190555b5060009182526098602090815260408084208490556001600160a01b039094168352609781528383209183525290812055565b6099546000906124cd90600190612e79565b6000838152609a6020526040812054609980549394509092849081106124f5576124f5612de9565b90600052602060002001549050806099838154811061251657612516612de9565b6000918252602080832090910192909255828152609a9091526040808220849055858252812055609980548061254e5761254e613070565b6001900381819060005260206000200160009055905550505050565b600061257583610c4c565b6001600160a01b039093166000908152609760209081526040808320868452825280832085905593825260989052919091209190915550565b606083156125bd575081610ea4565b8251156125cd5782518084602001fd5b8160405162461bcd60e51b815260040161062b9190612859565b6001600160a01b03821661263d5760405162461bcd60e51b815260206004820181905260248201527f4552433732313a206d696e7420746f20746865207a65726f2061646472657373604482015260640161062b565b6000818152606760205260409020546001600160a01b0316156126a25760405162461bcd60e51b815260206004820152601c60248201527f4552433732313a20746f6b656e20616c7265616479206d696e74656400000000604482015260640161062b565b6126ae60008383611ed8565b6001600160a01b03821660009081526068602052604081208054600192906126d7908490612eba565b909155505060008181526067602052604080822080546001600160a01b0319166001600160a01b03861690811790915590518392907fddf252ad1be2c89b69c2b068fc378daa952ba7f163c4a11628f55a4df523b3ef908290a45050565b82805461274190612c77565b90600052602060002090601f01602090048101928261276357600085556127a9565b82601f1061277c57805160ff19168380011785556127a9565b828001600101855582156127a9579182015b828111156127a957825182559160200191906001019061278e565b506127b59291506127b9565b5090565b5b808211156127b557600081556001016127ba565b6001600160e01b031981168114610a6a57600080fd5b6000602082840312156127f657600080fd5b8135610ea4816127ce565b60005b8381101561281c578181015183820152602001612804565b838111156106735750506000910152565b60008151808452612845816020860160208601612801565b601f01601f19169290920160200192915050565b602081526000610ea4602083018461282d565b634e487b7160e01b600052604160045260246000fd5b600082601f83011261289357600080fd5b813567ffffffffffffffff808211156128ae576128ae61286c565b604051601f8301601f19908116603f011681019082821181831017156128d6576128d661286c565b816040528381528660208588010111156128ef57600080fd5b836020870160208301376000602085830101528094505050505092915050565b80356001600160a01b038116811461292657600080fd5b919050565b60008060006060848603121561294057600080fd5b833567ffffffffffffffff8082111561295857600080fd5b61296487838801612882565b9450602086013591508082111561297a57600080fd5b5061298786828701612882565b9250506129966040850161290f565b90509250925092565b6000602082840312156129b157600080fd5b5035919050565b600080604083850312156129cb57600080fd5b6129d48361290f565b946020939093013593505050565b600080600080606085870312156129f857600080fd5b612a018561290f565b935060208501359250604085013567ffffffffffffffff80821115612a2557600080fd5b818701915087601f830112612a3957600080fd5b813581811115612a4857600080fd5b886020828501011115612a5a57600080fd5b95989497505060200194505050565b600080600060608486031215612a7e57600080fd5b612a878461290f565b9250612a956020850161290f565b9150604084013590509250925092565b600060208284031215612ab757600080fd5b610ea48261290f565b60008060408385031215612ad357600080fd5b612adc8361290f565b9150602083013567ffffffffffffffff811115612af857600080fd5b612b0485828601612882565b9150509250929050565b600060208284031215612b2057600080fd5b813567ffffffffffffffff811115612b3757600080fd5b6114c684828501612882565b60008060408385031215612b5657600080fd5b612b5f8361290f565b915060208301358015158114612b7457600080fd5b809150509250929050565b60008060008060808587031215612b9557600080fd5b612b9e8561290f565b9350612bac6020860161290f565b925060408501359150606085013567ffffffffffffffff811115612bcf57600080fd5b612bdb87828801612882565b91505092959194509250565b634e487b7160e01b600052602160045260246000fd5b84151581526080810160068510612c1657612c16612be7565b84602083015260ff8416604083015260058310612c3557612c35612be7565b82606083015295945050505050565b60008060408385031215612c5757600080fd5b612c608361290f565b9150612c6e6020840161290f565b90509250929050565b600181811c90821680612c8b57607f821691505b60208210811415612cac57634e487b7160e01b600052602260045260246000fd5b50919050565b6020808252602e908201527f496e697469616c697a61626c653a20636f6e747261637420697320616c72656160408201526d191e481a5b9a5d1a585b1a5e995960921b606082015260800190565b60208082526031908201527f4552433732313a207472616e736665722063616c6c6572206973206e6f74206f6040820152701ddb995c881b9bdc88185c1c1c9bdd9959607a1b606082015260800190565b6020808252602c908201527f46756e6374696f6e206d7573742062652063616c6c6564207468726f7567682060408201526b19195b1959d85d1958d85b1b60a21b606082015260800190565b6020808252602c908201527f46756e6374696f6e206d7573742062652063616c6c6564207468726f7567682060408201526b6163746976652070726f787960a01b606082015260800190565b634e487b7160e01b600052603260045260246000fd5b6020808252818101527f4f776e61626c653a2063616c6c6572206973206e6f7420746865206f776e6572604082015260600190565b60008351612e46818460208801612801565b835190830190612e5a818360208801612801565b01949350505050565b634e487b7160e01b600052601160045260246000fd5b600082821015612e8b57612e8b612e63565b500390565b60008085851115612ea057600080fd5b83861115612ead57600080fd5b5050820193919092039150565b60008219821115612ecd57612ecd612e63565b500190565b60208082526032908201527f4552433732313a207472616e7366657220746f206e6f6e20455243373231526560408201527131b2b4bb32b91034b6b83632b6b2b73a32b960711b606082015260800190565b6000600019821415612f3857612f38612e63565b5060010190565b634e487b7160e01b600052601260045260246000fd5b600082612f6457612f64612f3f565b500490565b600082612f7857612f78612f3f565b500690565b634e487b7160e01b600052600160045260246000fd5b6000816000190483118215151615612fad57612fad612e63565b500290565b600060ff821660ff841680821015612fcc57612fcc612e63565b90039392505050565b600060ff821660ff84168060ff03821115612ff257612ff2612e63565b019392505050565b6000825161300c818460208701612801565b9190910192915050565b6001600160a01b03858116825284166020820152604081018390526080606082018190526000906130499083018461282d565b9695505050505050565b60006020828403121561306557600080fd5b8151610ea4816127ce565b634e487b7160e01b600052603160045260246000fdfe416464726573733a206c6f772d6c6576656c2064656c65676174652063616c6c206661696c6564a26469706673582212207f0d61591ae42370e26a0c84361f967678dad26e86cfa39999b92c437847983c64736f6c63430008090033",
  "devdoc": {
    "author": "Dmitry Yakovlevich",
    "kind": "dev",
    "methods": {
      "approve(address,uint256)": {
        "details": "See {IERC721-approve}."
      },
      "balanceOf(address)": {
        "details": "See {IERC721-balanceOf}."
      },
      "getApproved(uint256)": {
        "details": "See {IERC721-getApproved}."
      },
      "initialize(string,string,address)": {
        "params": {
          "imxMinter_": "NFT Minter Address.",
          "name_": "NFT Name.",
          "symbol_": "NFT Symbol."
        }
      },
      "isApprovedForAll(address,address)": {
        "details": "See {IERC721-isApprovedForAll}."
      },
      "name()": {
        "details": "See {IERC721Metadata-name}."
      },
      "owner()": {
        "details": "Returns the address of the current owner."
      },
      "ownerOf(uint256)": {
        "details": "See {IERC721-ownerOf}."
      },
      "renounceOwnership()": {
        "details": "Leaves the contract without owner. It will not be possible to call `onlyOwner` functions anymore. Can only be called by the current owner. NOTE: Renouncing ownership will leave the contract without an owner, thereby removing any functionality that is only available to the owner."
      },
      "safeTransferFrom(address,address,uint256)": {
        "details": "See {IERC721-safeTransferFrom}."
      },
      "safeTransferFrom(address,address,uint256,bytes)": {
        "details": "See {IERC721-safeTransferFrom}."
      },
      "setApprovalForAll(address,bool)": {
        "details": "See {IERC721-setApprovalForAll}."
      },
      "setBaseUri(string)": {
        "details": "only owner can call this function.",
        "params": {
          "_baseUri_": "base URI."
        }
      },
      "supportsInterface(bytes4)": {
        "details": "See {IERC165-supportsInterface}."
      },
      "symbol()": {
        "details": "See {IERC721Metadata-symbol}."
      },
      "tokenByIndex(uint256)": {
        "details": "See {IERC721Enumerable-tokenByIndex}."
      },
      "tokenOfOwnerByIndex(address,uint256)": {
        "details": "See {IERC721Enumerable-tokenOfOwnerByIndex}."
      },
      "tokenURI(uint256)": {
        "details": "See {IERC721Metadata-tokenURI}."
      },
      "totalSupply()": {
        "details": "See {IERC721Enumerable-totalSupply}."
      },
      "transferFrom(address,address,uint256)": {
        "details": "See {IERC721-transferFrom}."
      },
      "transferOwnership(address)": {
        "details": "Transfers ownership of the contract to a new account (`newOwner`). Can only be called by the current owner."
      },
      "upgradeTo(address)": {
        "details": "Upgrade the implementation of the proxy to `newImplementation`. Calls {_authorizeUpgrade}. Emits an {Upgraded} event."
      },
      "upgradeToAndCall(address,bytes)": {
        "details": "Upgrade the implementation of the proxy to `newImplementation`, and subsequently execute the function call encoded in `data`. Calls {_authorizeUpgrade}. Emits an {Upgraded} event."
      }
    },
    "title": "AccessoryLayer, this contract is inherited from BaseIlluvitar contract, this will be deployed four times for different accessories(EYE, BODY, MOUTH, HEAD).",
    "version": 1
  },
  "userdoc": {
    "events": {
      "BaseUriUpdated(string)": {
        "notice": "event emitted when base URI is set."
      }
    },
    "kind": "user",
    "methods": {
      "initialize(string,string,address)": {
        "notice": "Initialize Accessory NFT."
      },
      "setBaseUri(string)": {
        "notice": "Set base URI"
      }
    },
    "version": 1
  },
  "storageLayout": {
    "storage": [
      {
        "astId": 1164,
        "contract": "contracts/AccessoryLayer.sol:AccessoryLayer",
        "label": "_initialized",
        "offset": 0,
        "slot": "0",
        "type": "t_bool"
      },
      {
        "astId": 1167,
        "contract": "contracts/AccessoryLayer.sol:AccessoryLayer",
        "label": "_initializing",
        "offset": 1,
        "slot": "0",
        "type": "t_bool"
      },
      {
        "astId": 3022,
        "contract": "contracts/AccessoryLayer.sol:AccessoryLayer",
        "label": "__gap",
        "offset": 0,
        "slot": "1",
        "type": "t_array(t_uint256)50_storage"
      },
      {
        "astId": 3331,
        "contract": "contracts/AccessoryLayer.sol:AccessoryLayer",
        "label": "__gap",
        "offset": 0,
        "slot": "51",
        "type": "t_array(t_uint256)50_storage"
      },
      {
        "astId": 1344,
        "contract": "contracts/AccessoryLayer.sol:AccessoryLayer",
        "label": "_name",
        "offset": 0,
        "slot": "101",
        "type": "t_string_storage"
      },
      {
        "astId": 1346,
        "contract": "contracts/AccessoryLayer.sol:AccessoryLayer",
        "label": "_symbol",
        "offset": 0,
        "slot": "102",
        "type": "t_string_storage"
      },
      {
        "astId": 1350,
        "contract": "contracts/AccessoryLayer.sol:AccessoryLayer",
        "label": "_owners",
        "offset": 0,
        "slot": "103",
        "type": "t_mapping(t_uint256,t_address)"
      },
      {
        "astId": 1354,
        "contract": "contracts/AccessoryLayer.sol:AccessoryLayer",
        "label": "_balances",
        "offset": 0,
        "slot": "104",
        "type": "t_mapping(t_address,t_uint256)"
      },
      {
        "astId": 1358,
        "contract": "contracts/AccessoryLayer.sol:AccessoryLayer",
        "label": "_tokenApprovals",
        "offset": 0,
        "slot": "105",
        "type": "t_mapping(t_uint256,t_address)"
      },
      {
        "astId": 1364,
        "contract": "contracts/AccessoryLayer.sol:AccessoryLayer",
        "label": "_operatorApprovals",
        "offset": 0,
        "slot": "106",
        "type": "t_mapping(t_address,t_mapping(t_address,t_bool))"
      },
      {
        "astId": 2175,
        "contract": "contracts/AccessoryLayer.sol:AccessoryLayer",
        "label": "__gap",
        "offset": 0,
        "slot": "107",
        "type": "t_array(t_uint256)44_storage"
      },
      {
        "astId": 2349,
        "contract": "contracts/AccessoryLayer.sol:AccessoryLayer",
        "label": "_ownedTokens",
        "offset": 0,
        "slot": "151",
        "type": "t_mapping(t_address,t_mapping(t_uint256,t_uint256))"
      },
      {
        "astId": 2353,
        "contract": "contracts/AccessoryLayer.sol:AccessoryLayer",
        "label": "_ownedTokensIndex",
        "offset": 0,
        "slot": "152",
        "type": "t_mapping(t_uint256,t_uint256)"
      },
      {
        "astId": 2356,
        "contract": "contracts/AccessoryLayer.sol:AccessoryLayer",
        "label": "_allTokens",
        "offset": 0,
        "slot": "153",
        "type": "t_array(t_uint256)dyn_storage"
      },
      {
        "astId": 2360,
        "contract": "contracts/AccessoryLayer.sol:AccessoryLayer",
        "label": "_allTokensIndex",
        "offset": 0,
        "slot": "154",
        "type": "t_mapping(t_uint256,t_uint256)"
      },
      {
        "astId": 2675,
        "contract": "contracts/AccessoryLayer.sol:AccessoryLayer",
        "label": "__gap",
        "offset": 0,
        "slot": "155",
        "type": "t_array(t_uint256)46_storage"
      },
      {
        "astId": 1147,
        "contract": "contracts/AccessoryLayer.sol:AccessoryLayer",
        "label": "__gap",
        "offset": 0,
        "slot": "201",
        "type": "t_array(t_uint256)50_storage"
      },
      {
        "astId": 1314,
        "contract": "contracts/AccessoryLayer.sol:AccessoryLayer",
        "label": "__gap",
        "offset": 0,
        "slot": "251",
        "type": "t_array(t_uint256)50_storage"
      },
      {
        "astId": 635,
        "contract": "contracts/AccessoryLayer.sol:AccessoryLayer",
        "label": "_owner",
        "offset": 0,
        "slot": "301",
        "type": "t_address"
      },
      {
        "astId": 749,
        "contract": "contracts/AccessoryLayer.sol:AccessoryLayer",
        "label": "__gap",
        "offset": 0,
        "slot": "302",
        "type": "t_array(t_uint256)49_storage"
      },
      {
        "astId": 5099,
        "contract": "contracts/AccessoryLayer.sol:AccessoryLayer",
        "label": "imxMinter",
        "offset": 0,
        "slot": "351",
        "type": "t_address"
      },
      {
        "astId": 5101,
        "contract": "contracts/AccessoryLayer.sol:AccessoryLayer",
        "label": "__baseUri",
        "offset": 0,
        "slot": "352",
        "type": "t_string_storage"
      },
      {
        "astId": 5255,
        "contract": "contracts/AccessoryLayer.sol:AccessoryLayer",
        "label": "__gap",
        "offset": 0,
        "slot": "353",
        "type": "t_array(t_uint256)42_storage"
      },
      {
        "astId": 4917,
        "contract": "contracts/AccessoryLayer.sol:AccessoryLayer",
        "label": "metadata",
        "offset": 0,
        "slot": "395",
        "type": "t_mapping(t_uint256,t_struct(Metadata)4912_storage)"
      }
    ],
    "types": {
      "t_address": {
        "encoding": "inplace",
        "label": "address",
        "numberOfBytes": "20"
      },
      "t_array(t_uint256)42_storage": {
        "base": "t_uint256",
        "encoding": "inplace",
        "label": "uint256[42]",
        "numberOfBytes": "1344"
      },
      "t_array(t_uint256)44_storage": {
        "base": "t_uint256",
        "encoding": "inplace",
        "label": "uint256[44]",
        "numberOfBytes": "1408"
      },
      "t_array(t_uint256)46_storage": {
        "base": "t_uint256",
        "encoding": "inplace",
        "label": "uint256[46]",
        "numberOfBytes": "1472"
      },
      "t_array(t_uint256)49_storage": {
        "base": "t_uint256",
        "encoding": "inplace",
        "label": "uint256[49]",
        "numberOfBytes": "1568"
      },
      "t_array(t_uint256)50_storage": {
        "base": "t_uint256",
        "encoding": "inplace",
        "label": "uint256[50]",
        "numberOfBytes": "1600"
      },
      "t_array(t_uint256)dyn_storage": {
        "base": "t_uint256",
        "encoding": "dynamic_array",
        "label": "uint256[]",
        "numberOfBytes": "32"
      },
      "t_bool": {
        "encoding": "inplace",
        "label": "bool",
        "numberOfBytes": "1"
      },
      "t_enum(AccessoryType)5264": {
        "encoding": "inplace",
        "label": "enum AccessoryType",
        "numberOfBytes": "1"
      },
      "t_enum(BoxType)5271": {
        "encoding": "inplace",
        "label": "enum BoxType",
        "numberOfBytes": "1"
      },
      "t_mapping(t_address,t_bool)": {
        "encoding": "mapping",
        "key": "t_address",
        "label": "mapping(address => bool)",
        "numberOfBytes": "32",
        "value": "t_bool"
      },
      "t_mapping(t_address,t_mapping(t_address,t_bool))": {
        "encoding": "mapping",
        "key": "t_address",
        "label": "mapping(address => mapping(address => bool))",
        "numberOfBytes": "32",
        "value": "t_mapping(t_address,t_bool)"
      },
      "t_mapping(t_address,t_mapping(t_uint256,t_uint256))": {
        "encoding": "mapping",
        "key": "t_address",
        "label": "mapping(address => mapping(uint256 => uint256))",
        "numberOfBytes": "32",
        "value": "t_mapping(t_uint256,t_uint256)"
      },
      "t_mapping(t_address,t_uint256)": {
        "encoding": "mapping",
        "key": "t_address",
        "label": "mapping(address => uint256)",
        "numberOfBytes": "32",
        "value": "t_uint256"
      },
      "t_mapping(t_uint256,t_address)": {
        "encoding": "mapping",
        "key": "t_uint256",
        "label": "mapping(uint256 => address)",
        "numberOfBytes": "32",
        "value": "t_address"
      },
      "t_mapping(t_uint256,t_struct(Metadata)4912_storage)": {
        "encoding": "mapping",
        "key": "t_uint256",
        "label": "mapping(uint256 => struct AccessoryLayer.Metadata)",
        "numberOfBytes": "32",
        "value": "t_struct(Metadata)4912_storage"
      },
      "t_mapping(t_uint256,t_uint256)": {
        "encoding": "mapping",
        "key": "t_uint256",
        "label": "mapping(uint256 => uint256)",
        "numberOfBytes": "32",
        "value": "t_uint256"
      },
      "t_string_storage": {
        "encoding": "bytes",
        "label": "string",
        "numberOfBytes": "32"
      },
      "t_struct(Metadata)4912_storage": {
        "encoding": "inplace",
        "label": "struct AccessoryLayer.Metadata",
        "members": [
          {
            "astId": 4903,
            "contract": "contracts/AccessoryLayer.sol:AccessoryLayer",
            "label": "initialized",
            "offset": 0,
            "slot": "0",
            "type": "t_bool"
          },
          {
            "astId": 4906,
            "contract": "contracts/AccessoryLayer.sol:AccessoryLayer",
            "label": "boxType",
            "offset": 1,
            "slot": "0",
            "type": "t_enum(BoxType)5271"
          },
          {
            "astId": 4908,
            "contract": "contracts/AccessoryLayer.sol:AccessoryLayer",
            "label": "tier",
            "offset": 2,
            "slot": "0",
            "type": "t_uint8"
          },
          {
            "astId": 4911,
            "contract": "contracts/AccessoryLayer.sol:AccessoryLayer",
            "label": "accessoryType",
            "offset": 3,
            "slot": "0",
            "type": "t_enum(AccessoryType)5264"
          }
        ],
        "numberOfBytes": "32"
      },
      "t_uint256": {
        "encoding": "inplace",
        "label": "uint256",
        "numberOfBytes": "32"
      },
      "t_uint8": {
        "encoding": "inplace",
        "label": "uint8",
        "numberOfBytes": "1"
      }
    }
  }
}