{
  "address": "0x71Be51e70ECF7507044b2D58bCa9c4863bEa2418",
  "abi": [
    {
      "anonymous": false,
      "inputs": [
        {
          "indexed": true,
          "internalType": "address",
          "name": "owner",
          "type": "address"
        },
        {
          "indexed": true,
          "internalType": "address",
          "name": "approved",
          "type": "address"
        },
        {
          "indexed": true,
          "internalType": "uint256",
          "name": "tokenId",
          "type": "uint256"
        }
      ],
      "name": "Approval",
      "type": "event"
    },
    {
      "anonymous": false,
      "inputs": [
        {
          "indexed": true,
          "internalType": "address",
          "name": "owner",
          "type": "address"
        },
        {
          "indexed": true,
          "internalType": "address",
          "name": "operator",
          "type": "address"
        },
        {
          "indexed": false,
          "internalType": "bool",
          "name": "approved",
          "type": "bool"
        }
      ],
      "name": "ApprovalForAll",
      "type": "event"
    },
    {
      "anonymous": false,
      "inputs": [
        {
          "indexed": false,
          "internalType": "string",
          "name": "baseUri",
          "type": "string"
        }
      ],
      "name": "BaseUriUpdated",
      "type": "event"
    },
    {
      "anonymous": false,
      "inputs": [
        {
          "indexed": true,
          "internalType": "address",
          "name": "previousOwner",
          "type": "address"
        },
        {
          "indexed": true,
          "internalType": "address",
          "name": "newOwner",
          "type": "address"
        }
      ],
      "name": "OwnershipTransferred",
      "type": "event"
    },
    {
      "anonymous": false,
      "inputs": [
        {
          "indexed": true,
          "internalType": "address",
          "name": "from",
          "type": "address"
        },
        {
          "indexed": true,
          "internalType": "address",
          "name": "to",
          "type": "address"
        },
        {
          "indexed": true,
          "internalType": "uint256",
          "name": "tokenId",
          "type": "uint256"
        }
      ],
      "name": "Transfer",
      "type": "event"
    },
    {
      "inputs": [
        {
          "internalType": "address",
          "name": "to",
          "type": "address"
        },
        {
          "internalType": "uint256",
          "name": "tokenId",
          "type": "uint256"
        }
      ],
      "name": "approve",
      "outputs": [],
      "stateMutability": "nonpayable",
      "type": "function"
    },
    {
      "inputs": [
        {
          "internalType": "address",
          "name": "owner",
          "type": "address"
        }
      ],
      "name": "balanceOf",
      "outputs": [
        {
          "internalType": "uint256",
          "name": "",
          "type": "uint256"
        }
      ],
      "stateMutability": "view",
      "type": "function"
    },
    {
      "inputs": [
        {
          "internalType": "uint256",
          "name": "tokenId",
          "type": "uint256"
        }
      ],
      "name": "getApproved",
      "outputs": [
        {
          "internalType": "address",
          "name": "",
          "type": "address"
        }
      ],
      "stateMutability": "view",
      "type": "function"
    },
    {
      "inputs": [],
      "name": "imxMinter",
      "outputs": [
        {
          "internalType": "address",
          "name": "",
          "type": "address"
        }
      ],
      "stateMutability": "view",
      "type": "function"
    },
    {
      "inputs": [
        {
          "internalType": "string",
          "name": "name_",
          "type": "string"
        },
        {
          "internalType": "string",
          "name": "symbol_",
          "type": "string"
        },
        {
          "internalType": "address",
          "name": "imxMinter_",
          "type": "address"
        }
      ],
      "name": "initialize",
      "outputs": [],
      "stateMutability": "nonpayable",
      "type": "function"
    },
    {
      "inputs": [
        {
          "internalType": "address",
          "name": "owner",
          "type": "address"
        },
        {
          "internalType": "address",
          "name": "operator",
          "type": "address"
        }
      ],
      "name": "isApprovedForAll",
      "outputs": [
        {
          "internalType": "bool",
          "name": "",
          "type": "bool"
        }
      ],
      "stateMutability": "view",
      "type": "function"
    },
    {
      "inputs": [
        {
          "internalType": "uint256",
          "name": "",
          "type": "uint256"
        }
      ],
      "name": "metadata",
      "outputs": [
        {
          "internalType": "bool",
          "name": "initialized",
          "type": "bool"
        },
        {
          "internalType": "enum BoxType",
          "name": "boxType",
          "type": "uint8"
        },
        {
          "internalType": "uint8",
          "name": "tier",
          "type": "uint8"
        },
        {
          "internalType": "enum AccessoryType",
          "name": "accessoryType",
          "type": "uint8"
        }
      ],
      "stateMutability": "view",
      "type": "function"
    },
    {
      "inputs": [
        {
          "internalType": "address",
          "name": "to",
          "type": "address"
        },
        {
          "internalType": "uint256",
          "name": "quantity",
          "type": "uint256"
        },
        {
          "internalType": "bytes",
          "name": "mintingBlob",
          "type": "bytes"
        }
      ],
      "name": "mintFor",
      "outputs": [],
      "stateMutability": "nonpayable",
      "type": "function"
    },
    {
      "inputs": [],
      "name": "name",
      "outputs": [
        {
          "internalType": "string",
          "name": "",
          "type": "string"
        }
      ],
      "stateMutability": "view",
      "type": "function"
    },
    {
      "inputs": [],
      "name": "owner",
      "outputs": [
        {
          "internalType": "address",
          "name": "",
          "type": "address"
        }
      ],
      "stateMutability": "view",
      "type": "function"
    },
    {
      "inputs": [
        {
          "internalType": "uint256",
          "name": "tokenId",
          "type": "uint256"
        }
      ],
      "name": "ownerOf",
      "outputs": [
        {
          "internalType": "address",
          "name": "",
          "type": "address"
        }
      ],
      "stateMutability": "view",
      "type": "function"
    },
    {
      "inputs": [],
      "name": "renounceOwnership",
      "outputs": [],
      "stateMutability": "nonpayable",
      "type": "function"
    },
    {
      "inputs": [
        {
          "internalType": "address",
          "name": "from",
          "type": "address"
        },
        {
          "internalType": "address",
          "name": "to",
          "type": "address"
        },
        {
          "internalType": "uint256",
          "name": "tokenId",
          "type": "uint256"
        }
      ],
      "name": "safeTransferFrom",
      "outputs": [],
      "stateMutability": "nonpayable",
      "type": "function"
    },
    {
      "inputs": [
        {
          "internalType": "address",
          "name": "from",
          "type": "address"
        },
        {
          "internalType": "address",
          "name": "to",
          "type": "address"
        },
        {
          "internalType": "uint256",
          "name": "tokenId",
          "type": "uint256"
        },
        {
          "internalType": "bytes",
          "name": "_data",
          "type": "bytes"
        }
      ],
      "name": "safeTransferFrom",
      "outputs": [],
      "stateMutability": "nonpayable",
      "type": "function"
    },
    {
      "inputs": [
        {
          "internalType": "address",
          "name": "operator",
          "type": "address"
        },
        {
          "internalType": "bool",
          "name": "approved",
          "type": "bool"
        }
      ],
      "name": "setApprovalForAll",
      "outputs": [],
      "stateMutability": "nonpayable",
      "type": "function"
    },
    {
      "inputs": [
        {
          "internalType": "string",
          "name": "_baseUri_",
          "type": "string"
        }
      ],
      "name": "setBaseUri",
      "outputs": [],
      "stateMutability": "nonpayable",
      "type": "function"
    },
    {
      "inputs": [
        {
          "internalType": "bytes4",
          "name": "interfaceId",
          "type": "bytes4"
        }
      ],
      "name": "supportsInterface",
      "outputs": [
        {
          "internalType": "bool",
          "name": "",
          "type": "bool"
        }
      ],
      "stateMutability": "view",
      "type": "function"
    },
    {
      "inputs": [],
      "name": "symbol",
      "outputs": [
        {
          "internalType": "string",
          "name": "",
          "type": "string"
        }
      ],
      "stateMutability": "view",
      "type": "function"
    },
    {
      "inputs": [
        {
          "internalType": "uint256",
          "name": "index",
          "type": "uint256"
        }
      ],
      "name": "tokenByIndex",
      "outputs": [
        {
          "internalType": "uint256",
          "name": "",
          "type": "uint256"
        }
      ],
      "stateMutability": "view",
      "type": "function"
    },
    {
      "inputs": [
        {
          "internalType": "address",
          "name": "owner",
          "type": "address"
        },
        {
          "internalType": "uint256",
          "name": "index",
          "type": "uint256"
        }
      ],
      "name": "tokenOfOwnerByIndex",
      "outputs": [
        {
          "internalType": "uint256",
          "name": "",
          "type": "uint256"
        }
      ],
      "stateMutability": "view",
      "type": "function"
    },
    {
      "inputs": [
        {
          "internalType": "uint256",
          "name": "tokenId",
          "type": "uint256"
        }
      ],
      "name": "tokenURI",
      "outputs": [
        {
          "internalType": "string",
          "name": "",
          "type": "string"
        }
      ],
      "stateMutability": "view",
      "type": "function"
    },
    {
      "inputs": [],
      "name": "totalSupply",
      "outputs": [
        {
          "internalType": "uint256",
          "name": "",
          "type": "uint256"
        }
      ],
      "stateMutability": "view",
      "type": "function"
    },
    {
      "inputs": [
        {
          "internalType": "address",
          "name": "from",
          "type": "address"
        },
        {
          "internalType": "address",
          "name": "to",
          "type": "address"
        },
        {
          "internalType": "uint256",
          "name": "tokenId",
          "type": "uint256"
        }
      ],
      "name": "transferFrom",
      "outputs": [],
      "stateMutability": "nonpayable",
      "type": "function"
    },
    {
      "inputs": [
        {
          "internalType": "address",
          "name": "newOwner",
          "type": "address"
        }
      ],
      "name": "transferOwnership",
      "outputs": [],
      "stateMutability": "nonpayable",
      "type": "function"
    }
  ],
  "transactionHash": "0x2e5c9cacb6b5e732bb13a3f2c7e76b7c402eca4d3e22d5ca6253d5a894665422",
  "args": [],
  "numDeployments": 1,
  "solcInputHash": "9bdc976d344bc2eb84329ce4b7643821",
  "bytecode": "0x608060405234801561001057600080fd5b506127af806100206000396000f3fe608060405234801561001057600080fd5b50600436106101585760003560e01c806370a08231116100c3578063b88d4fde1161007c578063b88d4fde146102cb578063c87b56dd146102de578063e3684e39146102f1578063e985e9c514610340578063f2fde38b1461037c578063fb91a7d21461038f57600080fd5b806370a0823114610271578063715018a6146102845780638da5cb5b1461028c57806395d89b411461029d578063a0bcfc7f146102a5578063a22cb465146102b857600080fd5b806319ee6e3f1161011557806319ee6e3f146101ff57806323b872dd146102125780632f745c591461022557806342842e0e146102385780634f6ccce71461024b5780636352211e1461025e57600080fd5b806301ffc9a71461015d57806306fdde0314610185578063077f224a1461019a578063081812fc146101af578063095ea7b3146101da57806318160ddd146101ed575b600080fd5b61017061016b366004611fa9565b6103a2565b60405190151581526020015b60405180910390f35b61018d6103cd565b60405161017c919061201e565b6101ad6101a83660046120f9565b61045f565b005b6101c26101bd36600461216d565b6104e2565b6040516001600160a01b03909116815260200161017c565b6101ad6101e8366004612186565b610577565b6099545b60405190815260200161017c565b6101ad61020d3660046121b0565b61068d565b6101ad610220366004612237565b610745565b6101f1610233366004612186565b610776565b6101ad610246366004612237565b61080c565b6101f161025936600461216d565b610827565b6101c261026c36600461216d565b6108ba565b6101f161027f366004612273565b610931565b6101ad6109b8565b60c9546001600160a01b03166101c2565b61018d6109ee565b6101ad6102b336600461228e565b6109fd565b6101ad6102c63660046122c3565b610a75565b6101ad6102d93660046122ff565b610a84565b61018d6102ec36600461216d565b610ab6565b6103306102ff36600461216d565b60fd6020526000908152604090205460ff808216916101008104821691620100008204811691630100000090041684565b60405161017c9493929190612391565b61017061034e3660046123d8565b6001600160a01b039182166000908152606a6020908152604080832093909416825291909152205460ff1690565b6101ad61038a366004612273565b610b91565b60fb546101c2906001600160a01b031681565b60006001600160e01b0319821663780e9d6360e01b14806103c757506103c782610c2c565b92915050565b6060606580546103dc9061240b565b80601f01602080910402602001604051908101604052809291908181526020018280546104089061240b565b80156104555780601f1061042a57610100808354040283529160200191610455565b820191906000526020600020905b81548152906001019060200180831161043857829003601f168201915b5050505050905090565b600054610100900460ff1680610478575060005460ff16155b61049d5760405162461bcd60e51b815260040161049490612446565b60405180910390fd5b600054610100900460ff161580156104bf576000805461ffff19166101011790555b6104ca848484610c7c565b80156104dc576000805461ff00191690555b50505050565b6000818152606760205260408120546001600160a01b031661055b5760405162461bcd60e51b815260206004820152602c60248201527f4552433732313a20617070726f76656420717565727920666f72206e6f6e657860448201526b34b9ba32b73a103a37b5b2b760a11b6064820152608401610494565b506000908152606960205260409020546001600160a01b031690565b6000610582826108ba565b9050806001600160a01b0316836001600160a01b031614156105f05760405162461bcd60e51b815260206004820152602160248201527f4552433732313a20617070726f76616c20746f2063757272656e74206f776e656044820152603960f91b6064820152608401610494565b336001600160a01b038216148061060c575061060c813361034e565b61067e5760405162461bcd60e51b815260206004820152603860248201527f4552433732313a20617070726f76652063616c6c6572206973206e6f74206f7760448201527f6e6572206e6f7220617070726f76656420666f7220616c6c00000000000000006064820152608401610494565b6106888383610d6a565b505050565b826001146106d05760405162461bcd60e51b815260206004820152601060248201526f416d6f756e74206d757374206265203160801b6044820152606401610494565b60fb546001600160a01b031633146107215760405162461bcd60e51b815260206004820152601460248201527331b0b63632b91034b9903737ba1036b4b73a32b960611b6044820152606401610494565b60008061072e8484610dd8565b9150915061073d868383610f93565b505050505050565b61074f33826110c7565b61076b5760405162461bcd60e51b815260040161049490612494565b6106888383836111be565b600061078183610931565b82106107e35760405162461bcd60e51b815260206004820152602b60248201527f455243373231456e756d657261626c653a206f776e657220696e646578206f7560448201526a74206f6620626f756e647360a81b6064820152608401610494565b506001600160a01b03919091166000908152609760209081526040808320938352929052205490565b61068883838360405180602001604052806000815250610a84565b600061083260995490565b82106108955760405162461bcd60e51b815260206004820152602c60248201527f455243373231456e756d657261626c653a20676c6f62616c20696e646578206f60448201526b7574206f6620626f756e647360a01b6064820152608401610494565b609982815481106108a8576108a86124e5565b90600052602060002001549050919050565b6000818152606760205260408120546001600160a01b0316806103c75760405162461bcd60e51b815260206004820152602960248201527f4552433732313a206f776e657220717565727920666f72206e6f6e657869737460448201526832b73a103a37b5b2b760b91b6064820152608401610494565b60006001600160a01b03821661099c5760405162461bcd60e51b815260206004820152602a60248201527f4552433732313a2062616c616e636520717565727920666f7220746865207a65604482015269726f206164647265737360b01b6064820152608401610494565b506001600160a01b031660009081526068602052604090205490565b60c9546001600160a01b031633146109e25760405162461bcd60e51b8152600401610494906124fb565b6109ec6000611369565b565b6060606680546103dc9061240b565b60c9546001600160a01b03163314610a275760405162461bcd60e51b8152600401610494906124fb565b8051610a3a9060fc906020840190611efa565b507f24a9152dc695ecc801ad580886331ee12d7aac0fa2ae341a5ae3c2ccae36cb4f81604051610a6a919061201e565b60405180910390a150565b610a803383836113bb565b5050565b610a8e33836110c7565b610aaa5760405162461bcd60e51b815260040161049490612494565b6104dc8484848461148a565b6000818152606760205260409020546060906001600160a01b0316610b355760405162461bcd60e51b815260206004820152602f60248201527f4552433732314d657461646174613a2055524920717565727920666f72206e6f60448201526e3732bc34b9ba32b73a103a37b5b2b760891b6064820152608401610494565b6000610b3f6114bd565b90506000815111610b5f5760405180602001604052806000815250610b8a565b80610b69846114cc565b604051602001610b7a929190612530565b6040516020818303038152906040525b9392505050565b60c9546001600160a01b03163314610bbb5760405162461bcd60e51b8152600401610494906124fb565b6001600160a01b038116610c205760405162461bcd60e51b815260206004820152602660248201527f4f776e61626c653a206e6577206f776e657220697320746865207a65726f206160448201526564647265737360d01b6064820152608401610494565b610c2981611369565b50565b60006001600160e01b031982166380ac58cd60e01b1480610c5d57506001600160e01b03198216635b5e139f60e01b145b806103c757506301ffc9a760e01b6001600160e01b03198316146103c7565b600054610100900460ff1680610c95575060005460ff16155b610cb15760405162461bcd60e51b815260040161049490612446565b600054610100900460ff16158015610cd3576000805461ffff19166101011790555b610cdd84846115ca565b610ce5611651565b610ced6116d4565b6001600160a01b038216610d385760405162461bcd60e51b81526020600482015260126024820152714d696e7465722063616e6e6f74207a65726f60701b6044820152606401610494565b60fb80546001600160a01b0319166001600160a01b03841617905580156104dc576000805461ff001916905550505050565b600081815260696020526040902080546001600160a01b0319166001600160a01b0384169081179091558190610d9f826108ba565b6001600160a01b03167f8c5be1e5ebec7d5bd14f71427d1e84f3dd0314c0f7b2291e5b200ac8c7c3b92560405160405180910390a45050565b600060606000610e3685858080601f01602080910402602001604051908101604052809392919081815260200183838082843760009201829052506040805180820190915260018152601d60f91b60208201529350915061173b9050565b90506000811215610e805760405162461bcd60e51b815260206004820152601460248201527314d95c185c985d1bdc881b5d5cdd08195e1a5cdd60621b6044820152606401610494565b6000610eda86600187610e938287612575565b92610ea09392919061258c565b8080601f0160208091040260200160405190810160405280939291908181526020018383808284376000920191909152506117d392505050565b905060006003610eea8488612575565b610ef49190612575565b905080610f1857816040518060200160405280600081525094509450505050610f8c565b3660008888610f288760026125b6565b90610f3460018c612575565b92610f419392919061258c565b9150915083828281818080601f016020809104026020016040519081016040528093929190818152602001838380828437600092019190915250959c50919a50505050505050505050505b9250929050565b610f9d83836118ab565b600082815260fd602052604090205460ff1661068857600080600083806020019051810190610fcc91906125ce565b9250925092506040518060800160405280600115158152602001846005811115610ff857610ff861237b565b81526020018360ff1681526020018260048111156110185761101861237b565b9052600086815260fd602090815260409091208251815490151560ff19821681178355928401519192839161ff001990911661ffff19909116176101008360058111156110675761106761237b565b02179055506040820151815460ff909116620100000262ff000019821681178355606084015191839163ff000000191663ffff0000199091161763010000008360048111156110b8576110b861237b565b02179055505050505050505050565b6000818152606760205260408120546001600160a01b03166111405760405162461bcd60e51b815260206004820152602c60248201527f4552433732313a206f70657261746f7220717565727920666f72206e6f6e657860448201526b34b9ba32b73a103a37b5b2b760a11b6064820152608401610494565b600061114b836108ba565b9050806001600160a01b0316846001600160a01b031614806111865750836001600160a01b031661117b846104e2565b6001600160a01b0316145b806111b657506001600160a01b038082166000908152606a602090815260408083209388168352929052205460ff165b949350505050565b826001600160a01b03166111d1826108ba565b6001600160a01b0316146112395760405162461bcd60e51b815260206004820152602960248201527f4552433732313a207472616e73666572206f6620746f6b656e2074686174206960448201526839903737ba1037bbb760b91b6064820152608401610494565b6001600160a01b03821661129b5760405162461bcd60e51b8152602060048201526024808201527f4552433732313a207472616e7366657220746f20746865207a65726f206164646044820152637265737360e01b6064820152608401610494565b6112a68383836118c5565b6112b1600082610d6a565b6001600160a01b03831660009081526068602052604081208054600192906112da908490612575565b90915550506001600160a01b03821660009081526068602052604081208054600192906113089084906125b6565b909155505060008181526067602052604080822080546001600160a01b0319166001600160a01b0386811691821790925591518493918716917fddf252ad1be2c89b69c2b068fc378daa952ba7f163c4a11628f55a4df523b3ef91a4505050565b60c980546001600160a01b038381166001600160a01b0319831681179093556040519116919082907f8be0079c531659141344cd1fd0a4f28419497f9722a3daafe3b4186f6b6457e090600090a35050565b816001600160a01b0316836001600160a01b0316141561141d5760405162461bcd60e51b815260206004820152601960248201527f4552433732313a20617070726f766520746f2063616c6c6572000000000000006044820152606401610494565b6001600160a01b038381166000818152606a6020908152604080832094871680845294825291829020805460ff191686151590811790915591519182527f17307eab39ab6107e8899845ad3d59bd9653f200f220920489ca2b5937696c31910160405180910390a3505050565b6114958484846111be565b6114a18484848461197d565b6104dc5760405162461bcd60e51b815260040161049490612629565b606060fc80546103dc9061240b565b6060816114f05750506040805180820190915260018152600360fc1b602082015290565b8160005b811561151a57806115048161267b565b91506115139050600a836126ac565b91506114f4565b60008167ffffffffffffffff81111561153557611535612031565b6040519080825280601f01601f19166020018201604052801561155f576020820181803683370190505b5090505b84156111b657611574600183612575565b9150611581600a866126c0565b61158c9060306125b6565b60f81b8183815181106115a1576115a16124e5565b60200101906001600160f81b031916908160001a9053506115c3600a866126ac565b9450611563565b600054610100900460ff16806115e3575060005460ff16155b6115ff5760405162461bcd60e51b815260040161049490612446565b600054610100900460ff16158015611621576000805461ffff19166101011790555b611629611a8a565b611631611a8a565b61163b8383611af4565b8015610688576000805461ff0019169055505050565b600054610100900460ff168061166a575060005460ff16155b6116865760405162461bcd60e51b815260040161049490612446565b600054610100900460ff161580156116a8576000805461ffff19166101011790555b6116b0611a8a565b6116b8611a8a565b6116c0611a8a565b8015610c29576000805461ff001916905550565b600054610100900460ff16806116ed575060005460ff16155b6117095760405162461bcd60e51b815260040161049490612446565b600054610100900460ff1615801561172b576000805461ffff19166101011790555b611733611a8a565b6116c0611b89565b81516000908390600114611751576117516126d4565b825b85518110156117c6578160008151811061176f5761176f6124e5565b602001015160f81c60f81b6001600160f81b031916868281518110611796576117966124e5565b01602001516001600160f81b03191614156117b4579150610b8a9050565b806117be8161267b565b915050611753565b5060001995945050505050565b600080805b83518110156118a45760008482815181106117f5576117f56124e5565b016020015160f81c905060308110801590611811575060398111155b1561183d57611821603082612575565b61182c84600a6126ea565b61183691906125b6565b9250611891565b60405162461bcd60e51b815260206004820152602360248201527f696e76616c696420696e7075742c206f6e6c79206e756d6265727320616c6c6f6044820152621dd95960ea1b6064820152608401610494565b508061189c8161267b565b9150506117d8565b5092915050565b610a80828260405180602001604052806000815250611be9565b6001600160a01b0383166119205761191b81609980546000838152609a60205260408120829055600182018355919091527f72a152ddfb8e864297c917af52ea6c1c68aead0fee1a62673fcc7e0c94979d000155565b611943565b816001600160a01b0316836001600160a01b031614611943576119438382611c1c565b6001600160a01b03821661195a5761068881611cb9565b826001600160a01b0316826001600160a01b031614610688576106888282611d68565b60006001600160a01b0384163b15611a7f57604051630a85bd0160e11b81526001600160a01b0385169063150b7a02906119c1903390899088908890600401612709565b602060405180830381600087803b1580156119db57600080fd5b505af1925050508015611a0b575060408051601f3d908101601f19168201909252611a0891810190612746565b60015b611a65573d808015611a39576040519150601f19603f3d011682016040523d82523d6000602084013e611a3e565b606091505b508051611a5d5760405162461bcd60e51b815260040161049490612629565b805181602001fd5b6001600160e01b031916630a85bd0160e11b1490506111b6565b506001949350505050565b600054610100900460ff1680611aa3575060005460ff16155b611abf5760405162461bcd60e51b815260040161049490612446565b600054610100900460ff161580156116c0576000805461ffff19166101011790558015610c29576000805461ff001916905550565b600054610100900460ff1680611b0d575060005460ff16155b611b295760405162461bcd60e51b815260040161049490612446565b600054610100900460ff16158015611b4b576000805461ffff19166101011790555b8251611b5e906065906020860190611efa565b508151611b72906066906020850190611efa565b508015610688576000805461ff0019169055505050565b600054610100900460ff1680611ba2575060005460ff16155b611bbe5760405162461bcd60e51b815260040161049490612446565b600054610100900460ff16158015611be0576000805461ffff19166101011790555b6116c033611369565b611bf38383611dac565b611c00600084848461197d565b6106885760405162461bcd60e51b815260040161049490612629565b60006001611c2984610931565b611c339190612575565b600083815260986020526040902054909150808214611c86576001600160a01b03841660009081526097602090815260408083208584528252808320548484528184208190558352609890915290208190555b5060009182526098602090815260408084208490556001600160a01b039094168352609781528383209183525290812055565b609954600090611ccb90600190612575565b6000838152609a602052604081205460998054939450909284908110611cf357611cf36124e5565b906000526020600020015490508060998381548110611d1457611d146124e5565b6000918252602080832090910192909255828152609a90915260408082208490558582528120556099805480611d4c57611d4c612763565b6001900381819060005260206000200160009055905550505050565b6000611d7383610931565b6001600160a01b039093166000908152609760209081526040808320868452825280832085905593825260989052919091209190915550565b6001600160a01b038216611e025760405162461bcd60e51b815260206004820181905260248201527f4552433732313a206d696e7420746f20746865207a65726f20616464726573736044820152606401610494565b6000818152606760205260409020546001600160a01b031615611e675760405162461bcd60e51b815260206004820152601c60248201527f4552433732313a20746f6b656e20616c7265616479206d696e746564000000006044820152606401610494565b611e73600083836118c5565b6001600160a01b0382166000908152606860205260408120805460019290611e9c9084906125b6565b909155505060008181526067602052604080822080546001600160a01b0319166001600160a01b03861690811790915590518392907fddf252ad1be2c89b69c2b068fc378daa952ba7f163c4a11628f55a4df523b3ef908290a45050565b828054611f069061240b565b90600052602060002090601f016020900481019282611f285760008555611f6e565b82601f10611f4157805160ff1916838001178555611f6e565b82800160010185558215611f6e579182015b82811115611f6e578251825591602001919060010190611f53565b50611f7a929150611f7e565b5090565b5b80821115611f7a5760008155600101611f7f565b6001600160e01b031981168114610c2957600080fd5b600060208284031215611fbb57600080fd5b8135610b8a81611f93565b60005b83811015611fe1578181015183820152602001611fc9565b838111156104dc5750506000910152565b6000815180845261200a816020860160208601611fc6565b601f01601f19169290920160200192915050565b602081526000610b8a6020830184611ff2565b634e487b7160e01b600052604160045260246000fd5b600067ffffffffffffffff8084111561206257612062612031565b604051601f8501601f19908116603f0116810190828211818310171561208a5761208a612031565b816040528093508581528686860111156120a357600080fd5b858560208301376000602087830101525050509392505050565b600082601f8301126120ce57600080fd5b610b8a83833560208501612047565b80356001600160a01b03811681146120f457600080fd5b919050565b60008060006060848603121561210e57600080fd5b833567ffffffffffffffff8082111561212657600080fd5b612132878388016120bd565b9450602086013591508082111561214857600080fd5b50612155868287016120bd565b925050612164604085016120dd565b90509250925092565b60006020828403121561217f57600080fd5b5035919050565b6000806040838503121561219957600080fd5b6121a2836120dd565b946020939093013593505050565b600080600080606085870312156121c657600080fd5b6121cf856120dd565b935060208501359250604085013567ffffffffffffffff808211156121f357600080fd5b818701915087601f83011261220757600080fd5b81358181111561221657600080fd5b88602082850101111561222857600080fd5b95989497505060200194505050565b60008060006060848603121561224c57600080fd5b612255846120dd565b9250612263602085016120dd565b9150604084013590509250925092565b60006020828403121561228557600080fd5b610b8a826120dd565b6000602082840312156122a057600080fd5b813567ffffffffffffffff8111156122b757600080fd5b6111b6848285016120bd565b600080604083850312156122d657600080fd5b6122df836120dd565b9150602083013580151581146122f457600080fd5b809150509250929050565b6000806000806080858703121561231557600080fd5b61231e856120dd565b935061232c602086016120dd565b925060408501359150606085013567ffffffffffffffff81111561234f57600080fd5b8501601f8101871361236057600080fd5b61236f87823560208401612047565b91505092959194509250565b634e487b7160e01b600052602160045260246000fd5b841515815260808101600685106123aa576123aa61237b565b84602083015260ff84166040830152600583106123c9576123c961237b565b82606083015295945050505050565b600080604083850312156123eb57600080fd5b6123f4836120dd565b9150612402602084016120dd565b90509250929050565b600181811c9082168061241f57607f821691505b6020821081141561244057634e487b7160e01b600052602260045260246000fd5b50919050565b6020808252602e908201527f496e697469616c697a61626c653a20636f6e747261637420697320616c72656160408201526d191e481a5b9a5d1a585b1a5e995960921b606082015260800190565b60208082526031908201527f4552433732313a207472616e736665722063616c6c6572206973206e6f74206f6040820152701ddb995c881b9bdc88185c1c1c9bdd9959607a1b606082015260800190565b634e487b7160e01b600052603260045260246000fd5b6020808252818101527f4f776e61626c653a2063616c6c6572206973206e6f7420746865206f776e6572604082015260600190565b60008351612542818460208801611fc6565b835190830190612556818360208801611fc6565b01949350505050565b634e487b7160e01b600052601160045260246000fd5b6000828210156125875761258761255f565b500390565b6000808585111561259c57600080fd5b838611156125a957600080fd5b5050820193919092039150565b600082198211156125c9576125c961255f565b500190565b6000806000606084860312156125e357600080fd5b8351600681106125f257600080fd5b602085015190935060ff8116811461260957600080fd5b60408501519092506005811061261e57600080fd5b809150509250925092565b60208082526032908201527f4552433732313a207472616e7366657220746f206e6f6e20455243373231526560408201527131b2b4bb32b91034b6b83632b6b2b73a32b960711b606082015260800190565b600060001982141561268f5761268f61255f565b5060010190565b634e487b7160e01b600052601260045260246000fd5b6000826126bb576126bb612696565b500490565b6000826126cf576126cf612696565b500690565b634e487b7160e01b600052600160045260246000fd5b60008160001904831182151516156127045761270461255f565b500290565b6001600160a01b038581168252841660208201526040810183905260806060820181905260009061273c90830184611ff2565b9695505050505050565b60006020828403121561275857600080fd5b8151610b8a81611f93565b634e487b7160e01b600052603160045260246000fdfea2646970667358221220b72c75aea1ba07d8f88799850790aed8b545e39c317023563e68e2c380425eb064736f6c63430008090033",
  "devdoc": {
    "author": "Dmitry Yakovlevich",
    "kind": "dev",
    "methods": {
      "approve(address,uint256)": {
        "details": "See {IERC721-approve}."
      },
      "balanceOf(address)": {
        "details": "See {IERC721-balanceOf}."
      },
      "getApproved(uint256)": {
        "details": "See {IERC721-getApproved}."
      },
      "initialize(string,string,address)": {
        "params": {
          "imxMinter_": "NFT Minter Address.",
          "name_": "NFT Name.",
          "symbol_": "NFT Symbol."
        }
      },
      "isApprovedForAll(address,address)": {
        "details": "See {IERC721-isApprovedForAll}."
      },
      "name()": {
        "details": "See {IERC721Metadata-name}."
      },
      "owner()": {
        "details": "Returns the address of the current owner."
      },
      "ownerOf(uint256)": {
        "details": "See {IERC721-ownerOf}."
      },
      "renounceOwnership()": {
        "details": "Leaves the contract without owner. It will not be possible to call `onlyOwner` functions anymore. Can only be called by the current owner. NOTE: Renouncing ownership will leave the contract without an owner, thereby removing any functionality that is only available to the owner."
      },
      "safeTransferFrom(address,address,uint256)": {
        "details": "See {IERC721-safeTransferFrom}."
      },
      "safeTransferFrom(address,address,uint256,bytes)": {
        "details": "See {IERC721-safeTransferFrom}."
      },
      "setApprovalForAll(address,bool)": {
        "details": "See {IERC721-setApprovalForAll}."
      },
      "setBaseUri(string)": {
        "details": "only owner can call this function.",
        "params": {
          "_baseUri_": "base URI."
        }
      },
      "supportsInterface(bytes4)": {
        "details": "See {IERC165-supportsInterface}."
      },
      "symbol()": {
        "details": "See {IERC721Metadata-symbol}."
      },
      "tokenByIndex(uint256)": {
        "details": "See {IERC721Enumerable-tokenByIndex}."
      },
      "tokenOfOwnerByIndex(address,uint256)": {
        "details": "See {IERC721Enumerable-tokenOfOwnerByIndex}."
      },
      "tokenURI(uint256)": {
        "details": "See {IERC721Metadata-tokenURI}."
      },
      "totalSupply()": {
        "details": "See {IERC721Enumerable-totalSupply}."
      },
      "transferFrom(address,address,uint256)": {
        "details": "See {IERC721-transferFrom}."
      },
      "transferOwnership(address)": {
        "details": "Transfers ownership of the contract to a new account (`newOwner`). Can only be called by the current owner."
      }
    },
    "title": "AccessoryLayer, this contract is inherited from BaseIlluvitar contract, this will be deployed four times for different accessories(EYE, BODY, MOUTH, HEAD).",
    "version": 1
  },
  "userdoc": {
    "events": {
      "BaseUriUpdated(string)": {
        "notice": "event emitted when base URI is set."
      }
    },
    "kind": "user",
    "methods": {
      "initialize(string,string,address)": {
        "notice": "Initialize Accessory NFT."
      },
      "setBaseUri(string)": {
        "notice": "Set base URI"
      }
    },
    "version": 1
  },
  "storageLayout": {
    "storage": [
      {
        "astId": 756,
        "contract": "contracts/AccessoryLayer.sol:AccessoryLayer",
        "label": "_initialized",
        "offset": 0,
        "slot": "0",
        "type": "t_bool"
      },
      {
        "astId": 759,
        "contract": "contracts/AccessoryLayer.sol:AccessoryLayer",
        "label": "_initializing",
        "offset": 1,
        "slot": "0",
        "type": "t_bool"
      },
      {
        "astId": 2503,
        "contract": "contracts/AccessoryLayer.sol:AccessoryLayer",
        "label": "__gap",
        "offset": 0,
        "slot": "1",
        "type": "t_array(t_uint256)50_storage"
      },
      {
        "astId": 2752,
        "contract": "contracts/AccessoryLayer.sol:AccessoryLayer",
        "label": "__gap",
        "offset": 0,
        "slot": "51",
        "type": "t_array(t_uint256)50_storage"
      },
      {
        "astId": 825,
        "contract": "contracts/AccessoryLayer.sol:AccessoryLayer",
        "label": "_name",
        "offset": 0,
        "slot": "101",
        "type": "t_string_storage"
      },
      {
        "astId": 827,
        "contract": "contracts/AccessoryLayer.sol:AccessoryLayer",
        "label": "_symbol",
        "offset": 0,
        "slot": "102",
        "type": "t_string_storage"
      },
      {
        "astId": 831,
        "contract": "contracts/AccessoryLayer.sol:AccessoryLayer",
        "label": "_owners",
        "offset": 0,
        "slot": "103",
        "type": "t_mapping(t_uint256,t_address)"
      },
      {
        "astId": 835,
        "contract": "contracts/AccessoryLayer.sol:AccessoryLayer",
        "label": "_balances",
        "offset": 0,
        "slot": "104",
        "type": "t_mapping(t_address,t_uint256)"
      },
      {
        "astId": 839,
        "contract": "contracts/AccessoryLayer.sol:AccessoryLayer",
        "label": "_tokenApprovals",
        "offset": 0,
        "slot": "105",
        "type": "t_mapping(t_uint256,t_address)"
      },
      {
        "astId": 845,
        "contract": "contracts/AccessoryLayer.sol:AccessoryLayer",
        "label": "_operatorApprovals",
        "offset": 0,
        "slot": "106",
        "type": "t_mapping(t_address,t_mapping(t_address,t_bool))"
      },
      {
        "astId": 1656,
        "contract": "contracts/AccessoryLayer.sol:AccessoryLayer",
        "label": "__gap",
        "offset": 0,
        "slot": "107",
        "type": "t_array(t_uint256)44_storage"
      },
      {
        "astId": 1830,
        "contract": "contracts/AccessoryLayer.sol:AccessoryLayer",
        "label": "_ownedTokens",
        "offset": 0,
        "slot": "151",
        "type": "t_mapping(t_address,t_mapping(t_uint256,t_uint256))"
      },
      {
        "astId": 1834,
        "contract": "contracts/AccessoryLayer.sol:AccessoryLayer",
        "label": "_ownedTokensIndex",
        "offset": 0,
        "slot": "152",
        "type": "t_mapping(t_uint256,t_uint256)"
      },
      {
        "astId": 1837,
        "contract": "contracts/AccessoryLayer.sol:AccessoryLayer",
        "label": "_allTokens",
        "offset": 0,
        "slot": "153",
        "type": "t_array(t_uint256)dyn_storage"
      },
      {
        "astId": 1841,
        "contract": "contracts/AccessoryLayer.sol:AccessoryLayer",
        "label": "_allTokensIndex",
        "offset": 0,
        "slot": "154",
        "type": "t_mapping(t_uint256,t_uint256)"
      },
      {
        "astId": 2156,
        "contract": "contracts/AccessoryLayer.sol:AccessoryLayer",
        "label": "__gap",
        "offset": 0,
        "slot": "155",
        "type": "t_array(t_uint256)46_storage"
      },
      {
        "astId": 635,
        "contract": "contracts/AccessoryLayer.sol:AccessoryLayer",
        "label": "_owner",
        "offset": 0,
        "slot": "201",
        "type": "t_address"
      },
      {
        "astId": 749,
        "contract": "contracts/AccessoryLayer.sol:AccessoryLayer",
        "label": "__gap",
        "offset": 0,
        "slot": "202",
        "type": "t_array(t_uint256)49_storage"
      },
      {
        "astId": 4430,
        "contract": "contracts/AccessoryLayer.sol:AccessoryLayer",
        "label": "imxMinter",
        "offset": 0,
        "slot": "251",
        "type": "t_address"
      },
      {
        "astId": 4432,
        "contract": "contracts/AccessoryLayer.sol:AccessoryLayer",
        "label": "__baseUri",
        "offset": 0,
        "slot": "252",
        "type": "t_string_storage"
      },
      {
        "astId": 4338,
        "contract": "contracts/AccessoryLayer.sol:AccessoryLayer",
        "label": "metadata",
        "offset": 0,
        "slot": "253",
        "type": "t_mapping(t_uint256,t_struct(Metadata)4333_storage)"
      }
    ],
    "types": {
      "t_address": {
        "encoding": "inplace",
        "label": "address",
        "numberOfBytes": "20"
      },
      "t_array(t_uint256)44_storage": {
        "base": "t_uint256",
        "encoding": "inplace",
        "label": "uint256[44]",
        "numberOfBytes": "1408"
      },
      "t_array(t_uint256)46_storage": {
        "base": "t_uint256",
        "encoding": "inplace",
        "label": "uint256[46]",
        "numberOfBytes": "1472"
      },
      "t_array(t_uint256)49_storage": {
        "base": "t_uint256",
        "encoding": "inplace",
        "label": "uint256[49]",
        "numberOfBytes": "1568"
      },
      "t_array(t_uint256)50_storage": {
        "base": "t_uint256",
        "encoding": "inplace",
        "label": "uint256[50]",
        "numberOfBytes": "1600"
      },
      "t_array(t_uint256)dyn_storage": {
        "base": "t_uint256",
        "encoding": "dynamic_array",
        "label": "uint256[]",
        "numberOfBytes": "32"
      },
      "t_bool": {
        "encoding": "inplace",
        "label": "bool",
        "numberOfBytes": "1"
      },
      "t_enum(AccessoryType)4557": {
        "encoding": "inplace",
        "label": "enum AccessoryType",
        "numberOfBytes": "1"
      },
      "t_enum(BoxType)4564": {
        "encoding": "inplace",
        "label": "enum BoxType",
        "numberOfBytes": "1"
      },
      "t_mapping(t_address,t_bool)": {
        "encoding": "mapping",
        "key": "t_address",
        "label": "mapping(address => bool)",
        "numberOfBytes": "32",
        "value": "t_bool"
      },
      "t_mapping(t_address,t_mapping(t_address,t_bool))": {
        "encoding": "mapping",
        "key": "t_address",
        "label": "mapping(address => mapping(address => bool))",
        "numberOfBytes": "32",
        "value": "t_mapping(t_address,t_bool)"
      },
      "t_mapping(t_address,t_mapping(t_uint256,t_uint256))": {
        "encoding": "mapping",
        "key": "t_address",
        "label": "mapping(address => mapping(uint256 => uint256))",
        "numberOfBytes": "32",
        "value": "t_mapping(t_uint256,t_uint256)"
      },
      "t_mapping(t_address,t_uint256)": {
        "encoding": "mapping",
        "key": "t_address",
        "label": "mapping(address => uint256)",
        "numberOfBytes": "32",
        "value": "t_uint256"
      },
      "t_mapping(t_uint256,t_address)": {
        "encoding": "mapping",
        "key": "t_uint256",
        "label": "mapping(uint256 => address)",
        "numberOfBytes": "32",
        "value": "t_address"
      },
      "t_mapping(t_uint256,t_struct(Metadata)4333_storage)": {
        "encoding": "mapping",
        "key": "t_uint256",
        "label": "mapping(uint256 => struct AccessoryLayer.Metadata)",
        "numberOfBytes": "32",
        "value": "t_struct(Metadata)4333_storage"
      },
      "t_mapping(t_uint256,t_uint256)": {
        "encoding": "mapping",
        "key": "t_uint256",
        "label": "mapping(uint256 => uint256)",
        "numberOfBytes": "32",
        "value": "t_uint256"
      },
      "t_string_storage": {
        "encoding": "bytes",
        "label": "string",
        "numberOfBytes": "32"
      },
      "t_struct(Metadata)4333_storage": {
        "encoding": "inplace",
        "label": "struct AccessoryLayer.Metadata",
        "members": [
          {
            "astId": 4324,
            "contract": "contracts/AccessoryLayer.sol:AccessoryLayer",
            "label": "initialized",
            "offset": 0,
            "slot": "0",
            "type": "t_bool"
          },
          {
            "astId": 4327,
            "contract": "contracts/AccessoryLayer.sol:AccessoryLayer",
            "label": "boxType",
            "offset": 1,
            "slot": "0",
            "type": "t_enum(BoxType)4564"
          },
          {
            "astId": 4329,
            "contract": "contracts/AccessoryLayer.sol:AccessoryLayer",
            "label": "tier",
            "offset": 2,
            "slot": "0",
            "type": "t_uint8"
          },
          {
            "astId": 4332,
            "contract": "contracts/AccessoryLayer.sol:AccessoryLayer",
            "label": "accessoryType",
            "offset": 3,
            "slot": "0",
            "type": "t_enum(AccessoryType)4557"
          }
        ],
        "numberOfBytes": "32"
      },
      "t_uint256": {
        "encoding": "inplace",
        "label": "uint256",
        "numberOfBytes": "32"
      },
      "t_uint8": {
        "encoding": "inplace",
        "label": "uint8",
        "numberOfBytes": "1"
      }
    }
  }
}