{
  "address": "0xeFc2C211040A645CFDb088b8903216EACe608158",
  "abi": [
    {
      "anonymous": false,
      "inputs": [
        {
          "indexed": false,
          "internalType": "address",
          "name": "previousAdmin",
          "type": "address"
        },
        {
          "indexed": false,
          "internalType": "address",
          "name": "newAdmin",
          "type": "address"
        }
      ],
      "name": "AdminChanged",
      "type": "event"
    },
    {
      "anonymous": false,
      "inputs": [
        {
          "indexed": true,
          "internalType": "address",
          "name": "beacon",
          "type": "address"
        }
      ],
      "name": "BeaconUpgraded",
      "type": "event"
    },
    {
      "anonymous": false,
      "inputs": [
        {
          "indexed": true,
          "internalType": "address",
          "name": "requester",
          "type": "address"
        },
        {
          "indexed": false,
          "internalType": "uint256",
          "name": "idx",
          "type": "uint256"
        }
      ],
      "name": "FreeMintRequested",
      "type": "event"
    },
    {
      "anonymous": false,
      "inputs": [
        {
          "indexed": true,
          "internalType": "address",
          "name": "requester",
          "type": "address"
        },
        {
          "indexed": false,
          "internalType": "bytes32",
          "name": "requestId",
          "type": "bytes32"
        }
      ],
      "name": "MintRequested",
      "type": "event"
    },
    {
      "anonymous": false,
      "inputs": [
        {
          "indexed": true,
          "internalType": "address",
          "name": "previousOwner",
          "type": "address"
        },
        {
          "indexed": true,
          "internalType": "address",
          "name": "newOwner",
          "type": "address"
        }
      ],
      "name": "OwnershipTransferred",
      "type": "event"
    },
    {
      "anonymous": false,
      "inputs": [
        {
          "indexed": true,
          "internalType": "bytes32",
          "name": "requestId",
          "type": "bytes32"
        },
        {
          "indexed": false,
          "internalType": "uint256",
          "name": "randomNumber",
          "type": "uint256"
        }
      ],
      "name": "RequestFulfilled",
      "type": "event"
    },
    {
      "anonymous": false,
      "inputs": [
        {
          "indexed": true,
          "internalType": "address",
          "name": "treasury",
          "type": "address"
        }
      ],
      "name": "TreasurySet",
      "type": "event"
    },
    {
      "anonymous": false,
      "inputs": [
        {
          "indexed": true,
          "internalType": "address",
          "name": "implementation",
          "type": "address"
        }
      ],
      "name": "Upgraded",
      "type": "event"
    },
    {
      "inputs": [
        {
          "internalType": "enum BoxType",
          "name": "",
          "type": "uint8"
        }
      ],
      "name": "accessoryMintInfo",
      "outputs": [
        {
          "internalType": "uint256",
          "name": "randomPrice",
          "type": "uint256"
        },
        {
          "internalType": "uint256",
          "name": "semiRandomPrice",
          "type": "uint256"
        }
      ],
      "stateMutability": "view",
      "type": "function"
    },
    {
      "inputs": [
        {
          "internalType": "uint8",
          "name": "",
          "type": "uint8"
        },
        {
          "internalType": "uint256",
          "name": "",
          "type": "uint256"
        }
      ],
      "name": "backgroundLines",
      "outputs": [
        {
          "internalType": "enum BackgroundLine",
          "name": "",
          "type": "uint8"
        }
      ],
      "stateMutability": "view",
      "type": "function"
    },
    {
      "inputs": [
        {
          "internalType": "uint8",
          "name": "",
          "type": "uint8"
        },
        {
          "internalType": "enum BackgroundLine",
          "name": "",
          "type": "uint8"
        },
        {
          "internalType": "uint256",
          "name": "",
          "type": "uint256"
        }
      ],
      "name": "backgroundStages",
      "outputs": [
        {
          "internalType": "uint8",
          "name": "",
          "type": "uint8"
        }
      ],
      "stateMutability": "view",
      "type": "function"
    },
    {
      "inputs": [
        {
          "internalType": "uint8",
          "name": "",
          "type": "uint8"
        },
        {
          "internalType": "enum BoxType",
          "name": "",
          "type": "uint8"
        },
        {
          "internalType": "uint256",
          "name": "",
          "type": "uint256"
        }
      ],
      "name": "backgroundTierChances",
      "outputs": [
        {
          "internalType": "uint16",
          "name": "",
          "type": "uint16"
        }
      ],
      "stateMutability": "view",
      "type": "function"
    },
    {
      "inputs": [
        {
          "internalType": "uint8",
          "name": "",
          "type": "uint8"
        },
        {
          "internalType": "enum BackgroundLine",
          "name": "",
          "type": "uint8"
        },
        {
          "internalType": "uint8",
          "name": "",
          "type": "uint8"
        }
      ],
      "name": "backgroundVariations",
      "outputs": [
        {
          "internalType": "uint8",
          "name": "",
          "type": "uint8"
        }
      ],
      "stateMutability": "view",
      "type": "function"
    },
    {
      "inputs": [
        {
          "components": [
            {
              "internalType": "enum BoxType",
              "name": "boxType",
              "type": "uint8"
            },
            {
              "internalType": "uint64",
              "name": "amount",
              "type": "uint64"
            }
          ],
          "internalType": "struct Minter.PortraitMintParams[]",
          "name": "portraitMintParams",
          "type": "tuple[]"
        },
        {
          "components": [
            {
              "internalType": "enum AccessoryType",
              "name": "accessoryType",
              "type": "uint8"
            },
            {
              "internalType": "enum BoxType",
              "name": "boxType",
              "type": "uint8"
            },
            {
              "internalType": "uint64",
              "name": "amount",
              "type": "uint64"
            }
          ],
          "internalType": "struct Minter.AccessorySemiRandomMintParams[]",
          "name": "accessorySemiRandomMintParams",
          "type": "tuple[]"
        },
        {
          "components": [
            {
              "internalType": "enum BoxType",
              "name": "boxType",
              "type": "uint8"
            },
            {
              "internalType": "uint64",
              "name": "amount",
              "type": "uint64"
            }
          ],
          "internalType": "struct Minter.AccessoryFullRandomMintParams[]",
          "name": "accessoryFullRandomMintParams",
          "type": "tuple[]"
        }
      ],
      "name": "freeMint",
      "outputs": [],
      "stateMutability": "nonpayable",
      "type": "function"
    },
    {
      "inputs": [],
      "name": "freeRequestCount",
      "outputs": [
        {
          "internalType": "uint256",
          "name": "",
          "type": "uint256"
        }
      ],
      "stateMutability": "view",
      "type": "function"
    },
    {
      "inputs": [
        {
          "internalType": "uint256",
          "name": "",
          "type": "uint256"
        }
      ],
      "name": "freeRequests",
      "outputs": [
        {
          "internalType": "address",
          "name": "requester",
          "type": "address"
        },
        {
          "internalType": "uint256",
          "name": "portraitAmount",
          "type": "uint256"
        },
        {
          "internalType": "uint256",
          "name": "accessoryAmount",
          "type": "uint256"
        },
        {
          "internalType": "uint256",
          "name": "randomNumber",
          "type": "uint256"
        },
        {
          "internalType": "uint256",
          "name": "portraitStartTokenId",
          "type": "uint256"
        },
        {
          "internalType": "uint256",
          "name": "accessoryStartTokenId",
          "type": "uint256"
        }
      ],
      "stateMutability": "view",
      "type": "function"
    },
    {
      "inputs": [
        {
          "internalType": "uint256",
          "name": "idx",
          "type": "uint256"
        }
      ],
      "name": "getFreeMintResult",
      "outputs": [
        {
          "internalType": "address",
          "name": "requester",
          "type": "address"
        },
        {
          "internalType": "uint256",
          "name": "seed",
          "type": "uint256"
        },
        {
          "components": [
            {
              "internalType": "uint256",
              "name": "tokenId",
              "type": "uint256"
            },
            {
              "internalType": "enum BoxType",
              "name": "boxType",
              "type": "uint8"
            },
            {
              "internalType": "uint8",
              "name": "tier",
              "type": "uint8"
            },
            {
              "internalType": "uint8",
              "name": "illuvial",
              "type": "uint8"
            },
            {
              "internalType": "uint8",
              "name": "backgroundTier",
              "type": "uint8"
            },
            {
              "internalType": "enum BackgroundLine",
              "name": "backgroundLine",
              "type": "uint8"
            },
            {
              "internalType": "uint8",
              "name": "backgroundStage",
              "type": "uint8"
            },
            {
              "internalType": "uint8",
              "name": "backgroundVariation",
              "type": "uint8"
            },
            {
              "internalType": "enum ExpressionType",
              "name": "expression",
              "type": "uint8"
            },
            {
              "internalType": "enum FinishType",
              "name": "finish",
              "type": "uint8"
            }
          ],
          "internalType": "struct Minter.PortraitInfo[]",
          "name": "portraits",
          "type": "tuple[]"
        },
        {
          "components": [
            {
              "internalType": "uint256",
              "name": "tokenId",
              "type": "uint256"
            },
            {
              "internalType": "enum BoxType",
              "name": "boxType",
              "type": "uint8"
            },
            {
              "internalType": "enum AccessoryType",
              "name": "accessoryType",
              "type": "uint8"
            },
            {
              "internalType": "uint8",
              "name": "tier",
              "type": "uint8"
            },
            {
              "internalType": "uint8",
              "name": "stage",
              "type": "uint8"
            }
          ],
          "internalType": "struct Minter.AccessoryInfo[]",
          "name": "accessories",
          "type": "tuple[]"
        }
      ],
      "stateMutability": "view",
      "type": "function"
    },
    {
      "inputs": [
        {
          "internalType": "bytes32",
          "name": "requestId",
          "type": "bytes32"
        }
      ],
      "name": "getPaidMintResult",
      "outputs": [
        {
          "internalType": "address",
          "name": "requester",
          "type": "address"
        },
        {
          "internalType": "uint256",
          "name": "seed",
          "type": "uint256"
        },
        {
          "components": [
            {
              "internalType": "uint256",
              "name": "tokenId",
              "type": "uint256"
            },
            {
              "internalType": "enum BoxType",
              "name": "boxType",
              "type": "uint8"
            },
            {
              "internalType": "uint8",
              "name": "tier",
              "type": "uint8"
            },
            {
              "internalType": "uint8",
              "name": "illuvial",
              "type": "uint8"
            },
            {
              "internalType": "uint8",
              "name": "backgroundTier",
              "type": "uint8"
            },
            {
              "internalType": "enum BackgroundLine",
              "name": "backgroundLine",
              "type": "uint8"
            },
            {
              "internalType": "uint8",
              "name": "backgroundStage",
              "type": "uint8"
            },
            {
              "internalType": "uint8",
              "name": "backgroundVariation",
              "type": "uint8"
            },
            {
              "internalType": "enum ExpressionType",
              "name": "expression",
              "type": "uint8"
            },
            {
              "internalType": "enum FinishType",
              "name": "finish",
              "type": "uint8"
            }
          ],
          "internalType": "struct Minter.PortraitInfo[]",
          "name": "portraits",
          "type": "tuple[]"
        },
        {
          "components": [
            {
              "internalType": "uint256",
              "name": "tokenId",
              "type": "uint256"
            },
            {
              "internalType": "enum BoxType",
              "name": "boxType",
              "type": "uint8"
            },
            {
              "internalType": "enum AccessoryType",
              "name": "accessoryType",
              "type": "uint8"
            },
            {
              "internalType": "uint8",
              "name": "tier",
              "type": "uint8"
            },
            {
              "internalType": "uint8",
              "name": "stage",
              "type": "uint8"
            }
          ],
          "internalType": "struct Minter.AccessoryInfo[]",
          "name": "accessories",
          "type": "tuple[]"
        }
      ],
      "stateMutability": "view",
      "type": "function"
    },
    {
      "inputs": [],
      "name": "illuvitarsPriceOracle",
      "outputs": [
        {
          "internalType": "contract IlluvitarsPriceOracle",
          "name": "",
          "type": "address"
        }
      ],
      "stateMutability": "view",
      "type": "function"
    },
    {
      "inputs": [
        {
          "internalType": "address",
          "name": "_vrfCoordinator",
          "type": "address"
        },
        {
          "internalType": "address",
          "name": "_linkToken",
          "type": "address"
        },
        {
          "internalType": "bytes32",
          "name": "_vrfKeyhash",
          "type": "bytes32"
        },
        {
          "internalType": "uint256",
          "name": "_vrfFee",
          "type": "uint256"
        },
        {
          "internalType": "address",
          "name": "_treasury",
          "type": "address"
        },
        {
          "internalType": "address",
          "name": "_sIlv",
          "type": "address"
        },
        {
          "internalType": "address",
          "name": "_illuvitarsPriceOracle",
          "type": "address"
        }
      ],
      "name": "initialize",
      "outputs": [],
      "stateMutability": "nonpayable",
      "type": "function"
    },
    {
      "inputs": [
        {
          "internalType": "bytes32",
          "name": "",
          "type": "bytes32"
        }
      ],
      "name": "mintRequests",
      "outputs": [
        {
          "internalType": "address",
          "name": "requester",
          "type": "address"
        },
        {
          "internalType": "uint256",
          "name": "portraitAmount",
          "type": "uint256"
        },
        {
          "internalType": "uint256",
          "name": "accessoryAmount",
          "type": "uint256"
        },
        {
          "internalType": "uint256",
          "name": "randomNumber",
          "type": "uint256"
        },
        {
          "internalType": "uint256",
          "name": "portraitStartTokenId",
          "type": "uint256"
        },
        {
          "internalType": "uint256",
          "name": "accessoryStartTokenId",
          "type": "uint256"
        }
      ],
      "stateMutability": "view",
      "type": "function"
    },
    {
      "inputs": [],
      "name": "owner",
      "outputs": [
        {
          "internalType": "address",
          "name": "",
          "type": "address"
        }
      ],
      "stateMutability": "view",
      "type": "function"
    },
    {
      "inputs": [
        {
          "components": [
            {
              "internalType": "enum BoxType",
              "name": "boxType",
              "type": "uint8"
            },
            {
              "internalType": "uint64",
              "name": "amount",
              "type": "uint64"
            }
          ],
          "internalType": "struct Minter.PortraitMintParams[]",
          "name": "portraitMintParams",
          "type": "tuple[]"
        },
        {
          "components": [
            {
              "internalType": "enum AccessoryType",
              "name": "accessoryType",
              "type": "uint8"
            },
            {
              "internalType": "enum BoxType",
              "name": "boxType",
              "type": "uint8"
            },
            {
              "internalType": "uint64",
              "name": "amount",
              "type": "uint64"
            }
          ],
          "internalType": "struct Minter.AccessorySemiRandomMintParams[]",
          "name": "accessorySemiRandomMintParams",
          "type": "tuple[]"
        },
        {
          "components": [
            {
              "internalType": "enum BoxType",
              "name": "boxType",
              "type": "uint8"
            },
            {
              "internalType": "uint64",
              "name": "amount",
              "type": "uint64"
            }
          ],
          "internalType": "struct Minter.AccessoryFullRandomMintParams[]",
          "name": "accessoryFullRandomMintParams",
          "type": "tuple[]"
        },
        {
          "internalType": "bool",
          "name": "useSIlv",
          "type": "bool"
        }
      ],
      "name": "paidMint",
      "outputs": [],
      "stateMutability": "payable",
      "type": "function"
    },
    {
      "inputs": [
        {
          "internalType": "enum BoxType",
          "name": "",
          "type": "uint8"
        }
      ],
      "name": "portraitMintInfo",
      "outputs": [
        {
          "internalType": "uint256",
          "name": "price",
          "type": "uint256"
        },
        {
          "internalType": "uint16",
          "name": "holoProbability",
          "type": "uint16"
        }
      ],
      "stateMutability": "view",
      "type": "function"
    },
    {
      "inputs": [],
      "name": "portraitSaleWindow",
      "outputs": [
        {
          "internalType": "uint64",
          "name": "start",
          "type": "uint64"
        },
        {
          "internalType": "uint64",
          "name": "end",
          "type": "uint64"
        }
      ],
      "stateMutability": "view",
      "type": "function"
    },
    {
      "inputs": [
        {
          "internalType": "bytes32",
          "name": "requestId",
          "type": "bytes32"
        },
        {
          "internalType": "uint256",
          "name": "randomness",
          "type": "uint256"
        }
      ],
      "name": "rawFulfillRandomness",
      "outputs": [],
      "stateMutability": "nonpayable",
      "type": "function"
    },
    {
      "inputs": [],
      "name": "renounceOwnership",
      "outputs": [],
      "stateMutability": "nonpayable",
      "type": "function"
    },
    {
      "inputs": [],
      "name": "sIlv",
      "outputs": [
        {
          "internalType": "address",
          "name": "",
          "type": "address"
        }
      ],
      "stateMutability": "view",
      "type": "function"
    },
    {
      "inputs": [
        {
          "internalType": "enum BoxType",
          "name": "boxType",
          "type": "uint8"
        },
        {
          "components": [
            {
              "internalType": "uint256",
              "name": "randomPrice",
              "type": "uint256"
            },
            {
              "internalType": "uint256",
              "name": "semiRandomPrice",
              "type": "uint256"
            },
            {
              "internalType": "uint16[4]",
              "name": "tierChances",
              "type": "uint16[4]"
            }
          ],
          "internalType": "struct Minter.AccessoryMintInfo",
          "name": "mintInfo",
          "type": "tuple"
        }
      ],
      "name": "setAccessoryMintInfo",
      "outputs": [],
      "stateMutability": "nonpayable",
      "type": "function"
    },
    {
      "inputs": [
        {
          "internalType": "enum BoxType",
          "name": "boxType",
          "type": "uint8"
        },
        {
          "components": [
            {
              "internalType": "uint256",
              "name": "price",
              "type": "uint256"
            },
            {
              "internalType": "uint16[4]",
              "name": "tierChances",
              "type": "uint16[4]"
            },
            {
              "internalType": "uint16",
              "name": "holoProbability",
              "type": "uint16"
            }
          ],
          "internalType": "struct Minter.PortraitMintInfo",
          "name": "mintInfo",
          "type": "tuple"
        }
      ],
      "name": "setPortraitMintInfo",
      "outputs": [],
      "stateMutability": "nonpayable",
      "type": "function"
    },
    {
      "inputs": [
        {
          "components": [
            {
              "internalType": "uint64",
              "name": "start",
              "type": "uint64"
            },
            {
              "internalType": "uint64",
              "name": "end",
              "type": "uint64"
            }
          ],
          "internalType": "struct Minter.SaleWindow",
          "name": "_saleWindow",
          "type": "tuple"
        }
      ],
      "name": "setPortraitSaleWindow",
      "outputs": [],
      "stateMutability": "nonpayable",
      "type": "function"
    },
    {
      "inputs": [
        {
          "internalType": "address",
          "name": "treasury_",
          "type": "address"
        }
      ],
      "name": "setTreasury",
      "outputs": [],
      "stateMutability": "nonpayable",
      "type": "function"
    },
    {
      "inputs": [
        {
          "internalType": "address",
          "name": "newOwner",
          "type": "address"
        }
      ],
      "name": "transferOwnership",
      "outputs": [],
      "stateMutability": "nonpayable",
      "type": "function"
    },
    {
      "inputs": [],
      "name": "treasury",
      "outputs": [
        {
          "internalType": "address",
          "name": "",
          "type": "address"
        }
      ],
      "stateMutability": "view",
      "type": "function"
    },
    {
      "inputs": [
        {
          "internalType": "address",
          "name": "newImplementation",
          "type": "address"
        }
      ],
      "name": "upgradeTo",
      "outputs": [],
      "stateMutability": "nonpayable",
      "type": "function"
    },
    {
      "inputs": [
        {
          "internalType": "address",
          "name": "newImplementation",
          "type": "address"
        },
        {
          "internalType": "bytes",
          "name": "data",
          "type": "bytes"
        }
      ],
      "name": "upgradeToAndCall",
      "outputs": [],
      "stateMutability": "payable",
      "type": "function"
    },
    {
      "inputs": [],
      "name": "withdraw",
      "outputs": [],
      "stateMutability": "nonpayable",
      "type": "function"
    }
  ],
  "transactionHash": "0x191af9bbbea5a599e27453b2cce75247c1e46e2a9c184bc627dabe43cc9f42d9",
  "args": [],
  "numDeployments": 1,
  "solcInputHash": "febb5bfbac67d6be77139621ca7eee92",
  "bytecode": "0x60a06040523060805234801561001457600080fd5b50608051615e5d62000046600039600081816107f10152818161083101528181610a1d0152610a5d0152615e5d6000f3fe6080604052600436106101c25760003560e01c80637a10deb4116100f7578063bcd2102911610095578063dcce80e411610064578063dcce80e414610657578063ebfedf7a14610677578063f0f44260146106aa578063f2fde38b146106ca57600080fd5b8063bcd21029146105d7578063c556f062146105f7578063c606be1b14610617578063cf1c6b041461062a57600080fd5b80638fd7adb5116100d15780638fd7adb5146104fe57806394985ddd146105475780639bc0363614610567578063ade0d7001461058757600080fd5b80637a10deb41461049c578063897c0f33146104bc5780638da5cb5b146104e057600080fd5b80634f1ef2861161016457806361d027b31161013e57806361d027b3146104275780636250b2c514610447578063715018a614610467578063717cbc851461047c57600080fd5b80634f1ef286146103ac5780635915ab3b146103bf5780635cd37174146103ef57600080fd5b806323dfec4d116101a057806323dfec4d146102ca5780633659cfe6146103245780633ccfd60b14610344578063414e221e1461035957600080fd5b806302f80590146101c75780630d39e46d14610217578063194150e9146102a8575b600080fd5b3480156101d357600080fd5b5060d7546101f2906001600160401b0380821691600160401b90041682565b604080516001600160401b039384168152929091166020830152015b60405180910390f35b34801561022357600080fd5b50610271610232366004615041565b60d4602052600090815260409020805460028201546005830154600684015460078501546008909501546001600160a01b039094169492939192909186565b604080516001600160a01b0390971687526020870195909552938501929092526060840152608083015260a082015260c00161020e565b3480156102b457600080fd5b506102c86102c3366004615162565b6106ea565b005b3480156102d657600080fd5b506102716102e5366004615041565b60d5602052600090815260409020805460028201546005830154600684015460078501546008909501546001600160a01b039094169492939192909186565b34801561033057600080fd5b506102c861033f3660046151e1565b6107e7565b34801561035057600080fd5b506102c86108af565b34801561036557600080fd5b5061039a61037436600461521c565b60d260209081526000938452604080852082529284528284209052825290205460ff1681565b60405160ff909116815260200161020e565b6102c86103ba36600461525f565b610a13565b3480156103cb57600080fd5b506103df6103da366004615041565b610ac8565b60405161020e94939291906153e5565b3480156103fb57600080fd5b5060da5461040f906001600160a01b031681565b6040516001600160a01b03909116815260200161020e565b34801561043357600080fd5b5060d95461040f906001600160a01b031681565b34801561045357600080fd5b506102c86104623660046154f1565b610e14565b34801561047357600080fd5b506102c8610ec2565b34801561048857600080fd5b506102c8610497366004615591565b610ef8565b3480156104a857600080fd5b5061039a6104b736600461562a565b610fc4565b3480156104c857600080fd5b506104d260d65481565b60405190815260200161020e565b3480156104ec57600080fd5b506099546001600160a01b031661040f565b34801561050a57600080fd5b50610532610519366004615666565b60cc602052600090815260409020805460019091015482565b6040805192835260208301919091520161020e565b34801561055357600080fd5b506102c8610562366004615681565b611014565b34801561057357600080fd5b506103df610582366004615041565b611078565b34801561059357600080fd5b506105bf6105a2366004615666565b60cb602052600090815260409020805460029091015461ffff1682565b6040805192835261ffff90911660208301520161020e565b3480156105e357600080fd5b506102c86105f23660046156a3565b611356565b34801561060357600080fd5b5060d85461040f906001600160a01b031681565b6102c8610625366004615710565b61145d565b34801561063657600080fd5b5061064a6106453660046157bd565b6115de565b60405161020e91906157e7565b34801561066357600080fd5b506102c86106723660046157f5565b611621565b34801561068357600080fd5b5061069761069236600461586d565b611785565b60405161ffff909116815260200161020e565b3480156106b657600080fd5b506102c86106c53660046151e1565b6117cf565b3480156106d657600080fd5b506102c86106e53660046151e1565b611899565b6099546001600160a01b0316331461071d5760405162461bcd60e51b815260040161071490615899565b60405180910390fd5b600082600581111561073157610731615304565b036107785760405162461bcd60e51b815260206004820152601760248201527643616e6e6f7420736574207669727475616c20696e666f60481b6044820152606401610714565b6107858160400151611931565b8060cc600084600581111561079c5761079c615304565b60058111156107ad576107ad615304565b81526020808201929092526040908101600020835181559183015160018301558201516107e09060028301906004614d71565b5050505050565b6001600160a01b037f000000000000000000000000000000000000000000000000000000000000000016300361082f5760405162461bcd60e51b8152600401610714906158ce565b7f00000000000000000000000000000000000000000000000000000000000000006001600160a01b0316610861611a51565b6001600160a01b0316146108875760405162461bcd60e51b81526004016107149061591a565b61089081611a7f565b604080516000808252602082019092526108ac91839190611aa9565b50565b6099546001600160a01b031633146108d95760405162461bcd60e51b815260040161071490615899565b47801561097d5760d9546040516000916001600160a01b03169083908381818185875af1925050503d806000811461092d576040519150601f19603f3d011682016040523d82523d6000602084013e610932565b606091505b505090508061097b5760405162461bcd60e51b8152602060048201526015602482015274115d1a195c881dda5d1a191c985dc819985a5b1959605a1b6044820152606401610714565b505b60d8546040516370a0823160e01b81523060048201526000916001600160a01b0316906370a0823190602401602060405180830381865afa1580156109c6573d6000803e3d6000fd5b505050506040513d601f19601f820116820180604052508101906109ea9190615966565b90508015610a0f5760d95460d854610a0f916001600160a01b03918216911683611bed565b5050565b6001600160a01b037f0000000000000000000000000000000000000000000000000000000000000000163003610a5b5760405162461bcd60e51b8152600401610714906158ce565b7f00000000000000000000000000000000000000000000000000000000000000006001600160a01b0316610a8d611a51565b6001600160a01b031614610ab35760405162461bcd60e51b81526004016107149061591a565b610abc82611a7f565b610a0f82826001611aa9565b600081815260d46020526040812060060154819060609081908303610b2f5760405162461bcd60e51b815260206004820152601a60248201527f4e6f2072616e646f6d206e756d6265722067656e6572617465640000000000006044820152606401610714565b600085815260d46020908152604080832081516101208101835281546001600160a01b031681526001820180548451818702810187019095528085529194929385840193909290879084015b82821015610bea57600084815260209020604080518082019091529083018054829060ff166005811115610bb157610bb1615304565b6005811115610bc257610bc2615304565b8152905461010090046001600160401b03166020918201529082526001929092019101610b7b565b5050505081526020016002820154815260200160038201805480602002602001604051908101604052809291908181526020016000905b82821015610cc65760008481526020902060408051606081019091529083018054829060ff166004811115610c5857610c58615304565b6004811115610c6957610c69615304565b81528154602090910190610100900460ff166005811115610c8c57610c8c615304565b6005811115610c9d57610c9d615304565b815290546001600160401b03620100009091041660209182015290825260019092019101610c21565b50505050815260200160048201805480602002602001604051908101604052809291908181526020016000905b82821015610d6257600084815260209020604080518082019091529083018054829060ff166005811115610d2957610d29615304565b6005811115610d3a57610d3a615304565b8152905461010090046001600160401b03166020918201529082526001929092019101610cf3565b5050505081526020016005820154815260200160068201548152602001600782015481526020016008820154815250509050806000015194508060c00151935060008490508160400151600014610dd157610dcb81836020015184604001518560e00151611c50565b90945090505b60008260800151511180610dea57506000826060015151115b15610e0b57610e088183608001518460600151856101000151611d65565b92505b50509193509193565b6099546001600160a01b03163314610e3e5760405162461bcd60e51b815260040161071490615899565b610e4e6040820160208301615994565b6001600160401b0316610e646020830183615994565b6001600160401b031610610eb05760405162461bcd60e51b8152602060048201526013602482015272496e76616c69642073616c652077696e646f7760681b6044820152606401610714565b8060d7610ebd82826159b1565b505050565b6099546001600160a01b03163314610eec5760405162461bcd60e51b815260040161071490615899565b610ef6600061200f565b565b60d654600090815260d56020526040902080546001600160a01b03191633178155610f268188886001612061565b50610f36818686868660016122b6565b5060d65460405190815233907f155fdbd006ccec04cd2d9e5c9d9d1034cb46acbd4e83a5b2b8762f31835e8f3f9060200160405180910390a2600160d66000828254610f829190615a33565b909155505060d654604080516020810192909252429082015260600160408051601f198184030181529190528051602090910120600690910155505050505050565b60d16020528260005260406000206020528160005260406000208181548110610fec57600080fd5b906000526020600020906020918282040191900692509250509054906101000a900460ff1681565b6001546001600160a01b0316331461106e5760405162461bcd60e51b815260206004820152601f60248201527f4f6e6c7920565246436f6f7264696e61746f722063616e2066756c66696c6c006044820152606401610714565b610a0f828261264e565b600081815260d56020908152604080832081516101208101835281546001600160a01b0316815260018201805484518187028101870190955280855286956060958695889594909385840193879084015b8282101561113857600084815260209020604080518082019091529083018054829060ff1660058111156110ff576110ff615304565b600581111561111057611110615304565b8152905461010090046001600160401b031660209182015290825260019290920191016110c9565b5050505081526020016002820154815260200160038201805480602002602001604051908101604052809291908181526020016000905b828210156112145760008481526020902060408051606081019091529083018054829060ff1660048111156111a6576111a6615304565b60048111156111b7576111b7615304565b81528154602090910190610100900460ff1660058111156111da576111da615304565b60058111156111eb576111eb615304565b815290546001600160401b0362010000909104166020918201529082526001909201910161116f565b50505050815260200160048201805480602002602001604051908101604052809291908181526020016000905b828210156112b057600084815260209020604080518082019091529083018054829060ff16600581111561127757611277615304565b600581111561128857611288615304565b8152905461010090046001600160401b03166020918201529082526001929092019101611241565b505050908252506005820154602082015260068201546040820152600782015460608201526008909101546080909101528051955090506001600160a01b03851661132a5760405162461bcd60e51b815260206004820152600a602482015269139bc81c995c5d595cdd60b21b6044820152606401610714565b60c08101516040820151909450849015610dd157610dcb81836020015184604001518560e00151611c50565b6099546001600160a01b031633146113805760405162461bcd60e51b815260040161071490615899565b600082600581111561139457611394615304565b036113db5760405162461bcd60e51b815260206004820152601760248201527643616e6e6f7420736574207669727475616c20696e666f60481b6044820152606401610714565b6113e88160200151611931565b8060cb60008460058111156113ff576113ff615304565b600581111561141057611410615304565b815260208082019290925260400160002082518155908201516114399060018301906004614d71565b50604091909101516002909101805461ffff191661ffff9092169190911790555050565b60008061146e60db5460dc54612758565b600081815260d4602052604090208054919250906001600160a01b0316156114cc5760405162461bcd60e51b8152602060048201526011602482015270105b1c9958591e481c995c5d595cdd1959607a1b6044820152606401610714565b80546001600160a01b031916331781556114e9818b8b6000612061565b92506114fa818989898960006122b6565b6115049084615a33565b9250821561159d57831561159d5760da54604051634da8552760e11b8152600481018590526000916001600160a01b031690639b50aa4e90602401602060405180830381865afa15801561155c573d6000803e3d6000fd5b505050506040513d601f19601f820116820180604052508101906115809190615966565b60d85490915061159b906001600160a01b03163330846128ad565b505b60405182815233907feaf8d3f69fe5b0f881b23e1b13477c52d8748166f18f9b8665365ef0879c753d9060200160405180910390a250505050505050505050565b60d060205281600052604060002081815481106115fa57600080fd5b9060005260206000209060209182820401919006915091509054906101000a900460ff1681565b600054610100900460ff168061163a575060005460ff16155b6116565760405162461bcd60e51b815260040161071490615a4b565b600054610100900460ff16158015611678576000805461ffff19166101011790555b6001600160a01b0384161580159061169857506001600160a01b03821615155b80156116ac57506001600160a01b03831615155b6116ee5760405162461bcd60e51b815260206004820152601360248201527263616e6e6f74207a65726f206164647265737360681b6044820152606401610714565b6116f66128eb565b6117008888612966565b60db86905560dc85905560d880546001600160a01b038086166001600160a01b03199283161790925560d9805487841690831617905560da805492851692909116919091179055600160dd81905560de55611759612a14565b611761612a85565b611769612ab4565b801561177b576000805461ff00191690555b5050505050505050565b60cf60205282600052604060002060205281600052604060002081600481106117ad57600080fd5b6010918282040191900660020292509250509054906101000a900461ffff1681565b6099546001600160a01b031633146117f95760405162461bcd60e51b815260040161071490615899565b6001600160a01b03811661184f5760405162461bcd60e51b815260206004820152601c60248201527f547265617375727920616464726573732063616e6e6f74207a65726f000000006044820152606401610714565b60d980546001600160a01b0319166001600160a01b0383169081179091556040517f3c864541ef71378c6229510ed90f376565ee42d9c5e0904a984a9e863e6db44f90600090a250565b6099546001600160a01b031633146118c35760405162461bcd60e51b815260040161071490615899565b6001600160a01b0381166119285760405162461bcd60e51b815260206004820152602660248201527f4f776e61626c653a206e6577206f776e657220697320746865207a65726f206160448201526564647265737360d01b6064820152608401610714565b6108ac8161200f565b60005b61194060016004615a99565b60ff168110156119e05781611956826001615a33565b6004811061196657611966615abc565b602002015161ffff1682826004811061198157611981615abc565b602002015161ffff1611156119ce5760405162461bcd60e51b8152602060048201526013602482015272496e76616c69642074696572206368616e636560681b6044820152606401610714565b6119d9600182615a33565b9050611934565b50612710816119f160016004615a99565b60ff1660048110611a0457611a04615abc565b602002015161ffff1611156108ac5760405162461bcd60e51b8152602060048201526013602482015272496e76616c69642074696572206368616e636560681b6044820152606401610714565b7f360894a13ba1a3210667c828492db98dca3e2076cc3735a920a3ca505d382bbc546001600160a01b031690565b6099546001600160a01b031633146108ac5760405162461bcd60e51b815260040161071490615899565b6000611ab3611a51565b9050611abe84613dc5565b600083511180611acb5750815b15611adc57611ada8484613e6a565b505b7f4910fdfa16fed3260ed0e7147f7cc6da11a60208b5b9406d12a635614ffd9143805460ff166107e057805460ff191660011781556040516001600160a01b0383166024820152611b5b90869060440160408051601f198184030181529190526020810180516001600160e01b0316631b2ce7f360e11b179052613e6a565b50805460ff19168155611b6c611a51565b6001600160a01b0316826001600160a01b031614611be45760405162461bcd60e51b815260206004820152602f60248201527f45524331393637557067726164653a207570677261646520627265616b73206660448201526e75727468657220757067726164657360881b6064820152608401610714565b6107e085613f55565b6040516001600160a01b038316602482015260448101829052610ebd90849063a9059cbb60e01b906064015b60408051601f198184030181529190526020810180516001600160e01b03166001600160e01b031990931692909217909152613f95565b8251606090859083856001600160401b03811115611c7057611c7061506e565b604051908082528060200260200182016040528015611ca957816020015b611c96614e07565b815260200190600190039081611c8e5790505b5093506000805b83811015611d58576000898281518110611ccc57611ccc615abc565b60200260200101519050600081602001516001600160401b0316905060005b81811015611d4157611cfe888488614067565b8b8881518110611d1057611d10615abc565b602090810291909101019290925298509550611d2d600186615a33565b9450611d3a600182615a33565b9050611ceb565b505050600181611d519190615a33565b9050611cb0565b5050505094509492505050565b606060008060008651905060005b81811015611dc157878181518110611d8d57611d8d615abc565b6020026020010151602001516001600160401b031684611dad9190615a33565b9350611dba600182615a33565b9050611d73565b505084518460005b82811015611e1757878181518110611de357611de3615abc565b6020026020010151604001516001600160401b031684611e039190615a33565b9350611e10600182615a33565b9050611dc9565b50600089611e258686615a33565b6001600160401b03811115611e3c57611e3c61506e565b604051908082528060200260200182016040528015611ea057816020015b611e8d6040805160a081019091526000808252602082019081526020016000815260006020820181905260409091015290565b815260200190600190039081611e5a5790505b50965060005b84811015611f4f5760008a8281518110611ec257611ec2615abc565b60200260200101519050600081604001516001600160401b0316905060005b81811015611f3857611ef4858489614497565b8d8981518110611f0657611f06615abc565b60209081029190910101929092529097509450611f24600187615a33565b9550611f31600182615a33565b9050611ee1565b505050600181611f489190615a33565b9050611ea6565b508951935060005b848110156120005760008b8281518110611f7357611f73615abc565b60200260200101519050600081602001516001600160401b0316905060005b81811015611fe957611fa585848961464f565b8d8981518110611fb757611fb7615abc565b60209081029190910101929092529097509450611fd5600187615a33565b9550611fe2600182615a33565b9050611f92565b505050600181611ff99190615a33565b9050611f57565b50505050505050949350505050565b609980546001600160a01b038381166001600160a01b0319831681179093556040519116919082907f8be0079c531659141344cd1fd0a4f28419497f9722a3daafe3b4186f6b6457e090600090a35050565b60008280156120e35760d7546001600160401b03164210801590612097575060d754600160401b90046001600160401b03164211155b6120e35760405162461bcd60e51b815260206004820152601960248201527f53616c65206e6f742073746172746564206f7220656e646564000000000000006044820152606401610714565b6000805b8281101561227a57600087878381811061210357612103615abc565b9050604002018036038101906121199190615b32565b905080602001516001600160401b03166000036121485760405162461bcd60e51b815260040161071490615b4e565b60008151600581111561215d5761215d615304565b148615151461217e5760405162461bcd60e51b815260040161071490615b76565b856121e55760cb60008260000151600581111561219d5761219d615304565b60058111156121ae576121ae615304565b81526020019081526020016000206000015481602001516001600160401b03166121d89190615ba0565b6121e29086615a33565b94505b60208101516121fd906001600160401b031684615a33565b6001808b01805480830182556000918252602090912084519101805493965084939092839160ff19169083600581111561223957612239615304565b02179055506020919091015181546001600160401b039091166101000268ffffffffffffffff001990911617905550612273600182615a33565b90506120e7565b506002870181905560dd546007880155612295816006615ba0565b60dd60008282546122a69190615a33565b9091555092979650505050505050565b60008481805b8281101561247d5760008989838181106122d8576122d8615abc565b9050606002018036038101906122ee9190615bbf565b905080604001516001600160401b031660000361231d5760405162461bcd60e51b815260040161071490615b4e565b60008160200151600581111561233557612335615304565b14861515146123565760405162461bcd60e51b815260040161071490615b76565b856123bd5760cc60008260200151600581111561237557612375615304565b600581111561238657612386615304565b81526020019081526020016000206001015481604001516001600160401b03166123b09190615ba0565b6123ba9086615a33565b94505b60408101516123d5906001600160401b031684615a33565b60038c018054600181810183556000928352602090922084519101805493965084939092839160ff19169083600481111561241257612412615304565b021790555060208201518154829061ff00191661010083600581111561243a5761243a615304565b02179055506040919091015181546001600160401b03909116620100000269ffffffffffffffff00001990911617905550612476600182615a33565b90506122bc565b5084915060005b828110156126185760008787838181106124a0576124a0615abc565b9050604002018036038101906124b69190615b32565b905080602001516001600160401b03166000036124e55760405162461bcd60e51b815260040161071490615b4e565b6000815160058111156124fa576124fa615304565b148615151461251b5760405162461bcd60e51b815260040161071490615b76565b856125825760cc60008260000151600581111561253a5761253a615304565b600581111561254b5761254b615304565b81526020019081526020016000206000015481602001516001600160401b03166125759190615ba0565b61257f9086615a33565b94505b602081015161259a906001600160401b031684615a33565b60048c018054600181810183556000928352602090922084519101805493965084939092839160ff1916908360058111156125d7576125d7615304565b02179055506020919091015181546001600160401b039091166101000268ffffffffffffffff001990911617905550612611600182615a33565b9050612484565b506005890181905560de805460088b0181905582919060009061263c908490615a33565b90915550929998505050505050505050565b600082815260d460205260409020546001600160a01b03166126a55760405162461bcd60e51b815260206004820152601060248201526f139bc81c995c5d595cdd08195e1a5cdd60821b6044820152606401610714565b600082815260d46020526040902060060154156127045760405162461bcd60e51b815260206004820152601f60248201527f52616e646f6d206e756d62657220616c72656164792066756c66696c6c6564006044820152606401610714565b600082815260d46020526040908190206006018290555182907f1ca8663227a7fe9919713a01d344afbb434e234f35a3e540a6ad924f88771f389061274c9084815260200190565b60405180910390a25050565b600080546001546040516001600160a01b0362010000909304831692634000aea092169085906127979088908790602001918252602082015260400190565b6040516020818303038152906040526040518463ffffffff1660e01b81526004016127c493929190615c8a565b6020604051808303816000875af11580156127e3573d6000803e3d6000fd5b505050506040513d601f19601f820116820180604052508101906128079190615cb1565b50600083815260026020818152604080842054815180840189905280830186905230606082015260808082018390528351808303909101815260a090910190925281519183019190912093879052919052612863906001615a33565b6000858152600260205260409020556128a38482604080516020808201949094528082019290925280518083038201815260609092019052805191012090565b9150505b92915050565b6040516001600160a01b03808516602483015283166044820152606481018290526128e59085906323b872dd60e01b90608401611c19565b50505050565b600054610100900460ff1680612904575060005460ff16155b6129205760405162461bcd60e51b815260040161071490615a4b565b600054610100900460ff16158015612942576000805461ffff19166101011790555b61294a61476e565b6129526147d8565b80156108ac576000805461ff001916905550565b600054610100900460ff168061297f575060005460ff16155b61299b5760405162461bcd60e51b815260040161071490615a4b565b600054610100900460ff161580156129bd576000805461ffff19166101011790555b600180546001600160a01b0319166001600160a01b03858116919091179091556000805462010000600160b01b03191662010000928516929092029190911790558015610ebd576000805461ff0019169055505050565b604080516060810182526113888152611f40602082015261271091810191909152612a439060cd906003614d71565b506040805160c0810182526003808252600660208301819052600593830193909352600460608301819052608083015260a08201526108ac9160d39190614e5b565b604080516060810182526111948152611f406020820152612710918101919091526108ac9060ce906003614d71565b6040805160808101825261193981526123f160208083019190915261261e928201929092526126bf60608201526001600052600080516020615d61833981519152909152612b25907ffe664b870b6415830e10a3269abd8d2ef60dbf28cb7ce091b8a7045ac1270a2e906004614d71565b5060408051608081018252610f6c8152611d136020808301919091526123e79282019290925261266e60608201526002600052600080516020615d61833981519152909152612b96907e8f70b7cc05adb7081a4d413fe98b575b7813e6fdc0ef4ededb88eca3839198906004614d71565b506040805160808101825261042b81526112c0602080830191909152611e359282019290925261247560608201526003600052600080516020615d61833981519152909152612c08907fce8e743729ab63aef4c5b8ee455bcdc1c443de4e0f556a4db677eb4e516aaace906004614d71565b5060408051608081018252608f81526103e8602080830191909152610b7192820192909252611d4c606082015260046000819052600080516020615d61833981519152909252612c7a917fcdce8f12ec756f0511bf00b1459ff529c8f5b2b16fcb98fd867fe59c46f271049190614d71565b5060408051608081018252603081526101b36020808301919091526105f592820192909252610f6a60608201526005600052600080516020615d61833981519152909152612ceb907f643cdfe74052c6370e3f6785f5c30688f0c420182326710e61e520e6f383d2c8906004614d71565b50604080516080810182526121fc8152612598602080830191909152612692928201929092526126e460608201526001600052600080516020615de8833981519152909152612d5d907fd3e8d3e104f1e2891159c199ffa2e668f97e95f80814a73420bd12d98d49c6dd906004614d71565b5060408051608081018252611b0081526120fa6020808301919091526124f69282019290925261269f60608201526002600052600080516020615de8833981519152909152612dcf907fbc5a50a8c53282994eb68ae5091b8be9ee8d6aa7f7846fa182ab1f70f7ee0dff906004614d71565b5060408051608081018252610ad78152611453602080830191909152611e429282019290925261245b60608201526003600052600080516020615de8833981519152909152612e41907fa4e2fb40f13aa0bb69a759b8f8fb0b142f0a5b710b1f12264abd765528f97814906004614d71565b506040805160808101825261018181526103c2602080830191909152610a8592820192909252611c8c606082015260046000819052600080516020615de8833981519152909252612eb4917fc07c05d9fc3daf0211ef96094bb5c16e8e7dbee2e7014a44e296a11ce86891ee9190614d71565b5060408051608081018252607e815261017a60208083019190915261052c92820192909252610e6a60608201526005600052600080516020615de8833981519152909152612f25907f2e1ec3ed33b177f962201f470b6546ab76c1d0d8698264a40964b826d0d83894906004614d71565b50604080516080810182526121bc81526126836020808301919091526126d6928201929092526126fa60608201526001600052600080516020615d81833981519152909152612f97907fea857a22906f6457c683d765b787fa390ff98eca8ec573fe02b8e7f10c5802a4906004614d71565b5060408051608081018252611c5081526124ab60208083019190915261260f928201929092526126d560608201526002600052600080516020615d81833981519152909152613009907f533cf43898235486a919f0faafe6d23607caf3930ab02f58ff14227ad868a047906004614d71565b5060408051608081018252610db88152611dba6020808301919091526121eb9282019290925261255960608201526003600052600080516020615d8183398151915290915261307b907f904adf92d77dcf84a4fdda646c8fd074d40b007f093ed454f6d2996836a26d9c906004614d71565b50604080516080810182526102ee81526108ca602080830191909152610d2f92820192909252611ccf606082015260046000819052600080516020615d818339815191529092526130ee917fa61de0c5c3d6777caef251dc9b1efca6b6cf82820a0281826020d0ec9ee1da649190614d71565b506040805160808101825260fd81526103a060208083019190915261061992820192909252610e5760608201526005600052600080516020615d8183398151915290915261315f907ffd38d0b291ba24ab6de1bc6f1d8c26f0265ede5c188c2555e78868865bc68230906004614d71565b5060408051608081018252612133815261267e6020808301919091526126f89282019290925261270560608201526001600052600080516020615da18339815191529091526131d1907f727600ef4e9604916e7f564895e5d50ef8ef70c17d07927c88590bc7d6e0691a906004614d71565b5060408051608081018252611b8281526124a46020808301919091526126ab928201929092526126f360608201526002600052600080516020615da1833981519152909152613243907f99d65849455a017332e4b82382660546b16083d0cf080c473498de773f334899906004614d71565b5060408051608081018252610d588152611edc6020808301919091526124fa9282019290925261263a60608201526003600052600080516020615da18339815191529091526132b5907f292fcf43716ba8bce99f84feb2ff221e8eb1cda29d6ff378569045ea92f705b3906004614d71565b50604080516080810182526104398152610db960208083019190915261173992820192909252611fab606082015260046000819052600080516020615da1833981519152909252613328917f92acf3f134cb405608504a9541bb97d30133696e2a02f61e725a21222f54e61b9190614d71565b50604080516080810182526101ac81526106af602080830191909152610cf39282019290925261122c60608201526005600052600080516020615da183398151915290915261339a907f44d8789e3a2ee4356ae35e845215d7ec5e44c068d2085309815fb87ac5287646906004614d71565b50604080516080810182526120d281526126666020808301919091526126f79282019290925261270c60608201526001600052600080516020615e0883398151915290915261340c907f574eac91ca95775ba2b2ad5da7e8c5e7faa129e8c75b45cd18a69a9dced34f8f906004614d71565b5060408051608081018252611abe81526124366020808301919091526126949282019290925261270460608201526002600052600080516020615e0883398151915290915261347e907f7b450bf5d8051763c73e73e4ee4408c04a455469a70ae52e1eaf89defa0a3afd906004614d71565b5060408051608081018252610c808152611e006020808301919091526124e0928201929092526126c060608201526003600052600080516020615e088339815191529091526134f0907f17b4597d54cd780b734fa27175b274d191a5d5b1c7c9e3bd845e683b96413f57906004614d71565b50604080516080810182526103e88152610d486020808301919091526117d492820192909252612454606082015260046000819052600080516020615e08833981519152909252613563917f65478e94c87b3db45e3a8130bb6c378e6b8ff9675494d1adb77ac406eb60e7569190614d71565b506040805160808101825261021781526108c660208083019190915261122c92820192909252611c9e60608201526005600052600080516020615e088339815191529091526135d5907f213c3a702b7432bc734d3caaf2058eadf8bb435ef31105090abe1d0723835828906004614d71565b50604080516020810190915280600090526000805260d060205261361c907f790dca8aa28f25f1915553dd78bb1fae41686aabbb62ea6516ab2cafb7d25899906001614edc565b506040805160208082019092526001808252600080527efa5413e7b01fc543d01f0911de573ace463b956369df4472f39030e8d98b77909252613681917f25b01be6cb72412630d9e76b1d9618ee89cc753b67056bf597ab3ea92de424e29190614f51565b507fe2eed184ba5729170d1e1285fbe30dcd0a0c4990644c3dd83fc9c42a83394860805460ff1916600a1790556040805160208181019092526001808252600081905260d09092526136f5917f77f2c0ceb108931ae1752982c6028a6c43603b39c3741036378ca346c95925299190614edc565b50604080516020808201909252600180825260008190527fb41c81a20ee1317ccb9b438d7e5d59d66d5a6ec10e50c28bfec0bae0f14bf52790925261375c917fe512b835e822e507ca8979609afba516fbb62ba6a9c756cfea8a612c9fd6256e9190614f51565b507f9209a51a4855be92a5d27bf127ce2a4a1fefc973085c5cf91cff7112d5eddc40805460ff1916600a1790556040805180820190915260028082526003602083810191909152600082905260d090526137d7917f67796f102ab9953d5beaba6be251ff75a6b998b676e68c019b9d36459937f40991614fb7565b5060408051602080820190925260028082526000527f32ea06fcf2721a86a5d9ed09fff93f12af8d61fae22ffe196961f9320ec53d3f90915261383d907f43b56c65a47a01de4d3f6348916701911dbe1578a6d06c4f88bc39fe0ce0da5e906001614f51565b5060408051602080820190925260038082526000527f32ea06fcf2721a86a5d9ed09fff93f12af8d61fae22ffe196961f9320ec53d3f9091526138a3907f315ddc37e54a7e9a2e7e1c2d4a824f8b440491217683b6938f6b19c388b1f983906001614f51565b507fdbdc0e3e4f01585ceadccb5892db6109363671934627d11956088ff1deb93e398054600860ff1991821681179092557f05de00b5cdf2ae4d3cf054d0bdcc64f1a531940e0024e4c98063b1696127e1438054909116909117905560408051808201909152600481526005602080830191909152600360005260d0905261394e907f34c6e0244416e67a7ae462a5c12db300aa242979ef7d4ef0490977b76b306b3c906002614fb7565b506040805160208082019092526003815260046000527f507fbfbc4604457cf48784aed8fcaf8ef1e156d984c943cc8583366a2705be5e9091526139b5907ffc7a546497cd637ff425efe90992d5bc6884d47d45846557934c0a7371d4705e906001614f51565b506040805160208082019092526002815260056000527f507fbfbc4604457cf48784aed8fcaf8ef1e156d984c943cc8583366a2705be5e909152613a1c907fc5ed3005ff731624f8e690b99f78b0bc93ef1ce77d4abead39796abbd23b468d906001614f51565b507f0102fe3d79754a6b8b60bbf424d257c555e886ac3b2e01afa0a3e513c79378c4805460ff199081166005179091557fa6796e990c6ab6efb4f7e8c242ab77eb6eddb4af9a82f797889e36ef493c0ff48054909116600817905560408051808201909152600681526007602082810191909152600460005260d09052613ac6907f93c995069dffc32524680371ff1261c76b7f45e2275201a430eee446bd8b6bc5906002614fb7565b50604080516020808201909252600180825260066000527f9205af8e73dcb82a487de88e541200134d0139807150268b54190865cc74beed909252613b2d917f6110954103de24b5d92362eea1d45ff75adff65f84f39062d0e364cb2c3fdee59190614f51565b50604080516020808201909252600180825260076000527f9205af8e73dcb82a487de88e541200134d0139807150268b54190865cc74beed909252613b94917fb4e8e269e9b93f982bd08b027b80f320d6cce3a47c3f22cd98b99fc7a050ccb69190614f51565b507fe53120fe4ae60d3c365d6455e588a7eaa2ba1eafe22ba2fd9ede970eeaa1993f8054600560ff1991821681179092557f135e8607d8fd27ab07a701dc6b25652ee8791c61dd4e49c5f5910fa1b7c546fc805460029216821790556040805180820190915260088152600960208083019190915260009390935260d0909252613c3f917f4bec66b44c9db5602a65c60c3538204a41c7f7deb4675b48ad2514f609ea4dc191614fb7565b5060408051808201909152600181526002602080830182905260086000527f69aae7959c049fca74f5e43400d862464e9dc9b5042b52fc51b955075024a8579052613cab917f3d62d970739aecab5279631fcbad0835e3476a03506c3e1fee3845494021395491614f51565b506040805160208082019092526003815260096000527f69aae7959c049fca74f5e43400d862464e9dc9b5042b52fc51b955075024a857909152613d12907f195f39c03818da8d08a6533c47a475b267748755cfa8d1ee4a601bd7ace406e7906001614f51565b507f9937565f1a9929970f049c709598c495ce10f0d56636b0b8b818e5d2e3fd4252805460ff1990811660019081179092557fa7bbce36d4195da39da0b8c04fe99a66ab50b07d0771cc8352ca68d7370e69d68054821690921790915560036000527fd829076cd14c662d75ed7398e0e40dd2d380fc5344116dd90eb6bca450336e8f6020527f8b65e0c78c69797976d88aa8fdb223ee3ac90e56c6c55783a972f7388a46ebbe80549091166002179055565b803b613e295760405162461bcd60e51b815260206004820152602d60248201527f455243313936373a206e657720696d706c656d656e746174696f6e206973206e60448201526c1bdd08184818dbdb9d1c9858dd609a1b6064820152608401610714565b7f360894a13ba1a3210667c828492db98dca3e2076cc3735a920a3ca505d382bbc80546001600160a01b0319166001600160a01b0392909216919091179055565b6060823b613ec95760405162461bcd60e51b815260206004820152602660248201527f416464726573733a2064656c65676174652063616c6c20746f206e6f6e2d636f6044820152651b9d1c9858dd60d21b6064820152608401610714565b600080846001600160a01b031684604051613ee49190615cce565b600060405180830381855af49150503d8060008114613f1f576040519150601f19603f3d011682016040523d82523d6000602084013e613f24565b606091505b5091509150613f4c8282604051806060016040528060278152602001615dc160279139614838565b95945050505050565b613f5e81613dc5565b6040516001600160a01b038216907fbc7cd75a20ee27fd9adebab32041f755214dbc6bffa90cc0225b39da2e5c2d3b90600090a250565b6000613fea826040518060400160405280602081526020017f5361666545524332303a206c6f772d6c6576656c2063616c6c206661696c6564815250856001600160a01b03166148789092919063ffffffff16565b805190915015610ebd57808060200190518101906140089190615cb1565b610ebd5760405162461bcd60e51b815260206004820152602a60248201527f5361666545524332303a204552433230206f7065726174696f6e20646964206e6044820152691bdd081cdd58d8d9595960b21b6064820152608401610714565b61406f614e07565b8181528251600090819081906020850190600581111561409157614091615304565b908160058111156140a4576140a4615304565b905250600080875160058111156140bd576140bd615304565b036140ca578791506141a1565b60006140d88961271061488f565b8951919450915061417b9060cb9060009060058111156140fa576140fa615304565b600581111561410b5761410b615304565b81526020810191909152604090810160002081516080810190925260010160048282826020028201916000905b82829054906101000a900461ffff1661ffff16815260200190600201906020826001010492830192600103820291508084116141385790505050505050826148ba565b60ff81166040880152885190925061419590839085614925565b60ff1660808801529250505b6141d68260d38360ff16600681106141bb576141bb615abc565b602081049091015460ff601f9092166101000a900416614a75565b60ff9081166060880152608087015116600090815260d0602052604081205491935090614204908490614a75565b608088015160ff908116600090815260d0602052604090208054939650919350909190831690811061423857614238615abc565b90600052602060002090602091828204019190069054906101000a900460ff168660a00190600981111561426e5761426e615304565b9081600981111561428157614281615304565b905250608086015160ff16600090815260d16020526040812060a08801516142de9286929160098111156142b7576142b7615304565b60098111156142c8576142c8615304565b8152602081019190915260400160002054614a75565b608088015160ff16600090815260d16020526040812060a08a01519396509193509091600981111561431257614312615304565b600981111561432357614323615304565b81526020019081526020016000208160ff168154811061434557614345615abc565b60009182526020808320818304015460ff601f9093166101000a9004821660c08a01526080890151909116825260d290526040812060a08801516143d392869291600981111561439757614397615304565b60098111156143a8576143a8615304565b81526020808201929092526040908101600090812060c08c015160ff90811683529352205416614a75565b60ff1660e088015292506143e683614a92565b87610100018160028111156143fd576143fd615304565b600281111561440e5761440e615304565b9052508851909350614421908490614b2b565b9050866101200181600181111561443a5761443a615304565b600181111561444b5761444b615304565b905250614459600688615a33565b60408051602081018c90529081018b90529094506060016040516020818303038152906040528051906020012060001c945050505093509350939050565b6144ca6040805160a081019091526000808252602082019081526020016000815260006020820181905260409091015290565b8181526020808401516000918291829185019060058111156144ee576144ee615304565b9081600581111561450157614501615304565b90525085516040850190600481111561451c5761451c615304565b9081600481111561452f5761452f615304565b9052506000808760200151600581111561454b5761454b615304565b03614558578791506145f5565b60006145668961271061488f565b80925081945050506145e860cc60008a60200151600581111561458b5761458b615304565b600581111561459c5761459c615304565b81526020808201929092526040908101600020815160808101928390526002918201805461ffff16825290939092600492909184919086018084116141385790505050505050826148ba565b60ff811660608801529150505b6145fe82614bc8565b60ff16608087015250614612866001615a33565b60408051602081018b90529081018a90529093506060016040516020818303038152906040528051906020012060001c9350505093509350939050565b6146826040805160a081019091526000808252602082019081526020016000815260006020820181905260409091015290565b818152825160009081908190602085019060058111156146a4576146a4615304565b908160058111156146b7576146b7615304565b905250600080875160058111156146d0576146d0615304565b036146dd5787915061471a565b60006146eb8961271061488f565b8951919450915061470d9060cc90600090600581111561458b5761458b615304565b60ff811660608801529150505b614725600583615d00565b60ff16600481111561473957614739615304565b8560400190600481111561474f5761474f615304565b9081600481111561476257614762615304565b9052506145fe82614bc8565b600054610100900460ff1680614787575060005460ff16155b6147a35760405162461bcd60e51b815260040161071490615a4b565b600054610100900460ff16158015612952576000805461ffff191661010117905580156108ac576000805461ff001916905550565b600054610100900460ff16806147f1575060005460ff16155b61480d5760405162461bcd60e51b815260040161071490615a4b565b600054610100900460ff1615801561482f576000805461ffff19166101011790555b6129523361200f565b60608315614847575081614871565b8251156148575782518084602001fd5b8160405162461bcd60e51b81526004016107149190615d14565b9392505050565b60606148878484600085614c49565b949350505050565b6000806148a061ffff841685615d27565b6148ae61ffff851686615d00565b915091505b9250929050565b6000805b600460ff82161015614918578261ffff16848260ff16600481106148e4576148e4615abc565b602002015161ffff161115614906576148fe816001615d3b565b9150506128a7565b614911600182615d3b565b90506148be565b5061487160046001615d3b565b6000808084600581111561493b5761493b615304565b0361494b57508190506000614a6d565b60006149598461271061488f565b60ff8816600090815260cf60205260408120929550909250908187600581111561498557614985615304565b600581111561499657614996615304565b81526020810191909152604090810160002081516080810190925260048282826020028201916000905b82829054906101000a900461ffff1661ffff16815260200190600201906020826001010492830192600103820291508084116149c05790505050505050905060005b600460ff82161015614a5b578261ffff16828260ff1660048110614a2857614a28615abc565b602002015161ffff161115614a4957614a42816001615d3b565b9350614a5b565b614a54600182615d3b565b9050614a02565b50614a6860046001615d3b565b925050505b935093915050565b600080614a8560ff841685615d27565b6148ae60ff851686615d00565b6000806000614aa38461271061488f565b909350905060005b600360ff82161015614b245760cd8160ff1660038110614acd57614acd615abc565b601091828204019190066002029054906101000a900461ffff1661ffff168261ffff161015614b12578060ff166002811115614b0b57614b0b615304565b9250614b24565b614b1d600182615d3b565b9050614aab565b5050915091565b6000808080846005811115614b4257614b42615304565b14614b8b5760cb6000856005811115614b5d57614b5d615304565b6005811115614b6e57614b6e615304565b815260208101919091526040016000206002015461ffff16614b8e565b60c85b90506000614b9e8661271061488f565b909450905061ffff80831690821611614bba5760019250614bbf565b600092505b50509250929050565b6000806000614bd98461271061488f565b909350905060005b600360ff82161015614b245760ce8160ff1660038110614c0357614c03615abc565b601091828204019190066002029054906101000a900461ffff1661ffff168261ffff161015614c3757614b0b816001615d3b565b614c42600182615d3b565b9050614be1565b606082471015614caa5760405162461bcd60e51b815260206004820152602660248201527f416464726573733a20696e73756666696369656e742062616c616e636520666f6044820152651c8818d85b1b60d21b6064820152608401610714565b843b614cf85760405162461bcd60e51b815260206004820152601d60248201527f416464726573733a2063616c6c20746f206e6f6e2d636f6e74726163740000006044820152606401610714565b600080866001600160a01b03168587604051614d149190615cce565b60006040518083038185875af1925050503d8060008114614d51576040519150601f19603f3d011682016040523d82523d6000602084013e614d56565b606091505b5091509150614d66828286614838565b979650505050505050565b600183019183908215614df75791602002820160005b83821115614dc757835183826101000a81548161ffff021916908361ffff1602179055509260200192600201602081600101049283019260010302614d87565b8015614df55782816101000a81549061ffff0219169055600201602081600101049283019260010302614dc7565b505b50614e0392915061502c565b5090565b6040805161014081018252600080825260208201819052918101829052606081018290526080810182905260a0810182905260c0810182905260e08101829052610100810182905261012081019190915290565b600183019183908215614df75791602002820160005b83821115614eaf57835183826101000a81548160ff021916908360ff1602179055509260200192600101602081600001049283019260010302614e71565b8015614df55782816101000a81549060ff0219169055600101602081600001049283019260010302614eaf565b82805482825590600052602060002090601f01602090048101928215614df75791602002820160005b83821115614eaf57835183826101000a81548160ff02191690836009811115614f3057614f30615304565b02179055509260200192600101602081600001049283019260010302614f05565b82805482825590600052602060002090601f01602090048101928215614df757916020028201600083821115614eaf57835183826101000a81548160ff021916908360ff1602179055509260200192600101602081600001049283019260010302614e71565b82805482825590600052602060002090601f01602090048101928215614df75791602002820160005b83821115614eaf57835183826101000a81548160ff0219169083600981111561500b5761500b615304565b02179055509260200192600101602081600001049283019260010302614fe0565b5b80821115614e03576000815560010161502d565b60006020828403121561505357600080fd5b5035919050565b80356006811061506957600080fd5b919050565b634e487b7160e01b600052604160045260246000fd5b604051606081016001600160401b03811182821017156150a6576150a661506e565b60405290565b604051601f8201601f191681016001600160401b03811182821017156150d4576150d461506e565b604052919050565b803561ffff8116811461506957600080fd5b600082601f8301126150ff57600080fd5b604051608081018181106001600160401b03821117156151215761512161506e565b60405280608084018581111561513657600080fd5b845b8181101561515757615149816150dc565b835260209283019201615138565b509195945050505050565b60008082840360e081121561517657600080fd5b61517f8461505a565b925060c0601f198201121561519357600080fd5b5061519c615084565b60208401358152604084013560208201526151ba85606086016150ee565b6040820152809150509250929050565b80356001600160a01b038116811461506957600080fd5b6000602082840312156151f357600080fd5b614871826151ca565b803560ff8116811461506957600080fd5b8035600a811061506957600080fd5b60008060006060848603121561523157600080fd5b61523a846151fc565b92506152486020850161520d565b9150615256604085016151fc565b90509250925092565b6000806040838503121561527257600080fd5b61527b836151ca565b91506020808401356001600160401b038082111561529857600080fd5b818601915086601f8301126152ac57600080fd5b8135818111156152be576152be61506e565b6152d0601f8201601f191685016150ac565b915080825287848285010111156152e657600080fd5b80848401858401376000848284010152508093505050509250929050565b634e487b7160e01b600052602160045260246000fd5b6006811061532a5761532a615304565b9052565b600a811061532a5761532a615304565b6003811061532a5761532a615304565b6002811061532a5761532a615304565b600081518084526020808501945080840160005b838110156153da5781518051885283810151615390858a018261531a565b50604080820151600581106153a7576153a7615304565b9089015260608181015160ff908116918a0191909152608091820151169088015260a09096019590820190600101615372565b509495945050505050565b6001600160a01b0385168152602080820185905260806040808401829052855184830181905260009360a092909183870190898401875b828110156154cd578151805185528681015161543a8887018261531a565b508581015160ff908116868801526060808301518216908701528982015116898601528781015161546d8987018261532e565b5060c08181015160ff811687830152505060e08181015160ff8116878301525050610100808201516154a18288018261533e565b505061012090810151906154b78682018361534e565b505061014093909301929085019060010161541c565b50505086810360608801526154e2818961535e565b9b9a5050505050505050505050565b60006040828403121561550357600080fd5b50919050565b60008083601f84011261551b57600080fd5b5081356001600160401b0381111561553257600080fd5b6020830191508360208260061b85010111156148b357600080fd5b60008083601f84011261555f57600080fd5b5081356001600160401b0381111561557657600080fd5b6020830191508360206060830285010111156148b357600080fd5b600080600080600080606087890312156155aa57600080fd5b86356001600160401b03808211156155c157600080fd5b6155cd8a838b01615509565b909850965060208901359150808211156155e657600080fd5b6155f28a838b0161554d565b9096509450604089013591508082111561560b57600080fd5b5061561889828a01615509565b979a9699509497509295939492505050565b60008060006060848603121561563f57600080fd5b615648846151fc565b92506156566020850161520d565b9150604084013590509250925092565b60006020828403121561567857600080fd5b6148718261505a565b6000806040838503121561569457600080fd5b50508035926020909101359150565b60008082840360e08112156156b757600080fd5b6156c08461505a565b925060c0601f19820112156156d457600080fd5b506156dd615084565b602084013581526156f185604086016150ee565b60208201526151ba60c085016150dc565b80151581146108ac57600080fd5b60008060008060008060006080888a03121561572b57600080fd5b87356001600160401b038082111561574257600080fd5b61574e8b838c01615509565b909950975060208a013591508082111561576757600080fd5b6157738b838c0161554d565b909750955060408a013591508082111561578c57600080fd5b506157998a828b01615509565b90945092505060608801356157ad81615702565b8091505092959891949750929550565b600080604083850312156157d057600080fd5b6157d9836151fc565b946020939093013593505050565b602081016128a7828461532e565b600080600080600080600060e0888a03121561581057600080fd5b615819886151ca565b9650615827602089016151ca565b95506040880135945060608801359350615843608089016151ca565b925061585160a089016151ca565b915061585f60c089016151ca565b905092959891949750929550565b60008060006060848603121561588257600080fd5b61588b846151fc565b92506156566020850161505a565b6020808252818101527f4f776e61626c653a2063616c6c6572206973206e6f7420746865206f776e6572604082015260600190565b6020808252602c908201527f46756e6374696f6e206d7573742062652063616c6c6564207468726f7567682060408201526b19195b1959d85d1958d85b1b60a21b606082015260800190565b6020808252602c908201527f46756e6374696f6e206d7573742062652063616c6c6564207468726f7567682060408201526b6163746976652070726f787960a01b606082015260800190565b60006020828403121561597857600080fd5b5051919050565b6001600160401b03811681146108ac57600080fd5b6000602082840312156159a657600080fd5b81356148718161597f565b81356159bc8161597f565b6001600160401b03811690508154816001600160401b0319821617835560208401356159e78161597f565b6fffffffffffffffff00000000000000008160401b16836fffffffffffffffffffffffffffffffff198416171784555050505050565b634e487b7160e01b600052601160045260246000fd5b60008219821115615a4657615a46615a1d565b500190565b6020808252602e908201527f496e697469616c697a61626c653a20636f6e747261637420697320616c72656160408201526d191e481a5b9a5d1a585b1a5e995960921b606082015260800190565b600060ff821660ff841680821015615ab357615ab3615a1d565b90039392505050565b634e487b7160e01b600052603260045260246000fd5b600060408284031215615ae457600080fd5b604051604081018181106001600160401b0382111715615b0657615b0661506e565b604052905080615b158361505a565b81526020830135615b258161597f565b6020919091015292915050565b600060408284031215615b4457600080fd5b6148718383615ad2565b6020808252600e908201526d125b9d985b1a5908185b5bdd5b9d60921b604082015260600190565b60208082526010908201526f496e76616c696420626f78207479706560801b604082015260600190565b6000816000190483118215151615615bba57615bba615a1d565b500290565b600060608284031215615bd157600080fd5b604051606081018181106001600160401b0382111715615bf357615bf361506e565b604052823560058110615c0557600080fd5b8152615c136020840161505a565b60208201526040830135615c268161597f565b60408201529392505050565b60005b83811015615c4d578181015183820152602001615c35565b838111156128e55750506000910152565b60008151808452615c76816020860160208601615c32565b601f01601f19169290920160200192915050565b60018060a01b0384168152826020820152606060408201526000613f4c6060830184615c5e565b600060208284031215615cc357600080fd5b815161487181615702565b60008251615ce0818460208701615c32565b9190910192915050565b634e487b7160e01b600052601260045260246000fd5b600082615d0f57615d0f615cea565b500690565b6020815260006148716020830184615c5e565b600082615d3657615d36615cea565b500490565b600060ff821660ff84168060ff03821115615d5857615d58615a1d565b01939250505056fe9bb4860ae4018b7a63008e1d4c4f2ef74d5a095e46377c820dc3f962c67498e80786b2e448a85075fbbd634a589a96f16f04f79fafbba799f8cb3c20a382e734487d9825d239fc0eb73c636da4d301a97d621defb19d737cd772aae6955d6a8c416464726573733a206c6f772d6c6576656c2064656c65676174652063616c6c206661696c6564d0ae466d391fc1f33c08f0ded38b0edd84e4ee092dcf838570f20223ba1511f631021ca95be3239c2860ded956bdf0d22be8c364ac32444eea91829f4dfdf13da264697066735822122019bc7fdee0a5e4842774a7222f59fbf5fdae5773a9097ec036be749c0ec15f1264736f6c634300080e0033",
  "devdoc": {
    "author": "Dmitry Yakovlevich",
    "details": "Users can use ETH or sILV to request minting.Minter uses an chainlink VRF to genrate randomness.",
    "events": {
      "FreeMintRequested(address,uint256)": {
        "details": "Emitted when user request free mint."
      },
      "MintRequested(address,bytes32)": {
        "details": "Emitted when user request mint."
      },
      "RequestFulfilled(bytes32,uint256)": {
        "details": "Emitted when chainlink fulfilled VRF request."
      },
      "TreasurySet(address)": {
        "details": "Emitted when treasury updated."
      }
    },
    "kind": "dev",
    "methods": {
      "freeMint((uint8,uint64)[],(uint8,uint8,uint64)[],(uint8,uint64)[])": {
        "details": "Request minting Portrait and Accesory NFTs.",
        "params": {
          "accessoryFullRandomMintParams": "accessory layer full random mint params.",
          "accessorySemiRandomMintParams": "accessory layer semi random mint params.",
          "portraitMintParams": "portrait layer mint params."
        }
      },
      "getPaidMintResult(bytes32)": {
        "details": "Get mintable portrait and accessory infos with chainlink random number",
        "params": {
          "requestId": "Request id of mint request."
        },
        "returns": {
          "accessories": "Mintable accessory on-chain metadata",
          "portraits": "Mintable portrait on-chain metadata",
          "requester": "Requester address",
          "seed": "Seed random number from chainlink"
        }
      },
      "initialize(address,address,bytes32,uint256,address,address,address)": {
        "details": "UUPSUpgradeable initializer",
        "params": {
          "_illuvitarsPriceOracle": "ILV/ETH Chainlink price feed base illuvitars price oracle",
          "_linkToken": "LINK token address",
          "_sIlv": "sILV2 token address",
          "_treasury": "Treasury address",
          "_vrfCoordinator": "Chainlink VRF Coordinator address",
          "_vrfFee": "Chainlink VRF Fee",
          "_vrfKeyhash": "Chainlink VRF Key Hash"
        }
      },
      "owner()": {
        "details": "Returns the address of the current owner."
      },
      "paidMint((uint8,uint64)[],(uint8,uint8,uint64)[],(uint8,uint64)[],bool)": {
        "details": "Request minting Portrait and Accesory NFTs.",
        "params": {
          "accessoryFullRandomMintParams": "accessory layer full random mint params.",
          "accessorySemiRandomMintParams": "accessory layer semi random mint params.",
          "portraitMintParams": "portrait layer mint params.",
          "useSIlv": "true to use sILV, false to use ETH."
        }
      },
      "renounceOwnership()": {
        "details": "Leaves the contract without owner. It will not be possible to call `onlyOwner` functions anymore. Can only be called by the current owner. NOTE: Renouncing ownership will leave the contract without an owner, thereby removing any functionality that is only available to the owner."
      },
      "setPortraitSaleWindow((uint64,uint64))": {
        "details": "Set portrait sale window.only owner can call this function.",
        "params": {
          "_saleWindow": "New sale window."
        }
      },
      "setTreasury(address)": {
        "details": "Set new treasury address.only owner can call this function.",
        "params": {
          "treasury_": "Treasury Address."
        }
      },
      "transferOwnership(address)": {
        "details": "Transfers ownership of the contract to a new account (`newOwner`). Can only be called by the current owner."
      },
      "upgradeTo(address)": {
        "details": "Upgrade the implementation of the proxy to `newImplementation`. Calls {_authorizeUpgrade}. Emits an {Upgraded} event."
      },
      "upgradeToAndCall(address,bytes)": {
        "details": "Upgrade the implementation of the proxy to `newImplementation`, and subsequently execute the function call encoded in `data`. Calls {_authorizeUpgrade}. Emits an {Upgraded} event."
      },
      "withdraw()": {
        "details": "Withdraw ether and sILV to treasury address.only owner can call this function."
      }
    },
    "stateVariables": {
      "EXPRESSION_COUNT": {
        "details": "expression count - Normal, Expression A, Expression B"
      },
      "PORTRAIT_MASK": {
        "details": "0: without accessory      1: bonded 1 slot      2: bonded 2 slot      3: bonded 3 slot      4: bonded 4 slot      5: bonded 5 slot"
      },
      "accessoryMintInfo": {
        "details": "Accessory mint information"
      },
      "backgroundLines": {
        "details": "Background line info per tier"
      },
      "backgroundStages": {
        "details": "Background stages info per (tier, line)"
      },
      "backgroundTierChances": {
        "details": "Background tier chances"
      },
      "backgroundVariations": {
        "details": "Background variation count per (tier, line, stage)"
      },
      "expressionProbability": {
        "details": "expression probability"
      },
      "freeRequestCount": {
        "details": "Free requests count"
      },
      "freeRequests": {
        "details": "User's free mint requests"
      },
      "illuvialCounts": {
        "details": "Illuvial count per tier"
      },
      "illuvitarsPriceOracle": {
        "details": "ILV/ETH Chainlink price feed address"
      },
      "mintRequests": {
        "details": "User's mint requests"
      },
      "nextAccessoryTokenId": {
        "details": "Next accessory token id to mint"
      },
      "nextPortraitTokenId": {
        "details": "Next portrait token id to mint"
      },
      "portraitMintInfo": {
        "details": "Portrait mint information"
      },
      "portraitSaleWindow": {
        "details": "Portrait sale window"
      },
      "sIlv": {
        "details": "sILV2 token address"
      },
      "stageProbability": {
        "details": "stage probability"
      },
      "treasury": {
        "details": "treasury address"
      },
      "vrfFee": {
        "details": "chainlink VRF fee"
      },
      "vrfKeyHash": {
        "details": "chainlink VRF key hash"
      }
    },
    "title": "Minter",
    "version": 1
  },
  "userdoc": {
    "kind": "user",
    "methods": {
      "freeMint((uint8,uint64)[],(uint8,uint8,uint64)[],(uint8,uint64)[])": {
        "notice": "Users pay ETH or sILV to request minting"
      },
      "paidMint((uint8,uint64)[],(uint8,uint8,uint64)[],(uint8,uint64)[],bool)": {
        "notice": "Users pay ETH or sILV to request minting"
      }
    },
    "notice": "Allow users to request minting Illuvitars.",
    "version": 1
  },
  "storageLayout": {
    "storage": [
      {
        "astId": 1089,
        "contract": "contracts/protocol/Minter.sol:Minter",
        "label": "_initialized",
        "offset": 0,
        "slot": "0",
        "type": "t_bool"
      },
      {
        "astId": 1092,
        "contract": "contracts/protocol/Minter.sol:Minter",
        "label": "_initializing",
        "offset": 1,
        "slot": "0",
        "type": "t_bool"
      },
      {
        "astId": 4381,
        "contract": "contracts/protocol/Minter.sol:Minter",
        "label": "LINK",
        "offset": 2,
        "slot": "0",
        "type": "t_contract(LinkTokenInterface)190"
      },
      {
        "astId": 4383,
        "contract": "contracts/protocol/Minter.sol:Minter",
        "label": "vrfCoordinator",
        "offset": 0,
        "slot": "1",
        "type": "t_address"
      },
      {
        "astId": 4387,
        "contract": "contracts/protocol/Minter.sol:Minter",
        "label": "nonces",
        "offset": 0,
        "slot": "2",
        "type": "t_mapping(t_bytes32,t_uint256)"
      },
      {
        "astId": 1072,
        "contract": "contracts/protocol/Minter.sol:Minter",
        "label": "__gap",
        "offset": 0,
        "slot": "3",
        "type": "t_array(t_uint256)50_storage"
      },
      {
        "astId": 1239,
        "contract": "contracts/protocol/Minter.sol:Minter",
        "label": "__gap",
        "offset": 0,
        "slot": "53",
        "type": "t_array(t_uint256)50_storage"
      },
      {
        "astId": 3249,
        "contract": "contracts/protocol/Minter.sol:Minter",
        "label": "__gap",
        "offset": 0,
        "slot": "103",
        "type": "t_array(t_uint256)50_storage"
      },
      {
        "astId": 560,
        "contract": "contracts/protocol/Minter.sol:Minter",
        "label": "_owner",
        "offset": 0,
        "slot": "153",
        "type": "t_address"
      },
      {
        "astId": 674,
        "contract": "contracts/protocol/Minter.sol:Minter",
        "label": "__gap",
        "offset": 0,
        "slot": "154",
        "type": "t_array(t_uint256)49_storage"
      },
      {
        "astId": 5153,
        "contract": "contracts/protocol/Minter.sol:Minter",
        "label": "portraitMintInfo",
        "offset": 0,
        "slot": "203",
        "type": "t_mapping(t_enum(BoxType)3979,t_struct(PortraitMintInfo)5371_storage)"
      },
      {
        "astId": 5160,
        "contract": "contracts/protocol/Minter.sol:Minter",
        "label": "accessoryMintInfo",
        "offset": 0,
        "slot": "204",
        "type": "t_mapping(t_enum(BoxType)3979,t_struct(AccessoryMintInfo)5380_storage)"
      },
      {
        "astId": 5165,
        "contract": "contracts/protocol/Minter.sol:Minter",
        "label": "expressionProbability",
        "offset": 0,
        "slot": "205",
        "type": "t_array(t_uint16)3_storage"
      },
      {
        "astId": 5170,
        "contract": "contracts/protocol/Minter.sol:Minter",
        "label": "stageProbability",
        "offset": 0,
        "slot": "206",
        "type": "t_array(t_uint16)3_storage"
      },
      {
        "astId": 5180,
        "contract": "contracts/protocol/Minter.sol:Minter",
        "label": "backgroundTierChances",
        "offset": 0,
        "slot": "207",
        "type": "t_mapping(t_uint8,t_mapping(t_enum(BoxType)3979,t_array(t_uint16)4_storage))"
      },
      {
        "astId": 5187,
        "contract": "contracts/protocol/Minter.sol:Minter",
        "label": "backgroundLines",
        "offset": 0,
        "slot": "208",
        "type": "t_mapping(t_uint8,t_array(t_enum(BackgroundLine)3997)dyn_storage)"
      },
      {
        "astId": 5196,
        "contract": "contracts/protocol/Minter.sol:Minter",
        "label": "backgroundStages",
        "offset": 0,
        "slot": "209",
        "type": "t_mapping(t_uint8,t_mapping(t_enum(BackgroundLine)3997,t_array(t_uint8)dyn_storage))"
      },
      {
        "astId": 5206,
        "contract": "contracts/protocol/Minter.sol:Minter",
        "label": "backgroundVariations",
        "offset": 0,
        "slot": "210",
        "type": "t_mapping(t_uint8,t_mapping(t_enum(BackgroundLine)3997,t_mapping(t_uint8,t_uint8)))"
      },
      {
        "astId": 5211,
        "contract": "contracts/protocol/Minter.sol:Minter",
        "label": "illuvialCounts",
        "offset": 0,
        "slot": "211",
        "type": "t_array(t_uint8)6_storage"
      },
      {
        "astId": 5217,
        "contract": "contracts/protocol/Minter.sol:Minter",
        "label": "mintRequests",
        "offset": 0,
        "slot": "212",
        "type": "t_mapping(t_bytes32,t_struct(MintRequest)5324_storage)"
      },
      {
        "astId": 5223,
        "contract": "contracts/protocol/Minter.sol:Minter",
        "label": "freeRequests",
        "offset": 0,
        "slot": "213",
        "type": "t_mapping(t_uint256,t_struct(MintRequest)5324_storage)"
      },
      {
        "astId": 5226,
        "contract": "contracts/protocol/Minter.sol:Minter",
        "label": "freeRequestCount",
        "offset": 0,
        "slot": "214",
        "type": "t_uint256"
      },
      {
        "astId": 5230,
        "contract": "contracts/protocol/Minter.sol:Minter",
        "label": "portraitSaleWindow",
        "offset": 0,
        "slot": "215",
        "type": "t_struct(SaleWindow)5385_storage"
      },
      {
        "astId": 5233,
        "contract": "contracts/protocol/Minter.sol:Minter",
        "label": "sIlv",
        "offset": 0,
        "slot": "216",
        "type": "t_address"
      },
      {
        "astId": 5236,
        "contract": "contracts/protocol/Minter.sol:Minter",
        "label": "treasury",
        "offset": 0,
        "slot": "217",
        "type": "t_address"
      },
      {
        "astId": 5240,
        "contract": "contracts/protocol/Minter.sol:Minter",
        "label": "illuvitarsPriceOracle",
        "offset": 0,
        "slot": "218",
        "type": "t_contract(IlluvitarsPriceOracle)4482"
      },
      {
        "astId": 5243,
        "contract": "contracts/protocol/Minter.sol:Minter",
        "label": "vrfKeyHash",
        "offset": 0,
        "slot": "219",
        "type": "t_bytes32"
      },
      {
        "astId": 5246,
        "contract": "contracts/protocol/Minter.sol:Minter",
        "label": "vrfFee",
        "offset": 0,
        "slot": "220",
        "type": "t_uint256"
      },
      {
        "astId": 5249,
        "contract": "contracts/protocol/Minter.sol:Minter",
        "label": "nextPortraitTokenId",
        "offset": 0,
        "slot": "221",
        "type": "t_uint256"
      },
      {
        "astId": 5252,
        "contract": "contracts/protocol/Minter.sol:Minter",
        "label": "nextAccessoryTokenId",
        "offset": 0,
        "slot": "222",
        "type": "t_uint256"
      }
    ],
    "types": {
      "t_address": {
        "encoding": "inplace",
        "label": "address",
        "numberOfBytes": "20"
      },
      "t_array(t_enum(BackgroundLine)3997)dyn_storage": {
        "base": "t_enum(BackgroundLine)3997",
        "encoding": "dynamic_array",
        "label": "enum BackgroundLine[]",
        "numberOfBytes": "32"
      },
      "t_array(t_struct(AccessoryFullRandomMintParams)5299_storage)dyn_storage": {
        "base": "t_struct(AccessoryFullRandomMintParams)5299_storage",
        "encoding": "dynamic_array",
        "label": "struct Minter.AccessoryFullRandomMintParams[]",
        "numberOfBytes": "32"
      },
      "t_array(t_struct(AccessorySemiRandomMintParams)5293_storage)dyn_storage": {
        "base": "t_struct(AccessorySemiRandomMintParams)5293_storage",
        "encoding": "dynamic_array",
        "label": "struct Minter.AccessorySemiRandomMintParams[]",
        "numberOfBytes": "32"
      },
      "t_array(t_struct(PortraitMintParams)5284_storage)dyn_storage": {
        "base": "t_struct(PortraitMintParams)5284_storage",
        "encoding": "dynamic_array",
        "label": "struct Minter.PortraitMintParams[]",
        "numberOfBytes": "32"
      },
      "t_array(t_uint16)3_storage": {
        "base": "t_uint16",
        "encoding": "inplace",
        "label": "uint16[3]",
        "numberOfBytes": "32"
      },
      "t_array(t_uint16)4_storage": {
        "base": "t_uint16",
        "encoding": "inplace",
        "label": "uint16[4]",
        "numberOfBytes": "32"
      },
      "t_array(t_uint256)49_storage": {
        "base": "t_uint256",
        "encoding": "inplace",
        "label": "uint256[49]",
        "numberOfBytes": "1568"
      },
      "t_array(t_uint256)50_storage": {
        "base": "t_uint256",
        "encoding": "inplace",
        "label": "uint256[50]",
        "numberOfBytes": "1600"
      },
      "t_array(t_uint8)6_storage": {
        "base": "t_uint8",
        "encoding": "inplace",
        "label": "uint8[6]",
        "numberOfBytes": "32"
      },
      "t_array(t_uint8)dyn_storage": {
        "base": "t_uint8",
        "encoding": "dynamic_array",
        "label": "uint8[]",
        "numberOfBytes": "32"
      },
      "t_bool": {
        "encoding": "inplace",
        "label": "bool",
        "numberOfBytes": "1"
      },
      "t_bytes32": {
        "encoding": "inplace",
        "label": "bytes32",
        "numberOfBytes": "32"
      },
      "t_contract(IlluvitarsPriceOracle)4482": {
        "encoding": "inplace",
        "label": "contract IlluvitarsPriceOracle",
        "numberOfBytes": "20"
      },
      "t_contract(LinkTokenInterface)190": {
        "encoding": "inplace",
        "label": "contract LinkTokenInterface",
        "numberOfBytes": "20"
      },
      "t_enum(AccessoryType)3972": {
        "encoding": "inplace",
        "label": "enum AccessoryType",
        "numberOfBytes": "1"
      },
      "t_enum(BackgroundLine)3997": {
        "encoding": "inplace",
        "label": "enum BackgroundLine",
        "numberOfBytes": "1"
      },
      "t_enum(BoxType)3979": {
        "encoding": "inplace",
        "label": "enum BoxType",
        "numberOfBytes": "1"
      },
      "t_mapping(t_bytes32,t_struct(MintRequest)5324_storage)": {
        "encoding": "mapping",
        "key": "t_bytes32",
        "label": "mapping(bytes32 => struct Minter.MintRequest)",
        "numberOfBytes": "32",
        "value": "t_struct(MintRequest)5324_storage"
      },
      "t_mapping(t_bytes32,t_uint256)": {
        "encoding": "mapping",
        "key": "t_bytes32",
        "label": "mapping(bytes32 => uint256)",
        "numberOfBytes": "32",
        "value": "t_uint256"
      },
      "t_mapping(t_enum(BackgroundLine)3997,t_array(t_uint8)dyn_storage)": {
        "encoding": "mapping",
        "key": "t_enum(BackgroundLine)3997",
        "label": "mapping(enum BackgroundLine => uint8[])",
        "numberOfBytes": "32",
        "value": "t_array(t_uint8)dyn_storage"
      },
      "t_mapping(t_enum(BackgroundLine)3997,t_mapping(t_uint8,t_uint8))": {
        "encoding": "mapping",
        "key": "t_enum(BackgroundLine)3997",
        "label": "mapping(enum BackgroundLine => mapping(uint8 => uint8))",
        "numberOfBytes": "32",
        "value": "t_mapping(t_uint8,t_uint8)"
      },
      "t_mapping(t_enum(BoxType)3979,t_array(t_uint16)4_storage)": {
        "encoding": "mapping",
        "key": "t_enum(BoxType)3979",
        "label": "mapping(enum BoxType => uint16[4])",
        "numberOfBytes": "32",
        "value": "t_array(t_uint16)4_storage"
      },
      "t_mapping(t_enum(BoxType)3979,t_struct(AccessoryMintInfo)5380_storage)": {
        "encoding": "mapping",
        "key": "t_enum(BoxType)3979",
        "label": "mapping(enum BoxType => struct Minter.AccessoryMintInfo)",
        "numberOfBytes": "32",
        "value": "t_struct(AccessoryMintInfo)5380_storage"
      },
      "t_mapping(t_enum(BoxType)3979,t_struct(PortraitMintInfo)5371_storage)": {
        "encoding": "mapping",
        "key": "t_enum(BoxType)3979",
        "label": "mapping(enum BoxType => struct Minter.PortraitMintInfo)",
        "numberOfBytes": "32",
        "value": "t_struct(PortraitMintInfo)5371_storage"
      },
      "t_mapping(t_uint256,t_struct(MintRequest)5324_storage)": {
        "encoding": "mapping",
        "key": "t_uint256",
        "label": "mapping(uint256 => struct Minter.MintRequest)",
        "numberOfBytes": "32",
        "value": "t_struct(MintRequest)5324_storage"
      },
      "t_mapping(t_uint8,t_array(t_enum(BackgroundLine)3997)dyn_storage)": {
        "encoding": "mapping",
        "key": "t_uint8",
        "label": "mapping(uint8 => enum BackgroundLine[])",
        "numberOfBytes": "32",
        "value": "t_array(t_enum(BackgroundLine)3997)dyn_storage"
      },
      "t_mapping(t_uint8,t_mapping(t_enum(BackgroundLine)3997,t_array(t_uint8)dyn_storage))": {
        "encoding": "mapping",
        "key": "t_uint8",
        "label": "mapping(uint8 => mapping(enum BackgroundLine => uint8[]))",
        "numberOfBytes": "32",
        "value": "t_mapping(t_enum(BackgroundLine)3997,t_array(t_uint8)dyn_storage)"
      },
      "t_mapping(t_uint8,t_mapping(t_enum(BackgroundLine)3997,t_mapping(t_uint8,t_uint8)))": {
        "encoding": "mapping",
        "key": "t_uint8",
        "label": "mapping(uint8 => mapping(enum BackgroundLine => mapping(uint8 => uint8)))",
        "numberOfBytes": "32",
        "value": "t_mapping(t_enum(BackgroundLine)3997,t_mapping(t_uint8,t_uint8))"
      },
      "t_mapping(t_uint8,t_mapping(t_enum(BoxType)3979,t_array(t_uint16)4_storage))": {
        "encoding": "mapping",
        "key": "t_uint8",
        "label": "mapping(uint8 => mapping(enum BoxType => uint16[4]))",
        "numberOfBytes": "32",
        "value": "t_mapping(t_enum(BoxType)3979,t_array(t_uint16)4_storage)"
      },
      "t_mapping(t_uint8,t_uint8)": {
        "encoding": "mapping",
        "key": "t_uint8",
        "label": "mapping(uint8 => uint8)",
        "numberOfBytes": "32",
        "value": "t_uint8"
      },
      "t_struct(AccessoryFullRandomMintParams)5299_storage": {
        "encoding": "inplace",
        "label": "struct Minter.AccessoryFullRandomMintParams",
        "members": [
          {
            "astId": 5296,
            "contract": "contracts/protocol/Minter.sol:Minter",
            "label": "boxType",
            "offset": 0,
            "slot": "0",
            "type": "t_enum(BoxType)3979"
          },
          {
            "astId": 5298,
            "contract": "contracts/protocol/Minter.sol:Minter",
            "label": "amount",
            "offset": 1,
            "slot": "0",
            "type": "t_uint64"
          }
        ],
        "numberOfBytes": "32"
      },
      "t_struct(AccessoryMintInfo)5380_storage": {
        "encoding": "inplace",
        "label": "struct Minter.AccessoryMintInfo",
        "members": [
          {
            "astId": 5373,
            "contract": "contracts/protocol/Minter.sol:Minter",
            "label": "randomPrice",
            "offset": 0,
            "slot": "0",
            "type": "t_uint256"
          },
          {
            "astId": 5375,
            "contract": "contracts/protocol/Minter.sol:Minter",
            "label": "semiRandomPrice",
            "offset": 0,
            "slot": "1",
            "type": "t_uint256"
          },
          {
            "astId": 5379,
            "contract": "contracts/protocol/Minter.sol:Minter",
            "label": "tierChances",
            "offset": 0,
            "slot": "2",
            "type": "t_array(t_uint16)4_storage"
          }
        ],
        "numberOfBytes": "96"
      },
      "t_struct(AccessorySemiRandomMintParams)5293_storage": {
        "encoding": "inplace",
        "label": "struct Minter.AccessorySemiRandomMintParams",
        "members": [
          {
            "astId": 5287,
            "contract": "contracts/protocol/Minter.sol:Minter",
            "label": "accessoryType",
            "offset": 0,
            "slot": "0",
            "type": "t_enum(AccessoryType)3972"
          },
          {
            "astId": 5290,
            "contract": "contracts/protocol/Minter.sol:Minter",
            "label": "boxType",
            "offset": 1,
            "slot": "0",
            "type": "t_enum(BoxType)3979"
          },
          {
            "astId": 5292,
            "contract": "contracts/protocol/Minter.sol:Minter",
            "label": "amount",
            "offset": 2,
            "slot": "0",
            "type": "t_uint64"
          }
        ],
        "numberOfBytes": "32"
      },
      "t_struct(MintRequest)5324_storage": {
        "encoding": "inplace",
        "label": "struct Minter.MintRequest",
        "members": [
          {
            "astId": 5301,
            "contract": "contracts/protocol/Minter.sol:Minter",
            "label": "requester",
            "offset": 0,
            "slot": "0",
            "type": "t_address"
          },
          {
            "astId": 5305,
            "contract": "contracts/protocol/Minter.sol:Minter",
            "label": "portraitMintParams",
            "offset": 0,
            "slot": "1",
            "type": "t_array(t_struct(PortraitMintParams)5284_storage)dyn_storage"
          },
          {
            "astId": 5307,
            "contract": "contracts/protocol/Minter.sol:Minter",
            "label": "portraitAmount",
            "offset": 0,
            "slot": "2",
            "type": "t_uint256"
          },
          {
            "astId": 5311,
            "contract": "contracts/protocol/Minter.sol:Minter",
            "label": "accessorySemiRandomMintParams",
            "offset": 0,
            "slot": "3",
            "type": "t_array(t_struct(AccessorySemiRandomMintParams)5293_storage)dyn_storage"
          },
          {
            "astId": 5315,
            "contract": "contracts/protocol/Minter.sol:Minter",
            "label": "accessoryFullRandomMintParams",
            "offset": 0,
            "slot": "4",
            "type": "t_array(t_struct(AccessoryFullRandomMintParams)5299_storage)dyn_storage"
          },
          {
            "astId": 5317,
            "contract": "contracts/protocol/Minter.sol:Minter",
            "label": "accessoryAmount",
            "offset": 0,
            "slot": "5",
            "type": "t_uint256"
          },
          {
            "astId": 5319,
            "contract": "contracts/protocol/Minter.sol:Minter",
            "label": "randomNumber",
            "offset": 0,
            "slot": "6",
            "type": "t_uint256"
          },
          {
            "astId": 5321,
            "contract": "contracts/protocol/Minter.sol:Minter",
            "label": "portraitStartTokenId",
            "offset": 0,
            "slot": "7",
            "type": "t_uint256"
          },
          {
            "astId": 5323,
            "contract": "contracts/protocol/Minter.sol:Minter",
            "label": "accessoryStartTokenId",
            "offset": 0,
            "slot": "8",
            "type": "t_uint256"
          }
        ],
        "numberOfBytes": "288"
      },
      "t_struct(PortraitMintInfo)5371_storage": {
        "encoding": "inplace",
        "label": "struct Minter.PortraitMintInfo",
        "members": [
          {
            "astId": 5364,
            "contract": "contracts/protocol/Minter.sol:Minter",
            "label": "price",
            "offset": 0,
            "slot": "0",
            "type": "t_uint256"
          },
          {
            "astId": 5368,
            "contract": "contracts/protocol/Minter.sol:Minter",
            "label": "tierChances",
            "offset": 0,
            "slot": "1",
            "type": "t_array(t_uint16)4_storage"
          },
          {
            "astId": 5370,
            "contract": "contracts/protocol/Minter.sol:Minter",
            "label": "holoProbability",
            "offset": 0,
            "slot": "2",
            "type": "t_uint16"
          }
        ],
        "numberOfBytes": "96"
      },
      "t_struct(PortraitMintParams)5284_storage": {
        "encoding": "inplace",
        "label": "struct Minter.PortraitMintParams",
        "members": [
          {
            "astId": 5281,
            "contract": "contracts/protocol/Minter.sol:Minter",
            "label": "boxType",
            "offset": 0,
            "slot": "0",
            "type": "t_enum(BoxType)3979"
          },
          {
            "astId": 5283,
            "contract": "contracts/protocol/Minter.sol:Minter",
            "label": "amount",
            "offset": 1,
            "slot": "0",
            "type": "t_uint64"
          }
        ],
        "numberOfBytes": "32"
      },
      "t_struct(SaleWindow)5385_storage": {
        "encoding": "inplace",
        "label": "struct Minter.SaleWindow",
        "members": [
          {
            "astId": 5382,
            "contract": "contracts/protocol/Minter.sol:Minter",
            "label": "start",
            "offset": 0,
            "slot": "0",
            "type": "t_uint64"
          },
          {
            "astId": 5384,
            "contract": "contracts/protocol/Minter.sol:Minter",
            "label": "end",
            "offset": 8,
            "slot": "0",
            "type": "t_uint64"
          }
        ],
        "numberOfBytes": "32"
      },
      "t_uint16": {
        "encoding": "inplace",
        "label": "uint16",
        "numberOfBytes": "2"
      },
      "t_uint256": {
        "encoding": "inplace",
        "label": "uint256",
        "numberOfBytes": "32"
      },
      "t_uint64": {
        "encoding": "inplace",
        "label": "uint64",
        "numberOfBytes": "8"
      },
      "t_uint8": {
        "encoding": "inplace",
        "label": "uint8",
        "numberOfBytes": "1"
      }
    }
  }
}