{
  "address": "0x0E9c8257b47aac7F4638E8222b6B9eE8c2A99C43",
  "abi": [
    {
      "anonymous": false,
      "inputs": [
        {
          "indexed": false,
          "internalType": "address",
          "name": "previousAdmin",
          "type": "address"
        },
        {
          "indexed": false,
          "internalType": "address",
          "name": "newAdmin",
          "type": "address"
        }
      ],
      "name": "AdminChanged",
      "type": "event"
    },
    {
      "anonymous": false,
      "inputs": [
        {
          "indexed": true,
          "internalType": "address",
          "name": "beacon",
          "type": "address"
        }
      ],
      "name": "BeaconUpgraded",
      "type": "event"
    },
    {
      "anonymous": false,
      "inputs": [
        {
          "indexed": true,
          "internalType": "address",
          "name": "requester",
          "type": "address"
        },
        {
          "indexed": false,
          "internalType": "bytes32",
          "name": "requestId",
          "type": "bytes32"
        }
      ],
      "name": "MintRequested",
      "type": "event"
    },
    {
      "anonymous": false,
      "inputs": [
        {
          "indexed": true,
          "internalType": "address",
          "name": "previousOwner",
          "type": "address"
        },
        {
          "indexed": true,
          "internalType": "address",
          "name": "newOwner",
          "type": "address"
        }
      ],
      "name": "OwnershipTransferred",
      "type": "event"
    },
    {
      "anonymous": false,
      "inputs": [
        {
          "indexed": true,
          "internalType": "bytes32",
          "name": "requestId",
          "type": "bytes32"
        },
        {
          "indexed": false,
          "internalType": "uint256",
          "name": "randomNumber",
          "type": "uint256"
        }
      ],
      "name": "RequestFulfilled",
      "type": "event"
    },
    {
      "anonymous": false,
      "inputs": [
        {
          "indexed": true,
          "internalType": "address",
          "name": "treasury",
          "type": "address"
        }
      ],
      "name": "TreasurySet",
      "type": "event"
    },
    {
      "anonymous": false,
      "inputs": [
        {
          "indexed": true,
          "internalType": "address",
          "name": "implementation",
          "type": "address"
        }
      ],
      "name": "Upgraded",
      "type": "event"
    },
    {
      "inputs": [],
      "name": "MAX_TIER_CHANCE",
      "outputs": [
        {
          "internalType": "uint16",
          "name": "",
          "type": "uint16"
        }
      ],
      "stateMutability": "view",
      "type": "function"
    },
    {
      "inputs": [],
      "name": "TIER_COUNT",
      "outputs": [
        {
          "internalType": "uint8",
          "name": "",
          "type": "uint8"
        }
      ],
      "stateMutability": "view",
      "type": "function"
    },
    {
      "inputs": [
        {
          "internalType": "enum BoxType",
          "name": "",
          "type": "uint8"
        }
      ],
      "name": "accessoryMintInfo",
      "outputs": [
        {
          "internalType": "uint256",
          "name": "randomPrice",
          "type": "uint256"
        },
        {
          "internalType": "uint256",
          "name": "semiRandomPrice",
          "type": "uint256"
        }
      ],
      "stateMutability": "view",
      "type": "function"
    },
    {
      "inputs": [
        {
          "internalType": "bytes32",
          "name": "requestId",
          "type": "bytes32"
        }
      ],
      "name": "deleteFulfilledMintRequest",
      "outputs": [],
      "stateMutability": "nonpayable",
      "type": "function"
    },
    {
      "inputs": [
        {
          "internalType": "bytes32",
          "name": "requestId",
          "type": "bytes32"
        }
      ],
      "name": "getMintResult",
      "outputs": [
        {
          "internalType": "address",
          "name": "requester",
          "type": "address"
        },
        {
          "internalType": "uint256",
          "name": "seed",
          "type": "uint256"
        },
        {
          "components": [
            {
              "internalType": "enum BoxType",
              "name": "boxType",
              "type": "uint8"
            },
            {
              "internalType": "uint8",
              "name": "tier",
              "type": "uint8"
            },
            {
              "internalType": "uint256",
              "name": "rand",
              "type": "uint256"
            }
          ],
          "internalType": "struct Minter.PortraitInfo[]",
          "name": "portraits",
          "type": "tuple[]"
        },
        {
          "components": [
            {
              "internalType": "enum BoxType",
              "name": "boxType",
              "type": "uint8"
            },
            {
              "internalType": "enum AccessoryType",
              "name": "accessoryType",
              "type": "uint8"
            },
            {
              "internalType": "uint8",
              "name": "tier",
              "type": "uint8"
            }
          ],
          "internalType": "struct Minter.AccessoryInfo[]",
          "name": "accessories",
          "type": "tuple[]"
        }
      ],
      "stateMutability": "view",
      "type": "function"
    },
    {
      "inputs": [],
      "name": "illuvitarsPriceOracle",
      "outputs": [
        {
          "internalType": "contract IlluvitarsPriceOracle",
          "name": "",
          "type": "address"
        }
      ],
      "stateMutability": "view",
      "type": "function"
    },
    {
      "inputs": [
        {
          "internalType": "address",
          "name": "_vrfCoordinator",
          "type": "address"
        },
        {
          "internalType": "address",
          "name": "_linkToken",
          "type": "address"
        },
        {
          "internalType": "bytes32",
          "name": "_vrfKeyhash",
          "type": "bytes32"
        },
        {
          "internalType": "uint256",
          "name": "_vrfFee",
          "type": "uint256"
        },
        {
          "internalType": "address",
          "name": "_treasury",
          "type": "address"
        },
        {
          "internalType": "address",
          "name": "_sIlv",
          "type": "address"
        },
        {
          "internalType": "address",
          "name": "_illuvitarsPriceOracle",
          "type": "address"
        }
      ],
      "name": "initialize",
      "outputs": [],
      "stateMutability": "nonpayable",
      "type": "function"
    },
    {
      "inputs": [
        {
          "internalType": "bytes32",
          "name": "",
          "type": "bytes32"
        }
      ],
      "name": "mintRequests",
      "outputs": [
        {
          "internalType": "address",
          "name": "requester",
          "type": "address"
        },
        {
          "internalType": "uint256",
          "name": "randomNumber",
          "type": "uint256"
        }
      ],
      "stateMutability": "view",
      "type": "function"
    },
    {
      "inputs": [],
      "name": "owner",
      "outputs": [
        {
          "internalType": "address",
          "name": "",
          "type": "address"
        }
      ],
      "stateMutability": "view",
      "type": "function"
    },
    {
      "inputs": [
        {
          "internalType": "enum BoxType",
          "name": "",
          "type": "uint8"
        }
      ],
      "name": "portraitMintInfo",
      "outputs": [
        {
          "internalType": "uint256",
          "name": "price",
          "type": "uint256"
        }
      ],
      "stateMutability": "view",
      "type": "function"
    },
    {
      "inputs": [],
      "name": "portraitSaleWindow",
      "outputs": [
        {
          "internalType": "uint64",
          "name": "start",
          "type": "uint64"
        },
        {
          "internalType": "uint64",
          "name": "end",
          "type": "uint64"
        }
      ],
      "stateMutability": "view",
      "type": "function"
    },
    {
      "inputs": [
        {
          "components": [
            {
              "internalType": "enum BoxType",
              "name": "boxType",
              "type": "uint8"
            },
            {
              "internalType": "uint64",
              "name": "amount",
              "type": "uint64"
            }
          ],
          "internalType": "struct Minter.PortraitMintParams[]",
          "name": "portraitMintParams",
          "type": "tuple[]"
        },
        {
          "components": [
            {
              "internalType": "enum AccessoryType",
              "name": "accessoryType",
              "type": "uint8"
            },
            {
              "internalType": "enum BoxType",
              "name": "boxType",
              "type": "uint8"
            },
            {
              "internalType": "uint64",
              "name": "amount",
              "type": "uint64"
            }
          ],
          "internalType": "struct Minter.AccessorySemiRandomMintParams[]",
          "name": "accessorySemiRandomMintParams",
          "type": "tuple[]"
        },
        {
          "components": [
            {
              "internalType": "enum BoxType",
              "name": "boxType",
              "type": "uint8"
            },
            {
              "internalType": "uint64",
              "name": "amount",
              "type": "uint64"
            }
          ],
          "internalType": "struct Minter.AccessoryFullRandomMintParams[]",
          "name": "accessoryFullRandomMintParams",
          "type": "tuple[]"
        },
        {
          "internalType": "bool",
          "name": "useSIlv",
          "type": "bool"
        }
      ],
      "name": "purchase",
      "outputs": [],
      "stateMutability": "payable",
      "type": "function"
    },
    {
      "inputs": [
        {
          "internalType": "bytes32",
          "name": "requestId",
          "type": "bytes32"
        },
        {
          "internalType": "uint256",
          "name": "randomness",
          "type": "uint256"
        }
      ],
      "name": "rawFulfillRandomness",
      "outputs": [],
      "stateMutability": "nonpayable",
      "type": "function"
    },
    {
      "inputs": [],
      "name": "renounceOwnership",
      "outputs": [],
      "stateMutability": "nonpayable",
      "type": "function"
    },
    {
      "inputs": [],
      "name": "sIlv",
      "outputs": [
        {
          "internalType": "address",
          "name": "",
          "type": "address"
        }
      ],
      "stateMutability": "view",
      "type": "function"
    },
    {
      "inputs": [
        {
          "components": [
            {
              "internalType": "uint64",
              "name": "start",
              "type": "uint64"
            },
            {
              "internalType": "uint64",
              "name": "end",
              "type": "uint64"
            }
          ],
          "internalType": "struct Minter.SaleWindow",
          "name": "_saleWindow",
          "type": "tuple"
        }
      ],
      "name": "setPortraitSaleWindow",
      "outputs": [],
      "stateMutability": "nonpayable",
      "type": "function"
    },
    {
      "inputs": [
        {
          "internalType": "address",
          "name": "treasury_",
          "type": "address"
        }
      ],
      "name": "setTreasury",
      "outputs": [],
      "stateMutability": "nonpayable",
      "type": "function"
    },
    {
      "inputs": [
        {
          "internalType": "address",
          "name": "newOwner",
          "type": "address"
        }
      ],
      "name": "transferOwnership",
      "outputs": [],
      "stateMutability": "nonpayable",
      "type": "function"
    },
    {
      "inputs": [],
      "name": "treasury",
      "outputs": [
        {
          "internalType": "address",
          "name": "",
          "type": "address"
        }
      ],
      "stateMutability": "view",
      "type": "function"
    },
    {
      "inputs": [
        {
          "internalType": "address",
          "name": "newImplementation",
          "type": "address"
        }
      ],
      "name": "upgradeTo",
      "outputs": [],
      "stateMutability": "nonpayable",
      "type": "function"
    },
    {
      "inputs": [
        {
          "internalType": "address",
          "name": "newImplementation",
          "type": "address"
        },
        {
          "internalType": "bytes",
          "name": "data",
          "type": "bytes"
        }
      ],
      "name": "upgradeToAndCall",
      "outputs": [],
      "stateMutability": "payable",
      "type": "function"
    },
    {
      "inputs": [],
      "name": "vrfFee",
      "outputs": [
        {
          "internalType": "uint256",
          "name": "",
          "type": "uint256"
        }
      ],
      "stateMutability": "view",
      "type": "function"
    },
    {
      "inputs": [],
      "name": "vrfKeyHash",
      "outputs": [
        {
          "internalType": "bytes32",
          "name": "",
          "type": "bytes32"
        }
      ],
      "stateMutability": "view",
      "type": "function"
    }
  ],
  "transactionHash": "0x2721d6dbf069d953fd255eab6d0f042badeacc17520baccda804dc9818605aef",
  "args": [
    "0xf8046Eb28d62D12AB1b55e8e6A9742C1b1F51164",
    "0xb953b44b4e776313B1236D92C09D9ce39135EdbE",
    "0x0000000000000000000000000000000000000000000000000000000000000000",
    "0",
    "0xebF5209E76b34553b1cFD5bec2d71Dc8A6559A2e",
    "0xCe34A06141B2131aD6C6E293275d22123bcf1865",
    "0xe93F7161761f6C5F084430A22F16228b93854fbC"
  ],
  "numDeployments": 1,
  "solcInputHash": "25554fadf2bd55946b93fb79010f787c",
  "bytecode": "0x60a06040523060805234801561001457600080fd5b50608051613c3b6100456000396000818161093b0152818161097b01528181610a030152610a430152613c3b6000f3fe6080604052600436106101405760003560e01c80636250b2c5116100b6578063ade0d7001161006f578063ade0d70014610401578063c556f0621461042e578063dcce80e41461044e578063f0f442601461046e578063f2fde38b1461048e578063f5bfe9b1146104ae57600080fd5b80636250b2c514610332578063715018a61461035257806387f568a9146103675780638da5cb5b1461037a5780638fd7adb51461039857806394985ddd146103e157600080fd5b80632a854867116101085780632a8548671461025057806336331c8f146102805780633659cfe6146102a75780634f1ef286146102c75780635cd37174146102da57806361d027b31461031257600080fd5b806302f8059014610145578063041d443e146101955780630d39e46d146101b95780631017507d1461021857806313f794a91461022e575b600080fd5b34801561015157600080fd5b5060ce54610170906001600160401b0380821691600160401b90041682565b604080516001600160401b039384168152929091166020830152015b60405180910390f35b3480156101a157600080fd5b506101ab60d25481565b60405190815260200161018c565b3480156101c557600080fd5b506101f96101d4366004613320565b60cd60205260009081526040902080546004909101546001600160a01b039091169082565b604080516001600160a01b03909316835260208301919091520161018c565b34801561022457600080fd5b506101ab60d35481565b34801561023a57600080fd5b5061024e610249366004613320565b6104d7565b005b34801561025c57600080fd5b5061027061026b366004613320565b610621565b60405161018c94939291906133ce565b34801561028c57600080fd5b50610295600681565b60405160ff909116815260200161018c565b3480156102b357600080fd5b5061024e6102c2366004613479565b610931565b61024e6102d53660046134da565b6109f9565b3480156102e657600080fd5b5060d1546102fa906001600160a01b031681565b6040516001600160a01b03909116815260200161018c565b34801561031e57600080fd5b5060d0546102fa906001600160a01b031681565b34801561033e57600080fd5b5061024e61034d36600461357f565b610ab2565b34801561035e57600080fd5b5061024e610b60565b61024e6103753660046135fb565b610b96565b34801561038657600080fd5b506099546001600160a01b03166102fa565b3480156103a457600080fd5b506103cc6103b33660046136e5565b60cc602052600090815260409020805460019091015482565b6040805192835260208301919091520161018c565b3480156103ed57600080fd5b5061024e6103fc366004613700565b611200565b34801561040d57600080fd5b506101ab61041c3660046136e5565b60cb6020526000908152604090205481565b34801561043a57600080fd5b5060cf546102fa906001600160a01b031681565b34801561045a57600080fd5b5061024e610469366004613722565b611264565b34801561047a57600080fd5b5061024e610489366004613479565b6113b6565b34801561049a57600080fd5b5061024e6104a9366004613479565b611480565b3480156104ba57600080fd5b506104c461271081565b60405161ffff909116815260200161018c565b6099546001600160a01b0316331461050a5760405162461bcd60e51b81526004016105019061378c565b60405180910390fd5b600081815260cd60205260409020546001600160a01b031661056e5760405162461bcd60e51b815260206004820152601760248201527f5265717565737420646f6573206e6f74206578697374210000000000000000006044820152606401610501565b600081815260cd602052604081206004015490036105ce5760405162461bcd60e51b815260206004820152601b60248201527f52616e646f6d206e756d626572206e6f742067656e65726174656400000000006044820152606401610501565b600081815260cd6020526040812080546001600160a01b0319168155906105f860018301826131f6565b610606600283016000613214565b6106146003830160006131f6565b6004820160009055505050565b600081815260cd60205260408120600401548190606090819083036106885760405162461bcd60e51b815260206004820152601a60248201527f4e6f2072616e646f6d206e756d6265722067656e6572617465640000000000006044820152606401610501565b600085815260cd60209081526040808320815160a08101835281546001600160a01b031681526001820180548451818702810187019095528085529194929385840193909290879084015b8282101561074257600084815260209020604080518082019091529083018054829060ff16600581111561070957610709613339565b600581111561071a5761071a613339565b8152905461010090046001600160401b031660209182015290825260019290920191016106d3565b50505050815260200160028201805480602002602001604051908101604052809291908181526020016000905b828210156108145760008481526020902060408051606081019091529083018054829060ff1660048111156107a6576107a6613339565b60048111156107b7576107b7613339565b81528154602090910190610100900460ff1660058111156107da576107da613339565b60058111156107eb576107eb613339565b815290546001600160401b0362010000909104166020918201529082526001909201910161076f565b50505050815260200160038201805480602002602001604051908101604052809291908181526020016000905b828210156108b057600084815260209020604080518082019091529083018054829060ff16600581111561087757610877613339565b600581111561088857610888613339565b8152905461010090046001600160401b03166020918201529082526001929092019101610841565b50505090825250600491909101546020918201528151608083015191830151519097509095509091508490156108f4576108ee818360200151611518565b90945090505b6000826060015151118061090d57506000826040015151115b15610928576109258183606001518460400151611811565b92505b50509193509193565b6001600160a01b037f00000000000000000000000000000000000000000000000000000000000000001630036109795760405162461bcd60e51b8152600401610501906137c1565b7f00000000000000000000000000000000000000000000000000000000000000006001600160a01b03166109ab611e06565b6001600160a01b0316146109d15760405162461bcd60e51b81526004016105019061380d565b6109da81611e34565b604080516000808252602082019092526109f691839190611e5e565b50565b6001600160a01b037f0000000000000000000000000000000000000000000000000000000000000000163003610a415760405162461bcd60e51b8152600401610501906137c1565b7f00000000000000000000000000000000000000000000000000000000000000006001600160a01b0316610a73611e06565b6001600160a01b031614610a995760405162461bcd60e51b81526004016105019061380d565b610aa282611e34565b610aae82826001611e5e565b5050565b6099546001600160a01b03163314610adc5760405162461bcd60e51b81526004016105019061378c565b610aec604082016020830161386e565b6001600160401b0316610b02602083018361386e565b6001600160401b031610610b4e5760405162461bcd60e51b8152602060048201526013602482015272496e76616c69642073616c652077696e646f7760681b6044820152606401610501565b8060ce610b5b828261388b565b505050565b6099546001600160a01b03163314610b8a5760405162461bcd60e51b81526004016105019061378c565b610b946000611fa9565b565b600080610ba760d25460d354611ffb565b600081815260cd602052604090208054919250906001600160a01b031615610c055760405162461bcd60e51b8152602060048201526011602482015270105b1c9958591e481c995c5d595cdd1959607a1b6044820152606401610501565b80546001600160a01b03191633178155888015610c955760ce546001600160401b03164210801590610c49575060ce54600160401b90046001600160401b03164210155b610c955760405162461bcd60e51b815260206004820152601960248201527f53616c65206e6f742073746172746564206f7220656e646564000000000000006044820152606401610501565b60005b81811015610df65760008c8c83818110610cb457610cb46138f7565b905060400201803603810190610cca919061396d565b9050600081602001516001600160401b031611610d1a5760405162461bcd60e51b815260206004820152600e60248201526d125b9d985b1a5908185b5bdd5b9d60921b6044820152606401610501565b60cb600082600001516005811115610d3457610d34613339565b6005811115610d4557610d45613339565b81526020019081526020016000206000015481602001516001600160401b0316610d6f919061399f565b610d7990876139be565b6001808601805480830182556000918252602090912084519101805493995084939092839160ff191690836005811115610db557610db5613339565b02179055506020919091015181546001600160401b039091166101000268ffffffffffffffff001990911617905550610def6001826139be565b9050610c98565b5087905060005b81811015610f865760008a8a83818110610e1957610e196138f7565b905060600201803603810190610e2f91906139d6565b9050600081604001516001600160401b031611610e7f5760405162461bcd60e51b815260206004820152600e60248201526d125b9d985b1a5908185b5bdd5b9d60921b6044820152606401610501565b60cc600082602001516005811115610e9957610e99613339565b6005811115610eaa57610eaa613339565b81526020019081526020016000206001015481604001516001600160401b0316610ed4919061399f565b610ede90876139be565b600285018054600181810183556000928352602090922084519101805493995084939092839160ff191690836004811115610f1b57610f1b613339565b021790555060208201518154829061ff001916610100836005811115610f4357610f43613339565b02179055506040919091015181546001600160401b03909116620100000269ffffffffffffffff00001990911617905550610f7f6001826139be565b9050610dfd565b5085905060005b8181101561109e576000888883818110610fa957610fa96138f7565b905060400201803603810190610fbf919061396d565b905060cc600082600001516005811115610fdb57610fdb613339565b6005811115610fec57610fec613339565b81526020019081526020016000206000015481602001516001600160401b0316611016919061399f565b61102090876139be565b600385018054600181810183556000928352602090922084519101805493995084939092839160ff19169083600581111561105d5761105d613339565b02179055506020919091015181546001600160401b039091166101000268ffffffffffffffff0019909116179055506110976001826139be565b9050610f8d565b5083156111be5784156111435760d154604051634da8552760e11b8152600481018690526000916001600160a01b031690639b50aa4e906024016020604051808303816000875af11580156110f7573d6000803e3d6000fd5b505050506040513d601f19601f8201168201806040525081019061111b9190613a49565b60d05460cf5491925061113d916001600160a01b03908116913391168461214e565b506111be565b8334146111825760405162461bcd60e51b815260206004820152600d60248201526c496e76616c696420707269636560981b6044820152606401610501565b60d0546040516001600160a01b039091169085156108fc029086906000818181858888f193505050501580156111bc573d6000803e3d6000fd5b505b60405183815233907feaf8d3f69fe5b0f881b23e1b13477c52d8748166f18f9b8665365ef0879c753d9060200160405180910390a25050505050505050505050565b6001546001600160a01b0316331461125a5760405162461bcd60e51b815260206004820152601f60248201527f4f6e6c7920565246436f6f7264696e61746f722063616e2066756c66696c6c006044820152606401610501565b610aae82826121ae565b600054610100900460ff168061127d575060005460ff16155b6112995760405162461bcd60e51b815260040161050190613a62565b600054610100900460ff161580156112bb576000805461ffff19166101011790555b6001600160a01b038416158015906112db57506001600160a01b03821615155b80156112ef57506001600160a01b03831615155b6113315760405162461bcd60e51b815260206004820152601360248201527263616e6e6f74207a65726f206164647265737360681b6044820152606401610501565b6113396122b8565b6113438888612333565b60d286905560d385905560cf80546001600160a01b038086166001600160a01b03199283161790925560d0805487841690831617905560d18054928516929091169190911790556113926123e1565b61139a61281b565b80156113ac576000805461ff00191690555b5050505050505050565b6099546001600160a01b031633146113e05760405162461bcd60e51b81526004016105019061378c565b6001600160a01b0381166114365760405162461bcd60e51b815260206004820152601c60248201527f547265617375727920616464726573732063616e6e6f74207a65726f000000006044820152606401610501565b60d080546001600160a01b0319166001600160a01b0383169081179091556040517f3c864541ef71378c6229510ed90f376565ee42d9c5e0904a984a9e863e6db44f90600090a250565b6099546001600160a01b031633146114aa5760405162461bcd60e51b81526004016105019061378c565b6001600160a01b03811661150f5760405162461bcd60e51b815260206004820152602660248201527f4f776e61626c653a206e6577206f776e657220697320746865207a65726f206160448201526564647265737360d01b6064820152608401610501565b6109f681611fa9565b606060008060008451905060005b8181101561157457858181518110611540576115406138f7565b6020026020010151602001516001600160401b03168361156091906139be565b925061156d6001826139be565b9050611526565b5085821561180457826001600160401b0381111561159457611594613494565b6040519080825280602002602001820160405280156115df57816020015b60408051606081018252600080825260208083018290529282015282526000199092019101816115b25790505b50945060005b82811015611802576000878281518110611601576116016138f7565b6020026020010151602001516001600160401b0316905060005b818110156117ed57604080516020810186905290810185905260600160408051601f1981840301815291905280516020909101209350600061165f61271086613ac6565b9050600060cb60008c8781518110611679576116796138f7565b602002602001015160000151600581111561169657611696613339565b60058111156116a7576116a7613339565b815260208101919091526040908101600020815160c0810190925260010160068282826020028201916000905b82829054906101000a900461ffff1661ffff16815260200190600201906020826001010492830192600103820291508084116116d45790505050505050905060005b600660ff821610156117d6578261ffff16828260ff166006811061173c5761173c6138f7565b602002015161ffff1611156117c45760405180606001604052808d8881518110611768576117686138f7565b602002602001015160000151600581111561178557611785613339565b815260ff8316602082015260400161179f6127108a613ada565b8152508b87815181106117b4576117b46138f7565b60200260200101819052506117d6565b6117cf600182613aee565b9050611716565b5050506001816117e691906139be565b905061161b565b506117fb90506001826139be565b90506115e5565b505b8093505050509250929050565b606060008060008551905060005b8181101561186d57868181518110611839576118396138f7565b6020026020010151602001516001600160401b03168461185991906139be565b93506118666001826139be565b905061181f565b5050835160005b818110156118c25785818151811061188e5761188e6138f7565b6020026020010151604001516001600160401b0316836118ae91906139be565b92506118bb6001826139be565b9050611874565b5086821515806118d25750600084115b15611dfb576118e184846139be565b6001600160401b038111156118f8576118f8613494565b60405190808252806020026020018201604052801561194e57816020015b61193b6040805160608101909152806000815260200160008152600060209091015290565b8152602001906001900390816119165790505b50945060005b82811015611b94576000878281518110611970576119706138f7565b6020026020010151604001516001600160401b0316905060005b81811015611b7f57604080516020810186905290810185905260600160408051601f198184030181529190528051602090910120935060006119ce61271086613ac6565b9050600060cc60008c87815181106119e8576119e86138f7565b6020026020010151602001516005811115611a0557611a05613339565b6005811115611a1657611a16613339565b815260208101919091526040908101600020815160c0810190925260020160068282826020028201916000905b82829054906101000a900461ffff1661ffff1681526020019060020190602082600101049283019260010382029150808411611a435790505050505050905060005b600660ff82161015611b68578261ffff16828260ff1660068110611aab57611aab6138f7565b602002015161ffff161115611b565760405180606001604052808d8881518110611ad757611ad76138f7565b6020026020010151602001516005811115611af457611af4613339565b81526020018d8881518110611b0b57611b0b6138f7565b6020026020010151600001516004811115611b2857611b28613339565b81526020018260ff168152508b8781518110611b4657611b466138f7565b6020026020010181905250611b68565b611b61600182613aee565b9050611a85565b505050600181611b7891906139be565b905061198a565b50611b8d90506001826139be565b9050611954565b508651915060005b82811015611df9576000888281518110611bb857611bb86138f7565b6020026020010151602001516001600160401b0316905060005b81811015611de457604080516020810186905290810185905260600160408051601f19818403018152919052805160209091012093506000611c1661271086613ac6565b905060006005611c2861271088613ada565b611c329190613ac6565b60ff166004811115611c4657611c46613339565b9050600060cc60008e8881518110611c6057611c606138f7565b6020026020010151600001516005811115611c7d57611c7d613339565b6005811115611c8e57611c8e613339565b815260208101919091526040908101600020815160c0810190925260020160068282826020028201916000905b82829054906101000a900461ffff1661ffff1681526020019060020190602082600101049283019260010382029150808411611cbb5790505050505050905060005b600660ff82161015611dcc578361ffff16828260ff1660068110611d2357611d236138f7565b602002015161ffff161115611dba5760405180606001604052808f8981518110611d4f57611d4f6138f7565b6020026020010151600001516005811115611d6c57611d6c613339565b8152602001846004811115611d8357611d83613339565b815260ff83166020909101528c611d9a8c8a6139be565b81518110611daa57611daa6138f7565b6020026020010181905250611dcc565b611dc5600182613aee565b9050611cfd565b50505050600181611ddd91906139be565b9050611bd2565b50611df290506001826139be565b9050611b9c565b505b505050509392505050565b7f360894a13ba1a3210667c828492db98dca3e2076cc3735a920a3ca505d382bbc546001600160a01b031690565b6099546001600160a01b031633146109f65760405162461bcd60e51b81526004016105019061378c565b6000611e68611e06565b9050611e7384612d78565b600083511180611e805750815b15611e9157611e8f8484612e1d565b505b7f4910fdfa16fed3260ed0e7147f7cc6da11a60208b5b9406d12a635614ffd9143805460ff16611fa257805460ff191660011781556040516001600160a01b0383166024820152611f1090869060440160408051601f198184030181529190526020810180516001600160e01b0316631b2ce7f360e11b179052612e1d565b50805460ff19168155611f21611e06565b6001600160a01b0316826001600160a01b031614611f995760405162461bcd60e51b815260206004820152602f60248201527f45524331393637557067726164653a207570677261646520627265616b73206660448201526e75727468657220757067726164657360881b6064820152608401610501565b611fa285612f08565b5050505050565b609980546001600160a01b038381166001600160a01b0319831681179093556040519116919082907f8be0079c531659141344cd1fd0a4f28419497f9722a3daafe3b4186f6b6457e090600090a35050565b600080546001546040516001600160a01b0362010000909304831692634000aea0921690859061203a9088908790602001918252602082015260400190565b6040516020818303038152906040526040518463ffffffff1660e01b815260040161206793929190613b6b565b6020604051808303816000875af1158015612086573d6000803e3d6000fd5b505050506040513d601f19601f820116820180604052508101906120aa9190613b92565b50600083815260026020818152604080842054815180840189905280830186905230606082015260808082018390528351808303909101815260a0909101909252815191830191909120938790529190526121069060016139be565b6000858152600260205260409020556121468482604080516020808201949094528082019290925280518083038201815260609092019052805191012090565b949350505050565b604080516001600160a01b0385811660248301528416604482015260648082018490528251808303909101815260849091019091526020810180516001600160e01b03166323b872dd60e01b1790526121a8908590612f48565b50505050565b600082815260cd60205260409020546001600160a01b03166122055760405162461bcd60e51b815260206004820152601060248201526f139bc81c995c5d595cdd08195e1a5cdd60821b6044820152606401610501565b600082815260cd6020526040902060040154156122645760405162461bcd60e51b815260206004820152601f60248201527f52616e646f6d206e756d62657220616c72656164792066756c66696c6c6564006044820152606401610501565b600082815260cd6020526040908190206004018290555182907f1ca8663227a7fe9919713a01d344afbb434e234f35a3e540a6ad924f88771f38906122ac9084815260200190565b60405180910390a25050565b600054610100900460ff16806122d1575060005460ff16155b6122ed5760405162461bcd60e51b815260040161050190613a62565b600054610100900460ff1615801561230f576000805461ffff19166101011790555b61231761301a565b61231f613084565b80156109f6576000805461ff001916905550565b600054610100900460ff168061234c575060005460ff16155b6123685760405162461bcd60e51b815260040161050190613a62565b600054610100900460ff1615801561238a576000805461ffff19166101011790555b600180546001600160a01b0319166001600160a01b03858116919091179091556000805462010000600160b01b03191662010000928516929092029190911790558015610b5b576000805461ff0019169055505050565b6040805180820182526000808252825160c08101845261271081526020808201839052938101829052606081018290526080810182905260a0810182905283830190815290805260cb90925280517f4239c2c8c3d9b94feb214b0f54d7c869ce1ceb63517be57644336cda4967a4689081559151909190612485907f4239c2c8c3d9b94feb214b0f54d7c869ce1ceb63517be57644336cda4967a469906006613232565b505060408051808201825266b1a2bc2ec500008152815160c0810183526000808252611f406020808401919091526125e4948301949094526126ca60608301526126fc608083015261271060a08301528383019182526001905260cb90925280517fb3c459fcfa972435363277a54960f9947fdf75faf912b521fbcc6cd1c34ddc33908155915190925061253c907fb3c459fcfa972435363277a54960f9947fdf75faf912b521fbcc6cd1c34ddc34906006613232565b505060408051808201825267016345785d8a00008152815160c08101835260008082526117d4602080840191909152612260948301949094526125e460608301526126de608083015261271060a08301528383019182526002905260cb90925280517f2c278fda8778553b7b7a8cff03a9beadbef1773abb49c1f69c87347759480d5990815591519092506125f4907f2c278fda8778553b7b7a8cff03a9beadbef1773abb49c1f69c87347759480d5a906006613232565b50506040805180820182526703782dace9d900008152815160c08101835260008082526109606020808401919091526119c89483019490945261226060608301526125e4608083015261271060a08301528383019182526003905260cb90925280517f3f771ad337758d100996e4f4ea4b0371b93c9bfb5e077c0267534f8d2606ee4090815591519092506126ac907f3f771ad337758d100996e4f4ea4b0371b93c9bfb5e077c0267534f8d2606ee41906006613232565b5050604080518082018252670a688906bd8b00008152815160c08101835260008082526101f46020808401919091526107d09483019490945261109a606083015261203a608083015261271060a08301528383019182526004905260cb90925280517f322b60245ba380edff02ea0cd22c8f465b6af4c34230f7ec556b48e58b4dbdde9081559151909250612764907f322b60245ba380edff02ea0cd22c8f465b6af4c34230f7ec556b48e58b4dbddf906006613232565b50506040805180820182526722b1c8c1227a00008152815160c081018352600080825260c86020808401919091526103e8948301949094526109c46060830152611388608083015261271060a08301528383019182526005905260cb90925280517f234b54bc34b9466904cc2600e624100259a42679c1529023bd62079f434f8d6e9081559151909250610b5b907f234b54bc34b9466904cc2600e624100259a42679c1529023bd62079f434f8d6f906006613232565b604080516060808201835260008083526020808401828152855160c08101875261271081528083018490528087018490529384018390526080840183905260a0840183905294840192835290805260cc905281517f435daec636ce435a90bde0aeec309a303a359a854c5a51b7d6a5a941d6db609490815592517f435daec636ce435a90bde0aeec309a303a359a854c5a51b7d6a5a941d6db609555519091906128e8907f435daec636ce435a90bde0aeec309a303a359a854c5a51b7d6a5a941d6db6096906006613232565b5050604080516060808201835266b1a2bc2ec50000825267016345785d8a00006020808401918252845160c0810186526000808252611fa4828401526123f0828801526125e4948201949094526126ac608082015261271060a0820152948401948552600190925260cc90915281517fe7bf1de387f1223f0fc355696e043550abf1cecefa85fce0e824dbbcb1125e7290815590517fe7bf1de387f1223f0fc355696e043550abf1cecefa85fce0e824dbbcb1125e735591519092506129d1907fe7bf1de387f1223f0fc355696e043550abf1cecefa85fce0e824dbbcb1125e74906006613232565b5050604080516060808201835267016345785d8a000082526702c68af0bb1400006020808401918252845160c0810186526000808252610bb882840152611db082880152612260948201949094526125e4608082015261271060a0820152948401948552600290925260cc90915281517f22774faf9377d17ee337aca46ae9f31cdc694bfbe3d854c18c7806167b97e1b490815590517f22774faf9377d17ee337aca46ae9f31cdc694bfbe3d854c18c7806167b97e1b5559151909250612abb907f22774faf9377d17ee337aca46ae9f31cdc694bfbe3d854c18c7806167b97e1b6906006613232565b50506040805160608082018352670214e8348c4f00008252670429d069189e00006020808401918252845160c08101865260008082526105dc8284015261125c82880152611c2094820194909452612328608082015261271060a0820152948401948552600390925260cc90915281517f0a419be568cc707f4292098bf178c7d2a8bf2a39b4b2d22c7d4b34f1df9dc54390815590517f0a419be568cc707f4292098bf178c7d2a8bf2a39b4b2d22c7d4b34f1df9dc544559151909250612ba5907f0a419be568cc707f4292098bf178c7d2a8bf2a39b4b2d22c7d4b34f1df9dc545906006613232565b505060408051606080820183526702c68af0bb140000825267058d15e1762800006020808401918252845160c08101865260008082526101f4828401526107d0828801526114b494820194909452611f40608082015261271060a0820152948401948552600490925260cc90915281517fd8b856737370b971967525f7601ea4ffa6d026b1508299d4c977c559046e880b90815590517fd8b856737370b971967525f7601ea4ffa6d026b1508299d4c977c559046e880c559151909250612c8f907fd8b856737370b971967525f7601ea4ffa6d026b1508299d4c977c559046e880d906006613232565b505060408051606080820183526703782dace9d9000082526706f05b59d3b200006020808401918252845160c081018652600080825260648284015261025882880152610af094820194909452611770608082015261271060a0820152948401948552600590925260cc90915281517f1c65efc1b891a670e4e436dc105ccc9eb6e81b9bae93c09e1791bebb51a84e6190815590517f1c65efc1b891a670e4e436dc105ccc9eb6e81b9bae93c09e1791bebb51a84e62559151909250610b5b907f1c65efc1b891a670e4e436dc105ccc9eb6e81b9bae93c09e1791bebb51a84e63906006613232565b803b612ddc5760405162461bcd60e51b815260206004820152602d60248201527f455243313936373a206e657720696d706c656d656e746174696f6e206973206e60448201526c1bdd08184818dbdb9d1c9858dd609a1b6064820152608401610501565b7f360894a13ba1a3210667c828492db98dca3e2076cc3735a920a3ca505d382bbc80546001600160a01b0319166001600160a01b0392909216919091179055565b6060823b612e7c5760405162461bcd60e51b815260206004820152602660248201527f416464726573733a2064656c65676174652063616c6c20746f206e6f6e2d636f6044820152651b9d1c9858dd60d21b6064820152608401610501565b600080846001600160a01b031684604051612e979190613baf565b600060405180830381855af49150503d8060008114612ed2576040519150601f19603f3d011682016040523d82523d6000602084013e612ed7565b606091505b5091509150612eff8282604051806060016040528060278152602001613bdf602791396130e4565b95945050505050565b612f1181612d78565b6040516001600160a01b038216907fbc7cd75a20ee27fd9adebab32041f755214dbc6bffa90cc0225b39da2e5c2d3b90600090a250565b6000612f9d826040518060400160405280602081526020017f5361666545524332303a206c6f772d6c6576656c2063616c6c206661696c6564815250856001600160a01b03166131249092919063ffffffff16565b805190915015610b5b5780806020019051810190612fbb9190613b92565b610b5b5760405162461bcd60e51b815260206004820152602a60248201527f5361666545524332303a204552433230206f7065726174696f6e20646964206e6044820152691bdd081cdd58d8d9595960b21b6064820152608401610501565b600054610100900460ff1680613033575060005460ff16155b61304f5760405162461bcd60e51b815260040161050190613a62565b600054610100900460ff1615801561231f576000805461ffff191661010117905580156109f6576000805461ff001916905550565b600054610100900460ff168061309d575060005460ff16155b6130b95760405162461bcd60e51b815260040161050190613a62565b600054610100900460ff161580156130db576000805461ffff19166101011790555b61231f33611fa9565b606083156130f357508161311d565b8251156131035782518084602001fd5b8160405162461bcd60e51b81526004016105019190613bcb565b9392505050565b6060612146848460008585843b61317d5760405162461bcd60e51b815260206004820152601d60248201527f416464726573733a2063616c6c20746f206e6f6e2d636f6e74726163740000006044820152606401610501565b600080866001600160a01b031685876040516131999190613baf565b60006040518083038185875af1925050503d80600081146131d6576040519150601f19603f3d011682016040523d82523d6000602084013e6131db565b606091505b50915091506131eb8282866130e4565b979650505050505050565b50805460008255906000526020600020908101906109f691906132c8565b50805460008255906000526020600020908101906109f691906132e9565b6001830191839082156132b85791602002820160005b8382111561328857835183826101000a81548161ffff021916908361ffff1602179055509260200192600201602081600101049283019260010302613248565b80156132b65782816101000a81549061ffff0219169055600201602081600101049283019260010302613288565b505b506132c492915061330b565b5090565b5b808211156132c457805468ffffffffffffffffff191681556001016132c9565b5b808211156132c457805469ffffffffffffffffffff191681556001016132ea565b5b808211156132c4576000815560010161330c565b60006020828403121561333257600080fd5b5035919050565b634e487b7160e01b600052602160045260246000fd5b6006811061335f5761335f613339565b9052565b600081518084526020808501945080840160005b838110156133c357815161338c88825161334f565b83810151600581106133a0576133a0613339565b8885015260409081015160ff169088015260609096019590820190600101613377565b509495945050505050565b60006080820160018060a01b038716835260208681850152604060808186015282875180855260a087019150838901945060005b8181101561343b57855161341784825161334f565b8086015160ff16848701528401518484015294840194606090920191600101613402565b5050858103606087015261344f8188613363565b9a9950505050505050505050565b80356001600160a01b038116811461347457600080fd5b919050565b60006020828403121561348b57600080fd5b61311d8261345d565b634e487b7160e01b600052604160045260246000fd5b604051601f8201601f191681016001600160401b03811182821017156134d2576134d2613494565b604052919050565b600080604083850312156134ed57600080fd5b6134f68361345d565b91506020808401356001600160401b038082111561351357600080fd5b818601915086601f83011261352757600080fd5b81358181111561353957613539613494565b61354b601f8201601f191685016134aa565b9150808252878482850101111561356157600080fd5b80848401858401376000848284010152508093505050509250929050565b60006040828403121561359157600080fd5b50919050565b60008083601f8401126135a957600080fd5b5081356001600160401b038111156135c057600080fd5b6020830191508360208260061b85010111156135db57600080fd5b9250929050565b80151581146109f657600080fd5b8035613474816135e2565b60008060008060008060006080888a03121561361657600080fd5b87356001600160401b038082111561362d57600080fd5b6136398b838c01613597565b909950975060208a013591508082111561365257600080fd5b818a0191508a601f83011261366657600080fd5b81358181111561367557600080fd5b8b602060608302850101111561368a57600080fd5b6020830197508096505060408a01359150808211156136a857600080fd5b506136b58a828b01613597565b90945092506136c89050606089016135f0565b905092959891949750929550565b80356006811061347457600080fd5b6000602082840312156136f757600080fd5b61311d826136d6565b6000806040838503121561371357600080fd5b50508035926020909101359150565b600080600080600080600060e0888a03121561373d57600080fd5b6137468861345d565b96506137546020890161345d565b955060408801359450606088013593506137706080890161345d565b925061377e60a0890161345d565b91506136c860c0890161345d565b6020808252818101527f4f776e61626c653a2063616c6c6572206973206e6f7420746865206f776e6572604082015260600190565b6020808252602c908201527f46756e6374696f6e206d7573742062652063616c6c6564207468726f7567682060408201526b19195b1959d85d1958d85b1b60a21b606082015260800190565b6020808252602c908201527f46756e6374696f6e206d7573742062652063616c6c6564207468726f7567682060408201526b6163746976652070726f787960a01b606082015260800190565b6001600160401b03811681146109f657600080fd5b60006020828403121561388057600080fd5b813561311d81613859565b813561389681613859565b6001600160401b03811690508154816001600160401b0319821617835560208401356138c181613859565b6fffffffffffffffff00000000000000008160401b16836fffffffffffffffffffffffffffffffff198416171784555050505050565b634e487b7160e01b600052603260045260246000fd5b60006040828403121561391f57600080fd5b604051604081018181106001600160401b038211171561394157613941613494565b604052905080613950836136d6565b8152602083013561396081613859565b6020919091015292915050565b60006040828403121561397f57600080fd5b61311d838361390d565b634e487b7160e01b600052601160045260246000fd5b60008160001904831182151516156139b9576139b9613989565b500290565b600082198211156139d1576139d1613989565b500190565b6000606082840312156139e857600080fd5b604051606081018181106001600160401b0382111715613a0a57613a0a613494565b604052823560058110613a1c57600080fd5b8152613a2a602084016136d6565b60208201526040830135613a3d81613859565b60408201529392505050565b600060208284031215613a5b57600080fd5b5051919050565b6020808252602e908201527f496e697469616c697a61626c653a20636f6e747261637420697320616c72656160408201526d191e481a5b9a5d1a585b1a5e995960921b606082015260800190565b634e487b7160e01b600052601260045260246000fd5b600082613ad557613ad5613ab0565b500690565b600082613ae957613ae9613ab0565b500490565b600060ff821660ff84168060ff03821115613b0b57613b0b613989565b019392505050565b60005b83811015613b2e578181015183820152602001613b16565b838111156121a85750506000910152565b60008151808452613b57816020860160208601613b13565b601f01601f19169290920160200192915050565b60018060a01b0384168152826020820152606060408201526000612eff6060830184613b3f565b600060208284031215613ba457600080fd5b815161311d816135e2565b60008251613bc1818460208701613b13565b9190910192915050565b60208152600061311d6020830184613b3f56fe416464726573733a206c6f772d6c6576656c2064656c65676174652063616c6c206661696c6564a2646970667358221220fd95a55cd8946e42ccebc4df3f97380cb4f7178b1135aa0b39ef80fafbd1856b64736f6c634300080e0033",
  "devdoc": {
    "author": "Dmitry Yakovlevich",
    "details": "Users can use ETH or sILV to request minting.Minter uses an chainlink VRF to genrate randomness.",
    "events": {
      "MintRequested(address,bytes32)": {
        "details": "Emitted when user request mint."
      },
      "RequestFulfilled(bytes32,uint256)": {
        "details": "Emitted when chainlink fulfilled VRF request."
      },
      "TreasurySet(address)": {
        "details": "Emitted when treasury updated."
      }
    },
    "kind": "dev",
    "methods": {
      "deleteFulfilledMintRequest(bytes32)": {
        "details": "Delete fulfilled mint requests",
        "params": {
          "requestId": "Request id"
        }
      },
      "getMintResult(bytes32)": {
        "details": "Get mintable portrait and accessory infos with chainlink random number",
        "params": {
          "requestId": "Request id of mint request."
        },
        "returns": {
          "accessories": "Mintable accessory on-chain metadata",
          "portraits": "Mintable portrait on-chain metadata",
          "requester": "Requester address",
          "seed": "Seed random number from chainlink"
        }
      },
      "initialize(address,address,bytes32,uint256,address,address,address)": {
        "details": "UUPSUpgradeable initializer",
        "params": {
          "_illuvitarsPriceOracle": "ILV/ETH Chainlink price feed base illuvitars price oracle",
          "_linkToken": "LINK token address",
          "_sIlv": "sILV2 token address",
          "_treasury": "Treasury address",
          "_vrfCoordinator": "Chainlink VRF Coordinator address",
          "_vrfFee": "Chainlink VRF Fee",
          "_vrfKeyhash": "Chainlink VRF Key Hash"
        }
      },
      "owner()": {
        "details": "Returns the address of the current owner."
      },
      "purchase((uint8,uint64)[],(uint8,uint8,uint64)[],(uint8,uint64)[],bool)": {
        "details": "Request minting Portrait and Accesory NFTs.",
        "params": {
          "accessoryFullRandomMintParams": "accessory layer full random mint params.",
          "accessorySemiRandomMintParams": "accessory layer semi random mint params.",
          "portraitMintParams": "portrait layer mint params.",
          "useSIlv": "true to use sILV, false to use ETH."
        }
      },
      "renounceOwnership()": {
        "details": "Leaves the contract without owner. It will not be possible to call `onlyOwner` functions anymore. Can only be called by the current owner. NOTE: Renouncing ownership will leave the contract without an owner, thereby removing any functionality that is only available to the owner."
      },
      "setPortraitSaleWindow((uint64,uint64))": {
        "details": "Set portrait sale window.only owner can call this function.",
        "params": {
          "_saleWindow": "New sale window."
        }
      },
      "setTreasury(address)": {
        "details": "Set new treasury address.only owner can call this function.",
        "params": {
          "treasury_": "Treasury Address."
        }
      },
      "transferOwnership(address)": {
        "details": "Transfers ownership of the contract to a new account (`newOwner`). Can only be called by the current owner."
      },
      "upgradeTo(address)": {
        "details": "Upgrade the implementation of the proxy to `newImplementation`. Calls {_authorizeUpgrade}. Emits an {Upgraded} event."
      },
      "upgradeToAndCall(address,bytes)": {
        "details": "Upgrade the implementation of the proxy to `newImplementation`, and subsequently execute the function call encoded in `data`. Calls {_authorizeUpgrade}. Emits an {Upgraded} event."
      }
    },
    "stateVariables": {
      "accessoryMintInfo": {
        "details": "Accessory mint information"
      },
      "illuvitarsPriceOracle": {
        "details": "ILV/ETH Chainlink price feed address"
      },
      "mintRequests": {
        "details": "User's mint requests"
      },
      "portraitMintInfo": {
        "details": "Portrait mint information"
      },
      "portraitSaleWindow": {
        "details": "Portrait sale window"
      },
      "sIlv": {
        "details": "sILV2 token address"
      },
      "treasury": {
        "details": "treasury address"
      },
      "vrfFee": {
        "details": "chainlink VRF fee"
      },
      "vrfKeyHash": {
        "details": "chainlink VRF key hash"
      }
    },
    "title": "Minter",
    "version": 1
  },
  "userdoc": {
    "kind": "user",
    "methods": {
      "purchase((uint8,uint64)[],(uint8,uint8,uint64)[],(uint8,uint64)[],bool)": {
        "notice": "Users pay ETH or sILV to request minting"
      }
    },
    "notice": "Allow users to request minting Illuvitars.",
    "version": 1
  },
  "storageLayout": {
    "storage": [
      {
        "astId": 1089,
        "contract": "contracts/protocol/Minter.sol:Minter",
        "label": "_initialized",
        "offset": 0,
        "slot": "0",
        "type": "t_bool"
      },
      {
        "astId": 1092,
        "contract": "contracts/protocol/Minter.sol:Minter",
        "label": "_initializing",
        "offset": 1,
        "slot": "0",
        "type": "t_bool"
      },
      {
        "astId": 4406,
        "contract": "contracts/protocol/Minter.sol:Minter",
        "label": "LINK",
        "offset": 2,
        "slot": "0",
        "type": "t_contract(LinkTokenInterface)190"
      },
      {
        "astId": 4408,
        "contract": "contracts/protocol/Minter.sol:Minter",
        "label": "vrfCoordinator",
        "offset": 0,
        "slot": "1",
        "type": "t_address"
      },
      {
        "astId": 4412,
        "contract": "contracts/protocol/Minter.sol:Minter",
        "label": "nonces",
        "offset": 0,
        "slot": "2",
        "type": "t_mapping(t_bytes32,t_uint256)"
      },
      {
        "astId": 1072,
        "contract": "contracts/protocol/Minter.sol:Minter",
        "label": "__gap",
        "offset": 0,
        "slot": "3",
        "type": "t_array(t_uint256)50_storage"
      },
      {
        "astId": 1239,
        "contract": "contracts/protocol/Minter.sol:Minter",
        "label": "__gap",
        "offset": 0,
        "slot": "53",
        "type": "t_array(t_uint256)50_storage"
      },
      {
        "astId": 3249,
        "contract": "contracts/protocol/Minter.sol:Minter",
        "label": "__gap",
        "offset": 0,
        "slot": "103",
        "type": "t_array(t_uint256)50_storage"
      },
      {
        "astId": 560,
        "contract": "contracts/protocol/Minter.sol:Minter",
        "label": "_owner",
        "offset": 0,
        "slot": "153",
        "type": "t_address"
      },
      {
        "astId": 674,
        "contract": "contracts/protocol/Minter.sol:Minter",
        "label": "__gap",
        "offset": 0,
        "slot": "154",
        "type": "t_array(t_uint256)49_storage"
      },
      {
        "astId": 5021,
        "contract": "contracts/protocol/Minter.sol:Minter",
        "label": "portraitMintInfo",
        "offset": 0,
        "slot": "203",
        "type": "t_mapping(t_enum(BoxType)3998,t_struct(PortraitMintInfo)5135_storage)"
      },
      {
        "astId": 5028,
        "contract": "contracts/protocol/Minter.sol:Minter",
        "label": "accessoryMintInfo",
        "offset": 0,
        "slot": "204",
        "type": "t_mapping(t_enum(BoxType)3998,t_struct(AccessoryMintInfo)5144_storage)"
      },
      {
        "astId": 5034,
        "contract": "contracts/protocol/Minter.sol:Minter",
        "label": "mintRequests",
        "offset": 0,
        "slot": "205",
        "type": "t_mapping(t_bytes32,t_struct(MintRequest)5111_storage)"
      },
      {
        "astId": 5038,
        "contract": "contracts/protocol/Minter.sol:Minter",
        "label": "portraitSaleWindow",
        "offset": 0,
        "slot": "206",
        "type": "t_struct(SaleWindow)5149_storage"
      },
      {
        "astId": 5041,
        "contract": "contracts/protocol/Minter.sol:Minter",
        "label": "sIlv",
        "offset": 0,
        "slot": "207",
        "type": "t_address"
      },
      {
        "astId": 5044,
        "contract": "contracts/protocol/Minter.sol:Minter",
        "label": "treasury",
        "offset": 0,
        "slot": "208",
        "type": "t_address"
      },
      {
        "astId": 5048,
        "contract": "contracts/protocol/Minter.sol:Minter",
        "label": "illuvitarsPriceOracle",
        "offset": 0,
        "slot": "209",
        "type": "t_contract(IlluvitarsPriceOracle)4507"
      },
      {
        "astId": 5051,
        "contract": "contracts/protocol/Minter.sol:Minter",
        "label": "vrfKeyHash",
        "offset": 0,
        "slot": "210",
        "type": "t_bytes32"
      },
      {
        "astId": 5054,
        "contract": "contracts/protocol/Minter.sol:Minter",
        "label": "vrfFee",
        "offset": 0,
        "slot": "211",
        "type": "t_uint256"
      }
    ],
    "types": {
      "t_address": {
        "encoding": "inplace",
        "label": "address",
        "numberOfBytes": "20"
      },
      "t_array(t_struct(AccessoryFullRandomMintParams)5094_storage)dyn_storage": {
        "base": "t_struct(AccessoryFullRandomMintParams)5094_storage",
        "encoding": "dynamic_array",
        "label": "struct Minter.AccessoryFullRandomMintParams[]",
        "numberOfBytes": "32"
      },
      "t_array(t_struct(AccessorySemiRandomMintParams)5088_storage)dyn_storage": {
        "base": "t_struct(AccessorySemiRandomMintParams)5088_storage",
        "encoding": "dynamic_array",
        "label": "struct Minter.AccessorySemiRandomMintParams[]",
        "numberOfBytes": "32"
      },
      "t_array(t_struct(PortraitMintParams)5079_storage)dyn_storage": {
        "base": "t_struct(PortraitMintParams)5079_storage",
        "encoding": "dynamic_array",
        "label": "struct Minter.PortraitMintParams[]",
        "numberOfBytes": "32"
      },
      "t_array(t_uint16)6_storage": {
        "base": "t_uint16",
        "encoding": "inplace",
        "label": "uint16[6]",
        "numberOfBytes": "32"
      },
      "t_array(t_uint256)49_storage": {
        "base": "t_uint256",
        "encoding": "inplace",
        "label": "uint256[49]",
        "numberOfBytes": "1568"
      },
      "t_array(t_uint256)50_storage": {
        "base": "t_uint256",
        "encoding": "inplace",
        "label": "uint256[50]",
        "numberOfBytes": "1600"
      },
      "t_bool": {
        "encoding": "inplace",
        "label": "bool",
        "numberOfBytes": "1"
      },
      "t_bytes32": {
        "encoding": "inplace",
        "label": "bytes32",
        "numberOfBytes": "32"
      },
      "t_contract(IlluvitarsPriceOracle)4507": {
        "encoding": "inplace",
        "label": "contract IlluvitarsPriceOracle",
        "numberOfBytes": "20"
      },
      "t_contract(LinkTokenInterface)190": {
        "encoding": "inplace",
        "label": "contract LinkTokenInterface",
        "numberOfBytes": "20"
      },
      "t_enum(AccessoryType)3991": {
        "encoding": "inplace",
        "label": "enum AccessoryType",
        "numberOfBytes": "1"
      },
      "t_enum(BoxType)3998": {
        "encoding": "inplace",
        "label": "enum BoxType",
        "numberOfBytes": "1"
      },
      "t_mapping(t_bytes32,t_struct(MintRequest)5111_storage)": {
        "encoding": "mapping",
        "key": "t_bytes32",
        "label": "mapping(bytes32 => struct Minter.MintRequest)",
        "numberOfBytes": "32",
        "value": "t_struct(MintRequest)5111_storage"
      },
      "t_mapping(t_bytes32,t_uint256)": {
        "encoding": "mapping",
        "key": "t_bytes32",
        "label": "mapping(bytes32 => uint256)",
        "numberOfBytes": "32",
        "value": "t_uint256"
      },
      "t_mapping(t_enum(BoxType)3998,t_struct(AccessoryMintInfo)5144_storage)": {
        "encoding": "mapping",
        "key": "t_enum(BoxType)3998",
        "label": "mapping(enum BoxType => struct Minter.AccessoryMintInfo)",
        "numberOfBytes": "32",
        "value": "t_struct(AccessoryMintInfo)5144_storage"
      },
      "t_mapping(t_enum(BoxType)3998,t_struct(PortraitMintInfo)5135_storage)": {
        "encoding": "mapping",
        "key": "t_enum(BoxType)3998",
        "label": "mapping(enum BoxType => struct Minter.PortraitMintInfo)",
        "numberOfBytes": "32",
        "value": "t_struct(PortraitMintInfo)5135_storage"
      },
      "t_struct(AccessoryFullRandomMintParams)5094_storage": {
        "encoding": "inplace",
        "label": "struct Minter.AccessoryFullRandomMintParams",
        "members": [
          {
            "astId": 5091,
            "contract": "contracts/protocol/Minter.sol:Minter",
            "label": "boxType",
            "offset": 0,
            "slot": "0",
            "type": "t_enum(BoxType)3998"
          },
          {
            "astId": 5093,
            "contract": "contracts/protocol/Minter.sol:Minter",
            "label": "amount",
            "offset": 1,
            "slot": "0",
            "type": "t_uint64"
          }
        ],
        "numberOfBytes": "32"
      },
      "t_struct(AccessoryMintInfo)5144_storage": {
        "encoding": "inplace",
        "label": "struct Minter.AccessoryMintInfo",
        "members": [
          {
            "astId": 5137,
            "contract": "contracts/protocol/Minter.sol:Minter",
            "label": "randomPrice",
            "offset": 0,
            "slot": "0",
            "type": "t_uint256"
          },
          {
            "astId": 5139,
            "contract": "contracts/protocol/Minter.sol:Minter",
            "label": "semiRandomPrice",
            "offset": 0,
            "slot": "1",
            "type": "t_uint256"
          },
          {
            "astId": 5143,
            "contract": "contracts/protocol/Minter.sol:Minter",
            "label": "tierChances",
            "offset": 0,
            "slot": "2",
            "type": "t_array(t_uint16)6_storage"
          }
        ],
        "numberOfBytes": "96"
      },
      "t_struct(AccessorySemiRandomMintParams)5088_storage": {
        "encoding": "inplace",
        "label": "struct Minter.AccessorySemiRandomMintParams",
        "members": [
          {
            "astId": 5082,
            "contract": "contracts/protocol/Minter.sol:Minter",
            "label": "accessoryType",
            "offset": 0,
            "slot": "0",
            "type": "t_enum(AccessoryType)3991"
          },
          {
            "astId": 5085,
            "contract": "contracts/protocol/Minter.sol:Minter",
            "label": "boxType",
            "offset": 1,
            "slot": "0",
            "type": "t_enum(BoxType)3998"
          },
          {
            "astId": 5087,
            "contract": "contracts/protocol/Minter.sol:Minter",
            "label": "amount",
            "offset": 2,
            "slot": "0",
            "type": "t_uint64"
          }
        ],
        "numberOfBytes": "32"
      },
      "t_struct(MintRequest)5111_storage": {
        "encoding": "inplace",
        "label": "struct Minter.MintRequest",
        "members": [
          {
            "astId": 5096,
            "contract": "contracts/protocol/Minter.sol:Minter",
            "label": "requester",
            "offset": 0,
            "slot": "0",
            "type": "t_address"
          },
          {
            "astId": 5100,
            "contract": "contracts/protocol/Minter.sol:Minter",
            "label": "portraitMintParams",
            "offset": 0,
            "slot": "1",
            "type": "t_array(t_struct(PortraitMintParams)5079_storage)dyn_storage"
          },
          {
            "astId": 5104,
            "contract": "contracts/protocol/Minter.sol:Minter",
            "label": "accessorySemiRandomMintParams",
            "offset": 0,
            "slot": "2",
            "type": "t_array(t_struct(AccessorySemiRandomMintParams)5088_storage)dyn_storage"
          },
          {
            "astId": 5108,
            "contract": "contracts/protocol/Minter.sol:Minter",
            "label": "accessoryFullRandomMintParams",
            "offset": 0,
            "slot": "3",
            "type": "t_array(t_struct(AccessoryFullRandomMintParams)5094_storage)dyn_storage"
          },
          {
            "astId": 5110,
            "contract": "contracts/protocol/Minter.sol:Minter",
            "label": "randomNumber",
            "offset": 0,
            "slot": "4",
            "type": "t_uint256"
          }
        ],
        "numberOfBytes": "160"
      },
      "t_struct(PortraitMintInfo)5135_storage": {
        "encoding": "inplace",
        "label": "struct Minter.PortraitMintInfo",
        "members": [
          {
            "astId": 5130,
            "contract": "contracts/protocol/Minter.sol:Minter",
            "label": "price",
            "offset": 0,
            "slot": "0",
            "type": "t_uint256"
          },
          {
            "astId": 5134,
            "contract": "contracts/protocol/Minter.sol:Minter",
            "label": "tierChances",
            "offset": 0,
            "slot": "1",
            "type": "t_array(t_uint16)6_storage"
          }
        ],
        "numberOfBytes": "64"
      },
      "t_struct(PortraitMintParams)5079_storage": {
        "encoding": "inplace",
        "label": "struct Minter.PortraitMintParams",
        "members": [
          {
            "astId": 5076,
            "contract": "contracts/protocol/Minter.sol:Minter",
            "label": "boxType",
            "offset": 0,
            "slot": "0",
            "type": "t_enum(BoxType)3998"
          },
          {
            "astId": 5078,
            "contract": "contracts/protocol/Minter.sol:Minter",
            "label": "amount",
            "offset": 1,
            "slot": "0",
            "type": "t_uint64"
          }
        ],
        "numberOfBytes": "32"
      },
      "t_struct(SaleWindow)5149_storage": {
        "encoding": "inplace",
        "label": "struct Minter.SaleWindow",
        "members": [
          {
            "astId": 5146,
            "contract": "contracts/protocol/Minter.sol:Minter",
            "label": "start",
            "offset": 0,
            "slot": "0",
            "type": "t_uint64"
          },
          {
            "astId": 5148,
            "contract": "contracts/protocol/Minter.sol:Minter",
            "label": "end",
            "offset": 8,
            "slot": "0",
            "type": "t_uint64"
          }
        ],
        "numberOfBytes": "32"
      },
      "t_uint16": {
        "encoding": "inplace",
        "label": "uint16",
        "numberOfBytes": "2"
      },
      "t_uint256": {
        "encoding": "inplace",
        "label": "uint256",
        "numberOfBytes": "32"
      },
      "t_uint64": {
        "encoding": "inplace",
        "label": "uint64",
        "numberOfBytes": "8"
      }
    }
  }
}