{
  "address": "0x801dAdc41D007B0f74bdeeC86866f7Ae47B05D7e",
  "abi": [
    {
      "anonymous": false,
      "inputs": [
        {
          "indexed": false,
          "internalType": "address",
          "name": "previousAdmin",
          "type": "address"
        },
        {
          "indexed": false,
          "internalType": "address",
          "name": "newAdmin",
          "type": "address"
        }
      ],
      "name": "AdminChanged",
      "type": "event"
    },
    {
      "anonymous": false,
      "inputs": [
        {
          "indexed": true,
          "internalType": "address",
          "name": "beacon",
          "type": "address"
        }
      ],
      "name": "BeaconUpgraded",
      "type": "event"
    },
    {
      "anonymous": false,
      "inputs": [
        {
          "indexed": true,
          "internalType": "address",
          "name": "requester",
          "type": "address"
        },
        {
          "indexed": false,
          "internalType": "bytes32",
          "name": "requestId",
          "type": "bytes32"
        }
      ],
      "name": "MintRequested",
      "type": "event"
    },
    {
      "anonymous": false,
      "inputs": [
        {
          "indexed": true,
          "internalType": "address",
          "name": "previousOwner",
          "type": "address"
        },
        {
          "indexed": true,
          "internalType": "address",
          "name": "newOwner",
          "type": "address"
        }
      ],
      "name": "OwnershipTransferred",
      "type": "event"
    },
    {
      "anonymous": false,
      "inputs": [
        {
          "indexed": true,
          "internalType": "bytes32",
          "name": "requestId",
          "type": "bytes32"
        },
        {
          "indexed": false,
          "internalType": "uint256",
          "name": "randomNumber",
          "type": "uint256"
        }
      ],
      "name": "RequestFulfilled",
      "type": "event"
    },
    {
      "anonymous": false,
      "inputs": [
        {
          "indexed": true,
          "internalType": "address",
          "name": "treasury",
          "type": "address"
        }
      ],
      "name": "TreasurySet",
      "type": "event"
    },
    {
      "anonymous": false,
      "inputs": [
        {
          "indexed": true,
          "internalType": "address",
          "name": "implementation",
          "type": "address"
        }
      ],
      "name": "Upgraded",
      "type": "event"
    },
    {
      "inputs": [],
      "name": "EXPRESSION_COUNT",
      "outputs": [
        {
          "internalType": "uint8",
          "name": "",
          "type": "uint8"
        }
      ],
      "stateMutability": "view",
      "type": "function"
    },
    {
      "inputs": [],
      "name": "FULL_PERCENT",
      "outputs": [
        {
          "internalType": "uint16",
          "name": "",
          "type": "uint16"
        }
      ],
      "stateMutability": "view",
      "type": "function"
    },
    {
      "inputs": [],
      "name": "MAX_TIER",
      "outputs": [
        {
          "internalType": "uint8",
          "name": "",
          "type": "uint8"
        }
      ],
      "stateMutability": "view",
      "type": "function"
    },
    {
      "inputs": [],
      "name": "MAX_TIER_CHANCE",
      "outputs": [
        {
          "internalType": "uint16",
          "name": "",
          "type": "uint16"
        }
      ],
      "stateMutability": "view",
      "type": "function"
    },
    {
      "inputs": [],
      "name": "PORTRAIT_MASK",
      "outputs": [
        {
          "internalType": "uint8",
          "name": "",
          "type": "uint8"
        }
      ],
      "stateMutability": "view",
      "type": "function"
    },
    {
      "inputs": [],
      "name": "STAGE_COUNT",
      "outputs": [
        {
          "internalType": "uint8",
          "name": "",
          "type": "uint8"
        }
      ],
      "stateMutability": "view",
      "type": "function"
    },
    {
      "inputs": [],
      "name": "TIER_COUNT",
      "outputs": [
        {
          "internalType": "uint8",
          "name": "",
          "type": "uint8"
        }
      ],
      "stateMutability": "view",
      "type": "function"
    },
    {
      "inputs": [
        {
          "internalType": "enum BoxType",
          "name": "",
          "type": "uint8"
        }
      ],
      "name": "accessoryMintInfo",
      "outputs": [
        {
          "internalType": "uint256",
          "name": "randomPrice",
          "type": "uint256"
        },
        {
          "internalType": "uint256",
          "name": "semiRandomPrice",
          "type": "uint256"
        }
      ],
      "stateMutability": "view",
      "type": "function"
    },
    {
      "inputs": [
        {
          "internalType": "uint256",
          "name": "",
          "type": "uint256"
        }
      ],
      "name": "backgroundCounts",
      "outputs": [
        {
          "internalType": "uint8",
          "name": "",
          "type": "uint8"
        }
      ],
      "stateMutability": "view",
      "type": "function"
    },
    {
      "inputs": [
        {
          "internalType": "uint8",
          "name": "",
          "type": "uint8"
        },
        {
          "internalType": "enum BoxType",
          "name": "",
          "type": "uint8"
        },
        {
          "internalType": "uint256",
          "name": "",
          "type": "uint256"
        }
      ],
      "name": "backgroundTierChances",
      "outputs": [
        {
          "internalType": "uint16",
          "name": "",
          "type": "uint16"
        }
      ],
      "stateMutability": "view",
      "type": "function"
    },
    {
      "inputs": [
        {
          "internalType": "uint256",
          "name": "",
          "type": "uint256"
        }
      ],
      "name": "expressionProbability",
      "outputs": [
        {
          "internalType": "uint16",
          "name": "",
          "type": "uint16"
        }
      ],
      "stateMutability": "view",
      "type": "function"
    },
    {
      "inputs": [
        {
          "internalType": "bytes32",
          "name": "requestId",
          "type": "bytes32"
        }
      ],
      "name": "getMintResult",
      "outputs": [
        {
          "internalType": "address",
          "name": "requester",
          "type": "address"
        },
        {
          "internalType": "uint256",
          "name": "seed",
          "type": "uint256"
        },
        {
          "components": [
            {
              "internalType": "uint256",
              "name": "tokenId",
              "type": "uint256"
            },
            {
              "internalType": "enum BoxType",
              "name": "boxType",
              "type": "uint8"
            },
            {
              "internalType": "uint8",
              "name": "tier",
              "type": "uint8"
            },
            {
              "internalType": "uint8",
              "name": "illuvial",
              "type": "uint8"
            },
            {
              "internalType": "uint8",
              "name": "backgroundTier",
              "type": "uint8"
            },
            {
              "internalType": "uint8",
              "name": "backgroundIdx",
              "type": "uint8"
            },
            {
              "internalType": "enum ExpressionType",
              "name": "expression",
              "type": "uint8"
            },
            {
              "internalType": "enum FinishType",
              "name": "finish",
              "type": "uint8"
            }
          ],
          "internalType": "struct Minter.PortraitInfo[]",
          "name": "portraits",
          "type": "tuple[]"
        },
        {
          "components": [
            {
              "internalType": "uint256",
              "name": "tokenId",
              "type": "uint256"
            },
            {
              "internalType": "enum BoxType",
              "name": "boxType",
              "type": "uint8"
            },
            {
              "internalType": "enum AccessoryType",
              "name": "accessoryType",
              "type": "uint8"
            },
            {
              "internalType": "uint8",
              "name": "tier",
              "type": "uint8"
            },
            {
              "internalType": "uint8",
              "name": "stage",
              "type": "uint8"
            }
          ],
          "internalType": "struct Minter.AccessoryInfo[]",
          "name": "accessories",
          "type": "tuple[]"
        }
      ],
      "stateMutability": "view",
      "type": "function"
    },
    {
      "inputs": [
        {
          "internalType": "uint256",
          "name": "",
          "type": "uint256"
        }
      ],
      "name": "illuvialCounts",
      "outputs": [
        {
          "internalType": "uint8",
          "name": "",
          "type": "uint8"
        }
      ],
      "stateMutability": "view",
      "type": "function"
    },
    {
      "inputs": [],
      "name": "illuvitarsPriceOracle",
      "outputs": [
        {
          "internalType": "contract IlluvitarsPriceOracle",
          "name": "",
          "type": "address"
        }
      ],
      "stateMutability": "view",
      "type": "function"
    },
    {
      "inputs": [
        {
          "internalType": "address",
          "name": "_vrfCoordinator",
          "type": "address"
        },
        {
          "internalType": "address",
          "name": "_linkToken",
          "type": "address"
        },
        {
          "internalType": "bytes32",
          "name": "_vrfKeyhash",
          "type": "bytes32"
        },
        {
          "internalType": "uint256",
          "name": "_vrfFee",
          "type": "uint256"
        },
        {
          "internalType": "address",
          "name": "_treasury",
          "type": "address"
        },
        {
          "internalType": "address",
          "name": "_sIlv",
          "type": "address"
        },
        {
          "internalType": "address",
          "name": "_illuvitarsPriceOracle",
          "type": "address"
        }
      ],
      "name": "initialize",
      "outputs": [],
      "stateMutability": "nonpayable",
      "type": "function"
    },
    {
      "inputs": [
        {
          "internalType": "bytes32",
          "name": "",
          "type": "bytes32"
        }
      ],
      "name": "mintRequests",
      "outputs": [
        {
          "internalType": "address",
          "name": "requester",
          "type": "address"
        },
        {
          "internalType": "uint256",
          "name": "portraitAmount",
          "type": "uint256"
        },
        {
          "internalType": "uint256",
          "name": "accessoryAmount",
          "type": "uint256"
        },
        {
          "internalType": "uint256",
          "name": "randomNumber",
          "type": "uint256"
        },
        {
          "internalType": "uint256",
          "name": "portraitStartTokenId",
          "type": "uint256"
        },
        {
          "internalType": "uint256",
          "name": "accessoryStartTokenId",
          "type": "uint256"
        }
      ],
      "stateMutability": "view",
      "type": "function"
    },
    {
      "inputs": [],
      "name": "nextAccessoryTokenId",
      "outputs": [
        {
          "internalType": "uint256",
          "name": "",
          "type": "uint256"
        }
      ],
      "stateMutability": "view",
      "type": "function"
    },
    {
      "inputs": [],
      "name": "nextPortraitTokenId",
      "outputs": [
        {
          "internalType": "uint256",
          "name": "",
          "type": "uint256"
        }
      ],
      "stateMutability": "view",
      "type": "function"
    },
    {
      "inputs": [],
      "name": "owner",
      "outputs": [
        {
          "internalType": "address",
          "name": "",
          "type": "address"
        }
      ],
      "stateMutability": "view",
      "type": "function"
    },
    {
      "inputs": [
        {
          "internalType": "enum BoxType",
          "name": "",
          "type": "uint8"
        }
      ],
      "name": "portraitMintInfo",
      "outputs": [
        {
          "internalType": "uint256",
          "name": "price",
          "type": "uint256"
        },
        {
          "internalType": "uint16",
          "name": "holoProbability",
          "type": "uint16"
        }
      ],
      "stateMutability": "view",
      "type": "function"
    },
    {
      "inputs": [],
      "name": "portraitSaleWindow",
      "outputs": [
        {
          "internalType": "uint64",
          "name": "start",
          "type": "uint64"
        },
        {
          "internalType": "uint64",
          "name": "end",
          "type": "uint64"
        }
      ],
      "stateMutability": "view",
      "type": "function"
    },
    {
      "inputs": [
        {
          "components": [
            {
              "internalType": "enum BoxType",
              "name": "boxType",
              "type": "uint8"
            },
            {
              "internalType": "uint64",
              "name": "amount",
              "type": "uint64"
            }
          ],
          "internalType": "struct Minter.PortraitMintParams[]",
          "name": "portraitMintParams",
          "type": "tuple[]"
        },
        {
          "components": [
            {
              "internalType": "enum AccessoryType",
              "name": "accessoryType",
              "type": "uint8"
            },
            {
              "internalType": "enum BoxType",
              "name": "boxType",
              "type": "uint8"
            },
            {
              "internalType": "uint64",
              "name": "amount",
              "type": "uint64"
            }
          ],
          "internalType": "struct Minter.AccessorySemiRandomMintParams[]",
          "name": "accessorySemiRandomMintParams",
          "type": "tuple[]"
        },
        {
          "components": [
            {
              "internalType": "enum BoxType",
              "name": "boxType",
              "type": "uint8"
            },
            {
              "internalType": "uint64",
              "name": "amount",
              "type": "uint64"
            }
          ],
          "internalType": "struct Minter.AccessoryFullRandomMintParams[]",
          "name": "accessoryFullRandomMintParams",
          "type": "tuple[]"
        },
        {
          "internalType": "bool",
          "name": "useSIlv",
          "type": "bool"
        }
      ],
      "name": "purchase",
      "outputs": [],
      "stateMutability": "payable",
      "type": "function"
    },
    {
      "inputs": [
        {
          "internalType": "bytes32",
          "name": "requestId",
          "type": "bytes32"
        },
        {
          "internalType": "uint256",
          "name": "randomness",
          "type": "uint256"
        }
      ],
      "name": "rawFulfillRandomness",
      "outputs": [],
      "stateMutability": "nonpayable",
      "type": "function"
    },
    {
      "inputs": [],
      "name": "renounceOwnership",
      "outputs": [],
      "stateMutability": "nonpayable",
      "type": "function"
    },
    {
      "inputs": [],
      "name": "sIlv",
      "outputs": [
        {
          "internalType": "address",
          "name": "",
          "type": "address"
        }
      ],
      "stateMutability": "view",
      "type": "function"
    },
    {
      "inputs": [
        {
          "components": [
            {
              "internalType": "uint64",
              "name": "start",
              "type": "uint64"
            },
            {
              "internalType": "uint64",
              "name": "end",
              "type": "uint64"
            }
          ],
          "internalType": "struct Minter.SaleWindow",
          "name": "_saleWindow",
          "type": "tuple"
        }
      ],
      "name": "setPortraitSaleWindow",
      "outputs": [],
      "stateMutability": "nonpayable",
      "type": "function"
    },
    {
      "inputs": [
        {
          "internalType": "address",
          "name": "treasury_",
          "type": "address"
        }
      ],
      "name": "setTreasury",
      "outputs": [],
      "stateMutability": "nonpayable",
      "type": "function"
    },
    {
      "inputs": [
        {
          "internalType": "uint256",
          "name": "",
          "type": "uint256"
        }
      ],
      "name": "stageProbability",
      "outputs": [
        {
          "internalType": "uint16",
          "name": "",
          "type": "uint16"
        }
      ],
      "stateMutability": "view",
      "type": "function"
    },
    {
      "inputs": [
        {
          "internalType": "address",
          "name": "newOwner",
          "type": "address"
        }
      ],
      "name": "transferOwnership",
      "outputs": [],
      "stateMutability": "nonpayable",
      "type": "function"
    },
    {
      "inputs": [],
      "name": "treasury",
      "outputs": [
        {
          "internalType": "address",
          "name": "",
          "type": "address"
        }
      ],
      "stateMutability": "view",
      "type": "function"
    },
    {
      "inputs": [
        {
          "internalType": "address",
          "name": "newImplementation",
          "type": "address"
        }
      ],
      "name": "upgradeTo",
      "outputs": [],
      "stateMutability": "nonpayable",
      "type": "function"
    },
    {
      "inputs": [
        {
          "internalType": "address",
          "name": "newImplementation",
          "type": "address"
        },
        {
          "internalType": "bytes",
          "name": "data",
          "type": "bytes"
        }
      ],
      "name": "upgradeToAndCall",
      "outputs": [],
      "stateMutability": "payable",
      "type": "function"
    },
    {
      "inputs": [],
      "name": "vrfFee",
      "outputs": [
        {
          "internalType": "uint256",
          "name": "",
          "type": "uint256"
        }
      ],
      "stateMutability": "view",
      "type": "function"
    },
    {
      "inputs": [],
      "name": "vrfKeyHash",
      "outputs": [
        {
          "internalType": "bytes32",
          "name": "",
          "type": "bytes32"
        }
      ],
      "stateMutability": "view",
      "type": "function"
    }
  ],
  "transactionHash": "0xdf0a74c16157e94e04d8bb14ff433ececdcc32a7a9cdb56cb7b36aae4988f36b",
  "args": [
    "0x9eD66d0F68802d967933f800D602b8B033bf6fCa",
    "0x1f24883025cA1a5cF80a1D183Da8666d90667Ef9",
    "0x0000000000000000000000000000000000000000000000000000000000000000",
    "0",
    "0xA4e47B38415201d4c8aB42711892A31C7B06bdE9",
    "0x774e30b5bd47125000dEb424547BfFEB13c1B706",
    "0x491D91f5277F66161Fda1986d1A401916e5C9fD0"
  ],
  "numDeployments": 1,
  "solcInputHash": "35950713e51d9e5a76a7030b2dcdfd9e",
  "bytecode": "0x60a06040523060805234801561001457600080fd5b5060805161455161004560003960008181610a5601528181610a9601528181610b1e0152610b5e01526145516000f3fe6080604052600436106101f95760003560e01c80638da5cb5b1161010d578063c556f062116100a0578063ebfedf7a1161006f578063ebfedf7a1461063a578063f0f442601461065a578063f2fde38b1461067a578063f5a4ee511461069a578063f5bfe9b1146106ba57600080fd5b8063c556f062146105e5578063cbe8bba814610605578063d103123b146105d0578063dcce80e41461061a57600080fd5b8063a28e1402116100dc578063a28e14021461054b578063ade0d7001461056b578063af3a19c7146105bb578063b577d02c146105d057600080fd5b80638da5cb5b146104a45780638fd7adb5146104c257806392df40051461050b57806394985ddd1461052b57600080fd5b80633659cfe61161019057806361d027b31161015f57806361d027b31461043c5780636250b2c51461045c578063715018a61461047c578063718c9ad81461039257806387f568a91461049157600080fd5b80633659cfe6146103b95780634f1ef286146103db5780635434e9e5146103ee5780635cd371741461040457600080fd5b80630fb29624116101cc5780630fb29624146103195780631017507d1461034c5780632a8548671461036257806336331c8f1461039257600080fd5b806302f80590146101fe578063033d436f1461024e578063041d443e146102725780630d39e46d14610288575b600080fd5b34801561020a57600080fd5b5060d354610229906001600160401b0380821691600160401b90041682565b604080516001600160401b039384168152929091166020830152015b60405180910390f35b34801561025a57600080fd5b5061026460d95481565b604051908152602001610245565b34801561027e57600080fd5b5061026460d75481565b34801561029457600080fd5b506102e26102a3366004613b60565b60d2602052600090815260409020805460028201546005830154600684015460078501546008909501546001600160a01b039094169492939192909186565b604080516001600160a01b0390971687526020870195909552938501929092526060840152608083015260a082015260c001610245565b34801561032557600080fd5b50610339610334366004613b60565b6106d0565b60405161ffff9091168152602001610245565b34801561035857600080fd5b5061026460d85481565b34801561036e57600080fd5b5061038261037d366004613b60565b6106fe565b6040516102459493929190613c4a565b34801561039e57600080fd5b506103a7600681565b60405160ff9091168152602001610245565b3480156103c557600080fd5b506103d96103d4366004613d52565b610a4c565b005b6103d96103e9366004613db3565b610b14565b3480156103fa57600080fd5b5061026460da5481565b34801561041057600080fd5b5060d654610424906001600160a01b031681565b6040516001600160a01b039091168152602001610245565b34801561044857600080fd5b5060d554610424906001600160a01b031681565b34801561046857600080fd5b506103d9610477366004613e58565b610bcd565b34801561048857600080fd5b506103d9610c7b565b6103d961049f366004613ecd565b610cb1565b3480156104b057600080fd5b506099546001600160a01b0316610424565b3480156104ce57600080fd5b506104f66104dd366004613fb7565b60cc602052600090815260409020805460019091015482565b60408051928352602083019190915201610245565b34801561051757600080fd5b506103a7610526366004613b60565b6113c7565b34801561053757600080fd5b506103d9610546366004613fd2565b6113f1565b34801561055757600080fd5b50610339610566366004613b60565b611455565b34801561057757600080fd5b506105a3610586366004613fb7565b60cb602052600090815260409020805460029091015461ffff1682565b6040805192835261ffff909116602083015201610245565b3480156105c757600080fd5b506103a7600581565b3480156105dc57600080fd5b506103a7600381565b3480156105f157600080fd5b5060d454610424906001600160a01b031681565b34801561061157600080fd5b50610339606481565b34801561062657600080fd5b506103d9610635366004613ff4565b611465565b34801561064657600080fd5b5061033961065536600461405e565b6115c1565b34801561066657600080fd5b506103d9610675366004613d52565b61160b565b34801561068657600080fd5b506103d9610695366004613d52565b6116d5565b3480156106a657600080fd5b506103a76106b5366004613b60565b61176d565b3480156106c657600080fd5b5061033961271081565b60ce81600381106106e057600080fd5b60109182820401919006600202915054906101000a900461ffff1681565b600081815260d2602052604081206006015481906060908190830361076a5760405162461bcd60e51b815260206004820152601a60248201527f4e6f2072616e646f6d206e756d6265722067656e65726174656400000000000060448201526064015b60405180910390fd5b600085815260d26020908152604080832081516101208101835281546001600160a01b031681526001820180548451818702810187019095528085529194929385840193909290879084015b8282101561082557600084815260209020604080518082019091529083018054829060ff1660058111156107ec576107ec613b79565b60058111156107fd576107fd613b79565b8152905461010090046001600160401b031660209182015290825260019290920191016107b6565b5050505081526020016002820154815260200160038201805480602002602001604051908101604052809291908181526020016000905b828210156109015760008481526020902060408051606081019091529083018054829060ff16600481111561089357610893613b79565b60048111156108a4576108a4613b79565b81528154602090910190610100900460ff1660058111156108c7576108c7613b79565b60058111156108d8576108d8613b79565b815290546001600160401b0362010000909104166020918201529082526001909201910161085c565b50505050815260200160048201805480602002602001604051908101604052809291908181526020016000905b8282101561099d57600084815260209020604080518082019091529083018054829060ff16600581111561096457610964613b79565b600581111561097557610975613b79565b8152905461010090046001600160401b0316602091820152908252600192909201910161092e565b5050505081526020016005820154815260200160068201548152602001600782015481526020016008820154815250509050806000015194508060c001519350600084905060008260200151511115610a0957610a038183602001518460e0015161177d565b90945090505b60008260800151511180610a2257506000826060015151115b15610a4357610a4081836080015184606001518561010001516118f2565b92505b50509193509193565b6001600160a01b037f0000000000000000000000000000000000000000000000000000000000000000163003610a945760405162461bcd60e51b8152600401610761906140a2565b7f00000000000000000000000000000000000000000000000000000000000000006001600160a01b0316610ac6611bb0565b6001600160a01b031614610aec5760405162461bcd60e51b8152600401610761906140ee565b610af581611bde565b60408051600080825260208201909252610b1191839190611c08565b50565b6001600160a01b037f0000000000000000000000000000000000000000000000000000000000000000163003610b5c5760405162461bcd60e51b8152600401610761906140a2565b7f00000000000000000000000000000000000000000000000000000000000000006001600160a01b0316610b8e611bb0565b6001600160a01b031614610bb45760405162461bcd60e51b8152600401610761906140ee565b610bbd82611bde565b610bc982826001611c08565b5050565b6099546001600160a01b03163314610bf75760405162461bcd60e51b81526004016107619061413a565b610c076040820160208301614184565b6001600160401b0316610c1d6020830183614184565b6001600160401b031610610c695760405162461bcd60e51b8152602060048201526013602482015272496e76616c69642073616c652077696e646f7760681b6044820152606401610761565b8060d3610c7682826141a1565b505050565b6099546001600160a01b03163314610ca55760405162461bcd60e51b81526004016107619061413a565b610caf6000611d53565b565b600080610cc260d75460d854611da5565b600081815260d2602052604090208054919250906001600160a01b031615610d205760405162461bcd60e51b8152602060048201526011602482015270105b1c9958591e481c995c5d595cdd1959607a1b6044820152606401610761565b80546001600160a01b03191633178155888015610db05760d3546001600160401b03164210801590610d64575060d354600160401b90046001600160401b03164211155b610db05760405162461bcd60e51b815260206004820152601960248201527f53616c65206e6f742073746172746564206f7220656e646564000000000000006044820152606401610761565b6000805b82811015610f2d5760008d8d83818110610dd057610dd061420d565b905060400201803603810190610de69190614283565b9050600081602001516001600160401b031611610e365760405162461bcd60e51b815260206004820152600e60248201526d125b9d985b1a5908185b5bdd5b9d60921b6044820152606401610761565b60cb600082600001516005811115610e5057610e50613b79565b6005811115610e6157610e61613b79565b81526020019081526020016000206000015481602001516001600160401b0316610e8b91906142b5565b610e9590886142d4565b965080602001516001600160401b031683610eb091906142d4565b6001808701805480830182556000918252602090912084519101805493965084939092839160ff191690836005811115610eec57610eec613b79565b02179055506020919091015181546001600160401b039091166101000268ffffffffffffffff001990911617905550610f266001826142d4565b9050610db4565b506002830181905560d9546007840155610f488160066142b5565b60d96000828254610f5991906142d4565b9091555089925060009050805b8381101561110a5760008c8c83818110610f8257610f8261420d565b905060600201803603810190610f9891906142ec565b9050600081604001516001600160401b031611610fe85760405162461bcd60e51b815260206004820152600e60248201526d125b9d985b1a5908185b5bdd5b9d60921b6044820152606401610761565b60cc60008260200151600581111561100257611002613b79565b600581111561101357611013613b79565b81526020019081526020016000206001015481604001516001600160401b031661103d91906142b5565b61104790896142d4565b975080604001516001600160401b03168361106291906142d4565b600387018054600181810183556000928352602090922084519101805493965084939092839160ff19169083600481111561109f5761109f613b79565b021790555060208201518154829061ff0019166101008360058111156110c7576110c7613b79565b02179055506040919091015181546001600160401b03909116620100000269ffffffffffffffff000019909116179055506111036001826142d4565b9050610f66565b5087925060005b8381101561123d5760008a8a8381811061112d5761112d61420d565b9050604002018036038101906111439190614283565b905060cc60008260000151600581111561115f5761115f613b79565b600581111561117057611170613b79565b81526020019081526020016000206000015481602001516001600160401b031661119a91906142b5565b6111a490896142d4565b975080602001516001600160401b0316836111bf91906142d4565b600487018054600181810183556000928352602090922084519101805493965084939092839160ff1916908360058111156111fc576111fc613b79565b02179055506020919091015181546001600160401b039091166101000268ffffffffffffffff0019909116179055506112366001826142d4565b9050611111565b506005840181905560da8054600886018190558291906000906112619084906142d4565b909155505085156113835786156113085760d654604051634da8552760e11b8152600481018890526000916001600160a01b031690639b50aa4e90602401602060405180830381865afa1580156112bc573d6000803e3d6000fd5b505050506040513d601f19601f820116820180604052508101906112e0919061435f565b60d55460d454919250611302916001600160a01b039081169133911684611efa565b50611383565b8534146113475760405162461bcd60e51b815260206004820152600d60248201526c496e76616c696420707269636560981b6044820152606401610761565b60d5546040516001600160a01b039091169087156108fc029088906000818181858888f19350505050158015611381573d6000803e3d6000fd5b505b60405185815233907feaf8d3f69fe5b0f881b23e1b13477c52d8748166f18f9b8665365ef0879c753d9060200160405180910390a250505050505050505050505050565b60d081600681106113d757600080fd5b60209182820401919006915054906101000a900460ff1681565b6001546001600160a01b0316331461144b5760405162461bcd60e51b815260206004820152601f60248201527f4f6e6c7920565246436f6f7264696e61746f722063616e2066756c66696c6c006044820152606401610761565b610bc98282611f5a565b60cf81600381106106e057600080fd5b600054610100900460ff168061147e575060005460ff16155b61149a5760405162461bcd60e51b815260040161076190614378565b600054610100900460ff161580156114bc576000805461ffff19166101011790555b6001600160a01b038416158015906114dc57506001600160a01b03821615155b80156114f057506001600160a01b03831615155b6115325760405162461bcd60e51b815260206004820152601360248201527263616e6e6f74207a65726f206164647265737360681b6044820152606401610761565b61153a612064565b61154488886120df565b60d786905560d885905560d480546001600160a01b038086166001600160a01b03199283161790925560d5805487841690831617905560d6805492851692909116919091179055600160d981905560da5561159d61218d565b6115a5612747565b80156115b7576000805461ff00191690555b5050505050505050565b60cd60205282600052604060002060205281600052604060002081600581106115e957600080fd5b6010918282040191900660020292509250509054906101000a900461ffff1681565b6099546001600160a01b031633146116355760405162461bcd60e51b81526004016107619061413a565b6001600160a01b03811661168b5760405162461bcd60e51b815260206004820152601c60248201527f547265617375727920616464726573732063616e6e6f74207a65726f000000006044820152606401610761565b60d580546001600160a01b0319166001600160a01b0383169081179091556040517f3c864541ef71378c6229510ed90f376565ee42d9c5e0904a984a9e863e6db44f90600090a250565b6099546001600160a01b031633146116ff5760405162461bcd60e51b81526004016107619061413a565b6001600160a01b0381166117645760405162461bcd60e51b815260206004820152602660248201527f4f776e61626c653a206e6577206f776e657220697320746865207a65726f206160448201526564647265737360d01b6064820152608401610761565b610b1181611d53565b60d181600681106113d757600080fd5b606060008060008551905060005b818110156117d9578681815181106117a5576117a561420d565b6020026020010151602001516001600160401b0316836117c591906142d4565b92506117d26001826142d4565b905061178b565b508692508482156118e757826001600160401b038111156117fc576117fc613d6d565b60405190808252806020026020018201604052801561183557816020015b61182261399b565b81526020019060019003908161181a5790505b5094506000805b838110156118e45760008982815181106118585761185861420d565b60200260200101519050600081602001516001600160401b0316905060005b818110156118cd5761188a898488612cd3565b8c888151811061189c5761189c61420d565b6020908102919091010192909252995095506118b96001866142d4565b94506118c66001826142d4565b9050611877565b5050506001816118dd91906142d4565b905061183c565b50505b505050935093915050565b606060008060008651905060005b8181101561194e5787818151811061191a5761191a61420d565b6020026020010151602001516001600160401b03168461193a91906142d4565b93506119476001826142d4565b9050611900565b505084518460005b828110156119a4578781815181106119705761197061420d565b6020026020010151604001516001600160401b03168461199091906142d4565b935061199d6001826142d4565b9050611956565b50600089841515806119b65750600086115b15611ba2576119c586866142d4565b6001600160401b038111156119dc576119dc613d6d565b604051908082528060200260200182016040528015611a4057816020015b611a2d6040805160a081019091526000808252602082019081526020016000815260006020820181905260409091015290565b8152602001906001900390816119fa5790505b50965060005b84811015611aef5760008a8281518110611a6257611a6261420d565b60200260200101519050600081604001516001600160401b0316905060005b81811015611ad857611a94858489612f07565b8d8981518110611aa657611aa661420d565b60209081029190910101929092529097509450611ac46001876142d4565b9550611ad16001826142d4565b9050611a81565b505050600181611ae891906142d4565b9050611a46565b508951935060005b84811015611ba05760008b8281518110611b1357611b1361420d565b60200260200101519050600081602001516001600160401b0316905060005b81811015611b8957611b45858489613058565b8d8981518110611b5757611b5761420d565b60209081029190910101929092529097509450611b756001876142d4565b9550611b826001826142d4565b9050611b32565b505050600181611b9991906142d4565b9050611af7565b505b505050505050949350505050565b7f360894a13ba1a3210667c828492db98dca3e2076cc3735a920a3ca505d382bbc546001600160a01b031690565b6099546001600160a01b03163314610b115760405162461bcd60e51b81526004016107619061413a565b6000611c12611bb0565b9050611c1d8461313e565b600083511180611c2a5750815b15611c3b57611c3984846131e3565b505b7f4910fdfa16fed3260ed0e7147f7cc6da11a60208b5b9406d12a635614ffd9143805460ff16611d4c57805460ff191660011781556040516001600160a01b0383166024820152611cba90869060440160408051601f198184030181529190526020810180516001600160e01b0316631b2ce7f360e11b1790526131e3565b50805460ff19168155611ccb611bb0565b6001600160a01b0316826001600160a01b031614611d435760405162461bcd60e51b815260206004820152602f60248201527f45524331393637557067726164653a207570677261646520627265616b73206660448201526e75727468657220757067726164657360881b6064820152608401610761565b611d4c856132ce565b5050505050565b609980546001600160a01b038381166001600160a01b0319831681179093556040519116919082907f8be0079c531659141344cd1fd0a4f28419497f9722a3daafe3b4186f6b6457e090600090a35050565b600080546001546040516001600160a01b0362010000909304831692634000aea09216908590611de49088908790602001918252602082015260400190565b6040516020818303038152906040526040518463ffffffff1660e01b8152600401611e119392919061441e565b6020604051808303816000875af1158015611e30573d6000803e3d6000fd5b505050506040513d601f19601f82011682018060405250810190611e549190614445565b50600083815260026020818152604080842054815180840189905280830186905230606082015260808082018390528351808303909101815260a090910190925281519183019190912093879052919052611eb09060016142d4565b600085815260026020526040902055611ef08482604080516020808201949094528082019290925280518083038201815260609092019052805191012090565b9150505b92915050565b604080516001600160a01b0385811660248301528416604482015260648082018490528251808303909101815260849091019091526020810180516001600160e01b03166323b872dd60e01b179052611f5490859061330e565b50505050565b600082815260d260205260409020546001600160a01b0316611fb15760405162461bcd60e51b815260206004820152601060248201526f139bc81c995c5d595cdd08195e1a5cdd60821b6044820152606401610761565b600082815260d26020526040902060060154156120105760405162461bcd60e51b815260206004820152601f60248201527f52616e646f6d206e756d62657220616c72656164792066756c66696c6c6564006044820152606401610761565b600082815260d26020526040908190206006018290555182907f1ca8663227a7fe9919713a01d344afbb434e234f35a3e540a6ad924f88771f38906120589084815260200190565b60405180910390a25050565b600054610100900460ff168061207d575060005460ff16155b6120995760405162461bcd60e51b815260040161076190614378565b600054610100900460ff161580156120bb576000805461ffff19166101011790555b6120c36133e0565b6120cb61344a565b8015610b11576000805461ff001916905550565b600054610100900460ff16806120f8575060005460ff16155b6121145760405162461bcd60e51b815260040161076190614378565b600054610100900460ff16158015612136576000805461ffff19166101011790555b600180546001600160a01b0319166001600160a01b03858116919091179091556000805462010000600160b01b03191662010000928516929092029190911790558015610c76576000805461ff0019169055505050565b60408051606080820183526000808352835160c081018552612710815260208082018390528186018390529281018290526080810182905260a08101829052828401908152600294840194909452805260cb905280517f4239c2c8c3d9b94feb214b0f54d7c869ce1ceb63517be57644336cda4967a4689081559151909190612239907f4239c2c8c3d9b94feb214b0f54d7c869ce1ceb63517be57644336cda4967a4699060066139df565b506040918201516002918201805461ffff191661ffff90921691909117905581516060808201845266b1a2bc2ec500008252835160c0810185526000808252611f406020808401919091526125e4838801526126ca938301939093526126fc608083015261271060a083015282840191825294830193909352600190935260cb90925281517fb3c459fcfa972435363277a54960f9947fdf75faf912b521fbcc6cd1c34ddc339081559051612311907fb3c459fcfa972435363277a54960f9947fdf75faf912b521fbcc6cd1c34ddc349060066139df565b506040918201516002918201805461ffff191661ffff90921691909117905581516060808201845267016345785d8a00008252835160c08101855260008082526117d4602080840191909152612260838801526125e4938301939093526126de608083015261271060a08301528284019182529483018490529290935260cb90925281517f2c278fda8778553b7b7a8cff03a9beadbef1773abb49c1f69c87347759480d5990815590516123e8907f2c278fda8778553b7b7a8cff03a9beadbef1773abb49c1f69c87347759480d5a9060066139df565b506040918201516002918201805461ffff191661ffff9092169190911790558151606080820184526703782dace9d900008252835160c08101855260008082526109606020808401919091526119c883880152612260938301939093526125e4608083015261271060a083015282840191825294830193909352600390935260cb90925281517f3f771ad337758d100996e4f4ea4b0371b93c9bfb5e077c0267534f8d2606ee4090815590516124c1907f3f771ad337758d100996e4f4ea4b0371b93c9bfb5e077c0267534f8d2606ee419060066139df565b50604091820151600291909101805461ffff191661ffff909216919091179055805160608082018352670a688906bd8b00008252825160c08101845260008082526101f46020808401919091526107d08387015261109a9383019390935261203a608083015261271060a0830152828401918252600394840194909452600490935260cb905280517f322b60245ba380edff02ea0cd22c8f465b6af4c34230f7ec556b48e58b4dbdde908155915190919061259f907f322b60245ba380edff02ea0cd22c8f465b6af4c34230f7ec556b48e58b4dbddf9060066139df565b50604091820151600291909101805461ffff191661ffff9092169190911790558051606080820183526722b1c8c1227a00008252825160c081018452600080825260c86020808401919091526103e8838701526109c493830193909352611388608083015261271060a083015282840191825260059484018590529390935260cb905280517f234b54bc34b9466904cc2600e624100259a42679c1529023bd62079f434f8d6e908155915190919061267a907f234b54bc34b9466904cc2600e624100259a42679c1529023bd62079f434f8d6f9060066139df565b50604091820151600291909101805461ffff191661ffff909216919091179055805160c081018252600a80825260208201819052918101829052606081019190915260056080820181905260a08201526126d89060d0906006613a75565b506040805160608101825260328152605060208201526064918101919091526127059060ce906003613af6565b506040805160c0810182526003808252600660208301819052600593830193909352600460608301819052608083015260a0820152610b119160d19190613a75565b604080516060808201835260008083526020808401828152855160c08101875261271081528083018490528087018490529384018390526080840183905260a0840183905294840192835290805260cc905281517f435daec636ce435a90bde0aeec309a303a359a854c5a51b7d6a5a941d6db609490815592517f435daec636ce435a90bde0aeec309a303a359a854c5a51b7d6a5a941d6db60955551909190612814907f435daec636ce435a90bde0aeec309a303a359a854c5a51b7d6a5a941d6db60969060066139df565b5050604080516060808201835266b1a2bc2ec50000825267016345785d8a00006020808401918252845160c0810186526000808252611fa4828401526123f0828801526125e4948201949094526126ac608082015261271060a0820152948401948552600190925260cc90915281517fe7bf1de387f1223f0fc355696e043550abf1cecefa85fce0e824dbbcb1125e7290815590517fe7bf1de387f1223f0fc355696e043550abf1cecefa85fce0e824dbbcb1125e735591519092506128fd907fe7bf1de387f1223f0fc355696e043550abf1cecefa85fce0e824dbbcb1125e749060066139df565b5050604080516060808201835267016345785d8a000082526702c68af0bb1400006020808401918252845160c0810186526000808252610bb882840152611db082880152612260948201949094526125e4608082015261271060a0820152948401948552600290925260cc90915281517f22774faf9377d17ee337aca46ae9f31cdc694bfbe3d854c18c7806167b97e1b490815590517f22774faf9377d17ee337aca46ae9f31cdc694bfbe3d854c18c7806167b97e1b55591519092506129e7907f22774faf9377d17ee337aca46ae9f31cdc694bfbe3d854c18c7806167b97e1b69060066139df565b50506040805160608082018352670214e8348c4f00008252670429d069189e00006020808401918252845160c08101865260008082526105dc8284015261125c82880152611c2094820194909452612328608082015261271060a0820152948401948552600390925260cc90915281517f0a419be568cc707f4292098bf178c7d2a8bf2a39b4b2d22c7d4b34f1df9dc54390815590517f0a419be568cc707f4292098bf178c7d2a8bf2a39b4b2d22c7d4b34f1df9dc544559151909250612ad1907f0a419be568cc707f4292098bf178c7d2a8bf2a39b4b2d22c7d4b34f1df9dc5459060066139df565b505060408051606080820183526702c68af0bb140000825267058d15e1762800006020808401918252845160c08101865260008082526101f4828401526107d0828801526114b494820194909452611f40608082015261271060a0820152948401948552600490925260cc90915281517fd8b856737370b971967525f7601ea4ffa6d026b1508299d4c977c559046e880b90815590517fd8b856737370b971967525f7601ea4ffa6d026b1508299d4c977c559046e880c559151909250612bbb907fd8b856737370b971967525f7601ea4ffa6d026b1508299d4c977c559046e880d9060066139df565b505060408051606080820183526703782dace9d9000082526706f05b59d3b200006020808401918252845160c081018652600080825260648284015261025882880152610af094820194909452611770608082015261271060a0820152948401948552600590925260cc90915281517f1c65efc1b891a670e4e436dc105ccc9eb6e81b9bae93c09e1791bebb51a84e6190815590517f1c65efc1b891a670e4e436dc105ccc9eb6e81b9bae93c09e1791bebb51a84e62559151909250612ca4907f1c65efc1b891a670e4e436dc105ccc9eb6e81b9bae93c09e1791bebb51a84e639060066139df565b505060408051606081018252602d815260506020820152606491810191909152610b11915060cf906003613af6565b612cdb61399b565b600080600080612ced886127106134aa565b8787528851919350915060208601906005811115612d0d57612d0d613b79565b90816005811115612d2057612d20613b79565b815250506000612dc460cb60008a600001516005811115612d4357612d43613b79565b6005811115612d5457612d54613b79565b815260208101919091526040908101600020815160c0810190925260010160068282826020028201916000905b82829054906101000a900461ffff1661ffff1681526020019060020190602082600101049283019260010382029150808411612d815790505050505050836134d5565b60ff811660408801819052909150612e0690849060d19060068110612deb57612deb61420d565b602081049091015460ff601f9092166101000a900416613531565b60ff1660608801528851909350612e1f9082908561354e565b60ff1660808801819052909350612e4590849060d09060068110612deb57612deb61420d565b60ff1660a08801529250612e5883613690565b8760c001816002811115612e6e57612e6e613b79565b6002811115612e7f57612e7f613b79565b9052508851909350612e92908490613728565b90508660e001816001811115612eaa57612eaa613b79565b6001811115612ebb57612ebb613b79565b905250612ec96006856142d4565b60408051602081018c90529081018b90529094506060016040516020818303038152906040528051906020012060001c945050505093509350939050565b612f3a6040805160a081019091526000808252602082019081526020016000815260006020820181905260409091015290565b600080600080612f4c886127106134aa565b8787526020808a01519294509092508601906005811115612f6f57612f6f613b79565b90816005811115612f8257612f82613b79565b905250865160408601906004811115612f9d57612f9d613b79565b90816004811115612fb057612fb0613b79565b81525050600061303060cc60008a602001516005811115612fd357612fd3613b79565b6005811115612fe457612fe4613b79565b81526020808201929092526040908101600020815160c08101928390526002918201805461ffff1682529093909260069290918491908601808411612d815790505050505050836134d5565b60ff8116606088015290506130448361379c565b60ff16608088015250612ec96001856142d4565b61308b6040805160a081019091526000808252602082019081526020016000815260006020820181905260409091015290565b60008060008061309d886127106134aa565b87875288519193509150602086019060058111156130bd576130bd613b79565b908160058111156130d0576130d0613b79565b9052506130de600583614478565b60ff1660048111156130f2576130f2613b79565b8560400190600481111561310857613108613b79565b9081600481111561311b5761311b613b79565b81525050600061303060cc60008a600001516005811115612fd357612fd3613b79565b803b6131a25760405162461bcd60e51b815260206004820152602d60248201527f455243313936373a206e657720696d706c656d656e746174696f6e206973206e60448201526c1bdd08184818dbdb9d1c9858dd609a1b6064820152608401610761565b7f360894a13ba1a3210667c828492db98dca3e2076cc3735a920a3ca505d382bbc80546001600160a01b0319166001600160a01b0392909216919091179055565b6060823b6132425760405162461bcd60e51b815260206004820152602660248201527f416464726573733a2064656c65676174652063616c6c20746f206e6f6e2d636f6044820152651b9d1c9858dd60d21b6064820152608401610761565b600080846001600160a01b03168460405161325d919061448c565b600060405180830381855af49150503d8060008114613298576040519150601f19603f3d011682016040523d82523d6000602084013e61329d565b606091505b50915091506132c582826040518060600160405280602781526020016144f56027913961381c565b95945050505050565b6132d78161313e565b6040516001600160a01b038216907fbc7cd75a20ee27fd9adebab32041f755214dbc6bffa90cc0225b39da2e5c2d3b90600090a250565b6000613363826040518060400160405280602081526020017f5361666545524332303a206c6f772d6c6576656c2063616c6c206661696c6564815250856001600160a01b031661385c9092919063ffffffff16565b805190915015610c7657808060200190518101906133819190614445565b610c765760405162461bcd60e51b815260206004820152602a60248201527f5361666545524332303a204552433230206f7065726174696f6e20646964206e6044820152691bdd081cdd58d8d9595960b21b6064820152608401610761565b600054610100900460ff16806133f9575060005460ff16155b6134155760405162461bcd60e51b815260040161076190614378565b600054610100900460ff161580156120cb576000805461ffff19166101011790558015610b11576000805461ff001916905550565b600054610100900460ff1680613463575060005460ff16155b61347f5760405162461bcd60e51b815260040161076190614378565b600054610100900460ff161580156134a1576000805461ffff19166101011790555b6120cb33611d53565b6000806134bb61ffff8416856144a8565b6134c961ffff851686614478565b915091505b9250929050565b6000805b600660ff82161015613527578261ffff16848260ff16600681106134ff576134ff61420d565b602002015161ffff161115613515579050611ef4565b6135206001826144bc565b90506134d9565b5060009392505050565b60008061354160ff8416856144a8565b6134c960ff851686614478565b6000808084600581111561356457613564613b79565b0361357457508190506000613688565b6000613582846127106134aa565b60ff8816600090815260cd6020526040812092955090925090818760058111156135ae576135ae613b79565b60058111156135bf576135bf613b79565b815260208101919091526040908101600020815160a0810190925260058282826020028201916000905b82829054906101000a900461ffff1661ffff16815260200190600201906020826001010492830192600103820291508084116135e95790505050505050905060005b600560ff82161015613680578261ffff16828260ff16600581106136515761365161420d565b602002015161ffff16111561366e5761366b8160016144bc565b93505b6136796001826144bc565b905061362b565b506001925050505b935093915050565b60008060006136a08460646134aa565b909350905060005b600360ff821610156137215760ce8160ff16600381106136ca576136ca61420d565b601091828204019190066002029054906101000a900461ffff1661ffff168261ffff16101561370f578060ff16600281111561370857613708613b79565b9250613721565b61371a6001826144bc565b90506136a8565b5050915091565b60008060006137388560646134aa565b909350905060cb600085600581111561375357613753613b79565b600581111561376457613764613b79565b815260208101919091526040016000206002015461ffff9081169082161161378f5760019150613794565b600091505b509250929050565b60008060006137ac8460646134aa565b909350905060005b600360ff821610156137215760cf8160ff16600381106137d6576137d661420d565b601091828204019190066002029054906101000a900461ffff1661ffff168261ffff16101561380a576137088160016144bc565b6138156001826144bc565b90506137b4565b6060831561382b575081613855565b82511561383b5782518084602001fd5b8160405162461bcd60e51b815260040161076191906144e1565b9392505050565b606061386b8484600085613873565b949350505050565b6060824710156138d45760405162461bcd60e51b815260206004820152602660248201527f416464726573733a20696e73756666696369656e742062616c616e636520666f6044820152651c8818d85b1b60d21b6064820152608401610761565b843b6139225760405162461bcd60e51b815260206004820152601d60248201527f416464726573733a2063616c6c20746f206e6f6e2d636f6e74726163740000006044820152606401610761565b600080866001600160a01b0316858760405161393e919061448c565b60006040518083038185875af1925050503d806000811461397b576040519150601f19603f3d011682016040523d82523d6000602084013e613980565b606091505b509150915061399082828661381c565b979650505050505050565b6040805161010081018252600080825260208201819052918101829052606081018290526080810182905260a0810182905260c0810182905260e081019190915290565b600183019183908215613a655791602002820160005b83821115613a3557835183826101000a81548161ffff021916908361ffff16021790555092602001926002016020816001010492830192600103026139f5565b8015613a635782816101000a81549061ffff0219169055600201602081600101049283019260010302613a35565b505b50613a71929150613b4b565b5090565b600183019183908215613a655791602002820160005b83821115613ac957835183826101000a81548160ff021916908360ff1602179055509260200192600101602081600001049283019260010302613a8b565b8015613a635782816101000a81549060ff0219169055600101602081600001049283019260010302613ac9565b600183019183908215613a655791602002820160005b83821115613a3557835183826101000a81548161ffff021916908360ff1602179055509260200192600201602081600101049283019260010302613b0c565b5b80821115613a715760008155600101613b4c565b600060208284031215613b7257600080fd5b5035919050565b634e487b7160e01b600052602160045260246000fd5b60068110613b9f57613b9f613b79565b9052565b60038110613b9f57613b9f613b79565b60028110613b9f57613b9f613b79565b600081518084526020808501945080840160005b83811015613c3f5781518051885283810151613bf5858a0182613b8f565b5060408082015160058110613c0c57613c0c613b79565b9089015260608181015160ff908116918a0191909152608091820151169088015260a09096019590820190600101613bd7565b509495945050505050565b6001600160a01b0385168152602080820185905260806040808401829052855184830181905260009360a092909183870190898401875b82811015613d125781518051855286810151613c9f88870182613b8f565b508086015160ff9081168688015260608083015182169087015289820151168986015287810151613cd48987018260ff169052565b5060c080820151613ce782880182613ba3565b505060e09081015190613cfc86820183613bb3565b5050610100939093019290850190600101613c81565b5050508681036060880152613d278189613bc3565b9b9a5050505050505050505050565b80356001600160a01b0381168114613d4d57600080fd5b919050565b600060208284031215613d6457600080fd5b61385582613d36565b634e487b7160e01b600052604160045260246000fd5b604051601f8201601f191681016001600160401b0381118282101715613dab57613dab613d6d565b604052919050565b60008060408385031215613dc657600080fd5b613dcf83613d36565b91506020808401356001600160401b0380821115613dec57600080fd5b818601915086601f830112613e0057600080fd5b813581811115613e1257613e12613d6d565b613e24601f8201601f19168501613d83565b91508082528784828501011115613e3a57600080fd5b80848401858401376000848284010152508093505050509250929050565b600060408284031215613e6a57600080fd5b50919050565b60008083601f840112613e8257600080fd5b5081356001600160401b03811115613e9957600080fd5b6020830191508360208260061b85010111156134ce57600080fd5b8015158114610b1157600080fd5b8035613d4d81613eb4565b60008060008060008060006080888a031215613ee857600080fd5b87356001600160401b0380821115613eff57600080fd5b613f0b8b838c01613e70565b909950975060208a0135915080821115613f2457600080fd5b818a0191508a601f830112613f3857600080fd5b813581811115613f4757600080fd5b8b6020606083028501011115613f5c57600080fd5b6020830197508096505060408a0135915080821115613f7a57600080fd5b50613f878a828b01613e70565b9094509250613f9a905060608901613ec2565b905092959891949750929550565b803560068110613d4d57600080fd5b600060208284031215613fc957600080fd5b61385582613fa8565b60008060408385031215613fe557600080fd5b50508035926020909101359150565b600080600080600080600060e0888a03121561400f57600080fd5b61401888613d36565b965061402660208901613d36565b9550604088013594506060880135935061404260808901613d36565b925061405060a08901613d36565b9150613f9a60c08901613d36565b60008060006060848603121561407357600080fd5b833560ff8116811461408457600080fd5b925061409260208501613fa8565b9150604084013590509250925092565b6020808252602c908201527f46756e6374696f6e206d7573742062652063616c6c6564207468726f7567682060408201526b19195b1959d85d1958d85b1b60a21b606082015260800190565b6020808252602c908201527f46756e6374696f6e206d7573742062652063616c6c6564207468726f7567682060408201526b6163746976652070726f787960a01b606082015260800190565b6020808252818101527f4f776e61626c653a2063616c6c6572206973206e6f7420746865206f776e6572604082015260600190565b6001600160401b0381168114610b1157600080fd5b60006020828403121561419657600080fd5b81356138558161416f565b81356141ac8161416f565b6001600160401b03811690508154816001600160401b0319821617835560208401356141d78161416f565b6fffffffffffffffff00000000000000008160401b16836fffffffffffffffffffffffffffffffff198416171784555050505050565b634e487b7160e01b600052603260045260246000fd5b60006040828403121561423557600080fd5b604051604081018181106001600160401b038211171561425757614257613d6d565b60405290508061426683613fa8565b815260208301356142768161416f565b6020919091015292915050565b60006040828403121561429557600080fd5b6138558383614223565b634e487b7160e01b600052601160045260246000fd5b60008160001904831182151516156142cf576142cf61429f565b500290565b600082198211156142e7576142e761429f565b500190565b6000606082840312156142fe57600080fd5b604051606081018181106001600160401b038211171561432057614320613d6d565b60405282356005811061433257600080fd5b815261434060208401613fa8565b602082015260408301356143538161416f565b60408201529392505050565b60006020828403121561437157600080fd5b5051919050565b6020808252602e908201527f496e697469616c697a61626c653a20636f6e747261637420697320616c72656160408201526d191e481a5b9a5d1a585b1a5e995960921b606082015260800190565b60005b838110156143e15781810151838201526020016143c9565b83811115611f545750506000910152565b6000815180845261440a8160208601602086016143c6565b601f01601f19169290920160200192915050565b60018060a01b03841681528260208201526060604082015260006132c560608301846143f2565b60006020828403121561445757600080fd5b815161385581613eb4565b634e487b7160e01b600052601260045260246000fd5b60008261448757614487614462565b500690565b6000825161449e8184602087016143c6565b9190910192915050565b6000826144b7576144b7614462565b500490565b600060ff821660ff84168060ff038211156144d9576144d961429f565b019392505050565b60208152600061385560208301846143f256fe416464726573733a206c6f772d6c6576656c2064656c65676174652063616c6c206661696c6564a2646970667358221220736888651ac58b6d49c97e6ed3ea03de259a995f7bc8cbdd1abe69bdc6c3ab8b64736f6c634300080e0033",
  "devdoc": {
    "author": "Dmitry Yakovlevich",
    "details": "Users can use ETH or sILV to request minting.Minter uses an chainlink VRF to genrate randomness.",
    "events": {
      "MintRequested(address,bytes32)": {
        "details": "Emitted when user request mint."
      },
      "RequestFulfilled(bytes32,uint256)": {
        "details": "Emitted when chainlink fulfilled VRF request."
      },
      "TreasurySet(address)": {
        "details": "Emitted when treasury updated."
      }
    },
    "kind": "dev",
    "methods": {
      "getMintResult(bytes32)": {
        "details": "Get mintable portrait and accessory infos with chainlink random number",
        "params": {
          "requestId": "Request id of mint request."
        },
        "returns": {
          "accessories": "Mintable accessory on-chain metadata",
          "portraits": "Mintable portrait on-chain metadata",
          "requester": "Requester address",
          "seed": "Seed random number from chainlink"
        }
      },
      "initialize(address,address,bytes32,uint256,address,address,address)": {
        "details": "UUPSUpgradeable initializer",
        "params": {
          "_illuvitarsPriceOracle": "ILV/ETH Chainlink price feed base illuvitars price oracle",
          "_linkToken": "LINK token address",
          "_sIlv": "sILV2 token address",
          "_treasury": "Treasury address",
          "_vrfCoordinator": "Chainlink VRF Coordinator address",
          "_vrfFee": "Chainlink VRF Fee",
          "_vrfKeyhash": "Chainlink VRF Key Hash"
        }
      },
      "owner()": {
        "details": "Returns the address of the current owner."
      },
      "purchase((uint8,uint64)[],(uint8,uint8,uint64)[],(uint8,uint64)[],bool)": {
        "details": "Request minting Portrait and Accesory NFTs.",
        "params": {
          "accessoryFullRandomMintParams": "accessory layer full random mint params.",
          "accessorySemiRandomMintParams": "accessory layer semi random mint params.",
          "portraitMintParams": "portrait layer mint params.",
          "useSIlv": "true to use sILV, false to use ETH."
        }
      },
      "renounceOwnership()": {
        "details": "Leaves the contract without owner. It will not be possible to call `onlyOwner` functions anymore. Can only be called by the current owner. NOTE: Renouncing ownership will leave the contract without an owner, thereby removing any functionality that is only available to the owner."
      },
      "setPortraitSaleWindow((uint64,uint64))": {
        "details": "Set portrait sale window.only owner can call this function.",
        "params": {
          "_saleWindow": "New sale window."
        }
      },
      "setTreasury(address)": {
        "details": "Set new treasury address.only owner can call this function.",
        "params": {
          "treasury_": "Treasury Address."
        }
      },
      "transferOwnership(address)": {
        "details": "Transfers ownership of the contract to a new account (`newOwner`). Can only be called by the current owner."
      },
      "upgradeTo(address)": {
        "details": "Upgrade the implementation of the proxy to `newImplementation`. Calls {_authorizeUpgrade}. Emits an {Upgraded} event."
      },
      "upgradeToAndCall(address,bytes)": {
        "details": "Upgrade the implementation of the proxy to `newImplementation`, and subsequently execute the function call encoded in `data`. Calls {_authorizeUpgrade}. Emits an {Upgraded} event."
      }
    },
    "stateVariables": {
      "EXPRESSION_COUNT": {
        "details": "expression count - Normal, Expression A, Expression B"
      },
      "PORTRAIT_MASK": {
        "details": "0: without accessory      1: bonded 1 slot      2: bonded 2 slot      3: bonded 3 slot      4: bonded 4 slot      5: bonded 5 slot"
      },
      "TIER_COUNT": {
        "details": "tier0 ~ 5"
      },
      "accessoryMintInfo": {
        "details": "Accessory mint information"
      },
      "backgroundCounts": {
        "details": "Background count per tier"
      },
      "backgroundTierChances": {
        "details": "Background tier chances"
      },
      "expressionProbability": {
        "details": "expression probability"
      },
      "illuvialCounts": {
        "details": "Illuvial count per tier"
      },
      "illuvitarsPriceOracle": {
        "details": "ILV/ETH Chainlink price feed address"
      },
      "mintRequests": {
        "details": "User's mint requests"
      },
      "nextAccessoryTokenId": {
        "details": "Next accessory token id to mint"
      },
      "nextPortraitTokenId": {
        "details": "Next portrait token id to mint"
      },
      "portraitMintInfo": {
        "details": "Portrait mint information"
      },
      "portraitSaleWindow": {
        "details": "Portrait sale window"
      },
      "sIlv": {
        "details": "sILV2 token address"
      },
      "stageProbability": {
        "details": "stage probability"
      },
      "treasury": {
        "details": "treasury address"
      },
      "vrfFee": {
        "details": "chainlink VRF fee"
      },
      "vrfKeyHash": {
        "details": "chainlink VRF key hash"
      }
    },
    "title": "Minter",
    "version": 1
  },
  "userdoc": {
    "kind": "user",
    "methods": {
      "purchase((uint8,uint64)[],(uint8,uint8,uint64)[],(uint8,uint64)[],bool)": {
        "notice": "Users pay ETH or sILV to request minting"
      }
    },
    "notice": "Allow users to request minting Illuvitars.",
    "version": 1
  },
  "storageLayout": {
    "storage": [
      {
        "astId": 1089,
        "contract": "contracts/protocol/Minter.sol:Minter",
        "label": "_initialized",
        "offset": 0,
        "slot": "0",
        "type": "t_bool"
      },
      {
        "astId": 1092,
        "contract": "contracts/protocol/Minter.sol:Minter",
        "label": "_initializing",
        "offset": 1,
        "slot": "0",
        "type": "t_bool"
      },
      {
        "astId": 4415,
        "contract": "contracts/protocol/Minter.sol:Minter",
        "label": "LINK",
        "offset": 2,
        "slot": "0",
        "type": "t_contract(LinkTokenInterface)190"
      },
      {
        "astId": 4417,
        "contract": "contracts/protocol/Minter.sol:Minter",
        "label": "vrfCoordinator",
        "offset": 0,
        "slot": "1",
        "type": "t_address"
      },
      {
        "astId": 4421,
        "contract": "contracts/protocol/Minter.sol:Minter",
        "label": "nonces",
        "offset": 0,
        "slot": "2",
        "type": "t_mapping(t_bytes32,t_uint256)"
      },
      {
        "astId": 1072,
        "contract": "contracts/protocol/Minter.sol:Minter",
        "label": "__gap",
        "offset": 0,
        "slot": "3",
        "type": "t_array(t_uint256)50_storage"
      },
      {
        "astId": 1239,
        "contract": "contracts/protocol/Minter.sol:Minter",
        "label": "__gap",
        "offset": 0,
        "slot": "53",
        "type": "t_array(t_uint256)50_storage"
      },
      {
        "astId": 3249,
        "contract": "contracts/protocol/Minter.sol:Minter",
        "label": "__gap",
        "offset": 0,
        "slot": "103",
        "type": "t_array(t_uint256)50_storage"
      },
      {
        "astId": 560,
        "contract": "contracts/protocol/Minter.sol:Minter",
        "label": "_owner",
        "offset": 0,
        "slot": "153",
        "type": "t_address"
      },
      {
        "astId": 674,
        "contract": "contracts/protocol/Minter.sol:Minter",
        "label": "__gap",
        "offset": 0,
        "slot": "154",
        "type": "t_array(t_uint256)49_storage"
      },
      {
        "astId": 5194,
        "contract": "contracts/protocol/Minter.sol:Minter",
        "label": "portraitMintInfo",
        "offset": 0,
        "slot": "203",
        "type": "t_mapping(t_enum(BoxType)4003,t_struct(PortraitMintInfo)5370_storage)"
      },
      {
        "astId": 5201,
        "contract": "contracts/protocol/Minter.sol:Minter",
        "label": "accessoryMintInfo",
        "offset": 0,
        "slot": "204",
        "type": "t_mapping(t_enum(BoxType)4003,t_struct(AccessoryMintInfo)5379_storage)"
      },
      {
        "astId": 5211,
        "contract": "contracts/protocol/Minter.sol:Minter",
        "label": "backgroundTierChances",
        "offset": 0,
        "slot": "205",
        "type": "t_mapping(t_uint8,t_mapping(t_enum(BoxType)4003,t_array(t_uint16)5_storage))"
      },
      {
        "astId": 5216,
        "contract": "contracts/protocol/Minter.sol:Minter",
        "label": "expressionProbability",
        "offset": 0,
        "slot": "206",
        "type": "t_array(t_uint16)3_storage"
      },
      {
        "astId": 5221,
        "contract": "contracts/protocol/Minter.sol:Minter",
        "label": "stageProbability",
        "offset": 0,
        "slot": "207",
        "type": "t_array(t_uint16)3_storage"
      },
      {
        "astId": 5226,
        "contract": "contracts/protocol/Minter.sol:Minter",
        "label": "backgroundCounts",
        "offset": 0,
        "slot": "208",
        "type": "t_array(t_uint8)6_storage"
      },
      {
        "astId": 5231,
        "contract": "contracts/protocol/Minter.sol:Minter",
        "label": "illuvialCounts",
        "offset": 0,
        "slot": "209",
        "type": "t_array(t_uint8)6_storage"
      },
      {
        "astId": 5237,
        "contract": "contracts/protocol/Minter.sol:Minter",
        "label": "mintRequests",
        "offset": 0,
        "slot": "210",
        "type": "t_mapping(t_bytes32,t_struct(MintRequest)5328_storage)"
      },
      {
        "astId": 5241,
        "contract": "contracts/protocol/Minter.sol:Minter",
        "label": "portraitSaleWindow",
        "offset": 0,
        "slot": "211",
        "type": "t_struct(SaleWindow)5384_storage"
      },
      {
        "astId": 5244,
        "contract": "contracts/protocol/Minter.sol:Minter",
        "label": "sIlv",
        "offset": 0,
        "slot": "212",
        "type": "t_address"
      },
      {
        "astId": 5247,
        "contract": "contracts/protocol/Minter.sol:Minter",
        "label": "treasury",
        "offset": 0,
        "slot": "213",
        "type": "t_address"
      },
      {
        "astId": 5251,
        "contract": "contracts/protocol/Minter.sol:Minter",
        "label": "illuvitarsPriceOracle",
        "offset": 0,
        "slot": "214",
        "type": "t_contract(IlluvitarsPriceOracle)4516"
      },
      {
        "astId": 5254,
        "contract": "contracts/protocol/Minter.sol:Minter",
        "label": "vrfKeyHash",
        "offset": 0,
        "slot": "215",
        "type": "t_bytes32"
      },
      {
        "astId": 5257,
        "contract": "contracts/protocol/Minter.sol:Minter",
        "label": "vrfFee",
        "offset": 0,
        "slot": "216",
        "type": "t_uint256"
      },
      {
        "astId": 5260,
        "contract": "contracts/protocol/Minter.sol:Minter",
        "label": "nextPortraitTokenId",
        "offset": 0,
        "slot": "217",
        "type": "t_uint256"
      },
      {
        "astId": 5263,
        "contract": "contracts/protocol/Minter.sol:Minter",
        "label": "nextAccessoryTokenId",
        "offset": 0,
        "slot": "218",
        "type": "t_uint256"
      }
    ],
    "types": {
      "t_address": {
        "encoding": "inplace",
        "label": "address",
        "numberOfBytes": "20"
      },
      "t_array(t_struct(AccessoryFullRandomMintParams)5303_storage)dyn_storage": {
        "base": "t_struct(AccessoryFullRandomMintParams)5303_storage",
        "encoding": "dynamic_array",
        "label": "struct Minter.AccessoryFullRandomMintParams[]",
        "numberOfBytes": "32"
      },
      "t_array(t_struct(AccessorySemiRandomMintParams)5297_storage)dyn_storage": {
        "base": "t_struct(AccessorySemiRandomMintParams)5297_storage",
        "encoding": "dynamic_array",
        "label": "struct Minter.AccessorySemiRandomMintParams[]",
        "numberOfBytes": "32"
      },
      "t_array(t_struct(PortraitMintParams)5288_storage)dyn_storage": {
        "base": "t_struct(PortraitMintParams)5288_storage",
        "encoding": "dynamic_array",
        "label": "struct Minter.PortraitMintParams[]",
        "numberOfBytes": "32"
      },
      "t_array(t_uint16)3_storage": {
        "base": "t_uint16",
        "encoding": "inplace",
        "label": "uint16[3]",
        "numberOfBytes": "32"
      },
      "t_array(t_uint16)5_storage": {
        "base": "t_uint16",
        "encoding": "inplace",
        "label": "uint16[5]",
        "numberOfBytes": "32"
      },
      "t_array(t_uint16)6_storage": {
        "base": "t_uint16",
        "encoding": "inplace",
        "label": "uint16[6]",
        "numberOfBytes": "32"
      },
      "t_array(t_uint256)49_storage": {
        "base": "t_uint256",
        "encoding": "inplace",
        "label": "uint256[49]",
        "numberOfBytes": "1568"
      },
      "t_array(t_uint256)50_storage": {
        "base": "t_uint256",
        "encoding": "inplace",
        "label": "uint256[50]",
        "numberOfBytes": "1600"
      },
      "t_array(t_uint8)6_storage": {
        "base": "t_uint8",
        "encoding": "inplace",
        "label": "uint8[6]",
        "numberOfBytes": "32"
      },
      "t_bool": {
        "encoding": "inplace",
        "label": "bool",
        "numberOfBytes": "1"
      },
      "t_bytes32": {
        "encoding": "inplace",
        "label": "bytes32",
        "numberOfBytes": "32"
      },
      "t_contract(IlluvitarsPriceOracle)4516": {
        "encoding": "inplace",
        "label": "contract IlluvitarsPriceOracle",
        "numberOfBytes": "20"
      },
      "t_contract(LinkTokenInterface)190": {
        "encoding": "inplace",
        "label": "contract LinkTokenInterface",
        "numberOfBytes": "20"
      },
      "t_enum(AccessoryType)3996": {
        "encoding": "inplace",
        "label": "enum AccessoryType",
        "numberOfBytes": "1"
      },
      "t_enum(BoxType)4003": {
        "encoding": "inplace",
        "label": "enum BoxType",
        "numberOfBytes": "1"
      },
      "t_mapping(t_bytes32,t_struct(MintRequest)5328_storage)": {
        "encoding": "mapping",
        "key": "t_bytes32",
        "label": "mapping(bytes32 => struct Minter.MintRequest)",
        "numberOfBytes": "32",
        "value": "t_struct(MintRequest)5328_storage"
      },
      "t_mapping(t_bytes32,t_uint256)": {
        "encoding": "mapping",
        "key": "t_bytes32",
        "label": "mapping(bytes32 => uint256)",
        "numberOfBytes": "32",
        "value": "t_uint256"
      },
      "t_mapping(t_enum(BoxType)4003,t_array(t_uint16)5_storage)": {
        "encoding": "mapping",
        "key": "t_enum(BoxType)4003",
        "label": "mapping(enum BoxType => uint16[5])",
        "numberOfBytes": "32",
        "value": "t_array(t_uint16)5_storage"
      },
      "t_mapping(t_enum(BoxType)4003,t_struct(AccessoryMintInfo)5379_storage)": {
        "encoding": "mapping",
        "key": "t_enum(BoxType)4003",
        "label": "mapping(enum BoxType => struct Minter.AccessoryMintInfo)",
        "numberOfBytes": "32",
        "value": "t_struct(AccessoryMintInfo)5379_storage"
      },
      "t_mapping(t_enum(BoxType)4003,t_struct(PortraitMintInfo)5370_storage)": {
        "encoding": "mapping",
        "key": "t_enum(BoxType)4003",
        "label": "mapping(enum BoxType => struct Minter.PortraitMintInfo)",
        "numberOfBytes": "32",
        "value": "t_struct(PortraitMintInfo)5370_storage"
      },
      "t_mapping(t_uint8,t_mapping(t_enum(BoxType)4003,t_array(t_uint16)5_storage))": {
        "encoding": "mapping",
        "key": "t_uint8",
        "label": "mapping(uint8 => mapping(enum BoxType => uint16[5]))",
        "numberOfBytes": "32",
        "value": "t_mapping(t_enum(BoxType)4003,t_array(t_uint16)5_storage)"
      },
      "t_struct(AccessoryFullRandomMintParams)5303_storage": {
        "encoding": "inplace",
        "label": "struct Minter.AccessoryFullRandomMintParams",
        "members": [
          {
            "astId": 5300,
            "contract": "contracts/protocol/Minter.sol:Minter",
            "label": "boxType",
            "offset": 0,
            "slot": "0",
            "type": "t_enum(BoxType)4003"
          },
          {
            "astId": 5302,
            "contract": "contracts/protocol/Minter.sol:Minter",
            "label": "amount",
            "offset": 1,
            "slot": "0",
            "type": "t_uint64"
          }
        ],
        "numberOfBytes": "32"
      },
      "t_struct(AccessoryMintInfo)5379_storage": {
        "encoding": "inplace",
        "label": "struct Minter.AccessoryMintInfo",
        "members": [
          {
            "astId": 5372,
            "contract": "contracts/protocol/Minter.sol:Minter",
            "label": "randomPrice",
            "offset": 0,
            "slot": "0",
            "type": "t_uint256"
          },
          {
            "astId": 5374,
            "contract": "contracts/protocol/Minter.sol:Minter",
            "label": "semiRandomPrice",
            "offset": 0,
            "slot": "1",
            "type": "t_uint256"
          },
          {
            "astId": 5378,
            "contract": "contracts/protocol/Minter.sol:Minter",
            "label": "tierChances",
            "offset": 0,
            "slot": "2",
            "type": "t_array(t_uint16)6_storage"
          }
        ],
        "numberOfBytes": "96"
      },
      "t_struct(AccessorySemiRandomMintParams)5297_storage": {
        "encoding": "inplace",
        "label": "struct Minter.AccessorySemiRandomMintParams",
        "members": [
          {
            "astId": 5291,
            "contract": "contracts/protocol/Minter.sol:Minter",
            "label": "accessoryType",
            "offset": 0,
            "slot": "0",
            "type": "t_enum(AccessoryType)3996"
          },
          {
            "astId": 5294,
            "contract": "contracts/protocol/Minter.sol:Minter",
            "label": "boxType",
            "offset": 1,
            "slot": "0",
            "type": "t_enum(BoxType)4003"
          },
          {
            "astId": 5296,
            "contract": "contracts/protocol/Minter.sol:Minter",
            "label": "amount",
            "offset": 2,
            "slot": "0",
            "type": "t_uint64"
          }
        ],
        "numberOfBytes": "32"
      },
      "t_struct(MintRequest)5328_storage": {
        "encoding": "inplace",
        "label": "struct Minter.MintRequest",
        "members": [
          {
            "astId": 5305,
            "contract": "contracts/protocol/Minter.sol:Minter",
            "label": "requester",
            "offset": 0,
            "slot": "0",
            "type": "t_address"
          },
          {
            "astId": 5309,
            "contract": "contracts/protocol/Minter.sol:Minter",
            "label": "portraitMintParams",
            "offset": 0,
            "slot": "1",
            "type": "t_array(t_struct(PortraitMintParams)5288_storage)dyn_storage"
          },
          {
            "astId": 5311,
            "contract": "contracts/protocol/Minter.sol:Minter",
            "label": "portraitAmount",
            "offset": 0,
            "slot": "2",
            "type": "t_uint256"
          },
          {
            "astId": 5315,
            "contract": "contracts/protocol/Minter.sol:Minter",
            "label": "accessorySemiRandomMintParams",
            "offset": 0,
            "slot": "3",
            "type": "t_array(t_struct(AccessorySemiRandomMintParams)5297_storage)dyn_storage"
          },
          {
            "astId": 5319,
            "contract": "contracts/protocol/Minter.sol:Minter",
            "label": "accessoryFullRandomMintParams",
            "offset": 0,
            "slot": "4",
            "type": "t_array(t_struct(AccessoryFullRandomMintParams)5303_storage)dyn_storage"
          },
          {
            "astId": 5321,
            "contract": "contracts/protocol/Minter.sol:Minter",
            "label": "accessoryAmount",
            "offset": 0,
            "slot": "5",
            "type": "t_uint256"
          },
          {
            "astId": 5323,
            "contract": "contracts/protocol/Minter.sol:Minter",
            "label": "randomNumber",
            "offset": 0,
            "slot": "6",
            "type": "t_uint256"
          },
          {
            "astId": 5325,
            "contract": "contracts/protocol/Minter.sol:Minter",
            "label": "portraitStartTokenId",
            "offset": 0,
            "slot": "7",
            "type": "t_uint256"
          },
          {
            "astId": 5327,
            "contract": "contracts/protocol/Minter.sol:Minter",
            "label": "accessoryStartTokenId",
            "offset": 0,
            "slot": "8",
            "type": "t_uint256"
          }
        ],
        "numberOfBytes": "288"
      },
      "t_struct(PortraitMintInfo)5370_storage": {
        "encoding": "inplace",
        "label": "struct Minter.PortraitMintInfo",
        "members": [
          {
            "astId": 5363,
            "contract": "contracts/protocol/Minter.sol:Minter",
            "label": "price",
            "offset": 0,
            "slot": "0",
            "type": "t_uint256"
          },
          {
            "astId": 5367,
            "contract": "contracts/protocol/Minter.sol:Minter",
            "label": "tierChances",
            "offset": 0,
            "slot": "1",
            "type": "t_array(t_uint16)6_storage"
          },
          {
            "astId": 5369,
            "contract": "contracts/protocol/Minter.sol:Minter",
            "label": "holoProbability",
            "offset": 0,
            "slot": "2",
            "type": "t_uint16"
          }
        ],
        "numberOfBytes": "96"
      },
      "t_struct(PortraitMintParams)5288_storage": {
        "encoding": "inplace",
        "label": "struct Minter.PortraitMintParams",
        "members": [
          {
            "astId": 5285,
            "contract": "contracts/protocol/Minter.sol:Minter",
            "label": "boxType",
            "offset": 0,
            "slot": "0",
            "type": "t_enum(BoxType)4003"
          },
          {
            "astId": 5287,
            "contract": "contracts/protocol/Minter.sol:Minter",
            "label": "amount",
            "offset": 1,
            "slot": "0",
            "type": "t_uint64"
          }
        ],
        "numberOfBytes": "32"
      },
      "t_struct(SaleWindow)5384_storage": {
        "encoding": "inplace",
        "label": "struct Minter.SaleWindow",
        "members": [
          {
            "astId": 5381,
            "contract": "contracts/protocol/Minter.sol:Minter",
            "label": "start",
            "offset": 0,
            "slot": "0",
            "type": "t_uint64"
          },
          {
            "astId": 5383,
            "contract": "contracts/protocol/Minter.sol:Minter",
            "label": "end",
            "offset": 8,
            "slot": "0",
            "type": "t_uint64"
          }
        ],
        "numberOfBytes": "32"
      },
      "t_uint16": {
        "encoding": "inplace",
        "label": "uint16",
        "numberOfBytes": "2"
      },
      "t_uint256": {
        "encoding": "inplace",
        "label": "uint256",
        "numberOfBytes": "32"
      },
      "t_uint64": {
        "encoding": "inplace",
        "label": "uint64",
        "numberOfBytes": "8"
      },
      "t_uint8": {
        "encoding": "inplace",
        "label": "uint8",
        "numberOfBytes": "1"
      }
    }
  }
}