{
  "address": "0x54ae9377856d3F9470A9ba0A3117dAE4eA0AAb02",
  "abi": [
    {
      "inputs": [
        {
          "internalType": "address",
          "name": "_vrfCoordinator",
          "type": "address"
        },
        {
          "internalType": "address",
          "name": "_linkToken",
          "type": "address"
        },
        {
          "internalType": "bytes32",
          "name": "_vrfKeyhash",
          "type": "bytes32"
        },
        {
          "internalType": "uint256",
          "name": "_vrfFee",
          "type": "uint256"
        },
        {
          "internalType": "address",
          "name": "_treasury",
          "type": "address"
        },
        {
          "internalType": "address",
          "name": "_weth",
          "type": "address"
        },
        {
          "internalType": "address",
          "name": "_oracleRegistry",
          "type": "address"
        }
      ],
      "stateMutability": "nonpayable",
      "type": "constructor"
    },
    {
      "anonymous": false,
      "inputs": [
        {
          "indexed": true,
          "internalType": "address",
          "name": "requester",
          "type": "address"
        },
        {
          "indexed": false,
          "internalType": "bytes32",
          "name": "requestId",
          "type": "bytes32"
        },
        {
          "components": [
            {
              "internalType": "address",
              "name": "requester",
              "type": "address"
            },
            {
              "components": [
                {
                  "internalType": "enum BoxType",
                  "name": "boxType",
                  "type": "uint8"
                },
                {
                  "internalType": "uint64",
                  "name": "amount",
                  "type": "uint64"
                }
              ],
              "internalType": "struct Minter.PortraitMintParams[]",
              "name": "portraitMintParams",
              "type": "tuple[]"
            },
            {
              "components": [
                {
                  "internalType": "enum AccessoryType",
                  "name": "accessoryType",
                  "type": "uint8"
                },
                {
                  "internalType": "enum BoxType",
                  "name": "boxType",
                  "type": "uint8"
                },
                {
                  "internalType": "uint64",
                  "name": "amount",
                  "type": "uint64"
                }
              ],
              "internalType": "struct Minter.AccessorySemiRandomMintParams[]",
              "name": "accessorySemiRandomMintParams",
              "type": "tuple[]"
            },
            {
              "components": [
                {
                  "internalType": "enum BoxType",
                  "name": "boxType",
                  "type": "uint8"
                },
                {
                  "internalType": "uint64",
                  "name": "amount",
                  "type": "uint64"
                }
              ],
              "internalType": "struct Minter.AccessoryFullRandomMintParams[]",
              "name": "accessoryFullRandomMintParams",
              "type": "tuple[]"
            },
            {
              "internalType": "uint256",
              "name": "randomNumber",
              "type": "uint256"
            }
          ],
          "indexed": false,
          "internalType": "struct Minter.MintRequest",
          "name": "mintRequest",
          "type": "tuple"
        }
      ],
      "name": "MintRequested",
      "type": "event"
    },
    {
      "anonymous": false,
      "inputs": [
        {
          "indexed": true,
          "internalType": "address",
          "name": "oracleRegistry",
          "type": "address"
        }
      ],
      "name": "OracleRegistrySet",
      "type": "event"
    },
    {
      "anonymous": false,
      "inputs": [
        {
          "indexed": true,
          "internalType": "address",
          "name": "previousOwner",
          "type": "address"
        },
        {
          "indexed": true,
          "internalType": "address",
          "name": "newOwner",
          "type": "address"
        }
      ],
      "name": "OwnershipTransferred",
      "type": "event"
    },
    {
      "anonymous": false,
      "inputs": [
        {
          "indexed": true,
          "internalType": "bytes32",
          "name": "requestId",
          "type": "bytes32"
        },
        {
          "indexed": false,
          "internalType": "uint256",
          "name": "randomNumber",
          "type": "uint256"
        }
      ],
      "name": "RequestFulfilled",
      "type": "event"
    },
    {
      "anonymous": false,
      "inputs": [
        {
          "indexed": true,
          "internalType": "address",
          "name": "treasury",
          "type": "address"
        }
      ],
      "name": "TreasurySet",
      "type": "event"
    },
    {
      "inputs": [],
      "name": "MAX_TIER_CHANCE",
      "outputs": [
        {
          "internalType": "uint16",
          "name": "",
          "type": "uint16"
        }
      ],
      "stateMutability": "view",
      "type": "function"
    },
    {
      "inputs": [],
      "name": "TIER_COUNT",
      "outputs": [
        {
          "internalType": "uint8",
          "name": "",
          "type": "uint8"
        }
      ],
      "stateMutability": "view",
      "type": "function"
    },
    {
      "inputs": [
        {
          "internalType": "enum BoxType",
          "name": "",
          "type": "uint8"
        }
      ],
      "name": "accessoryMintInfo",
      "outputs": [
        {
          "internalType": "uint256",
          "name": "randomPrice",
          "type": "uint256"
        },
        {
          "internalType": "uint256",
          "name": "semiRandomPrice",
          "type": "uint256"
        }
      ],
      "stateMutability": "view",
      "type": "function"
    },
    {
      "inputs": [
        {
          "internalType": "bytes32",
          "name": "requestId",
          "type": "bytes32"
        }
      ],
      "name": "fulfillMintRequest",
      "outputs": [],
      "stateMutability": "nonpayable",
      "type": "function"
    },
    {
      "inputs": [
        {
          "internalType": "bytes32",
          "name": "requestId",
          "type": "bytes32"
        }
      ],
      "name": "getMintResult",
      "outputs": [
        {
          "internalType": "address",
          "name": "requestor",
          "type": "address"
        },
        {
          "internalType": "uint256",
          "name": "seed",
          "type": "uint256"
        },
        {
          "components": [
            {
              "internalType": "enum BoxType",
              "name": "boxType",
              "type": "uint8"
            },
            {
              "internalType": "uint8",
              "name": "tier",
              "type": "uint8"
            },
            {
              "internalType": "uint256",
              "name": "rand",
              "type": "uint256"
            }
          ],
          "internalType": "struct Minter.PortraitInfo[]",
          "name": "portraits",
          "type": "tuple[]"
        },
        {
          "components": [
            {
              "internalType": "enum BoxType",
              "name": "boxType",
              "type": "uint8"
            },
            {
              "internalType": "enum AccessoryType",
              "name": "accessoryType",
              "type": "uint8"
            },
            {
              "internalType": "uint8",
              "name": "tier",
              "type": "uint8"
            }
          ],
          "internalType": "struct Minter.AccessoryInfo[]",
          "name": "accessories",
          "type": "tuple[]"
        }
      ],
      "stateMutability": "view",
      "type": "function"
    },
    {
      "inputs": [
        {
          "internalType": "bytes32",
          "name": "",
          "type": "bytes32"
        }
      ],
      "name": "mintRequests",
      "outputs": [
        {
          "internalType": "address",
          "name": "requester",
          "type": "address"
        },
        {
          "internalType": "uint256",
          "name": "randomNumber",
          "type": "uint256"
        }
      ],
      "stateMutability": "view",
      "type": "function"
    },
    {
      "inputs": [],
      "name": "oracleRegistry",
      "outputs": [
        {
          "internalType": "address",
          "name": "",
          "type": "address"
        }
      ],
      "stateMutability": "view",
      "type": "function"
    },
    {
      "inputs": [],
      "name": "owner",
      "outputs": [
        {
          "internalType": "address",
          "name": "",
          "type": "address"
        }
      ],
      "stateMutability": "view",
      "type": "function"
    },
    {
      "inputs": [
        {
          "internalType": "enum BoxType",
          "name": "",
          "type": "uint8"
        }
      ],
      "name": "portraitMintInfo",
      "outputs": [
        {
          "internalType": "uint256",
          "name": "price",
          "type": "uint256"
        }
      ],
      "stateMutability": "view",
      "type": "function"
    },
    {
      "inputs": [
        {
          "components": [
            {
              "internalType": "enum BoxType",
              "name": "boxType",
              "type": "uint8"
            },
            {
              "internalType": "uint64",
              "name": "amount",
              "type": "uint64"
            }
          ],
          "internalType": "struct Minter.PortraitMintParams[]",
          "name": "portraitMintParams",
          "type": "tuple[]"
        },
        {
          "components": [
            {
              "internalType": "enum AccessoryType",
              "name": "accessoryType",
              "type": "uint8"
            },
            {
              "internalType": "enum BoxType",
              "name": "boxType",
              "type": "uint8"
            },
            {
              "internalType": "uint64",
              "name": "amount",
              "type": "uint64"
            }
          ],
          "internalType": "struct Minter.AccessorySemiRandomMintParams[]",
          "name": "accessorySemiRandomMintParams",
          "type": "tuple[]"
        },
        {
          "components": [
            {
              "internalType": "enum BoxType",
              "name": "boxType",
              "type": "uint8"
            },
            {
              "internalType": "uint64",
              "name": "amount",
              "type": "uint64"
            }
          ],
          "internalType": "struct Minter.AccessoryFullRandomMintParams[]",
          "name": "accessoryFullRandomMintParams",
          "type": "tuple[]"
        },
        {
          "internalType": "address",
          "name": "paymentToken",
          "type": "address"
        }
      ],
      "name": "purchase",
      "outputs": [],
      "stateMutability": "payable",
      "type": "function"
    },
    {
      "inputs": [
        {
          "internalType": "bytes32",
          "name": "requestId",
          "type": "bytes32"
        },
        {
          "internalType": "uint256",
          "name": "randomness",
          "type": "uint256"
        }
      ],
      "name": "rawFulfillRandomness",
      "outputs": [],
      "stateMutability": "nonpayable",
      "type": "function"
    },
    {
      "inputs": [],
      "name": "renounceOwnership",
      "outputs": [],
      "stateMutability": "nonpayable",
      "type": "function"
    },
    {
      "inputs": [
        {
          "internalType": "address",
          "name": "oracleRegistry_",
          "type": "address"
        }
      ],
      "name": "setOracleRegistry",
      "outputs": [],
      "stateMutability": "nonpayable",
      "type": "function"
    },
    {
      "inputs": [
        {
          "internalType": "address",
          "name": "treasury_",
          "type": "address"
        }
      ],
      "name": "setTreasury",
      "outputs": [],
      "stateMutability": "nonpayable",
      "type": "function"
    },
    {
      "inputs": [
        {
          "internalType": "address",
          "name": "newOwner",
          "type": "address"
        }
      ],
      "name": "transferOwnership",
      "outputs": [],
      "stateMutability": "nonpayable",
      "type": "function"
    },
    {
      "inputs": [],
      "name": "treasury",
      "outputs": [
        {
          "internalType": "address",
          "name": "",
          "type": "address"
        }
      ],
      "stateMutability": "view",
      "type": "function"
    },
    {
      "inputs": [],
      "name": "vrfFee",
      "outputs": [
        {
          "internalType": "uint256",
          "name": "",
          "type": "uint256"
        }
      ],
      "stateMutability": "view",
      "type": "function"
    },
    {
      "inputs": [],
      "name": "vrfKeyHash",
      "outputs": [
        {
          "internalType": "bytes32",
          "name": "",
          "type": "bytes32"
        }
      ],
      "stateMutability": "view",
      "type": "function"
    },
    {
      "inputs": [],
      "name": "weth",
      "outputs": [
        {
          "internalType": "address",
          "name": "",
          "type": "address"
        }
      ],
      "stateMutability": "view",
      "type": "function"
    }
  ],
  "transactionHash": "0x62f65034e3ca91ccbef646bc81e7e52ca6f4766bdda23d2d04c0f5d3fb95bb7f",
  "args": [
    "0xf8046Eb28d62D12AB1b55e8e6A9742C1b1F51164",
    "0xb953b44b4e776313B1236D92C09D9ce39135EdbE",
    "0x0000000000000000000000000000000000000000000000000000000000000000",
    "0",
    "0xA4e47B38415201d4c8aB42711892A31C7B06bdE9",
    "0xc778417E063141139Fce010982780140Aa0cD5Ab",
    "0x0000000000000000000000000000000000000000"
  ],
  "numDeployments": 1,
  "solcInputHash": "9bdc976d344bc2eb84329ce4b7643821",
  "bytecode": "0x60c06040523480156200001157600080fd5b50604051620035fe380380620035fe833981016040819052620000349162000c1b565b6001600160a01b0387811660a0528616608052620000523362000149565b6001600160a01b038316620000ad5760405162461bcd60e51b815260206004820152601360248201527f63616e6e6f74207a65726f206164647265737300000000000000000000000000604482015260640160405180910390fd5b600885905560098490556040516001600160a01b038416907f3c864541ef71378c6229510ed90f376565ee42d9c5e0904a984a9e863e6db44f90600090a2600580546001600160a01b038086166001600160a01b031992831617909255600680548584169083161790556007805492841692909116919091179055620001326200019b565b6200013c620005e6565b5050505050505062000c9e565b600180546001600160a01b038381166001600160a01b0319831681179093556040519116919082907f8be0079c531659141344cd1fd0a4f28419497f9722a3daafe3b4186f6b6457e090600090a35050565b6040805180820182526000808252825160c08101845261271081526020808201839052938101829052606081018290526080810182905260a08101829052838301908152908052600290925280517fac33ff75c19e70fe83507db0d683fd3465c996598dc972688b7ace676c89077b908155915190919062000241907fac33ff75c19e70fe83507db0d683fd3465c996598dc972688b7ace676c89077c90600662000b4a565b505060408051808201825266b1a2bc2ec500008152815160c0810183526000808252611f406020808401919091526125e4948301949094526126ca60608301526126fc608083015261271060a083015283830191825260019052600290925280517fe90b7bceb6e7df5418fb78d8ee546e97c83a08bbccc01a0644d599ccd2a7c2e09081559151909250620002fa907fe90b7bceb6e7df5418fb78d8ee546e97c83a08bbccc01a0644d599ccd2a7c2e190600662000b4a565b505060408051808201825267016345785d8a00008152815160c08101835260008082526117d4602080840191909152612260948301949094526125e460608301526126de608083015261271060a083015283830191825260029081905290925280517f679795a0195a1b76cdebb7c51d74e058aee92919b8c3389af86ef24535e8a28c9081559151909250620003b4907f679795a0195a1b76cdebb7c51d74e058aee92919b8c3389af86ef24535e8a28d90600662000b4a565b50506040805180820182526703782dace9d900008152815160c08101835260008082526109606020808401919091526119c89483019490945261226060608301526125e4608083015261271060a083015283830191825260039052600290925280517f88601476d11616a71c5be67555bd1dff4b1cbf21533d2669b768b61518cfe1c390815591519092506200046e907f88601476d11616a71c5be67555bd1dff4b1cbf21533d2669b768b61518cfe1c490600662000b4a565b5050604080518082018252670a688906bd8b00008152815160c08101835260008082526101f46020808401919091526107d09483019490945261109a606083015261203a608083015261271060a083015283830191825260049052600290925280517fee60d0579bcffd98e668647d59fec1ff86a7fb340ce572e844f234ae73a6918f908155915190925062000528907fee60d0579bcffd98e668647d59fec1ff86a7fb340ce572e844f234ae73a6919090600662000b4a565b50506040805180820182526722b1c8c1227a00008152815160c081018352600080825260c86020808401919091526103e8948301949094526109c46060830152611388608083015261271060a083015283830191825260059052600290925280517fb98b78633099fa36ed8b8680c4f8092689e1e04080eb9cbb077ca38a14d7e3849081559151909250620005e1907fb98b78633099fa36ed8b8680c4f8092689e1e04080eb9cbb077ca38a14d7e38590600662000b4a565b505050565b604080516060808201835260008083526020808401828152855160c08101875261271081528083018490528087018490529384018390526080840183905260a084018390529484019283529080526003905281517f3617319a054d772f909f7c479a2cebe5066e836a939412e32403c99029b92eff90815592517f3617319a054d772f909f7c479a2cebe5066e836a939412e32403c99029b92f005551909190620006b5907f3617319a054d772f909f7c479a2cebe5066e836a939412e32403c99029b92f0190600662000b4a565b5050604080516060808201835266b1a2bc2ec50000825267016345785d8a00006020808401918252845160c0810186526000808252611fa4828401526123f0828801526125e4948201949094526126ac608082015261271060a08201529484019485526001909252600390915281517fa15bc60c955c405d20d9149c709e2460f1c2d9a497496a7f46004d1772c3054c90815590517fa15bc60c955c405d20d9149c709e2460f1c2d9a497496a7f46004d1772c3054d559151909250620007a0907fa15bc60c955c405d20d9149c709e2460f1c2d9a497496a7f46004d1772c3054e90600662000b4a565b5050604080516060808201835267016345785d8a000082526702c68af0bb1400006020808401918252845160c0810186526000808252610bb882840152611db082880152612260948201949094526125e4608082015261271060a08201529484019485526002909252600390915281517fc3a24b0501bd2c13a7e57f2db4369ec4c223447539fc0724a9d55ac4a06ebd4d90815590517fc3a24b0501bd2c13a7e57f2db4369ec4c223447539fc0724a9d55ac4a06ebd4e5591519092506200088c907fc3a24b0501bd2c13a7e57f2db4369ec4c223447539fc0724a9d55ac4a06ebd4f90600662000b4a565b50506040805160608082018352670214e8348c4f00008252670429d069189e00006020808401918252845160c08101865260008082526105dc8284015261125c82880152611c2094820194909452612328608082015261271060a08201529484019485526003928390529190915281517fcbc4e5fb02c3d1de23a9f1e014b4d2ee5aeaea9505df5e855c9210bf472495af90815590517fcbc4e5fb02c3d1de23a9f1e014b4d2ee5aeaea9505df5e855c9210bf472495b055915190925062000978907fcbc4e5fb02c3d1de23a9f1e014b4d2ee5aeaea9505df5e855c9210bf472495b190600662000b4a565b505060408051606080820183526702c68af0bb140000825267058d15e1762800006020808401918252845160c08101865260008082526101f4828401526107d0828801526114b494820194909452611f40608082015261271060a08201529484019485526004909252600390915281517f83ec6a1f0257b830b5e016457c9cf1435391bf56cc98f369a58a54fe9377246590815590517f83ec6a1f0257b830b5e016457c9cf1435391bf56cc98f369a58a54fe9377246655915190925062000a64907f83ec6a1f0257b830b5e016457c9cf1435391bf56cc98f369a58a54fe9377246790600662000b4a565b505060408051606080820183526703782dace9d9000082526706f05b59d3b200006020808401918252845160c081018652600080825260648284015261025882880152610af094820194909452611770608082015261271060a08201529484019485526005909252600390915281517f405aad32e1adbac89bb7f176e338b8fc6e994ca210c9bb7bdca249b46594225090815590517f405aad32e1adbac89bb7f176e338b8fc6e994ca210c9bb7bdca249b465942251559151909250620005e1907f405aad32e1adbac89bb7f176e338b8fc6e994ca210c9bb7bdca249b4659422529060065b60018301918390821562000bd55791602002820160005b8382111562000ba357835183826101000a81548161ffff021916908361ffff160217905550926020019260020160208160010104928301926001030262000b61565b801562000bd35782816101000a81549061ffff021916905560020160208160010104928301926001030262000ba3565b505b5062000be392915062000be7565b5090565b5b8082111562000be3576000815560010162000be8565b80516001600160a01b038116811462000c1657600080fd5b919050565b600080600080600080600060e0888a03121562000c3757600080fd5b62000c428862000bfe565b965062000c526020890162000bfe565b9550604088015194506060880151935062000c706080890162000bfe565b925062000c8060a0890162000bfe565b915062000c9060c0890162000bfe565b905092959891949750929550565b60805160a05161293362000ccb600039600081816109190152611cac01526000611c7d01526129336000f3fe6080604052600436106101145760003560e01c8063715018a6116100a0578063ade0d70011610064578063ade0d70014610364578063b073da9614610391578063f0f44260146103a4578063f2fde38b146103c4578063f5bfe9b1146103e457600080fd5b8063715018a6146102a85780638165354e146102bd5780638da5cb5b146102dd5780638fd7adb5146102fb57806394985ddd1461034457600080fd5b80632a854867116100e75780632a854867146101d957806336331c8f146102095780633fc8cef3146102305780634bb93ab11461026857806361d027b31461028857600080fd5b8063041d443e146101195780630d39e46d146101425780631017507d146101a15780631bd8b51a146101b7575b600080fd5b34801561012557600080fd5b5061012f60085481565b6040519081526020015b60405180910390f35b34801561014e57600080fd5b5061018261015d366004612136565b600460208190526000918252604090912080549101546001600160a01b039091169082565b604080516001600160a01b039093168352602083019190915201610139565b3480156101ad57600080fd5b5061012f60095481565b3480156101c357600080fd5b506101d76101d2366004612136565b61040d565b005b3480156101e557600080fd5b506101f96101f4366004612136565b610556565b60405161013994939291906121ed565b34801561021557600080fd5b5061021e600681565b60405160ff9091168152602001610139565b34801561023c57600080fd5b50600654610250906001600160a01b031681565b6040516001600160a01b039091168152602001610139565b34801561027457600080fd5b50600754610250906001600160a01b031681565b34801561029457600080fd5b50600554610250906001600160a01b031681565b3480156102b457600080fd5b506101d7610864565b3480156102c957600080fd5b506101d76102d83660046122a1565b61089a565b3480156102e957600080fd5b506001546001600160a01b0316610250565b34801561030757600080fd5b5061032f6103163660046122cd565b6003602052600090815260409020805460019091015482565b60408051928352602083019190915201610139565b34801561035057600080fd5b506101d761035f3660046122e8565b61090e565b34801561037057600080fd5b5061012f61037f3660046122cd565b60026020526000908152604090205481565b6101d761039f366004612355565b610994565b3480156103b057600080fd5b506101d76103bf3660046122a1565b6110c9565b3480156103d057600080fd5b506101d76103df3660046122a1565b611193565b3480156103f057600080fd5b506103fa61271081565b60405161ffff9091168152602001610139565b6001546001600160a01b031633146104405760405162461bcd60e51b815260040161043790612430565b60405180910390fd5b6000818152600460205260409020546001600160a01b03166104a45760405162461bcd60e51b815260206004820152601760248201527f5265717565737420646f6573206e6f74206578697374210000000000000000006044820152606401610437565b600081815260046020819052604090912001546105035760405162461bcd60e51b815260206004820152601b60248201527f52616e646f6d206e756d626572206e6f742067656e65726174656400000000006044820152606401610437565b600081815260046020526040812080546001600160a01b03191681559061052d60018301826120b3565b61053b6002830160006120d1565b6105496003830160006120b3565b6004820160009055505050565b600081815260046020819052604082200154819060609081906105bb5760405162461bcd60e51b815260206004820152601a60248201527f4e6f2072616e646f6d206e756d6265722067656e6572617465640000000000006044820152606401610437565b6000858152600460209081526040808320815160a08101835281546001600160a01b031681526001820180548451818702810187019095528085529194929385840193909290879084015b8282101561067557600084815260209020604080518082019091529083018054829060ff16600581111561063c5761063c61214f565b600581111561064d5761064d61214f565b8152905461010090046001600160401b03166020918201529082526001929092019101610606565b50505050815260200160028201805480602002602001604051908101604052809291908181526020016000905b828210156107475760008481526020902060408051606081019091529083018054829060ff1660048111156106d9576106d961214f565b60048111156106ea576106ea61214f565b81528154602090910190610100900460ff16600581111561070d5761070d61214f565b600581111561071e5761071e61214f565b815290546001600160401b036201000090910416602091820152908252600190920191016106a2565b50505050815260200160038201805480602002602001604051908101604052809291908181526020016000905b828210156107e357600084815260209020604080518082019091529083018054829060ff1660058111156107aa576107aa61214f565b60058111156107bb576107bb61214f565b8152905461010090046001600160401b03166020918201529082526001929092019101610774565b50505090825250600491909101546020918201528151608083015191830151519097509095509091508490156108275761082181836020015161122e565b90945090505b6000826060015151118061084057506000826040015151115b1561085b576108588183606001518460400151611527565b92505b50509193509193565b6001546001600160a01b0316331461088e5760405162461bcd60e51b815260040161043790612430565b6108986000611b1c565b565b6001546001600160a01b031633146108c45760405162461bcd60e51b815260040161043790612430565b600780546001600160a01b0319166001600160a01b0383169081179091556040517f82540ac6cd91a834e79e860e8cdd0293470f3b23ee2a567f78d27eeeec83d23690600090a250565b336001600160a01b037f000000000000000000000000000000000000000000000000000000000000000016146109865760405162461bcd60e51b815260206004820152601f60248201527f4f6e6c7920565246436f6f7264696e61746f722063616e2066756c66696c6c006044820152606401610437565b6109908282611b6e565b5050565b6000806109a5600854600954611c79565b60008181526004602052604090208054919250906001600160a01b031615610a035760405162461bcd60e51b8152602060048201526011602482015270105b1c9958591e481c995c5d595cdd1959607a1b6044820152606401610437565b80546001600160a01b031916331781558860005b81811015610b755760008c8c83818110610a3357610a33612465565b905060400201803603810190610a499190612513565b9050600081602001516001600160401b031611610a995760405162461bcd60e51b815260206004820152600e60248201526d125b9d985b1a5908185b5bdd5b9d60921b6044820152606401610437565b6002600082600001516005811115610ab357610ab361214f565b6005811115610ac457610ac461214f565b81526020019081526020016000206000015481602001516001600160401b0316610aee9190612545565b610af89087612564565b6001808601805480830182556000918252602090912084519101805493995084939092839160ff191690836005811115610b3457610b3461214f565b02179055506020919091015181546001600160401b039091166101000268ffffffffffffffff001990911617905550610b6e600182612564565b9050610a17565b5087905060005b81811015610d055760008a8a83818110610b9857610b98612465565b905060600201803603810190610bae919061257c565b9050600081604001516001600160401b031611610bfe5760405162461bcd60e51b815260206004820152600e60248201526d125b9d985b1a5908185b5bdd5b9d60921b6044820152606401610437565b6003600082602001516005811115610c1857610c1861214f565b6005811115610c2957610c2961214f565b81526020019081526020016000206001015481604001516001600160401b0316610c539190612545565b610c5d9087612564565b600285018054600181810183556000928352602090922084519101805493995084939092839160ff191690836004811115610c9a57610c9a61214f565b021790555060208201518154829061ff001916610100836005811115610cc257610cc261214f565b02179055506040919091015181546001600160401b03909116620100000269ffffffffffffffff00001990911617905550610cfe600182612564565b9050610b7c565b5085905060005b81811015610e1d576000888883818110610d2857610d28612465565b905060400201803603810190610d3e9190612513565b90506003600082600001516005811115610d5a57610d5a61214f565b6005811115610d6b57610d6b61214f565b81526020019081526020016000206000015481602001516001600160401b0316610d959190612545565b610d9f9087612564565b600385018054600181810183556000928352602090922084519101805493995084939092839160ff191690836005811115610ddc57610ddc61214f565b02179055506020919091015181546001600160401b039091166101000268ffffffffffffffff001990911617905550610e16600182612564565b9050610d0c565b506001600160a01b038516610eab57833414610e6b5760405162461bcd60e51b815260206004820152600d60248201526c496e76616c696420707269636560981b6044820152606401610437565b6005546040516001600160a01b039091169085156108fc029086906000818181858888f19350505050158015610ea5573d6000803e3d6000fd5b50611073565b600754600654604051633fb8189b60e11b81526001600160a01b03918216600482015287821660248201526000929190911690637f7031369060440160206040518083038186803b158015610eff57600080fd5b505afa158015610f13573d6000803e3d6000fd5b505050506040513d601f19601f82011682018060405250810190610f3791906125fb565b9050806001600160a01b031663a2e620456040518163ffffffff1660e01b8152600401600060405180830381600087803b158015610f7457600080fd5b505af1158015610f88573d6000803e3d6000fd5b5050600654604051633ddac95360e01b81526001600160a01b03918216600482015260248101899052600093509084169150633ddac9539060440160206040518083038186803b158015610fdb57600080fd5b505afa158015610fef573d6000803e3d6000fd5b505050506040513d601f19601f820116820180604052508101906110139190612618565b9050600081116110555760405162461bcd60e51b815260206004820152600d60248201526c496e76616c696420707269636560981b6044820152606401610437565b611070336005546001600160a01b038a811692911684611e02565b50505b60008381526004602052604090819020905133917f43ac1f2a7baac3f17814845023bcfa4e393a0cf2086061b04a38049a7b5e207d916110b4918791612705565b60405180910390a25050505050505050505050565b6001546001600160a01b031633146110f35760405162461bcd60e51b815260040161043790612430565b6001600160a01b0381166111495760405162461bcd60e51b815260206004820152601c60248201527f547265617375727920616464726573732063616e6e6f74207a65726f000000006044820152606401610437565b600580546001600160a01b0319166001600160a01b0383169081179091556040517f3c864541ef71378c6229510ed90f376565ee42d9c5e0904a984a9e863e6db44f90600090a250565b6001546001600160a01b031633146111bd5760405162461bcd60e51b815260040161043790612430565b6001600160a01b0381166112225760405162461bcd60e51b815260206004820152602660248201527f4f776e61626c653a206e6577206f776e657220697320746865207a65726f206160448201526564647265737360d01b6064820152608401610437565b61122b81611b1c565b50565b606060008060008451905060005b8181101561128a5785818151811061125657611256612465565b6020026020010151602001516001600160401b0316836112769190612564565b9250611283600182612564565b905061123c565b5085821561151a57826001600160401b038111156112aa576112aa61247b565b6040519080825280602002602001820160405280156112f557816020015b60408051606081018252600080825260208083018290529282015282526000199092019101816112c85790505b50945060005b8281101561151857600087828151811061131757611317612465565b6020026020010151602001516001600160401b0316905060005b8181101561150357604080516020810186905290810185905260600160408051601f19818403018152919052805160209091012093506000611375612710866127d7565b90506000600260008c878151811061138f5761138f612465565b60200260200101516000015160058111156113ac576113ac61214f565b60058111156113bd576113bd61214f565b815260208101919091526040908101600020815160c0810190925260010160068282826020028201916000905b82829054906101000a900461ffff1661ffff16815260200190600201906020826001010492830192600103820291508084116113ea5790505050505050905060005b600660ff821610156114ec578261ffff16828260ff166006811061145257611452612465565b602002015161ffff1611156114da5760405180606001604052808d888151811061147e5761147e612465565b602002602001015160000151600581111561149b5761149b61214f565b815260ff831660208201526040016114b56127108a6127eb565b8152508b87815181106114ca576114ca612465565b60200260200101819052506114ec565b6114e56001826127ff565b905061142c565b5050506001816114fc9190612564565b9050611331565b506115119050600182612564565b90506112fb565b505b8093505050509250929050565b606060008060008551905060005b818110156115835786818151811061154f5761154f612465565b6020026020010151602001516001600160401b03168461156f9190612564565b935061157c600182612564565b9050611535565b5050835160005b818110156115d8578581815181106115a4576115a4612465565b6020026020010151604001516001600160401b0316836115c49190612564565b92506115d1600182612564565b905061158a565b5086821515806115e85750600084115b15611b11576115f78484612564565b6001600160401b0381111561160e5761160e61247b565b60405190808252806020026020018201604052801561166457816020015b6116516040805160608101909152806000815260200160008152600060209091015290565b81526020019060019003908161162c5790505b50945060005b828110156118aa57600087828151811061168657611686612465565b6020026020010151604001516001600160401b0316905060005b8181101561189557604080516020810186905290810185905260600160408051601f198184030181529190528051602090910120935060006116e4612710866127d7565b90506000600360008c87815181106116fe576116fe612465565b602002602001015160200151600581111561171b5761171b61214f565b600581111561172c5761172c61214f565b815260208101919091526040908101600020815160c0810190925260020160068282826020028201916000905b82829054906101000a900461ffff1661ffff16815260200190600201906020826001010492830192600103820291508084116117595790505050505050905060005b600660ff8216101561187e578261ffff16828260ff16600681106117c1576117c1612465565b602002015161ffff16111561186c5760405180606001604052808d88815181106117ed576117ed612465565b602002602001015160200151600581111561180a5761180a61214f565b81526020018d888151811061182157611821612465565b602002602001015160000151600481111561183e5761183e61214f565b81526020018260ff168152508b878151811061185c5761185c612465565b602002602001018190525061187e565b6118776001826127ff565b905061179b565b50505060018161188e9190612564565b90506116a0565b506118a39050600182612564565b905061166a565b508651915060005b82811015611b0f5760008882815181106118ce576118ce612465565b6020026020010151602001516001600160401b0316905060005b81811015611afa57604080516020810186905290810185905260600160408051601f1981840301815291905280516020909101209350600061192c612710866127d7565b90506000600561193e612710886127eb565b61194891906127d7565b60ff16600481111561195c5761195c61214f565b90506000600360008e888151811061197657611976612465565b60200260200101516000015160058111156119935761199361214f565b60058111156119a4576119a461214f565b815260208101919091526040908101600020815160c0810190925260020160068282826020028201916000905b82829054906101000a900461ffff1661ffff16815260200190600201906020826001010492830192600103820291508084116119d15790505050505050905060005b600660ff82161015611ae2578361ffff16828260ff1660068110611a3957611a39612465565b602002015161ffff161115611ad05760405180606001604052808f8981518110611a6557611a65612465565b6020026020010151600001516005811115611a8257611a8261214f565b8152602001846004811115611a9957611a9961214f565b815260ff83166020909101528c611ab08c8a612564565b81518110611ac057611ac0612465565b6020026020010181905250611ae2565b611adb6001826127ff565b9050611a13565b50505050600181611af39190612564565b90506118e8565b50611b089050600182612564565b90506118b2565b505b505050509392505050565b600180546001600160a01b038381166001600160a01b0319831681179093556040519116919082907f8be0079c531659141344cd1fd0a4f28419497f9722a3daafe3b4186f6b6457e090600090a35050565b6000828152600460205260409020546001600160a01b0316611bc55760405162461bcd60e51b815260206004820152601060248201526f139bc81c995c5d595cdd08195e1a5cdd60821b6044820152606401610437565b6000828152600460208190526040909120015415611c255760405162461bcd60e51b815260206004820152601f60248201527f52616e646f6d206e756d62657220616c72656164792066756c66696c6c6564006044820152606401610437565b600082815260046020819052604091829020018290555182907f1ca8663227a7fe9919713a01d344afbb434e234f35a3e540a6ad924f88771f3890611c6d9084815260200190565b60405180910390a25050565b60007f00000000000000000000000000000000000000000000000000000000000000006001600160a01b0316634000aea07f000000000000000000000000000000000000000000000000000000000000000084866000604051602001611ce9929190918252602082015260400190565b6040516020818303038152906040526040518463ffffffff1660e01b8152600401611d169392919061287c565b602060405180830381600087803b158015611d3057600080fd5b505af1158015611d44573d6000803e3d6000fd5b505050506040513d601f19601f82011682018060405250810190611d6891906128ac565b5060008381526020818152604080832054815180840188905280830185905230606082015260808082018390528351808303909101815260a090910190925281519183019190912086845292909152611dc2906001612564565b6000858152602081815260409182902092909255805180830187905280820184905281518082038301815260609091019091528051910120949350505050565b604080516001600160a01b0385811660248301528416604482015260648082018490528251808303909101815260849091019091526020810180516001600160e01b03166323b872dd60e01b179052611e5c908590611e62565b50505050565b6000611eb7826040518060400160405280602081526020017f5361666545524332303a206c6f772d6c6576656c2063616c6c206661696c6564815250856001600160a01b0316611f399092919063ffffffff16565b805190915015611f345780806020019051810190611ed591906128ac565b611f345760405162461bcd60e51b815260206004820152602a60248201527f5361666545524332303a204552433230206f7065726174696f6e20646964206e6044820152691bdd081cdd58d8d9595960b21b6064820152608401610437565b505050565b6060611f488484600085611f52565b90505b9392505050565b606082471015611fb35760405162461bcd60e51b815260206004820152602660248201527f416464726573733a20696e73756666696369656e742062616c616e636520666f6044820152651c8818d85b1b60d21b6064820152608401610437565b843b6120015760405162461bcd60e51b815260206004820152601d60248201527f416464726573733a2063616c6c20746f206e6f6e2d636f6e74726163740000006044820152606401610437565b600080866001600160a01b0316858760405161201d91906128ce565b60006040518083038185875af1925050503d806000811461205a576040519150601f19603f3d011682016040523d82523d6000602084013e61205f565b606091505b509150915061206f82828661207a565b979650505050505050565b60608315612089575081611f4b565b8251156120995782518084602001fd5b8160405162461bcd60e51b815260040161043791906128ea565b508054600082559060005260206000209081019061122b91906120ef565b508054600082559060005260206000209081019061122b9190612114565b5b8082111561211057805468ffffffffffffffffff191681556001016120f0565b5090565b5b8082111561211057805469ffffffffffffffffffff19168155600101612115565b60006020828403121561214857600080fd5b5035919050565b634e487b7160e01b600052602160045260246000fd5b600681106121755761217561214f565b9052565b600581106121755761217561214f565b600081518084526020808501945080840160005b838110156121e25781516121b2888251612165565b838101516121c2858a0182612179565b5060409081015160ff16908801526060909601959082019060010161219d565b509495945050505050565b60006080820160018060a01b038716835260208681850152604060808186015282875180855260a087019150838901945060005b8181101561225a578551612236848251612165565b8086015160ff16848701528401518484015294840194606090920191600101612221565b5050858103606087015261226e8188612189565b9a9950505050505050505050565b6001600160a01b038116811461122b57600080fd5b803561229c8161227c565b919050565b6000602082840312156122b357600080fd5b8135611f4b8161227c565b80356006811061229c57600080fd5b6000602082840312156122df57600080fd5b611f4b826122be565b600080604083850312156122fb57600080fd5b50508035926020909101359150565b60008083601f84011261231c57600080fd5b5081356001600160401b0381111561233357600080fd5b6020830191508360208260061b850101111561234e57600080fd5b9250929050565b60008060008060008060006080888a03121561237057600080fd5b87356001600160401b038082111561238757600080fd5b6123938b838c0161230a565b909950975060208a01359150808211156123ac57600080fd5b818a0191508a601f8301126123c057600080fd5b8135818111156123cf57600080fd5b8b60206060830285010111156123e457600080fd5b6020830197508096505060408a013591508082111561240257600080fd5b5061240f8a828b0161230a565b9094509250612422905060608901612291565b905092959891949750929550565b6020808252818101527f4f776e61626c653a2063616c6c6572206973206e6f7420746865206f776e6572604082015260600190565b634e487b7160e01b600052603260045260246000fd5b634e487b7160e01b600052604160045260246000fd5b80356001600160401b038116811461229c57600080fd5b6000604082840312156124ba57600080fd5b604051604081018181106001600160401b03821117156124ea57634e487b7160e01b600052604160045260246000fd5b6040529050806124f9836122be565b815261250760208401612491565b60208201525092915050565b60006040828403121561252557600080fd5b611f4b83836124a8565b634e487b7160e01b600052601160045260246000fd5b600081600019048311821515161561255f5761255f61252f565b500290565b600082198211156125775761257761252f565b500190565b60006060828403121561258e57600080fd5b604051606081018181106001600160401b03821117156125be57634e487b7160e01b600052604160045260246000fd5b6040528235600581106125d057600080fd5b81526125de602084016122be565b60208201526125ef60408401612491565b60408201529392505050565b60006020828403121561260d57600080fd5b8151611f4b8161227c565b60006020828403121561262a57600080fd5b5051919050565b80546126408360ff8316612165565b6001600160401b038160081c166020840152505050565b6000815480845260208085019450836000528060002060005b838110156121e257815460ff61268889828416612179565b612699858a01828460081c16612165565b5060101c6001600160401b0316604088015260609096019560019182019101612670565b6000815480845260208401935082600052602060002060005b828110156126fb576126e88683612631565b60409590950194600191820191016126d6565b5093949350505050565b8281526040602080830182905283546001600160a01b03168383015260a060608401526001848101805460e08601819052600091825292812090939290919084906101008701905b808310156127705761275f8286612631565b93830193918301919085019061274d565b50603f1994508487820301608088015261278d8160028a01612657565b9350505050818482030160a08501526127a981600387016126bd565b915050600484015460c0840152809150509392505050565b634e487b7160e01b600052601260045260246000fd5b6000826127e6576127e66127c1565b500690565b6000826127fa576127fa6127c1565b500490565b600060ff821660ff84168060ff0382111561281c5761281c61252f565b019392505050565b60005b8381101561283f578181015183820152602001612827565b83811115611e5c5750506000910152565b60008151808452612868816020860160208601612824565b601f01601f19169290920160200192915050565b60018060a01b03841681528260208201526060604082015260006128a36060830184612850565b95945050505050565b6000602082840312156128be57600080fd5b81518015158114611f4b57600080fd5b600082516128e0818460208701612824565b9190910192915050565b602081526000611f4b602083018461285056fea26469706673582212201a1cd2940cf10e23b6cf94b8dda61b0203ec34b7a94e23df6773621faed2281064736f6c63430008090033",
  "devdoc": {
    "author": "Dmitry Yakovlevich",
    "events": {
      "MintRequested(address,bytes32,(address,(uint8,uint64)[],(uint8,uint8,uint64)[],(uint8,uint64)[],uint256))": {
        "details": "emitted in {purchase} or {requestRandomAgain} function.",
        "params": {
          "requestId": "requestId number.",
          "requester": "requester address."
        }
      }
    },
    "kind": "dev",
    "methods": {
      "constructor": {
        "params": {
          "_linkToken": "LINK token address.",
          "_oracleRegistry": "IlluviumOracleRegistry Address.",
          "_treasury": "Treasury Address.",
          "_vrfCoordinator": "Chainlink VRF Coordinator address.",
          "_vrfFee": "Fee.",
          "_vrfKeyhash": "Key Hash.",
          "_weth": "WETH Address."
        }
      },
      "owner()": {
        "details": "Returns the address of the current owner."
      },
      "purchase((uint8,uint64)[],(uint8,uint8,uint64)[],(uint8,uint64)[],address)": {
        "params": {
          "accessoryFullRandomMintParams": "accessory layer full random mint params.",
          "accessorySemiRandomMintParams": "accessory layer semi random mint params.",
          "paymentToken": "payment token address.",
          "portraitMintParams": "portrait layer mint params."
        }
      },
      "renounceOwnership()": {
        "details": "Leaves the contract without owner. It will not be possible to call `onlyOwner` functions anymore. Can only be called by the current owner. NOTE: Renouncing ownership will leave the contract without an owner, thereby removing any functionality that is only available to the owner."
      },
      "setOracleRegistry(address)": {
        "details": "only owner can call this function.",
        "params": {
          "oracleRegistry_": "OracleRegistry Address."
        }
      },
      "setTreasury(address)": {
        "details": "only owner can call this function.",
        "params": {
          "treasury_": "Treasury Address."
        }
      },
      "transferOwnership(address)": {
        "details": "Transfers ownership of the contract to a new account (`newOwner`). Can only be called by the current owner."
      }
    },
    "title": "Minter, this contract is inherited from chainlink VRFConsumerBase, this contract contains purchase function which users interact to mint several base or accessory illuvitars.",
    "version": 1
  },
  "userdoc": {
    "events": {
      "MintRequested(address,bytes32,(address,(uint8,uint64)[],(uint8,uint8,uint64)[],(uint8,uint64)[],uint256))": {
        "notice": "event emitted random accessory requested."
      }
    },
    "kind": "user",
    "methods": {
      "constructor": {
        "notice": "Constructor."
      },
      "purchase((uint8,uint64)[],(uint8,uint8,uint64)[],(uint8,uint64)[],address)": {
        "notice": "Mint for Portrait and Accesory items. Users will send ETH or sILV to mint itmes"
      },
      "setOracleRegistry(address)": {
        "notice": "setFunction for OracleRegistry Address."
      },
      "setTreasury(address)": {
        "notice": "setFunction for Treasury Address."
      }
    },
    "version": 1
  },
  "storageLayout": {
    "storage": [
      {
        "astId": 79,
        "contract": "contracts/Minter.sol:Minter",
        "label": "nonces",
        "offset": 0,
        "slot": "0",
        "type": "t_mapping(t_bytes32,t_uint256)"
      },
      {
        "astId": 2773,
        "contract": "contracts/Minter.sol:Minter",
        "label": "_owner",
        "offset": 0,
        "slot": "1",
        "type": "t_address"
      },
      {
        "astId": 4695,
        "contract": "contracts/Minter.sol:Minter",
        "label": "portraitMintInfo",
        "offset": 0,
        "slot": "2",
        "type": "t_mapping(t_enum(BoxType)4564,t_struct(PortraitMintInfo)4668_storage)"
      },
      {
        "astId": 4701,
        "contract": "contracts/Minter.sol:Minter",
        "label": "accessoryMintInfo",
        "offset": 0,
        "slot": "3",
        "type": "t_mapping(t_enum(BoxType)4564,t_struct(AccessoryMintInfo)4677_storage)"
      },
      {
        "astId": 4706,
        "contract": "contracts/Minter.sol:Minter",
        "label": "mintRequests",
        "offset": 0,
        "slot": "4",
        "type": "t_mapping(t_bytes32,t_struct(MintRequest)4644_storage)"
      },
      {
        "astId": 4708,
        "contract": "contracts/Minter.sol:Minter",
        "label": "treasury",
        "offset": 0,
        "slot": "5",
        "type": "t_address"
      },
      {
        "astId": 4710,
        "contract": "contracts/Minter.sol:Minter",
        "label": "weth",
        "offset": 0,
        "slot": "6",
        "type": "t_address"
      },
      {
        "astId": 4712,
        "contract": "contracts/Minter.sol:Minter",
        "label": "oracleRegistry",
        "offset": 0,
        "slot": "7",
        "type": "t_address"
      },
      {
        "astId": 4714,
        "contract": "contracts/Minter.sol:Minter",
        "label": "vrfKeyHash",
        "offset": 0,
        "slot": "8",
        "type": "t_bytes32"
      },
      {
        "astId": 4716,
        "contract": "contracts/Minter.sol:Minter",
        "label": "vrfFee",
        "offset": 0,
        "slot": "9",
        "type": "t_uint256"
      }
    ],
    "types": {
      "t_address": {
        "encoding": "inplace",
        "label": "address",
        "numberOfBytes": "20"
      },
      "t_array(t_struct(AccessoryFullRandomMintParams)4627_storage)dyn_storage": {
        "base": "t_struct(AccessoryFullRandomMintParams)4627_storage",
        "encoding": "dynamic_array",
        "label": "struct Minter.AccessoryFullRandomMintParams[]",
        "numberOfBytes": "32"
      },
      "t_array(t_struct(AccessorySemiRandomMintParams)4621_storage)dyn_storage": {
        "base": "t_struct(AccessorySemiRandomMintParams)4621_storage",
        "encoding": "dynamic_array",
        "label": "struct Minter.AccessorySemiRandomMintParams[]",
        "numberOfBytes": "32"
      },
      "t_array(t_struct(PortraitMintParams)4612_storage)dyn_storage": {
        "base": "t_struct(PortraitMintParams)4612_storage",
        "encoding": "dynamic_array",
        "label": "struct Minter.PortraitMintParams[]",
        "numberOfBytes": "32"
      },
      "t_array(t_uint16)6_storage": {
        "base": "t_uint16",
        "encoding": "inplace",
        "label": "uint16[6]",
        "numberOfBytes": "32"
      },
      "t_bytes32": {
        "encoding": "inplace",
        "label": "bytes32",
        "numberOfBytes": "32"
      },
      "t_enum(AccessoryType)4557": {
        "encoding": "inplace",
        "label": "enum AccessoryType",
        "numberOfBytes": "1"
      },
      "t_enum(BoxType)4564": {
        "encoding": "inplace",
        "label": "enum BoxType",
        "numberOfBytes": "1"
      },
      "t_mapping(t_bytes32,t_struct(MintRequest)4644_storage)": {
        "encoding": "mapping",
        "key": "t_bytes32",
        "label": "mapping(bytes32 => struct Minter.MintRequest)",
        "numberOfBytes": "32",
        "value": "t_struct(MintRequest)4644_storage"
      },
      "t_mapping(t_bytes32,t_uint256)": {
        "encoding": "mapping",
        "key": "t_bytes32",
        "label": "mapping(bytes32 => uint256)",
        "numberOfBytes": "32",
        "value": "t_uint256"
      },
      "t_mapping(t_enum(BoxType)4564,t_struct(AccessoryMintInfo)4677_storage)": {
        "encoding": "mapping",
        "key": "t_enum(BoxType)4564",
        "label": "mapping(enum BoxType => struct Minter.AccessoryMintInfo)",
        "numberOfBytes": "32",
        "value": "t_struct(AccessoryMintInfo)4677_storage"
      },
      "t_mapping(t_enum(BoxType)4564,t_struct(PortraitMintInfo)4668_storage)": {
        "encoding": "mapping",
        "key": "t_enum(BoxType)4564",
        "label": "mapping(enum BoxType => struct Minter.PortraitMintInfo)",
        "numberOfBytes": "32",
        "value": "t_struct(PortraitMintInfo)4668_storage"
      },
      "t_struct(AccessoryFullRandomMintParams)4627_storage": {
        "encoding": "inplace",
        "label": "struct Minter.AccessoryFullRandomMintParams",
        "members": [
          {
            "astId": 4624,
            "contract": "contracts/Minter.sol:Minter",
            "label": "boxType",
            "offset": 0,
            "slot": "0",
            "type": "t_enum(BoxType)4564"
          },
          {
            "astId": 4626,
            "contract": "contracts/Minter.sol:Minter",
            "label": "amount",
            "offset": 1,
            "slot": "0",
            "type": "t_uint64"
          }
        ],
        "numberOfBytes": "32"
      },
      "t_struct(AccessoryMintInfo)4677_storage": {
        "encoding": "inplace",
        "label": "struct Minter.AccessoryMintInfo",
        "members": [
          {
            "astId": 4670,
            "contract": "contracts/Minter.sol:Minter",
            "label": "randomPrice",
            "offset": 0,
            "slot": "0",
            "type": "t_uint256"
          },
          {
            "astId": 4672,
            "contract": "contracts/Minter.sol:Minter",
            "label": "semiRandomPrice",
            "offset": 0,
            "slot": "1",
            "type": "t_uint256"
          },
          {
            "astId": 4676,
            "contract": "contracts/Minter.sol:Minter",
            "label": "tierChances",
            "offset": 0,
            "slot": "2",
            "type": "t_array(t_uint16)6_storage"
          }
        ],
        "numberOfBytes": "96"
      },
      "t_struct(AccessorySemiRandomMintParams)4621_storage": {
        "encoding": "inplace",
        "label": "struct Minter.AccessorySemiRandomMintParams",
        "members": [
          {
            "astId": 4615,
            "contract": "contracts/Minter.sol:Minter",
            "label": "accessoryType",
            "offset": 0,
            "slot": "0",
            "type": "t_enum(AccessoryType)4557"
          },
          {
            "astId": 4618,
            "contract": "contracts/Minter.sol:Minter",
            "label": "boxType",
            "offset": 1,
            "slot": "0",
            "type": "t_enum(BoxType)4564"
          },
          {
            "astId": 4620,
            "contract": "contracts/Minter.sol:Minter",
            "label": "amount",
            "offset": 2,
            "slot": "0",
            "type": "t_uint64"
          }
        ],
        "numberOfBytes": "32"
      },
      "t_struct(MintRequest)4644_storage": {
        "encoding": "inplace",
        "label": "struct Minter.MintRequest",
        "members": [
          {
            "astId": 4629,
            "contract": "contracts/Minter.sol:Minter",
            "label": "requester",
            "offset": 0,
            "slot": "0",
            "type": "t_address"
          },
          {
            "astId": 4633,
            "contract": "contracts/Minter.sol:Minter",
            "label": "portraitMintParams",
            "offset": 0,
            "slot": "1",
            "type": "t_array(t_struct(PortraitMintParams)4612_storage)dyn_storage"
          },
          {
            "astId": 4637,
            "contract": "contracts/Minter.sol:Minter",
            "label": "accessorySemiRandomMintParams",
            "offset": 0,
            "slot": "2",
            "type": "t_array(t_struct(AccessorySemiRandomMintParams)4621_storage)dyn_storage"
          },
          {
            "astId": 4641,
            "contract": "contracts/Minter.sol:Minter",
            "label": "accessoryFullRandomMintParams",
            "offset": 0,
            "slot": "3",
            "type": "t_array(t_struct(AccessoryFullRandomMintParams)4627_storage)dyn_storage"
          },
          {
            "astId": 4643,
            "contract": "contracts/Minter.sol:Minter",
            "label": "randomNumber",
            "offset": 0,
            "slot": "4",
            "type": "t_uint256"
          }
        ],
        "numberOfBytes": "160"
      },
      "t_struct(PortraitMintInfo)4668_storage": {
        "encoding": "inplace",
        "label": "struct Minter.PortraitMintInfo",
        "members": [
          {
            "astId": 4663,
            "contract": "contracts/Minter.sol:Minter",
            "label": "price",
            "offset": 0,
            "slot": "0",
            "type": "t_uint256"
          },
          {
            "astId": 4667,
            "contract": "contracts/Minter.sol:Minter",
            "label": "tierChances",
            "offset": 0,
            "slot": "1",
            "type": "t_array(t_uint16)6_storage"
          }
        ],
        "numberOfBytes": "64"
      },
      "t_struct(PortraitMintParams)4612_storage": {
        "encoding": "inplace",
        "label": "struct Minter.PortraitMintParams",
        "members": [
          {
            "astId": 4609,
            "contract": "contracts/Minter.sol:Minter",
            "label": "boxType",
            "offset": 0,
            "slot": "0",
            "type": "t_enum(BoxType)4564"
          },
          {
            "astId": 4611,
            "contract": "contracts/Minter.sol:Minter",
            "label": "amount",
            "offset": 1,
            "slot": "0",
            "type": "t_uint64"
          }
        ],
        "numberOfBytes": "32"
      },
      "t_uint16": {
        "encoding": "inplace",
        "label": "uint16",
        "numberOfBytes": "2"
      },
      "t_uint256": {
        "encoding": "inplace",
        "label": "uint256",
        "numberOfBytes": "32"
      },
      "t_uint64": {
        "encoding": "inplace",
        "label": "uint64",
        "numberOfBytes": "8"
      }
    }
  }
}