{
  "address": "0x47002EC01ee505e5eEd3D04471088853CcbfEFb9",
  "abi": [
    {
      "anonymous": false,
      "inputs": [
        {
          "indexed": false,
          "internalType": "address",
          "name": "previousAdmin",
          "type": "address"
        },
        {
          "indexed": false,
          "internalType": "address",
          "name": "newAdmin",
          "type": "address"
        }
      ],
      "name": "AdminChanged",
      "type": "event"
    },
    {
      "anonymous": false,
      "inputs": [
        {
          "indexed": true,
          "internalType": "address",
          "name": "beacon",
          "type": "address"
        }
      ],
      "name": "BeaconUpgraded",
      "type": "event"
    },
    {
      "anonymous": false,
      "inputs": [
        {
          "indexed": true,
          "internalType": "address",
          "name": "requester",
          "type": "address"
        },
        {
          "indexed": false,
          "internalType": "bytes32",
          "name": "requestId",
          "type": "bytes32"
        }
      ],
      "name": "MintRequested",
      "type": "event"
    },
    {
      "anonymous": false,
      "inputs": [
        {
          "indexed": true,
          "internalType": "address",
          "name": "previousOwner",
          "type": "address"
        },
        {
          "indexed": true,
          "internalType": "address",
          "name": "newOwner",
          "type": "address"
        }
      ],
      "name": "OwnershipTransferred",
      "type": "event"
    },
    {
      "anonymous": false,
      "inputs": [
        {
          "indexed": true,
          "internalType": "bytes32",
          "name": "requestId",
          "type": "bytes32"
        },
        {
          "indexed": false,
          "internalType": "uint256",
          "name": "randomNumber",
          "type": "uint256"
        }
      ],
      "name": "RequestFulfilled",
      "type": "event"
    },
    {
      "anonymous": false,
      "inputs": [
        {
          "indexed": true,
          "internalType": "address",
          "name": "treasury",
          "type": "address"
        }
      ],
      "name": "TreasurySet",
      "type": "event"
    },
    {
      "anonymous": false,
      "inputs": [
        {
          "indexed": true,
          "internalType": "address",
          "name": "implementation",
          "type": "address"
        }
      ],
      "name": "Upgraded",
      "type": "event"
    },
    {
      "inputs": [],
      "name": "BACKGROUND_COUNT",
      "outputs": [
        {
          "internalType": "uint64",
          "name": "",
          "type": "uint64"
        }
      ],
      "stateMutability": "view",
      "type": "function"
    },
    {
      "inputs": [],
      "name": "EXPRESSION_COUNT",
      "outputs": [
        {
          "internalType": "uint64",
          "name": "",
          "type": "uint64"
        }
      ],
      "stateMutability": "view",
      "type": "function"
    },
    {
      "inputs": [],
      "name": "FINISH_COUNT",
      "outputs": [
        {
          "internalType": "uint64",
          "name": "",
          "type": "uint64"
        }
      ],
      "stateMutability": "view",
      "type": "function"
    },
    {
      "inputs": [],
      "name": "MAX_TIER_CHANCE",
      "outputs": [
        {
          "internalType": "uint16",
          "name": "",
          "type": "uint16"
        }
      ],
      "stateMutability": "view",
      "type": "function"
    },
    {
      "inputs": [],
      "name": "PORTRAIT_MASK",
      "outputs": [
        {
          "internalType": "uint8",
          "name": "",
          "type": "uint8"
        }
      ],
      "stateMutability": "view",
      "type": "function"
    },
    {
      "inputs": [],
      "name": "TIER_COUNT",
      "outputs": [
        {
          "internalType": "uint8",
          "name": "",
          "type": "uint8"
        }
      ],
      "stateMutability": "view",
      "type": "function"
    },
    {
      "inputs": [
        {
          "internalType": "enum BoxType",
          "name": "",
          "type": "uint8"
        }
      ],
      "name": "accessoryMintInfo",
      "outputs": [
        {
          "internalType": "uint256",
          "name": "randomPrice",
          "type": "uint256"
        },
        {
          "internalType": "uint256",
          "name": "semiRandomPrice",
          "type": "uint256"
        }
      ],
      "stateMutability": "view",
      "type": "function"
    },
    {
      "inputs": [
        {
          "internalType": "bytes32",
          "name": "requestId",
          "type": "bytes32"
        }
      ],
      "name": "getMintResult",
      "outputs": [
        {
          "internalType": "address",
          "name": "requester",
          "type": "address"
        },
        {
          "internalType": "uint256",
          "name": "seed",
          "type": "uint256"
        },
        {
          "components": [
            {
              "internalType": "uint256",
              "name": "tokenId",
              "type": "uint256"
            },
            {
              "internalType": "enum BoxType",
              "name": "boxType",
              "type": "uint8"
            },
            {
              "internalType": "uint8",
              "name": "tier",
              "type": "uint8"
            },
            {
              "internalType": "uint64",
              "name": "background",
              "type": "uint64"
            },
            {
              "internalType": "uint64",
              "name": "finish",
              "type": "uint64"
            },
            {
              "internalType": "uint64",
              "name": "expression",
              "type": "uint64"
            }
          ],
          "internalType": "struct Minter.PortraitInfo[]",
          "name": "portraits",
          "type": "tuple[]"
        },
        {
          "components": [
            {
              "internalType": "uint256",
              "name": "tokenId",
              "type": "uint256"
            },
            {
              "internalType": "enum BoxType",
              "name": "boxType",
              "type": "uint8"
            },
            {
              "internalType": "enum AccessoryType",
              "name": "accessoryType",
              "type": "uint8"
            },
            {
              "internalType": "uint8",
              "name": "tier",
              "type": "uint8"
            }
          ],
          "internalType": "struct Minter.AccessoryInfo[]",
          "name": "accessories",
          "type": "tuple[]"
        }
      ],
      "stateMutability": "view",
      "type": "function"
    },
    {
      "inputs": [],
      "name": "illuvitarsPriceOracle",
      "outputs": [
        {
          "internalType": "contract IlluvitarsPriceOracle",
          "name": "",
          "type": "address"
        }
      ],
      "stateMutability": "view",
      "type": "function"
    },
    {
      "inputs": [
        {
          "internalType": "address",
          "name": "_vrfCoordinator",
          "type": "address"
        },
        {
          "internalType": "address",
          "name": "_linkToken",
          "type": "address"
        },
        {
          "internalType": "bytes32",
          "name": "_vrfKeyhash",
          "type": "bytes32"
        },
        {
          "internalType": "uint256",
          "name": "_vrfFee",
          "type": "uint256"
        },
        {
          "internalType": "address",
          "name": "_treasury",
          "type": "address"
        },
        {
          "internalType": "address",
          "name": "_sIlv",
          "type": "address"
        },
        {
          "internalType": "address",
          "name": "_illuvitarsPriceOracle",
          "type": "address"
        }
      ],
      "name": "initialize",
      "outputs": [],
      "stateMutability": "nonpayable",
      "type": "function"
    },
    {
      "inputs": [
        {
          "internalType": "bytes32",
          "name": "",
          "type": "bytes32"
        }
      ],
      "name": "mintRequests",
      "outputs": [
        {
          "internalType": "address",
          "name": "requester",
          "type": "address"
        },
        {
          "internalType": "uint256",
          "name": "portraitAmount",
          "type": "uint256"
        },
        {
          "internalType": "uint256",
          "name": "accessoryAmount",
          "type": "uint256"
        },
        {
          "internalType": "uint256",
          "name": "randomNumber",
          "type": "uint256"
        },
        {
          "internalType": "uint256",
          "name": "portraitStartTokenId",
          "type": "uint256"
        },
        {
          "internalType": "uint256",
          "name": "accessoryStartTokenId",
          "type": "uint256"
        }
      ],
      "stateMutability": "view",
      "type": "function"
    },
    {
      "inputs": [],
      "name": "nextAccessoryTokenId",
      "outputs": [
        {
          "internalType": "uint256",
          "name": "",
          "type": "uint256"
        }
      ],
      "stateMutability": "view",
      "type": "function"
    },
    {
      "inputs": [],
      "name": "nextPortraitTokenId",
      "outputs": [
        {
          "internalType": "uint256",
          "name": "",
          "type": "uint256"
        }
      ],
      "stateMutability": "view",
      "type": "function"
    },
    {
      "inputs": [],
      "name": "owner",
      "outputs": [
        {
          "internalType": "address",
          "name": "",
          "type": "address"
        }
      ],
      "stateMutability": "view",
      "type": "function"
    },
    {
      "inputs": [
        {
          "internalType": "enum BoxType",
          "name": "",
          "type": "uint8"
        }
      ],
      "name": "portraitMintInfo",
      "outputs": [
        {
          "internalType": "uint256",
          "name": "price",
          "type": "uint256"
        }
      ],
      "stateMutability": "view",
      "type": "function"
    },
    {
      "inputs": [],
      "name": "portraitSaleWindow",
      "outputs": [
        {
          "internalType": "uint64",
          "name": "start",
          "type": "uint64"
        },
        {
          "internalType": "uint64",
          "name": "end",
          "type": "uint64"
        }
      ],
      "stateMutability": "view",
      "type": "function"
    },
    {
      "inputs": [
        {
          "components": [
            {
              "internalType": "enum BoxType",
              "name": "boxType",
              "type": "uint8"
            },
            {
              "internalType": "uint64",
              "name": "amount",
              "type": "uint64"
            }
          ],
          "internalType": "struct Minter.PortraitMintParams[]",
          "name": "portraitMintParams",
          "type": "tuple[]"
        },
        {
          "components": [
            {
              "internalType": "enum AccessoryType",
              "name": "accessoryType",
              "type": "uint8"
            },
            {
              "internalType": "enum BoxType",
              "name": "boxType",
              "type": "uint8"
            },
            {
              "internalType": "uint64",
              "name": "amount",
              "type": "uint64"
            }
          ],
          "internalType": "struct Minter.AccessorySemiRandomMintParams[]",
          "name": "accessorySemiRandomMintParams",
          "type": "tuple[]"
        },
        {
          "components": [
            {
              "internalType": "enum BoxType",
              "name": "boxType",
              "type": "uint8"
            },
            {
              "internalType": "uint64",
              "name": "amount",
              "type": "uint64"
            }
          ],
          "internalType": "struct Minter.AccessoryFullRandomMintParams[]",
          "name": "accessoryFullRandomMintParams",
          "type": "tuple[]"
        },
        {
          "internalType": "bool",
          "name": "useSIlv",
          "type": "bool"
        }
      ],
      "name": "purchase",
      "outputs": [],
      "stateMutability": "payable",
      "type": "function"
    },
    {
      "inputs": [
        {
          "internalType": "bytes32",
          "name": "requestId",
          "type": "bytes32"
        },
        {
          "internalType": "uint256",
          "name": "randomness",
          "type": "uint256"
        }
      ],
      "name": "rawFulfillRandomness",
      "outputs": [],
      "stateMutability": "nonpayable",
      "type": "function"
    },
    {
      "inputs": [],
      "name": "renounceOwnership",
      "outputs": [],
      "stateMutability": "nonpayable",
      "type": "function"
    },
    {
      "inputs": [],
      "name": "sIlv",
      "outputs": [
        {
          "internalType": "address",
          "name": "",
          "type": "address"
        }
      ],
      "stateMutability": "view",
      "type": "function"
    },
    {
      "inputs": [
        {
          "components": [
            {
              "internalType": "uint64",
              "name": "start",
              "type": "uint64"
            },
            {
              "internalType": "uint64",
              "name": "end",
              "type": "uint64"
            }
          ],
          "internalType": "struct Minter.SaleWindow",
          "name": "_saleWindow",
          "type": "tuple"
        }
      ],
      "name": "setPortraitSaleWindow",
      "outputs": [],
      "stateMutability": "nonpayable",
      "type": "function"
    },
    {
      "inputs": [
        {
          "internalType": "address",
          "name": "treasury_",
          "type": "address"
        }
      ],
      "name": "setTreasury",
      "outputs": [],
      "stateMutability": "nonpayable",
      "type": "function"
    },
    {
      "inputs": [
        {
          "internalType": "address",
          "name": "newOwner",
          "type": "address"
        }
      ],
      "name": "transferOwnership",
      "outputs": [],
      "stateMutability": "nonpayable",
      "type": "function"
    },
    {
      "inputs": [],
      "name": "treasury",
      "outputs": [
        {
          "internalType": "address",
          "name": "",
          "type": "address"
        }
      ],
      "stateMutability": "view",
      "type": "function"
    },
    {
      "inputs": [
        {
          "internalType": "address",
          "name": "newImplementation",
          "type": "address"
        }
      ],
      "name": "upgradeTo",
      "outputs": [],
      "stateMutability": "nonpayable",
      "type": "function"
    },
    {
      "inputs": [
        {
          "internalType": "address",
          "name": "newImplementation",
          "type": "address"
        },
        {
          "internalType": "bytes",
          "name": "data",
          "type": "bytes"
        }
      ],
      "name": "upgradeToAndCall",
      "outputs": [],
      "stateMutability": "payable",
      "type": "function"
    },
    {
      "inputs": [],
      "name": "vrfFee",
      "outputs": [
        {
          "internalType": "uint256",
          "name": "",
          "type": "uint256"
        }
      ],
      "stateMutability": "view",
      "type": "function"
    },
    {
      "inputs": [],
      "name": "vrfKeyHash",
      "outputs": [
        {
          "internalType": "bytes32",
          "name": "",
          "type": "bytes32"
        }
      ],
      "stateMutability": "view",
      "type": "function"
    }
  ],
  "transactionHash": "0xdc4056fc1f5173177341322ddd69a17343da184ec484bf955f2fcf94aca29f89",
  "args": [],
  "numDeployments": 1,
  "solcInputHash": "06cf6f7d424c880753e44b1d0403b09f",
  "bytecode": "0x60a06040523060805234801561001457600080fd5b50608051613dd36100456000396000818161091101528181610951015281816109d90152610a190152613dd36000f3fe6080604052600436106101b75760003560e01c8063718c9ad8116100ec578063b3e7aef61161008a578063dcce80e411610064578063dcce80e414610530578063f0f4426014610550578063f2fde38b14610570578063f5bfe9b11461059057600080fd5b8063b3e7aef6146104e3578063c556f06214610510578063d103123b146104e357600080fd5b80638fd7adb5116100c65780638fd7adb51461044d57806394985ddd14610496578063ade0d700146104b6578063b0e2531d146104e357600080fd5b8063718c9ad81461031d57806387f568a91461041c5780638da5cb5b1461042f57600080fd5b80633659cfe6116101595780635cd37174116101335780635cd371741461038f57806361d027b3146103c75780636250b2c5146103e7578063715018a61461040757600080fd5b80633659cfe6146103445780634f1ef286146103665780635434e9e51461037957600080fd5b80630d39e46d116101955780630d39e46d146102465780631017507d146102d75780632a854867146102ed57806336331c8f1461031d57600080fd5b806302f80590146101bc578063033d436f1461020c578063041d443e14610230575b600080fd5b3480156101c857600080fd5b5060ce546101e7906001600160401b0380821691600160401b90041682565b604080516001600160401b039384168152929091166020830152015b60405180910390f35b34801561021857600080fd5b5061022260d45481565b604051908152602001610203565b34801561023c57600080fd5b5061022260d25481565b34801561025257600080fd5b506102a0610261366004613480565b60cd602052600090815260409020805460028201546005830154600684015460078501546008909501546001600160a01b039094169492939192909186565b604080516001600160a01b0390971687526020870195909552938501929092526060840152608083015260a082015260c001610203565b3480156102e357600080fd5b5061022260d35481565b3480156102f957600080fd5b5061030d610308366004613480565b6105b9565b604051610203949392919061353a565b34801561032957600080fd5b50610332600681565b60405160ff9091168152602001610203565b34801561035057600080fd5b5061036461035f366004613618565b610907565b005b610364610374366004613679565b6109cf565b34801561038557600080fd5b5061022260d55481565b34801561039b57600080fd5b5060d1546103af906001600160a01b031681565b6040516001600160a01b039091168152602001610203565b3480156103d357600080fd5b5060d0546103af906001600160a01b031681565b3480156103f357600080fd5b5061036461040236600461371e565b610a88565b34801561041357600080fd5b50610364610b36565b61036461042a366004613793565b610b6c565b34801561043b57600080fd5b506099546001600160a01b03166103af565b34801561045957600080fd5b5061048161046836600461387d565b60cc602052600090815260409020805460019091015482565b60408051928352602083019190915201610203565b3480156104a257600080fd5b506103646104b1366004613898565b611284565b3480156104c257600080fd5b506102226104d136600461387d565b60cb6020526000908152604090205481565b3480156104ef57600080fd5b506104f8600a81565b6040516001600160401b039091168152602001610203565b34801561051c57600080fd5b5060cf546103af906001600160a01b031681565b34801561053c57600080fd5b5061036461054b3660046138ba565b6112e8565b34801561055c57600080fd5b5061036461056b366004613618565b611444565b34801561057c57600080fd5b5061036461058b366004613618565b61150e565b34801561059c57600080fd5b506105a661271081565b60405161ffff9091168152602001610203565b600081815260cd60205260408120600601548190606090819083036106255760405162461bcd60e51b815260206004820152601a60248201527f4e6f2072616e646f6d206e756d6265722067656e65726174656400000000000060448201526064015b60405180910390fd5b600085815260cd6020908152604080832081516101208101835281546001600160a01b031681526001820180548451818702810187019095528085529194929385840193909290879084015b828210156106e057600084815260209020604080518082019091529083018054829060ff1660058111156106a7576106a7613499565b60058111156106b8576106b8613499565b8152905461010090046001600160401b03166020918201529082526001929092019101610671565b5050505081526020016002820154815260200160038201805480602002602001604051908101604052809291908181526020016000905b828210156107bc5760008481526020902060408051606081019091529083018054829060ff16600481111561074e5761074e613499565b600481111561075f5761075f613499565b81528154602090910190610100900460ff16600581111561078257610782613499565b600581111561079357610793613499565b815290546001600160401b03620100009091041660209182015290825260019092019101610717565b50505050815260200160048201805480602002602001604051908101604052809291908181526020016000905b8282101561085857600084815260209020604080518082019091529083018054829060ff16600581111561081f5761081f613499565b600581111561083057610830613499565b8152905461010090046001600160401b031660209182015290825260019290920191016107e9565b5050505081526020016005820154815260200160068201548152602001600782015481526020016008820154815250509050806000015194508060c0015193506000849050600082602001515111156108c4576108be8183602001518460e001516115a6565b90945090505b600082608001515111806108dd57506000826060015151115b156108fe576108fb8183608001518460600151856101000151611742565b92505b50509193509193565b6001600160a01b037f000000000000000000000000000000000000000000000000000000000000000016300361094f5760405162461bcd60e51b815260040161061c90613924565b7f00000000000000000000000000000000000000000000000000000000000000006001600160a01b03166109816119f9565b6001600160a01b0316146109a75760405162461bcd60e51b815260040161061c90613970565b6109b081611a27565b604080516000808252602082019092526109cc91839190611a51565b50565b6001600160a01b037f0000000000000000000000000000000000000000000000000000000000000000163003610a175760405162461bcd60e51b815260040161061c90613924565b7f00000000000000000000000000000000000000000000000000000000000000006001600160a01b0316610a496119f9565b6001600160a01b031614610a6f5760405162461bcd60e51b815260040161061c90613970565b610a7882611a27565b610a8482826001611a51565b5050565b6099546001600160a01b03163314610ab25760405162461bcd60e51b815260040161061c906139bc565b610ac26040820160208301613a06565b6001600160401b0316610ad86020830183613a06565b6001600160401b031610610b245760405162461bcd60e51b8152602060048201526013602482015272496e76616c69642073616c652077696e646f7760681b604482015260640161061c565b8060ce610b318282613a23565b505050565b6099546001600160a01b03163314610b605760405162461bcd60e51b815260040161061c906139bc565b610b6a6000611b9c565b565b600080610b7d60d25460d354611bee565b600081815260cd602052604090208054919250906001600160a01b031615610bdb5760405162461bcd60e51b8152602060048201526011602482015270105b1c9958591e481c995c5d595cdd1959607a1b604482015260640161061c565b80546001600160a01b03191633178155888015610c6b5760ce546001600160401b03164210801590610c1f575060ce54600160401b90046001600160401b03164210155b610c6b5760405162461bcd60e51b815260206004820152601960248201527f53616c65206e6f742073746172746564206f7220656e64656400000000000000604482015260640161061c565b6000805b82811015610de85760008d8d83818110610c8b57610c8b613a8f565b905060400201803603810190610ca19190613b05565b9050600081602001516001600160401b031611610cf15760405162461bcd60e51b815260206004820152600e60248201526d125b9d985b1a5908185b5bdd5b9d60921b604482015260640161061c565b60cb600082600001516005811115610d0b57610d0b613499565b6005811115610d1c57610d1c613499565b81526020019081526020016000206000015481602001516001600160401b0316610d469190613b37565b610d509088613b56565b965080602001516001600160401b031683610d6b9190613b56565b6001808701805480830182556000918252602090912084519101805493965084939092839160ff191690836005811115610da757610da7613499565b02179055506020919091015181546001600160401b039091166101000268ffffffffffffffff001990911617905550610de1600182613b56565b9050610c6f565b506002830181905560d4546007840155610e03816006613b37565b60d46000828254610e149190613b56565b9091555089925060009050805b83811015610fc55760008c8c83818110610e3d57610e3d613a8f565b905060600201803603810190610e539190613b6e565b9050600081604001516001600160401b031611610ea35760405162461bcd60e51b815260206004820152600e60248201526d125b9d985b1a5908185b5bdd5b9d60921b604482015260640161061c565b60cc600082602001516005811115610ebd57610ebd613499565b6005811115610ece57610ece613499565b81526020019081526020016000206001015481604001516001600160401b0316610ef89190613b37565b610f029089613b56565b975080604001516001600160401b031683610f1d9190613b56565b600387018054600181810183556000928352602090922084519101805493965084939092839160ff191690836004811115610f5a57610f5a613499565b021790555060208201518154829061ff001916610100836005811115610f8257610f82613499565b02179055506040919091015181546001600160401b03909116620100000269ffffffffffffffff00001990911617905550610fbe600182613b56565b9050610e21565b5087925060005b838110156110f85760008a8a83818110610fe857610fe8613a8f565b905060400201803603810190610ffe9190613b05565b905060cc60008260000151600581111561101a5761101a613499565b600581111561102b5761102b613499565b81526020019081526020016000206000015481602001516001600160401b03166110559190613b37565b61105f9089613b56565b975080602001516001600160401b03168361107a9190613b56565b600487018054600181810183556000928352602090922084519101805493965084939092839160ff1916908360058111156110b7576110b7613499565b02179055506020919091015181546001600160401b039091166101000268ffffffffffffffff0019909116179055506110f1600182613b56565b9050610fcc565b506005840181905560d580546008860181905582919060009061111c908490613b56565b909155505085156112405786156111c55760d154604051634da8552760e11b8152600481018890526000916001600160a01b031690639b50aa4e906024016020604051808303816000875af1158015611179573d6000803e3d6000fd5b505050506040513d601f19601f8201168201806040525081019061119d9190613be1565b60d05460cf549192506111bf916001600160a01b039081169133911684611d41565b50611240565b8534146112045760405162461bcd60e51b815260206004820152600d60248201526c496e76616c696420707269636560981b604482015260640161061c565b60d0546040516001600160a01b039091169087156108fc029088906000818181858888f1935050505015801561123e573d6000803e3d6000fd5b505b60405185815233907feaf8d3f69fe5b0f881b23e1b13477c52d8748166f18f9b8665365ef0879c753d9060200160405180910390a250505050505050505050505050565b6001546001600160a01b031633146112de5760405162461bcd60e51b815260206004820152601f60248201527f4f6e6c7920565246436f6f7264696e61746f722063616e2066756c66696c6c00604482015260640161061c565b610a848282611da1565b600054610100900460ff1680611301575060005460ff16155b61131d5760405162461bcd60e51b815260040161061c90613bfa565b600054610100900460ff1615801561133f576000805461ffff19166101011790555b6001600160a01b0384161580159061135f57506001600160a01b03821615155b801561137357506001600160a01b03831615155b6113b55760405162461bcd60e51b815260206004820152601360248201527263616e6e6f74207a65726f206164647265737360681b604482015260640161061c565b6113bd611eab565b6113c78888611f26565b60d286905560d385905560cf80546001600160a01b038086166001600160a01b03199283161790925560d0805487841690831617905560d1805492851692909116919091179055600160d481905560d555611420611fd4565b61142861240e565b801561143a576000805461ff00191690555b5050505050505050565b6099546001600160a01b0316331461146e5760405162461bcd60e51b815260040161061c906139bc565b6001600160a01b0381166114c45760405162461bcd60e51b815260206004820152601c60248201527f547265617375727920616464726573732063616e6e6f74207a65726f00000000604482015260640161061c565b60d080546001600160a01b0319166001600160a01b0383169081179091556040517f3c864541ef71378c6229510ed90f376565ee42d9c5e0904a984a9e863e6db44f90600090a250565b6099546001600160a01b031633146115385760405162461bcd60e51b815260040161061c906139bc565b6001600160a01b03811661159d5760405162461bcd60e51b815260206004820152602660248201527f4f776e61626c653a206e6577206f776e657220697320746865207a65726f206160448201526564647265737360d01b606482015260840161061c565b6109cc81611b9c565b606060008060008551905060005b81811015611602578681815181106115ce576115ce613a8f565b6020026020010151602001516001600160401b0316836115ee9190613b56565b92506115fb600182613b56565b90506115b4565b5086925084821561173757826001600160401b0381111561162557611625613633565b60405190808252806020026020018201604052801561168557816020015b6040805160c08101825260008082526020808301829052928201819052606082018190526080820181905260a082015282526000199092019101816116435790505b5094506000805b838110156117345760008982815181106116a8576116a8613a8f565b60200260200101519050600081602001516001600160401b0316905060005b8181101561171d576116da89848861296b565b8c88815181106116ec576116ec613a8f565b602090810291909101019290925299509550611709600186613b56565b9450611716600182613b56565b90506116c7565b50505060018161172d9190613b56565b905061168c565b50505b505050935093915050565b606060008060008651905060005b8181101561179e5787818151811061176a5761176a613a8f565b6020026020010151602001516001600160401b03168461178a9190613b56565b9350611797600182613b56565b9050611750565b505084518460005b828110156117f4578781815181106117c0576117c0613a8f565b6020026020010151604001516001600160401b0316846117e09190613b56565b93506117ed600182613b56565b90506117a6565b50600089841515806118065750600086115b156119eb576118158686613b56565b6001600160401b0381111561182c5761182c613633565b60405190808252806020026020018201604052801561188957816020015b611876604080516080810190915260008082526020820190815260200160008152600060209091015290565b81526020019060019003908161184a5790505b50965060005b848110156119385760008a82815181106118ab576118ab613a8f565b60200260200101519050600081604001516001600160401b0316905060005b81811015611921576118dd858489612b6d565b8d89815181106118ef576118ef613a8f565b6020908102919091010192909252909750945061190d600187613b56565b955061191a600182613b56565b90506118ca565b5050506001816119319190613b56565b905061188f565b508951935060005b848110156119e95760008b828151811061195c5761195c613a8f565b60200260200101519050600081602001516001600160401b0316905060005b818110156119d25761198e858489612d48565b8d89815181106119a0576119a0613a8f565b602090810291909101019290925290975094506119be600187613b56565b95506119cb600182613b56565b905061197b565b5050506001816119e29190613b56565b9050611940565b505b505050505050949350505050565b7f360894a13ba1a3210667c828492db98dca3e2076cc3735a920a3ca505d382bbc546001600160a01b031690565b6099546001600160a01b031633146109cc5760405162461bcd60e51b815260040161061c906139bc565b6000611a5b6119f9565b9050611a6684612f03565b600083511180611a735750815b15611a8457611a828484612fa8565b505b7f4910fdfa16fed3260ed0e7147f7cc6da11a60208b5b9406d12a635614ffd9143805460ff16611b9557805460ff191660011781556040516001600160a01b0383166024820152611b0390869060440160408051601f198184030181529190526020810180516001600160e01b0316631b2ce7f360e11b179052612fa8565b50805460ff19168155611b146119f9565b6001600160a01b0316826001600160a01b031614611b8c5760405162461bcd60e51b815260206004820152602f60248201527f45524331393637557067726164653a207570677261646520627265616b73206660448201526e75727468657220757067726164657360881b606482015260840161061c565b611b9585613093565b5050505050565b609980546001600160a01b038381166001600160a01b0319831681179093556040519116919082907f8be0079c531659141344cd1fd0a4f28419497f9722a3daafe3b4186f6b6457e090600090a35050565b600080546001546040516001600160a01b0362010000909304831692634000aea09216908590611c2d9088908790602001918252602082015260400190565b6040516020818303038152906040526040518463ffffffff1660e01b8152600401611c5a93929190613ca0565b6020604051808303816000875af1158015611c79573d6000803e3d6000fd5b505050506040513d601f19601f82011682018060405250810190611c9d9190613cc7565b50600083815260026020818152604080842054815180840189905280830186905230606082015260808082018390528351808303909101815260a090910190925281519183019190912093879052919052611cf9906001613b56565b600085815260026020526040902055611d398482604080516020808201949094528082019290925280518083038201815260609092019052805191012090565b949350505050565b604080516001600160a01b0385811660248301528416604482015260648082018490528251808303909101815260849091019091526020810180516001600160e01b03166323b872dd60e01b179052611d9b9085906130d3565b50505050565b600082815260cd60205260409020546001600160a01b0316611df85760405162461bcd60e51b815260206004820152601060248201526f139bc81c995c5d595cdd08195e1a5cdd60821b604482015260640161061c565b600082815260cd602052604090206006015415611e575760405162461bcd60e51b815260206004820152601f60248201527f52616e646f6d206e756d62657220616c72656164792066756c66696c6c656400604482015260640161061c565b600082815260cd6020526040908190206006018290555182907f1ca8663227a7fe9919713a01d344afbb434e234f35a3e540a6ad924f88771f3890611e9f9084815260200190565b60405180910390a25050565b600054610100900460ff1680611ec4575060005460ff16155b611ee05760405162461bcd60e51b815260040161061c90613bfa565b600054610100900460ff16158015611f02576000805461ffff19166101011790555b611f0a6131a5565b611f1261320f565b80156109cc576000805461ff001916905550565b600054610100900460ff1680611f3f575060005460ff16155b611f5b5760405162461bcd60e51b815260040161061c90613bfa565b600054610100900460ff16158015611f7d576000805461ffff19166101011790555b600180546001600160a01b0319166001600160a01b03858116919091179091556000805462010000600160b01b03191662010000928516929092029190911790558015610b31576000805461ff0019169055505050565b6040805180820182526000808252825160c08101845261271081526020808201839052938101829052606081018290526080810182905260a0810182905283830190815290805260cb90925280517f4239c2c8c3d9b94feb214b0f54d7c869ce1ceb63517be57644336cda4967a4689081559151909190612078907f4239c2c8c3d9b94feb214b0f54d7c869ce1ceb63517be57644336cda4967a4699060066133d5565b505060408051808201825266b1a2bc2ec500008152815160c0810183526000808252611f406020808401919091526125e4948301949094526126ca60608301526126fc608083015261271060a08301528383019182526001905260cb90925280517fb3c459fcfa972435363277a54960f9947fdf75faf912b521fbcc6cd1c34ddc33908155915190925061212f907fb3c459fcfa972435363277a54960f9947fdf75faf912b521fbcc6cd1c34ddc349060066133d5565b505060408051808201825267016345785d8a00008152815160c08101835260008082526117d4602080840191909152612260948301949094526125e460608301526126de608083015261271060a08301528383019182526002905260cb90925280517f2c278fda8778553b7b7a8cff03a9beadbef1773abb49c1f69c87347759480d5990815591519092506121e7907f2c278fda8778553b7b7a8cff03a9beadbef1773abb49c1f69c87347759480d5a9060066133d5565b50506040805180820182526703782dace9d900008152815160c08101835260008082526109606020808401919091526119c89483019490945261226060608301526125e4608083015261271060a08301528383019182526003905260cb90925280517f3f771ad337758d100996e4f4ea4b0371b93c9bfb5e077c0267534f8d2606ee40908155915190925061229f907f3f771ad337758d100996e4f4ea4b0371b93c9bfb5e077c0267534f8d2606ee419060066133d5565b5050604080518082018252670a688906bd8b00008152815160c08101835260008082526101f46020808401919091526107d09483019490945261109a606083015261203a608083015261271060a08301528383019182526004905260cb90925280517f322b60245ba380edff02ea0cd22c8f465b6af4c34230f7ec556b48e58b4dbdde9081559151909250612357907f322b60245ba380edff02ea0cd22c8f465b6af4c34230f7ec556b48e58b4dbddf9060066133d5565b50506040805180820182526722b1c8c1227a00008152815160c081018352600080825260c86020808401919091526103e8948301949094526109c46060830152611388608083015261271060a08301528383019182526005905260cb90925280517f234b54bc34b9466904cc2600e624100259a42679c1529023bd62079f434f8d6e9081559151909250610b31907f234b54bc34b9466904cc2600e624100259a42679c1529023bd62079f434f8d6f9060066133d5565b604080516060808201835260008083526020808401828152855160c08101875261271081528083018490528087018490529384018390526080840183905260a0840183905294840192835290805260cc905281517f435daec636ce435a90bde0aeec309a303a359a854c5a51b7d6a5a941d6db609490815592517f435daec636ce435a90bde0aeec309a303a359a854c5a51b7d6a5a941d6db609555519091906124db907f435daec636ce435a90bde0aeec309a303a359a854c5a51b7d6a5a941d6db60969060066133d5565b5050604080516060808201835266b1a2bc2ec50000825267016345785d8a00006020808401918252845160c0810186526000808252611fa4828401526123f0828801526125e4948201949094526126ac608082015261271060a0820152948401948552600190925260cc90915281517fe7bf1de387f1223f0fc355696e043550abf1cecefa85fce0e824dbbcb1125e7290815590517fe7bf1de387f1223f0fc355696e043550abf1cecefa85fce0e824dbbcb1125e735591519092506125c4907fe7bf1de387f1223f0fc355696e043550abf1cecefa85fce0e824dbbcb1125e749060066133d5565b5050604080516060808201835267016345785d8a000082526702c68af0bb1400006020808401918252845160c0810186526000808252610bb882840152611db082880152612260948201949094526125e4608082015261271060a0820152948401948552600290925260cc90915281517f22774faf9377d17ee337aca46ae9f31cdc694bfbe3d854c18c7806167b97e1b490815590517f22774faf9377d17ee337aca46ae9f31cdc694bfbe3d854c18c7806167b97e1b55591519092506126ae907f22774faf9377d17ee337aca46ae9f31cdc694bfbe3d854c18c7806167b97e1b69060066133d5565b50506040805160608082018352670214e8348c4f00008252670429d069189e00006020808401918252845160c08101865260008082526105dc8284015261125c82880152611c2094820194909452612328608082015261271060a0820152948401948552600390925260cc90915281517f0a419be568cc707f4292098bf178c7d2a8bf2a39b4b2d22c7d4b34f1df9dc54390815590517f0a419be568cc707f4292098bf178c7d2a8bf2a39b4b2d22c7d4b34f1df9dc544559151909250612798907f0a419be568cc707f4292098bf178c7d2a8bf2a39b4b2d22c7d4b34f1df9dc5459060066133d5565b505060408051606080820183526702c68af0bb140000825267058d15e1762800006020808401918252845160c08101865260008082526101f4828401526107d0828801526114b494820194909452611f40608082015261271060a0820152948401948552600490925260cc90915281517fd8b856737370b971967525f7601ea4ffa6d026b1508299d4c977c559046e880b90815590517fd8b856737370b971967525f7601ea4ffa6d026b1508299d4c977c559046e880c559151909250612882907fd8b856737370b971967525f7601ea4ffa6d026b1508299d4c977c559046e880d9060066133d5565b505060408051606080820183526703782dace9d9000082526706f05b59d3b200006020808401918252845160c081018652600080825260648284015261025882880152610af094820194909452611770608082015261271060a0820152948401948552600590925260cc90915281517f1c65efc1b891a670e4e436dc105ccc9eb6e81b9bae93c09e1791bebb51a84e6190815590517f1c65efc1b891a670e4e436dc105ccc9eb6e81b9bae93c09e1791bebb51a84e62559151909250610b31907f1c65efc1b891a670e4e436dc105ccc9eb6e81b9bae93c09e1791bebb51a84e639060066133d5565b6040805160c081018252600080825260208201819052918101829052606081018290526080810182905260a08101829052908080806129ac8861271061326f565b91509150600060cb6000896000015160058111156129cc576129cc613499565b60058111156129dd576129dd613499565b815260208101919091526040908101600020815160c0810190925260010160068282826020028201916000905b82829054906101000a900461ffff1661ffff1681526020019060020190602082600101049283019260010382029150808411612a0a575050508a8a52505089519192505060208701906005811115612a6457612a64613499565b90816005811115612a7757612a77613499565b905250612a8583600a61329a565b6001600160401b031660608801529250612aa083600a61329a565b6001600160401b031660808801529250612abb83600a61329a565b6001600160401b031660a0880152925060005b600660ff82161015612b23578261ffff16828260ff1660068110612af457612af4613a8f565b602002015161ffff161115612b115760ff81166040880152612b23565b612b1c600182613ce4565b9050612ace565b50612b2f600685613b56565b60408051602081018c90529081018b90529094506060016040516020818303038152906040528051906020012060001c945050505093509350939050565b612b99604080516080810190915260008082526020820190815260200160008152600060209091015290565b6000806000612baa8761271061326f565b915050600060cc600088602001516005811115612bc957612bc9613499565b6005811115612bda57612bda613499565b815260208101919091526040908101600020815160c0810190925260020160068282826020028201916000905b82829054906101000a900461ffff1661ffff1681526020019060020190602082600101049283019260010382029150808411612c07575050508989525050506020888101519192508601906005811115612c6357612c63613499565b90816005811115612c7657612c76613499565b905250865160408601906004811115612c9157612c91613499565b90816004811115612ca457612ca4613499565b90525060005b600660ff82161015612cff578261ffff16828260ff1660068110612cd057612cd0613a8f565b602002015161ffff161115612ced5760ff81166060870152612cff565b612cf8600182613ce4565b9050612caa565b50612d0b600184613b56565b60408051602081018b90529081018a90529093506060016040516020818303038152906040528051906020012060001c9350505093509350939050565b612d74604080516080810190915260008082526020820190815260200160008152600060209091015290565b600080600080612d868861271061326f565b91509150600060cc600089600001516005811115612da657612da6613499565b6005811115612db757612db7613499565b815260208101919091526040908101600020815160c0810190925260020160068282826020028201916000905b82829054906101000a900461ffff1661ffff1681526020019060020190602082600101049283019260010382029150808411612de4575050508a8a52505089519192505060208701906005811115612e3e57612e3e613499565b90816005811115612e5157612e51613499565b905250612e5f600584613d1f565b60ff166004811115612e7357612e73613499565b86604001906004811115612e8957612e89613499565b90816004811115612e9c57612e9c613499565b90525060005b600660ff82161015612ef7578261ffff16828260ff1660068110612ec857612ec8613a8f565b602002015161ffff161115612ee55760ff81166060880152612ef7565b612ef0600182613ce4565b9050612ea2565b50612b2f600185613b56565b803b612f675760405162461bcd60e51b815260206004820152602d60248201527f455243313936373a206e657720696d706c656d656e746174696f6e206973206e60448201526c1bdd08184818dbdb9d1c9858dd609a1b606482015260840161061c565b7f360894a13ba1a3210667c828492db98dca3e2076cc3735a920a3ca505d382bbc80546001600160a01b0319166001600160a01b0392909216919091179055565b6060823b6130075760405162461bcd60e51b815260206004820152602660248201527f416464726573733a2064656c65676174652063616c6c20746f206e6f6e2d636f6044820152651b9d1c9858dd60d21b606482015260840161061c565b600080846001600160a01b0316846040516130229190613d33565b600060405180830381855af49150503d806000811461305d576040519150601f19603f3d011682016040523d82523d6000602084013e613062565b606091505b509150915061308a8282604051806060016040528060278152602001613d77602791396132c3565b95945050505050565b61309c81612f03565b6040516001600160a01b038216907fbc7cd75a20ee27fd9adebab32041f755214dbc6bffa90cc0225b39da2e5c2d3b90600090a250565b6000613128826040518060400160405280602081526020017f5361666545524332303a206c6f772d6c6576656c2063616c6c206661696c6564815250856001600160a01b03166133039092919063ffffffff16565b805190915015610b3157808060200190518101906131469190613cc7565b610b315760405162461bcd60e51b815260206004820152602a60248201527f5361666545524332303a204552433230206f7065726174696f6e20646964206e6044820152691bdd081cdd58d8d9595960b21b606482015260840161061c565b600054610100900460ff16806131be575060005460ff16155b6131da5760405162461bcd60e51b815260040161061c90613bfa565b600054610100900460ff16158015611f12576000805461ffff191661010117905580156109cc576000805461ff001916905550565b600054610100900460ff1680613228575060005460ff16155b6132445760405162461bcd60e51b815260040161061c90613bfa565b600054610100900460ff16158015613266576000805461ffff19166101011790555b611f1233611b9c565b60008061328061ffff841685613d4f565b61328e61ffff851686613d1f565b915091505b9250929050565b6000806132b06001600160401b03841685613d4f565b61328e6001600160401b03851686613d1f565b606083156132d25750816132fc565b8251156132e25782518084602001fd5b8160405162461bcd60e51b815260040161061c9190613d63565b9392505050565b6060611d39848460008585843b61335c5760405162461bcd60e51b815260206004820152601d60248201527f416464726573733a2063616c6c20746f206e6f6e2d636f6e7472616374000000604482015260640161061c565b600080866001600160a01b031685876040516133789190613d33565b60006040518083038185875af1925050503d80600081146133b5576040519150601f19603f3d011682016040523d82523d6000602084013e6133ba565b606091505b50915091506133ca8282866132c3565b979650505050505050565b60018301918390821561345b5791602002820160005b8382111561342b57835183826101000a81548161ffff021916908361ffff16021790555092602001926002016020816001010492830192600103026133eb565b80156134595782816101000a81549061ffff021916905560020160208160010104928301926001030261342b565b505b5061346792915061346b565b5090565b5b80821115613467576000815560010161346c565b60006020828403121561349257600080fd5b5035919050565b634e487b7160e01b600052602160045260246000fd5b600681106134bf576134bf613499565b9052565b600081518084526020808501945080840160005b8381101561352f57815180518852838101516134f5858a01826134af565b506040808201516005811061350c5761350c613499565b9089015260609081015160ff1690880152608090960195908201906001016134d7565b509495945050505050565b6001600160a01b0385168152602080820185905260806040808401829052855184830181905260009360a092909183870190898401875b828110156135d8578151805185528681015161358f888701826134af565b508086015160ff16858701526060808201516001600160401b03908116918701919091528982015181168a87015290880151168785015260c09093019290850190600101613571565b50505086810360608801526135ed81896134c3565b9b9a5050505050505050505050565b80356001600160a01b038116811461361357600080fd5b919050565b60006020828403121561362a57600080fd5b6132fc826135fc565b634e487b7160e01b600052604160045260246000fd5b604051601f8201601f191681016001600160401b038111828210171561367157613671613633565b604052919050565b6000806040838503121561368c57600080fd5b613695836135fc565b91506020808401356001600160401b03808211156136b257600080fd5b818601915086601f8301126136c657600080fd5b8135818111156136d8576136d8613633565b6136ea601f8201601f19168501613649565b9150808252878482850101111561370057600080fd5b80848401858401376000848284010152508093505050509250929050565b60006040828403121561373057600080fd5b50919050565b60008083601f84011261374857600080fd5b5081356001600160401b0381111561375f57600080fd5b6020830191508360208260061b850101111561329357600080fd5b80151581146109cc57600080fd5b80356136138161377a565b60008060008060008060006080888a0312156137ae57600080fd5b87356001600160401b03808211156137c557600080fd5b6137d18b838c01613736565b909950975060208a01359150808211156137ea57600080fd5b818a0191508a601f8301126137fe57600080fd5b81358181111561380d57600080fd5b8b602060608302850101111561382257600080fd5b6020830197508096505060408a013591508082111561384057600080fd5b5061384d8a828b01613736565b9094509250613860905060608901613788565b905092959891949750929550565b80356006811061361357600080fd5b60006020828403121561388f57600080fd5b6132fc8261386e565b600080604083850312156138ab57600080fd5b50508035926020909101359150565b600080600080600080600060e0888a0312156138d557600080fd5b6138de886135fc565b96506138ec602089016135fc565b95506040880135945060608801359350613908608089016135fc565b925061391660a089016135fc565b915061386060c089016135fc565b6020808252602c908201527f46756e6374696f6e206d7573742062652063616c6c6564207468726f7567682060408201526b19195b1959d85d1958d85b1b60a21b606082015260800190565b6020808252602c908201527f46756e6374696f6e206d7573742062652063616c6c6564207468726f7567682060408201526b6163746976652070726f787960a01b606082015260800190565b6020808252818101527f4f776e61626c653a2063616c6c6572206973206e6f7420746865206f776e6572604082015260600190565b6001600160401b03811681146109cc57600080fd5b600060208284031215613a1857600080fd5b81356132fc816139f1565b8135613a2e816139f1565b6001600160401b03811690508154816001600160401b031982161783556020840135613a59816139f1565b6fffffffffffffffff00000000000000008160401b16836fffffffffffffffffffffffffffffffff198416171784555050505050565b634e487b7160e01b600052603260045260246000fd5b600060408284031215613ab757600080fd5b604051604081018181106001600160401b0382111715613ad957613ad9613633565b604052905080613ae88361386e565b81526020830135613af8816139f1565b6020919091015292915050565b600060408284031215613b1757600080fd5b6132fc8383613aa5565b634e487b7160e01b600052601160045260246000fd5b6000816000190483118215151615613b5157613b51613b21565b500290565b60008219821115613b6957613b69613b21565b500190565b600060608284031215613b8057600080fd5b604051606081018181106001600160401b0382111715613ba257613ba2613633565b604052823560058110613bb457600080fd5b8152613bc26020840161386e565b60208201526040830135613bd5816139f1565b60408201529392505050565b600060208284031215613bf357600080fd5b5051919050565b6020808252602e908201527f496e697469616c697a61626c653a20636f6e747261637420697320616c72656160408201526d191e481a5b9a5d1a585b1a5e995960921b606082015260800190565b60005b83811015613c63578181015183820152602001613c4b565b83811115611d9b5750506000910152565b60008151808452613c8c816020860160208601613c48565b601f01601f19169290920160200192915050565b60018060a01b038416815282602082015260606040820152600061308a6060830184613c74565b600060208284031215613cd957600080fd5b81516132fc8161377a565b600060ff821660ff84168060ff03821115613d0157613d01613b21565b019392505050565b634e487b7160e01b600052601260045260246000fd5b600082613d2e57613d2e613d09565b500690565b60008251613d45818460208701613c48565b9190910192915050565b600082613d5e57613d5e613d09565b500490565b6020815260006132fc6020830184613c7456fe416464726573733a206c6f772d6c6576656c2064656c65676174652063616c6c206661696c6564a2646970667358221220899a255232bf00f9a319ef5e96933ddef3f0d856e3bf964a982e09c1cc61175564736f6c634300080e0033",
  "devdoc": {
    "author": "Dmitry Yakovlevich",
    "details": "Users can use ETH or sILV to request minting.Minter uses an chainlink VRF to genrate randomness.",
    "events": {
      "MintRequested(address,bytes32)": {
        "details": "Emitted when user request mint."
      },
      "RequestFulfilled(bytes32,uint256)": {
        "details": "Emitted when chainlink fulfilled VRF request."
      },
      "TreasurySet(address)": {
        "details": "Emitted when treasury updated."
      }
    },
    "kind": "dev",
    "methods": {
      "getMintResult(bytes32)": {
        "details": "Get mintable portrait and accessory infos with chainlink random number",
        "params": {
          "requestId": "Request id of mint request."
        },
        "returns": {
          "accessories": "Mintable accessory on-chain metadata",
          "portraits": "Mintable portrait on-chain metadata",
          "requester": "Requester address",
          "seed": "Seed random number from chainlink"
        }
      },
      "initialize(address,address,bytes32,uint256,address,address,address)": {
        "details": "UUPSUpgradeable initializer",
        "params": {
          "_illuvitarsPriceOracle": "ILV/ETH Chainlink price feed base illuvitars price oracle",
          "_linkToken": "LINK token address",
          "_sIlv": "sILV2 token address",
          "_treasury": "Treasury address",
          "_vrfCoordinator": "Chainlink VRF Coordinator address",
          "_vrfFee": "Chainlink VRF Fee",
          "_vrfKeyhash": "Chainlink VRF Key Hash"
        }
      },
      "owner()": {
        "details": "Returns the address of the current owner."
      },
      "purchase((uint8,uint64)[],(uint8,uint8,uint64)[],(uint8,uint64)[],bool)": {
        "details": "Request minting Portrait and Accesory NFTs.",
        "params": {
          "accessoryFullRandomMintParams": "accessory layer full random mint params.",
          "accessorySemiRandomMintParams": "accessory layer semi random mint params.",
          "portraitMintParams": "portrait layer mint params.",
          "useSIlv": "true to use sILV, false to use ETH."
        }
      },
      "renounceOwnership()": {
        "details": "Leaves the contract without owner. It will not be possible to call `onlyOwner` functions anymore. Can only be called by the current owner. NOTE: Renouncing ownership will leave the contract without an owner, thereby removing any functionality that is only available to the owner."
      },
      "setPortraitSaleWindow((uint64,uint64))": {
        "details": "Set portrait sale window.only owner can call this function.",
        "params": {
          "_saleWindow": "New sale window."
        }
      },
      "setTreasury(address)": {
        "details": "Set new treasury address.only owner can call this function.",
        "params": {
          "treasury_": "Treasury Address."
        }
      },
      "transferOwnership(address)": {
        "details": "Transfers ownership of the contract to a new account (`newOwner`). Can only be called by the current owner."
      },
      "upgradeTo(address)": {
        "details": "Upgrade the implementation of the proxy to `newImplementation`. Calls {_authorizeUpgrade}. Emits an {Upgraded} event."
      },
      "upgradeToAndCall(address,bytes)": {
        "details": "Upgrade the implementation of the proxy to `newImplementation`, and subsequently execute the function call encoded in `data`. Calls {_authorizeUpgrade}. Emits an {Upgraded} event."
      }
    },
    "stateVariables": {
      "accessoryMintInfo": {
        "details": "Accessory mint information"
      },
      "illuvitarsPriceOracle": {
        "details": "ILV/ETH Chainlink price feed address"
      },
      "mintRequests": {
        "details": "User's mint requests"
      },
      "nextAccessoryTokenId": {
        "details": "Next accessory token id to mint"
      },
      "nextPortraitTokenId": {
        "details": "Next portrait token id to mint"
      },
      "portraitMintInfo": {
        "details": "Portrait mint information"
      },
      "portraitSaleWindow": {
        "details": "Portrait sale window"
      },
      "sIlv": {
        "details": "sILV2 token address"
      },
      "treasury": {
        "details": "treasury address"
      },
      "vrfFee": {
        "details": "chainlink VRF fee"
      },
      "vrfKeyHash": {
        "details": "chainlink VRF key hash"
      }
    },
    "title": "Minter",
    "version": 1
  },
  "userdoc": {
    "kind": "user",
    "methods": {
      "purchase((uint8,uint64)[],(uint8,uint8,uint64)[],(uint8,uint64)[],bool)": {
        "notice": "Users pay ETH or sILV to request minting"
      }
    },
    "notice": "Allow users to request minting Illuvitars.",
    "version": 1
  },
  "storageLayout": {
    "storage": [
      {
        "astId": 1089,
        "contract": "contracts/protocol/Minter.sol:Minter",
        "label": "_initialized",
        "offset": 0,
        "slot": "0",
        "type": "t_bool"
      },
      {
        "astId": 1092,
        "contract": "contracts/protocol/Minter.sol:Minter",
        "label": "_initializing",
        "offset": 1,
        "slot": "0",
        "type": "t_bool"
      },
      {
        "astId": 4406,
        "contract": "contracts/protocol/Minter.sol:Minter",
        "label": "LINK",
        "offset": 2,
        "slot": "0",
        "type": "t_contract(LinkTokenInterface)190"
      },
      {
        "astId": 4408,
        "contract": "contracts/protocol/Minter.sol:Minter",
        "label": "vrfCoordinator",
        "offset": 0,
        "slot": "1",
        "type": "t_address"
      },
      {
        "astId": 4412,
        "contract": "contracts/protocol/Minter.sol:Minter",
        "label": "nonces",
        "offset": 0,
        "slot": "2",
        "type": "t_mapping(t_bytes32,t_uint256)"
      },
      {
        "astId": 1072,
        "contract": "contracts/protocol/Minter.sol:Minter",
        "label": "__gap",
        "offset": 0,
        "slot": "3",
        "type": "t_array(t_uint256)50_storage"
      },
      {
        "astId": 1239,
        "contract": "contracts/protocol/Minter.sol:Minter",
        "label": "__gap",
        "offset": 0,
        "slot": "53",
        "type": "t_array(t_uint256)50_storage"
      },
      {
        "astId": 3249,
        "contract": "contracts/protocol/Minter.sol:Minter",
        "label": "__gap",
        "offset": 0,
        "slot": "103",
        "type": "t_array(t_uint256)50_storage"
      },
      {
        "astId": 560,
        "contract": "contracts/protocol/Minter.sol:Minter",
        "label": "_owner",
        "offset": 0,
        "slot": "153",
        "type": "t_address"
      },
      {
        "astId": 674,
        "contract": "contracts/protocol/Minter.sol:Minter",
        "label": "__gap",
        "offset": 0,
        "slot": "154",
        "type": "t_array(t_uint256)49_storage"
      },
      {
        "astId": 5179,
        "contract": "contracts/protocol/Minter.sol:Minter",
        "label": "portraitMintInfo",
        "offset": 0,
        "slot": "203",
        "type": "t_mapping(t_enum(BoxType)3998,t_struct(PortraitMintInfo)5315_storage)"
      },
      {
        "astId": 5186,
        "contract": "contracts/protocol/Minter.sol:Minter",
        "label": "accessoryMintInfo",
        "offset": 0,
        "slot": "204",
        "type": "t_mapping(t_enum(BoxType)3998,t_struct(AccessoryMintInfo)5324_storage)"
      },
      {
        "astId": 5192,
        "contract": "contracts/protocol/Minter.sol:Minter",
        "label": "mintRequests",
        "offset": 0,
        "slot": "205",
        "type": "t_mapping(t_bytes32,t_struct(MintRequest)5283_storage)"
      },
      {
        "astId": 5196,
        "contract": "contracts/protocol/Minter.sol:Minter",
        "label": "portraitSaleWindow",
        "offset": 0,
        "slot": "206",
        "type": "t_struct(SaleWindow)5329_storage"
      },
      {
        "astId": 5199,
        "contract": "contracts/protocol/Minter.sol:Minter",
        "label": "sIlv",
        "offset": 0,
        "slot": "207",
        "type": "t_address"
      },
      {
        "astId": 5202,
        "contract": "contracts/protocol/Minter.sol:Minter",
        "label": "treasury",
        "offset": 0,
        "slot": "208",
        "type": "t_address"
      },
      {
        "astId": 5206,
        "contract": "contracts/protocol/Minter.sol:Minter",
        "label": "illuvitarsPriceOracle",
        "offset": 0,
        "slot": "209",
        "type": "t_contract(IlluvitarsPriceOracle)4507"
      },
      {
        "astId": 5209,
        "contract": "contracts/protocol/Minter.sol:Minter",
        "label": "vrfKeyHash",
        "offset": 0,
        "slot": "210",
        "type": "t_bytes32"
      },
      {
        "astId": 5212,
        "contract": "contracts/protocol/Minter.sol:Minter",
        "label": "vrfFee",
        "offset": 0,
        "slot": "211",
        "type": "t_uint256"
      },
      {
        "astId": 5215,
        "contract": "contracts/protocol/Minter.sol:Minter",
        "label": "nextPortraitTokenId",
        "offset": 0,
        "slot": "212",
        "type": "t_uint256"
      },
      {
        "astId": 5218,
        "contract": "contracts/protocol/Minter.sol:Minter",
        "label": "nextAccessoryTokenId",
        "offset": 0,
        "slot": "213",
        "type": "t_uint256"
      }
    ],
    "types": {
      "t_address": {
        "encoding": "inplace",
        "label": "address",
        "numberOfBytes": "20"
      },
      "t_array(t_struct(AccessoryFullRandomMintParams)5258_storage)dyn_storage": {
        "base": "t_struct(AccessoryFullRandomMintParams)5258_storage",
        "encoding": "dynamic_array",
        "label": "struct Minter.AccessoryFullRandomMintParams[]",
        "numberOfBytes": "32"
      },
      "t_array(t_struct(AccessorySemiRandomMintParams)5252_storage)dyn_storage": {
        "base": "t_struct(AccessorySemiRandomMintParams)5252_storage",
        "encoding": "dynamic_array",
        "label": "struct Minter.AccessorySemiRandomMintParams[]",
        "numberOfBytes": "32"
      },
      "t_array(t_struct(PortraitMintParams)5243_storage)dyn_storage": {
        "base": "t_struct(PortraitMintParams)5243_storage",
        "encoding": "dynamic_array",
        "label": "struct Minter.PortraitMintParams[]",
        "numberOfBytes": "32"
      },
      "t_array(t_uint16)6_storage": {
        "base": "t_uint16",
        "encoding": "inplace",
        "label": "uint16[6]",
        "numberOfBytes": "32"
      },
      "t_array(t_uint256)49_storage": {
        "base": "t_uint256",
        "encoding": "inplace",
        "label": "uint256[49]",
        "numberOfBytes": "1568"
      },
      "t_array(t_uint256)50_storage": {
        "base": "t_uint256",
        "encoding": "inplace",
        "label": "uint256[50]",
        "numberOfBytes": "1600"
      },
      "t_bool": {
        "encoding": "inplace",
        "label": "bool",
        "numberOfBytes": "1"
      },
      "t_bytes32": {
        "encoding": "inplace",
        "label": "bytes32",
        "numberOfBytes": "32"
      },
      "t_contract(IlluvitarsPriceOracle)4507": {
        "encoding": "inplace",
        "label": "contract IlluvitarsPriceOracle",
        "numberOfBytes": "20"
      },
      "t_contract(LinkTokenInterface)190": {
        "encoding": "inplace",
        "label": "contract LinkTokenInterface",
        "numberOfBytes": "20"
      },
      "t_enum(AccessoryType)3991": {
        "encoding": "inplace",
        "label": "enum AccessoryType",
        "numberOfBytes": "1"
      },
      "t_enum(BoxType)3998": {
        "encoding": "inplace",
        "label": "enum BoxType",
        "numberOfBytes": "1"
      },
      "t_mapping(t_bytes32,t_struct(MintRequest)5283_storage)": {
        "encoding": "mapping",
        "key": "t_bytes32",
        "label": "mapping(bytes32 => struct Minter.MintRequest)",
        "numberOfBytes": "32",
        "value": "t_struct(MintRequest)5283_storage"
      },
      "t_mapping(t_bytes32,t_uint256)": {
        "encoding": "mapping",
        "key": "t_bytes32",
        "label": "mapping(bytes32 => uint256)",
        "numberOfBytes": "32",
        "value": "t_uint256"
      },
      "t_mapping(t_enum(BoxType)3998,t_struct(AccessoryMintInfo)5324_storage)": {
        "encoding": "mapping",
        "key": "t_enum(BoxType)3998",
        "label": "mapping(enum BoxType => struct Minter.AccessoryMintInfo)",
        "numberOfBytes": "32",
        "value": "t_struct(AccessoryMintInfo)5324_storage"
      },
      "t_mapping(t_enum(BoxType)3998,t_struct(PortraitMintInfo)5315_storage)": {
        "encoding": "mapping",
        "key": "t_enum(BoxType)3998",
        "label": "mapping(enum BoxType => struct Minter.PortraitMintInfo)",
        "numberOfBytes": "32",
        "value": "t_struct(PortraitMintInfo)5315_storage"
      },
      "t_struct(AccessoryFullRandomMintParams)5258_storage": {
        "encoding": "inplace",
        "label": "struct Minter.AccessoryFullRandomMintParams",
        "members": [
          {
            "astId": 5255,
            "contract": "contracts/protocol/Minter.sol:Minter",
            "label": "boxType",
            "offset": 0,
            "slot": "0",
            "type": "t_enum(BoxType)3998"
          },
          {
            "astId": 5257,
            "contract": "contracts/protocol/Minter.sol:Minter",
            "label": "amount",
            "offset": 1,
            "slot": "0",
            "type": "t_uint64"
          }
        ],
        "numberOfBytes": "32"
      },
      "t_struct(AccessoryMintInfo)5324_storage": {
        "encoding": "inplace",
        "label": "struct Minter.AccessoryMintInfo",
        "members": [
          {
            "astId": 5317,
            "contract": "contracts/protocol/Minter.sol:Minter",
            "label": "randomPrice",
            "offset": 0,
            "slot": "0",
            "type": "t_uint256"
          },
          {
            "astId": 5319,
            "contract": "contracts/protocol/Minter.sol:Minter",
            "label": "semiRandomPrice",
            "offset": 0,
            "slot": "1",
            "type": "t_uint256"
          },
          {
            "astId": 5323,
            "contract": "contracts/protocol/Minter.sol:Minter",
            "label": "tierChances",
            "offset": 0,
            "slot": "2",
            "type": "t_array(t_uint16)6_storage"
          }
        ],
        "numberOfBytes": "96"
      },
      "t_struct(AccessorySemiRandomMintParams)5252_storage": {
        "encoding": "inplace",
        "label": "struct Minter.AccessorySemiRandomMintParams",
        "members": [
          {
            "astId": 5246,
            "contract": "contracts/protocol/Minter.sol:Minter",
            "label": "accessoryType",
            "offset": 0,
            "slot": "0",
            "type": "t_enum(AccessoryType)3991"
          },
          {
            "astId": 5249,
            "contract": "contracts/protocol/Minter.sol:Minter",
            "label": "boxType",
            "offset": 1,
            "slot": "0",
            "type": "t_enum(BoxType)3998"
          },
          {
            "astId": 5251,
            "contract": "contracts/protocol/Minter.sol:Minter",
            "label": "amount",
            "offset": 2,
            "slot": "0",
            "type": "t_uint64"
          }
        ],
        "numberOfBytes": "32"
      },
      "t_struct(MintRequest)5283_storage": {
        "encoding": "inplace",
        "label": "struct Minter.MintRequest",
        "members": [
          {
            "astId": 5260,
            "contract": "contracts/protocol/Minter.sol:Minter",
            "label": "requester",
            "offset": 0,
            "slot": "0",
            "type": "t_address"
          },
          {
            "astId": 5264,
            "contract": "contracts/protocol/Minter.sol:Minter",
            "label": "portraitMintParams",
            "offset": 0,
            "slot": "1",
            "type": "t_array(t_struct(PortraitMintParams)5243_storage)dyn_storage"
          },
          {
            "astId": 5266,
            "contract": "contracts/protocol/Minter.sol:Minter",
            "label": "portraitAmount",
            "offset": 0,
            "slot": "2",
            "type": "t_uint256"
          },
          {
            "astId": 5270,
            "contract": "contracts/protocol/Minter.sol:Minter",
            "label": "accessorySemiRandomMintParams",
            "offset": 0,
            "slot": "3",
            "type": "t_array(t_struct(AccessorySemiRandomMintParams)5252_storage)dyn_storage"
          },
          {
            "astId": 5274,
            "contract": "contracts/protocol/Minter.sol:Minter",
            "label": "accessoryFullRandomMintParams",
            "offset": 0,
            "slot": "4",
            "type": "t_array(t_struct(AccessoryFullRandomMintParams)5258_storage)dyn_storage"
          },
          {
            "astId": 5276,
            "contract": "contracts/protocol/Minter.sol:Minter",
            "label": "accessoryAmount",
            "offset": 0,
            "slot": "5",
            "type": "t_uint256"
          },
          {
            "astId": 5278,
            "contract": "contracts/protocol/Minter.sol:Minter",
            "label": "randomNumber",
            "offset": 0,
            "slot": "6",
            "type": "t_uint256"
          },
          {
            "astId": 5280,
            "contract": "contracts/protocol/Minter.sol:Minter",
            "label": "portraitStartTokenId",
            "offset": 0,
            "slot": "7",
            "type": "t_uint256"
          },
          {
            "astId": 5282,
            "contract": "contracts/protocol/Minter.sol:Minter",
            "label": "accessoryStartTokenId",
            "offset": 0,
            "slot": "8",
            "type": "t_uint256"
          }
        ],
        "numberOfBytes": "288"
      },
      "t_struct(PortraitMintInfo)5315_storage": {
        "encoding": "inplace",
        "label": "struct Minter.PortraitMintInfo",
        "members": [
          {
            "astId": 5310,
            "contract": "contracts/protocol/Minter.sol:Minter",
            "label": "price",
            "offset": 0,
            "slot": "0",
            "type": "t_uint256"
          },
          {
            "astId": 5314,
            "contract": "contracts/protocol/Minter.sol:Minter",
            "label": "tierChances",
            "offset": 0,
            "slot": "1",
            "type": "t_array(t_uint16)6_storage"
          }
        ],
        "numberOfBytes": "64"
      },
      "t_struct(PortraitMintParams)5243_storage": {
        "encoding": "inplace",
        "label": "struct Minter.PortraitMintParams",
        "members": [
          {
            "astId": 5240,
            "contract": "contracts/protocol/Minter.sol:Minter",
            "label": "boxType",
            "offset": 0,
            "slot": "0",
            "type": "t_enum(BoxType)3998"
          },
          {
            "astId": 5242,
            "contract": "contracts/protocol/Minter.sol:Minter",
            "label": "amount",
            "offset": 1,
            "slot": "0",
            "type": "t_uint64"
          }
        ],
        "numberOfBytes": "32"
      },
      "t_struct(SaleWindow)5329_storage": {
        "encoding": "inplace",
        "label": "struct Minter.SaleWindow",
        "members": [
          {
            "astId": 5326,
            "contract": "contracts/protocol/Minter.sol:Minter",
            "label": "start",
            "offset": 0,
            "slot": "0",
            "type": "t_uint64"
          },
          {
            "astId": 5328,
            "contract": "contracts/protocol/Minter.sol:Minter",
            "label": "end",
            "offset": 8,
            "slot": "0",
            "type": "t_uint64"
          }
        ],
        "numberOfBytes": "32"
      },
      "t_uint16": {
        "encoding": "inplace",
        "label": "uint16",
        "numberOfBytes": "2"
      },
      "t_uint256": {
        "encoding": "inplace",
        "label": "uint256",
        "numberOfBytes": "32"
      },
      "t_uint64": {
        "encoding": "inplace",
        "label": "uint64",
        "numberOfBytes": "8"
      }
    }
  }
}