{
  "address": "0x9dD7a7B0a0A347145Fbd1659E65ffBFcE17698Ac",
  "abi": [
    {
      "anonymous": false,
      "inputs": [
        {
          "indexed": false,
          "internalType": "address",
          "name": "previousAdmin",
          "type": "address"
        },
        {
          "indexed": false,
          "internalType": "address",
          "name": "newAdmin",
          "type": "address"
        }
      ],
      "name": "AdminChanged",
      "type": "event"
    },
    {
      "anonymous": false,
      "inputs": [
        {
          "indexed": true,
          "internalType": "address",
          "name": "beacon",
          "type": "address"
        }
      ],
      "name": "BeaconUpgraded",
      "type": "event"
    },
    {
      "anonymous": false,
      "inputs": [
        {
          "indexed": true,
          "internalType": "address",
          "name": "requester",
          "type": "address"
        },
        {
          "indexed": false,
          "internalType": "uint256",
          "name": "idx",
          "type": "uint256"
        }
      ],
      "name": "FreeMintRequested",
      "type": "event"
    },
    {
      "anonymous": false,
      "inputs": [
        {
          "indexed": true,
          "internalType": "address",
          "name": "requester",
          "type": "address"
        },
        {
          "indexed": false,
          "internalType": "bytes32",
          "name": "requestId",
          "type": "bytes32"
        }
      ],
      "name": "MintRequested",
      "type": "event"
    },
    {
      "anonymous": false,
      "inputs": [
        {
          "indexed": true,
          "internalType": "address",
          "name": "previousOwner",
          "type": "address"
        },
        {
          "indexed": true,
          "internalType": "address",
          "name": "newOwner",
          "type": "address"
        }
      ],
      "name": "OwnershipTransferred",
      "type": "event"
    },
    {
      "anonymous": false,
      "inputs": [
        {
          "indexed": true,
          "internalType": "bytes32",
          "name": "requestId",
          "type": "bytes32"
        },
        {
          "indexed": false,
          "internalType": "uint256",
          "name": "randomNumber",
          "type": "uint256"
        }
      ],
      "name": "RequestFulfilled",
      "type": "event"
    },
    {
      "anonymous": false,
      "inputs": [
        {
          "indexed": true,
          "internalType": "address",
          "name": "treasury",
          "type": "address"
        }
      ],
      "name": "TreasurySet",
      "type": "event"
    },
    {
      "anonymous": false,
      "inputs": [
        {
          "indexed": true,
          "internalType": "address",
          "name": "implementation",
          "type": "address"
        }
      ],
      "name": "Upgraded",
      "type": "event"
    },
    {
      "inputs": [
        {
          "internalType": "enum BoxType",
          "name": "",
          "type": "uint8"
        }
      ],
      "name": "accessoryMintInfo",
      "outputs": [
        {
          "internalType": "uint256",
          "name": "randomPrice",
          "type": "uint256"
        },
        {
          "internalType": "uint256",
          "name": "semiRandomPrice",
          "type": "uint256"
        }
      ],
      "stateMutability": "view",
      "type": "function"
    },
    {
      "inputs": [
        {
          "internalType": "uint8",
          "name": "",
          "type": "uint8"
        },
        {
          "internalType": "uint256",
          "name": "",
          "type": "uint256"
        }
      ],
      "name": "backgroundLines",
      "outputs": [
        {
          "internalType": "enum BackgroundLine",
          "name": "",
          "type": "uint8"
        }
      ],
      "stateMutability": "view",
      "type": "function"
    },
    {
      "inputs": [
        {
          "internalType": "uint8",
          "name": "",
          "type": "uint8"
        },
        {
          "internalType": "enum BackgroundLine",
          "name": "",
          "type": "uint8"
        },
        {
          "internalType": "uint256",
          "name": "",
          "type": "uint256"
        }
      ],
      "name": "backgroundStages",
      "outputs": [
        {
          "internalType": "uint8",
          "name": "",
          "type": "uint8"
        }
      ],
      "stateMutability": "view",
      "type": "function"
    },
    {
      "inputs": [
        {
          "internalType": "uint8",
          "name": "",
          "type": "uint8"
        },
        {
          "internalType": "enum BoxType",
          "name": "",
          "type": "uint8"
        },
        {
          "internalType": "uint256",
          "name": "",
          "type": "uint256"
        }
      ],
      "name": "backgroundTierChances",
      "outputs": [
        {
          "internalType": "uint16",
          "name": "",
          "type": "uint16"
        }
      ],
      "stateMutability": "view",
      "type": "function"
    },
    {
      "inputs": [
        {
          "internalType": "uint8",
          "name": "",
          "type": "uint8"
        },
        {
          "internalType": "enum BackgroundLine",
          "name": "",
          "type": "uint8"
        },
        {
          "internalType": "uint8",
          "name": "",
          "type": "uint8"
        }
      ],
      "name": "backgroundVariations",
      "outputs": [
        {
          "internalType": "uint8",
          "name": "",
          "type": "uint8"
        }
      ],
      "stateMutability": "view",
      "type": "function"
    },
    {
      "inputs": [],
      "name": "freeAccessoryLimitPerTx",
      "outputs": [
        {
          "internalType": "uint256",
          "name": "",
          "type": "uint256"
        }
      ],
      "stateMutability": "view",
      "type": "function"
    },
    {
      "inputs": [
        {
          "components": [
            {
              "internalType": "enum BoxType",
              "name": "boxType",
              "type": "uint8"
            },
            {
              "internalType": "uint64",
              "name": "amount",
              "type": "uint64"
            }
          ],
          "internalType": "struct Minter.PortraitMintParams[]",
          "name": "portraitMintParams",
          "type": "tuple[]"
        },
        {
          "components": [
            {
              "internalType": "enum AccessoryType",
              "name": "accessoryType",
              "type": "uint8"
            },
            {
              "internalType": "enum BoxType",
              "name": "boxType",
              "type": "uint8"
            },
            {
              "internalType": "uint64",
              "name": "amount",
              "type": "uint64"
            }
          ],
          "internalType": "struct Minter.AccessorySemiRandomMintParams[]",
          "name": "accessorySemiRandomMintParams",
          "type": "tuple[]"
        },
        {
          "components": [
            {
              "internalType": "enum BoxType",
              "name": "boxType",
              "type": "uint8"
            },
            {
              "internalType": "uint64",
              "name": "amount",
              "type": "uint64"
            }
          ],
          "internalType": "struct Minter.AccessoryFullRandomMintParams[]",
          "name": "accessoryFullRandomMintParams",
          "type": "tuple[]"
        }
      ],
      "name": "freeMint",
      "outputs": [],
      "stateMutability": "nonpayable",
      "type": "function"
    },
    {
      "inputs": [],
      "name": "freePortraitLimitPerTx",
      "outputs": [
        {
          "internalType": "uint256",
          "name": "",
          "type": "uint256"
        }
      ],
      "stateMutability": "view",
      "type": "function"
    },
    {
      "inputs": [],
      "name": "freeRequestCount",
      "outputs": [
        {
          "internalType": "uint256",
          "name": "",
          "type": "uint256"
        }
      ],
      "stateMutability": "view",
      "type": "function"
    },
    {
      "inputs": [
        {
          "internalType": "uint256",
          "name": "",
          "type": "uint256"
        }
      ],
      "name": "freeRequests",
      "outputs": [
        {
          "internalType": "address",
          "name": "requester",
          "type": "address"
        },
        {
          "internalType": "uint256",
          "name": "portraitAmount",
          "type": "uint256"
        },
        {
          "internalType": "uint256",
          "name": "accessoryAmount",
          "type": "uint256"
        },
        {
          "internalType": "uint256",
          "name": "randomNumber",
          "type": "uint256"
        },
        {
          "internalType": "uint256",
          "name": "portraitStartTokenId",
          "type": "uint256"
        },
        {
          "internalType": "uint256",
          "name": "accessoryStartTokenId",
          "type": "uint256"
        }
      ],
      "stateMutability": "view",
      "type": "function"
    },
    {
      "inputs": [
        {
          "internalType": "uint256",
          "name": "idx",
          "type": "uint256"
        }
      ],
      "name": "getFreeMintResult",
      "outputs": [
        {
          "internalType": "address",
          "name": "requester",
          "type": "address"
        },
        {
          "internalType": "uint256",
          "name": "seed",
          "type": "uint256"
        },
        {
          "components": [
            {
              "internalType": "uint256",
              "name": "tokenId",
              "type": "uint256"
            },
            {
              "internalType": "enum BoxType",
              "name": "boxType",
              "type": "uint8"
            },
            {
              "internalType": "uint8",
              "name": "tier",
              "type": "uint8"
            },
            {
              "internalType": "uint8",
              "name": "illuvial",
              "type": "uint8"
            },
            {
              "internalType": "uint8",
              "name": "backgroundTier",
              "type": "uint8"
            },
            {
              "internalType": "enum BackgroundLine",
              "name": "backgroundLine",
              "type": "uint8"
            },
            {
              "internalType": "uint8",
              "name": "backgroundStage",
              "type": "uint8"
            },
            {
              "internalType": "uint8",
              "name": "backgroundVariation",
              "type": "uint8"
            },
            {
              "internalType": "enum ExpressionType",
              "name": "expression",
              "type": "uint8"
            },
            {
              "internalType": "enum FinishType",
              "name": "finish",
              "type": "uint8"
            }
          ],
          "internalType": "struct Minter.PortraitInfo[]",
          "name": "portraits",
          "type": "tuple[]"
        },
        {
          "components": [
            {
              "internalType": "uint256",
              "name": "tokenId",
              "type": "uint256"
            },
            {
              "internalType": "enum BoxType",
              "name": "boxType",
              "type": "uint8"
            },
            {
              "internalType": "enum AccessoryType",
              "name": "accessoryType",
              "type": "uint8"
            },
            {
              "internalType": "uint8",
              "name": "tier",
              "type": "uint8"
            },
            {
              "internalType": "uint8",
              "name": "stage",
              "type": "uint8"
            }
          ],
          "internalType": "struct Minter.AccessoryInfo[]",
          "name": "accessories",
          "type": "tuple[]"
        }
      ],
      "stateMutability": "view",
      "type": "function"
    },
    {
      "inputs": [
        {
          "internalType": "bytes32",
          "name": "requestId",
          "type": "bytes32"
        }
      ],
      "name": "getPaidMintResult",
      "outputs": [
        {
          "internalType": "address",
          "name": "requester",
          "type": "address"
        },
        {
          "internalType": "uint256",
          "name": "seed",
          "type": "uint256"
        },
        {
          "components": [
            {
              "internalType": "uint256",
              "name": "tokenId",
              "type": "uint256"
            },
            {
              "internalType": "enum BoxType",
              "name": "boxType",
              "type": "uint8"
            },
            {
              "internalType": "uint8",
              "name": "tier",
              "type": "uint8"
            },
            {
              "internalType": "uint8",
              "name": "illuvial",
              "type": "uint8"
            },
            {
              "internalType": "uint8",
              "name": "backgroundTier",
              "type": "uint8"
            },
            {
              "internalType": "enum BackgroundLine",
              "name": "backgroundLine",
              "type": "uint8"
            },
            {
              "internalType": "uint8",
              "name": "backgroundStage",
              "type": "uint8"
            },
            {
              "internalType": "uint8",
              "name": "backgroundVariation",
              "type": "uint8"
            },
            {
              "internalType": "enum ExpressionType",
              "name": "expression",
              "type": "uint8"
            },
            {
              "internalType": "enum FinishType",
              "name": "finish",
              "type": "uint8"
            }
          ],
          "internalType": "struct Minter.PortraitInfo[]",
          "name": "portraits",
          "type": "tuple[]"
        },
        {
          "components": [
            {
              "internalType": "uint256",
              "name": "tokenId",
              "type": "uint256"
            },
            {
              "internalType": "enum BoxType",
              "name": "boxType",
              "type": "uint8"
            },
            {
              "internalType": "enum AccessoryType",
              "name": "accessoryType",
              "type": "uint8"
            },
            {
              "internalType": "uint8",
              "name": "tier",
              "type": "uint8"
            },
            {
              "internalType": "uint8",
              "name": "stage",
              "type": "uint8"
            }
          ],
          "internalType": "struct Minter.AccessoryInfo[]",
          "name": "accessories",
          "type": "tuple[]"
        }
      ],
      "stateMutability": "view",
      "type": "function"
    },
    {
      "inputs": [],
      "name": "illuvitarsPriceOracle",
      "outputs": [
        {
          "internalType": "contract IlluvitarsPriceOracle",
          "name": "",
          "type": "address"
        }
      ],
      "stateMutability": "view",
      "type": "function"
    },
    {
      "inputs": [
        {
          "internalType": "address",
          "name": "_vrfCoordinator",
          "type": "address"
        },
        {
          "internalType": "address",
          "name": "_linkToken",
          "type": "address"
        },
        {
          "internalType": "bytes32",
          "name": "_vrfKeyhash",
          "type": "bytes32"
        },
        {
          "internalType": "uint256",
          "name": "_vrfFee",
          "type": "uint256"
        },
        {
          "internalType": "address",
          "name": "_treasury",
          "type": "address"
        },
        {
          "internalType": "address",
          "name": "_sIlv",
          "type": "address"
        },
        {
          "internalType": "address",
          "name": "_illuvitarsPriceOracle",
          "type": "address"
        }
      ],
      "name": "initialize",
      "outputs": [],
      "stateMutability": "nonpayable",
      "type": "function"
    },
    {
      "inputs": [
        {
          "internalType": "bytes32",
          "name": "",
          "type": "bytes32"
        }
      ],
      "name": "mintRequests",
      "outputs": [
        {
          "internalType": "address",
          "name": "requester",
          "type": "address"
        },
        {
          "internalType": "uint256",
          "name": "portraitAmount",
          "type": "uint256"
        },
        {
          "internalType": "uint256",
          "name": "accessoryAmount",
          "type": "uint256"
        },
        {
          "internalType": "uint256",
          "name": "randomNumber",
          "type": "uint256"
        },
        {
          "internalType": "uint256",
          "name": "portraitStartTokenId",
          "type": "uint256"
        },
        {
          "internalType": "uint256",
          "name": "accessoryStartTokenId",
          "type": "uint256"
        }
      ],
      "stateMutability": "view",
      "type": "function"
    },
    {
      "inputs": [],
      "name": "owner",
      "outputs": [
        {
          "internalType": "address",
          "name": "",
          "type": "address"
        }
      ],
      "stateMutability": "view",
      "type": "function"
    },
    {
      "inputs": [
        {
          "components": [
            {
              "internalType": "enum BoxType",
              "name": "boxType",
              "type": "uint8"
            },
            {
              "internalType": "uint64",
              "name": "amount",
              "type": "uint64"
            }
          ],
          "internalType": "struct Minter.PortraitMintParams[]",
          "name": "portraitMintParams",
          "type": "tuple[]"
        },
        {
          "components": [
            {
              "internalType": "enum AccessoryType",
              "name": "accessoryType",
              "type": "uint8"
            },
            {
              "internalType": "enum BoxType",
              "name": "boxType",
              "type": "uint8"
            },
            {
              "internalType": "uint64",
              "name": "amount",
              "type": "uint64"
            }
          ],
          "internalType": "struct Minter.AccessorySemiRandomMintParams[]",
          "name": "accessorySemiRandomMintParams",
          "type": "tuple[]"
        },
        {
          "components": [
            {
              "internalType": "enum BoxType",
              "name": "boxType",
              "type": "uint8"
            },
            {
              "internalType": "uint64",
              "name": "amount",
              "type": "uint64"
            }
          ],
          "internalType": "struct Minter.AccessoryFullRandomMintParams[]",
          "name": "accessoryFullRandomMintParams",
          "type": "tuple[]"
        },
        {
          "internalType": "bool",
          "name": "useSIlv",
          "type": "bool"
        }
      ],
      "name": "paidMint",
      "outputs": [],
      "stateMutability": "payable",
      "type": "function"
    },
    {
      "inputs": [
        {
          "internalType": "enum BoxType",
          "name": "",
          "type": "uint8"
        }
      ],
      "name": "portraitMintInfo",
      "outputs": [
        {
          "internalType": "uint256",
          "name": "price",
          "type": "uint256"
        },
        {
          "internalType": "uint16",
          "name": "holoProbability",
          "type": "uint16"
        }
      ],
      "stateMutability": "view",
      "type": "function"
    },
    {
      "inputs": [],
      "name": "portraitSaleWindow",
      "outputs": [
        {
          "internalType": "uint64",
          "name": "start",
          "type": "uint64"
        },
        {
          "internalType": "uint64",
          "name": "end",
          "type": "uint64"
        }
      ],
      "stateMutability": "view",
      "type": "function"
    },
    {
      "inputs": [
        {
          "internalType": "bytes32",
          "name": "requestId",
          "type": "bytes32"
        },
        {
          "internalType": "uint256",
          "name": "randomness",
          "type": "uint256"
        }
      ],
      "name": "rawFulfillRandomness",
      "outputs": [],
      "stateMutability": "nonpayable",
      "type": "function"
    },
    {
      "inputs": [],
      "name": "renounceOwnership",
      "outputs": [],
      "stateMutability": "nonpayable",
      "type": "function"
    },
    {
      "inputs": [],
      "name": "sIlv",
      "outputs": [
        {
          "internalType": "address",
          "name": "",
          "type": "address"
        }
      ],
      "stateMutability": "view",
      "type": "function"
    },
    {
      "inputs": [
        {
          "internalType": "enum BoxType",
          "name": "boxType",
          "type": "uint8"
        },
        {
          "components": [
            {
              "internalType": "uint256",
              "name": "randomPrice",
              "type": "uint256"
            },
            {
              "internalType": "uint256",
              "name": "semiRandomPrice",
              "type": "uint256"
            },
            {
              "internalType": "uint16[4]",
              "name": "tierChances",
              "type": "uint16[4]"
            }
          ],
          "internalType": "struct Minter.AccessoryMintInfo",
          "name": "mintInfo",
          "type": "tuple"
        }
      ],
      "name": "setAccessoryMintInfo",
      "outputs": [],
      "stateMutability": "nonpayable",
      "type": "function"
    },
    {
      "inputs": [
        {
          "internalType": "uint256",
          "name": "_freePortraitLimitPerTx",
          "type": "uint256"
        },
        {
          "internalType": "uint256",
          "name": "_freeAccessoryLimitPerTx",
          "type": "uint256"
        }
      ],
      "name": "setFreeMintLimitPerTx",
      "outputs": [],
      "stateMutability": "nonpayable",
      "type": "function"
    },
    {
      "inputs": [
        {
          "internalType": "enum BoxType",
          "name": "boxType",
          "type": "uint8"
        },
        {
          "components": [
            {
              "internalType": "uint256",
              "name": "price",
              "type": "uint256"
            },
            {
              "internalType": "uint16[4]",
              "name": "tierChances",
              "type": "uint16[4]"
            },
            {
              "internalType": "uint16",
              "name": "holoProbability",
              "type": "uint16"
            }
          ],
          "internalType": "struct Minter.PortraitMintInfo",
          "name": "mintInfo",
          "type": "tuple"
        }
      ],
      "name": "setPortraitMintInfo",
      "outputs": [],
      "stateMutability": "nonpayable",
      "type": "function"
    },
    {
      "inputs": [
        {
          "components": [
            {
              "internalType": "uint64",
              "name": "start",
              "type": "uint64"
            },
            {
              "internalType": "uint64",
              "name": "end",
              "type": "uint64"
            }
          ],
          "internalType": "struct Minter.SaleWindow",
          "name": "_saleWindow",
          "type": "tuple"
        }
      ],
      "name": "setPortraitSaleWindow",
      "outputs": [],
      "stateMutability": "nonpayable",
      "type": "function"
    },
    {
      "inputs": [
        {
          "internalType": "address",
          "name": "treasury_",
          "type": "address"
        }
      ],
      "name": "setTreasury",
      "outputs": [],
      "stateMutability": "nonpayable",
      "type": "function"
    },
    {
      "inputs": [
        {
          "internalType": "address",
          "name": "newOwner",
          "type": "address"
        }
      ],
      "name": "transferOwnership",
      "outputs": [],
      "stateMutability": "nonpayable",
      "type": "function"
    },
    {
      "inputs": [],
      "name": "treasury",
      "outputs": [
        {
          "internalType": "address",
          "name": "",
          "type": "address"
        }
      ],
      "stateMutability": "view",
      "type": "function"
    },
    {
      "inputs": [
        {
          "internalType": "address",
          "name": "newImplementation",
          "type": "address"
        }
      ],
      "name": "upgradeTo",
      "outputs": [],
      "stateMutability": "nonpayable",
      "type": "function"
    },
    {
      "inputs": [
        {
          "internalType": "address",
          "name": "newImplementation",
          "type": "address"
        },
        {
          "internalType": "bytes",
          "name": "data",
          "type": "bytes"
        }
      ],
      "name": "upgradeToAndCall",
      "outputs": [],
      "stateMutability": "payable",
      "type": "function"
    },
    {
      "inputs": [],
      "name": "withdraw",
      "outputs": [],
      "stateMutability": "nonpayable",
      "type": "function"
    }
  ],
  "transactionHash": "0x65f3eb6909ec67860324ca5697a5c21dba511bcac39b0a2781d230ddffdccba1",
  "args": [],
  "numDeployments": 1,
  "solcInputHash": "af2e3f9f9e3a2de01520c20a08bfc1b0",
  "bytecode": "0x60a06040523060805234801561001457600080fd5b50608051615f936200004660003960008181610893015281816108d301528181610abf0152610aff0152615f936000f3fe6080604052600436106101e35760003560e01c80637a10deb411610102578063c556f06211610095578063dcce80e411610064578063dcce80e4146106c4578063ebfedf7a146106e4578063f0f4426014610717578063f2fde38b1461073757600080fd5b8063c556f0621461064e578063c606be1b1461066e578063cf1c6b0414610681578063d4298534146106ae57600080fd5b806394985ddd116100d157806394985ddd1461059e5780639bc03636146105be578063ade0d700146105de578063bcd210291461062e57600080fd5b80637a10deb414610501578063897c0f33146105215780638da5cb5b146105375780638fd7adb51461055557600080fd5b8063414e221e1161017a57806361d027b31161014957806361d027b31461048c5780636250b2c5146104ac578063715018a6146104cc578063717cbc85146104e157600080fd5b8063414e221e146103be5780634f1ef286146104115780635915ab3b146104245780635cd371741461045457600080fd5b8063198244c6116101b6578063198244c61461030b57806323dfec4d1461032f5780633659cfe6146103895780633ccfd60b146103a957600080fd5b80630284424f146101e857806302f805901461020a5780630d39e46d1461025a578063194150e9146102eb575b600080fd5b3480156101f457600080fd5b50610208610203366004615177565b610757565b005b34801561021657600080fd5b5060d754610235906001600160401b0380821691600160401b90041682565b604080516001600160401b039384168152929091166020830152015b60405180910390f35b34801561026657600080fd5b506102b4610275366004615199565b60d4602052600090815260409020805460028201546005830154600684015460078501546008909501546001600160a01b039094169492939192909186565b604080516001600160a01b0390971687526020870195909552938501929092526060840152608083015260a082015260c001610251565b3480156102f757600080fd5b506102086103063660046152ba565b610795565b34801561031757600080fd5b5061032160df5481565b604051908152602001610251565b34801561033b57600080fd5b506102b461034a366004615199565b60d5602052600090815260409020805460028201546005830154600684015460078501546008909501546001600160a01b039094169492939192909186565b34801561039557600080fd5b506102086103a4366004615339565b610889565b3480156103b557600080fd5b50610208610951565b3480156103ca57600080fd5b506103ff6103d9366004615374565b60d260209081526000938452604080852082529284528284209052825290205460ff1681565b60405160ff9091168152602001610251565b61020861041f3660046153b7565b610ab5565b34801561043057600080fd5b5061044461043f366004615199565b610b6a565b604051610251949392919061553d565b34801561046057600080fd5b5060da54610474906001600160a01b031681565b6040516001600160a01b039091168152602001610251565b34801561049857600080fd5b5060d954610474906001600160a01b031681565b3480156104b857600080fd5b506102086104c7366004615649565b610eb6565b3480156104d857600080fd5b50610208610f64565b3480156104ed57600080fd5b506102086104fc3660046156e9565b610f9a565b34801561050d57600080fd5b506103ff61051c366004615782565b611066565b34801561052d57600080fd5b5061032160d65481565b34801561054357600080fd5b506099546001600160a01b0316610474565b34801561056157600080fd5b506105896105703660046157be565b60cc602052600090815260409020805460019091015482565b60408051928352602083019190915201610251565b3480156105aa57600080fd5b506102086105b9366004615177565b6110b6565b3480156105ca57600080fd5b506104446105d9366004615199565b61111a565b3480156105ea57600080fd5b506106166105f93660046157be565b60cb602052600090815260409020805460029091015461ffff1682565b6040805192835261ffff909116602083015201610251565b34801561063a57600080fd5b506102086106493660046157d9565b6113f8565b34801561065a57600080fd5b5060d854610474906001600160a01b031681565b61020861067c366004615846565b6114ff565b34801561068d57600080fd5b506106a161069c3660046158f3565b611680565b604051610251919061591d565b3480156106ba57600080fd5b5061032160e05481565b3480156106d057600080fd5b506102086106df36600461592b565b6116c3565b3480156106f057600080fd5b506107046106ff3660046159a3565b611827565b60405161ffff9091168152602001610251565b34801561072357600080fd5b50610208610732366004615339565b611871565b34801561074357600080fd5b50610208610752366004615339565b61193b565b6099546001600160a01b0316331461078a5760405162461bcd60e51b8152600401610781906159cf565b60405180910390fd5b60df9190915560e055565b6099546001600160a01b031633146107bf5760405162461bcd60e51b8152600401610781906159cf565b60008260058111156107d3576107d361545c565b0361081a5760405162461bcd60e51b815260206004820152601760248201527643616e6e6f7420736574207669727475616c20696e666f60481b6044820152606401610781565b61082781604001516119d3565b8060cc600084600581111561083e5761083e61545c565b600581111561084f5761084f61545c565b81526020808201929092526040908101600020835181559183015160018301558201516108829060028301906004614ea7565b5050505050565b6001600160a01b037f00000000000000000000000000000000000000000000000000000000000000001630036108d15760405162461bcd60e51b815260040161078190615a04565b7f00000000000000000000000000000000000000000000000000000000000000006001600160a01b0316610903611af3565b6001600160a01b0316146109295760405162461bcd60e51b815260040161078190615a50565b61093281611b21565b6040805160008082526020820190925261094e91839190611b4b565b50565b6099546001600160a01b0316331461097b5760405162461bcd60e51b8152600401610781906159cf565b478015610a1f5760d9546040516000916001600160a01b03169083908381818185875af1925050503d80600081146109cf576040519150601f19603f3d011682016040523d82523d6000602084013e6109d4565b606091505b5050905080610a1d5760405162461bcd60e51b8152602060048201526015602482015274115d1a195c881dda5d1a191c985dc819985a5b1959605a1b6044820152606401610781565b505b60d8546040516370a0823160e01b81523060048201526000916001600160a01b0316906370a0823190602401602060405180830381865afa158015610a68573d6000803e3d6000fd5b505050506040513d601f19601f82011682018060405250810190610a8c9190615a9c565b90508015610ab15760d95460d854610ab1916001600160a01b03918216911683611c8f565b5050565b6001600160a01b037f0000000000000000000000000000000000000000000000000000000000000000163003610afd5760405162461bcd60e51b815260040161078190615a04565b7f00000000000000000000000000000000000000000000000000000000000000006001600160a01b0316610b2f611af3565b6001600160a01b031614610b555760405162461bcd60e51b815260040161078190615a50565b610b5e82611b21565b610ab182826001611b4b565b600081815260d46020526040812060060154819060609081908303610bd15760405162461bcd60e51b815260206004820152601a60248201527f4e6f2072616e646f6d206e756d6265722067656e6572617465640000000000006044820152606401610781565b600085815260d46020908152604080832081516101208101835281546001600160a01b031681526001820180548451818702810187019095528085529194929385840193909290879084015b82821015610c8c57600084815260209020604080518082019091529083018054829060ff166005811115610c5357610c5361545c565b6005811115610c6457610c6461545c565b8152905461010090046001600160401b03166020918201529082526001929092019101610c1d565b5050505081526020016002820154815260200160038201805480602002602001604051908101604052809291908181526020016000905b82821015610d685760008481526020902060408051606081019091529083018054829060ff166004811115610cfa57610cfa61545c565b6004811115610d0b57610d0b61545c565b81528154602090910190610100900460ff166005811115610d2e57610d2e61545c565b6005811115610d3f57610d3f61545c565b815290546001600160401b03620100009091041660209182015290825260019092019101610cc3565b50505050815260200160048201805480602002602001604051908101604052809291908181526020016000905b82821015610e0457600084815260209020604080518082019091529083018054829060ff166005811115610dcb57610dcb61545c565b6005811115610ddc57610ddc61545c565b8152905461010090046001600160401b03166020918201529082526001929092019101610d95565b5050505081526020016005820154815260200160068201548152602001600782015481526020016008820154815250509050806000015194508060c00151935060008490508160400151600014610e7357610e6d81836020015184604001518560e00151611cf2565b90945090505b60008260800151511180610e8c57506000826060015151115b15610ead57610eaa8183608001518460600151856101000151611e07565b92505b50509193509193565b6099546001600160a01b03163314610ee05760405162461bcd60e51b8152600401610781906159cf565b610ef06040820160208301615aca565b6001600160401b0316610f066020830183615aca565b6001600160401b031610610f525760405162461bcd60e51b8152602060048201526013602482015272496e76616c69642073616c652077696e646f7760681b6044820152606401610781565b8060d7610f5f8282615ae7565b505050565b6099546001600160a01b03163314610f8e5760405162461bcd60e51b8152600401610781906159cf565b610f9860006120b1565b565b60d654600090815260d56020526040902080546001600160a01b03191633178155610fc88188886001612103565b50610fd8818686868660016123a2565b5060d65460405190815233907f155fdbd006ccec04cd2d9e5c9d9d1034cb46acbd4e83a5b2b8762f31835e8f3f9060200160405180910390a2600160d660008282546110249190615b69565b909155505060d654604080516020810192909252429082015260600160408051601f198184030181529190528051602090910120600690910155505050505050565b60d1602052826000526040600020602052816000526040600020818154811061108e57600080fd5b906000526020600020906020918282040191900692509250509054906101000a900460ff1681565b6001546001600160a01b031633146111105760405162461bcd60e51b815260206004820152601f60248201527f4f6e6c7920565246436f6f7264696e61746f722063616e2066756c66696c6c006044820152606401610781565b610ab18282612784565b600081815260d56020908152604080832081516101208101835281546001600160a01b0316815260018201805484518187028101870190955280855286956060958695889594909385840193879084015b828210156111da57600084815260209020604080518082019091529083018054829060ff1660058111156111a1576111a161545c565b60058111156111b2576111b261545c565b8152905461010090046001600160401b0316602091820152908252600192909201910161116b565b5050505081526020016002820154815260200160038201805480602002602001604051908101604052809291908181526020016000905b828210156112b65760008481526020902060408051606081019091529083018054829060ff1660048111156112485761124861545c565b60048111156112595761125961545c565b81528154602090910190610100900460ff16600581111561127c5761127c61545c565b600581111561128d5761128d61545c565b815290546001600160401b03620100009091041660209182015290825260019092019101611211565b50505050815260200160048201805480602002602001604051908101604052809291908181526020016000905b8282101561135257600084815260209020604080518082019091529083018054829060ff1660058111156113195761131961545c565b600581111561132a5761132a61545c565b8152905461010090046001600160401b031660209182015290825260019290920191016112e3565b505050908252506005820154602082015260068201546040820152600782015460608201526008909101546080909101528051955090506001600160a01b0385166113cc5760405162461bcd60e51b815260206004820152600a602482015269139bc81c995c5d595cdd60b21b6044820152606401610781565b60c08101516040820151909450849015610e7357610e6d81836020015184604001518560e00151611cf2565b6099546001600160a01b031633146114225760405162461bcd60e51b8152600401610781906159cf565b60008260058111156114365761143661545c565b0361147d5760405162461bcd60e51b815260206004820152601760248201527643616e6e6f7420736574207669727475616c20696e666f60481b6044820152606401610781565b61148a81602001516119d3565b8060cb60008460058111156114a1576114a161545c565b60058111156114b2576114b261545c565b815260208082019290925260400160002082518155908201516114db9060018301906004614ea7565b50604091909101516002909101805461ffff191661ffff9092169190911790555050565b60008061151060db5460dc5461288e565b600081815260d4602052604090208054919250906001600160a01b03161561156e5760405162461bcd60e51b8152602060048201526011602482015270105b1c9958591e481c995c5d595cdd1959607a1b6044820152606401610781565b80546001600160a01b0319163317815561158b818b8b6000612103565b925061159c818989898960006123a2565b6115a69084615b69565b9250821561163f57831561163f5760da54604051634da8552760e11b8152600481018590526000916001600160a01b031690639b50aa4e90602401602060405180830381865afa1580156115fe573d6000803e3d6000fd5b505050506040513d601f19601f820116820180604052508101906116229190615a9c565b60d85490915061163d906001600160a01b03163330846129e3565b505b60405182815233907feaf8d3f69fe5b0f881b23e1b13477c52d8748166f18f9b8665365ef0879c753d9060200160405180910390a250505050505050505050565b60d0602052816000526040600020818154811061169c57600080fd5b9060005260206000209060209182820401919006915091509054906101000a900460ff1681565b600054610100900460ff16806116dc575060005460ff16155b6116f85760405162461bcd60e51b815260040161078190615b81565b600054610100900460ff1615801561171a576000805461ffff19166101011790555b6001600160a01b0384161580159061173a57506001600160a01b03821615155b801561174e57506001600160a01b03831615155b6117905760405162461bcd60e51b815260206004820152601360248201527263616e6e6f74207a65726f206164647265737360681b6044820152606401610781565b611798612a21565b6117a28888612a9c565b60db86905560dc85905560d880546001600160a01b038086166001600160a01b03199283161790925560d9805487841690831617905560da805492851692909116919091179055600160dd81905560de556117fb612b4a565b611803612bbb565b61180b612bea565b801561181d576000805461ff00191690555b5050505050505050565b60cf602052826000526040600020602052816000526040600020816004811061184f57600080fd5b6010918282040191900660020292509250509054906101000a900461ffff1681565b6099546001600160a01b0316331461189b5760405162461bcd60e51b8152600401610781906159cf565b6001600160a01b0381166118f15760405162461bcd60e51b815260206004820152601c60248201527f547265617375727920616464726573732063616e6e6f74207a65726f000000006044820152606401610781565b60d980546001600160a01b0319166001600160a01b0383169081179091556040517f3c864541ef71378c6229510ed90f376565ee42d9c5e0904a984a9e863e6db44f90600090a250565b6099546001600160a01b031633146119655760405162461bcd60e51b8152600401610781906159cf565b6001600160a01b0381166119ca5760405162461bcd60e51b815260206004820152602660248201527f4f776e61626c653a206e6577206f776e657220697320746865207a65726f206160448201526564647265737360d01b6064820152608401610781565b61094e816120b1565b60005b6119e260016004615bcf565b60ff16811015611a8257816119f8826001615b69565b60048110611a0857611a08615bf2565b602002015161ffff16828260048110611a2357611a23615bf2565b602002015161ffff161115611a705760405162461bcd60e51b8152602060048201526013602482015272496e76616c69642074696572206368616e636560681b6044820152606401610781565b611a7b600182615b69565b90506119d6565b5061271081611a9360016004615bcf565b60ff1660048110611aa657611aa6615bf2565b602002015161ffff16111561094e5760405162461bcd60e51b8152602060048201526013602482015272496e76616c69642074696572206368616e636560681b6044820152606401610781565b7f360894a13ba1a3210667c828492db98dca3e2076cc3735a920a3ca505d382bbc546001600160a01b031690565b6099546001600160a01b0316331461094e5760405162461bcd60e51b8152600401610781906159cf565b6000611b55611af3565b9050611b6084613efb565b600083511180611b6d5750815b15611b7e57611b7c8484613fa0565b505b7f4910fdfa16fed3260ed0e7147f7cc6da11a60208b5b9406d12a635614ffd9143805460ff1661088257805460ff191660011781556040516001600160a01b0383166024820152611bfd90869060440160408051601f198184030181529190526020810180516001600160e01b0316631b2ce7f360e11b179052613fa0565b50805460ff19168155611c0e611af3565b6001600160a01b0316826001600160a01b031614611c865760405162461bcd60e51b815260206004820152602f60248201527f45524331393637557067726164653a207570677261646520627265616b73206660448201526e75727468657220757067726164657360881b6064820152608401610781565b6108828561408b565b6040516001600160a01b038316602482015260448101829052610f5f90849063a9059cbb60e01b906064015b60408051601f198184030181529190526020810180516001600160e01b03166001600160e01b0319909316929092179091526140cb565b8251606090859083856001600160401b03811115611d1257611d126151c6565b604051908082528060200260200182016040528015611d4b57816020015b611d38614f3d565b815260200190600190039081611d305790505b5093506000805b83811015611dfa576000898281518110611d6e57611d6e615bf2565b60200260200101519050600081602001516001600160401b0316905060005b81811015611de357611da088848861419d565b8b8881518110611db257611db2615bf2565b602090810291909101019290925298509550611dcf600186615b69565b9450611ddc600182615b69565b9050611d8d565b505050600181611df39190615b69565b9050611d52565b5050505094509492505050565b606060008060008651905060005b81811015611e6357878181518110611e2f57611e2f615bf2565b6020026020010151602001516001600160401b031684611e4f9190615b69565b9350611e5c600182615b69565b9050611e15565b505084518460005b82811015611eb957878181518110611e8557611e85615bf2565b6020026020010151604001516001600160401b031684611ea59190615b69565b9350611eb2600182615b69565b9050611e6b565b50600089611ec78686615b69565b6001600160401b03811115611ede57611ede6151c6565b604051908082528060200260200182016040528015611f4257816020015b611f2f6040805160a081019091526000808252602082019081526020016000815260006020820181905260409091015290565b815260200190600190039081611efc5790505b50965060005b84811015611ff15760008a8281518110611f6457611f64615bf2565b60200260200101519050600081604001516001600160401b0316905060005b81811015611fda57611f968584896145cd565b8d8981518110611fa857611fa8615bf2565b60209081029190910101929092529097509450611fc6600187615b69565b9550611fd3600182615b69565b9050611f83565b505050600181611fea9190615b69565b9050611f48565b508951935060005b848110156120a25760008b828151811061201557612015615bf2565b60200260200101519050600081602001516001600160401b0316905060005b8181101561208b57612047858489614785565b8d898151811061205957612059615bf2565b60209081029190910101929092529097509450612077600187615b69565b9550612084600182615b69565b9050612034565b50505060018161209b9190615b69565b9050611ff9565b50505050505050949350505050565b609980546001600160a01b038381166001600160a01b0319831681179093556040519116919082907f8be0079c531659141344cd1fd0a4f28419497f9722a3daafe3b4186f6b6457e090600090a35050565b60008280156121855760d7546001600160401b03164210801590612139575060d754600160401b90046001600160401b03164211155b6121855760405162461bcd60e51b815260206004820152601960248201527f53616c65206e6f742073746172746564206f7220656e646564000000000000006044820152606401610781565b6000805b8281101561231c5760008787838181106121a5576121a5615bf2565b9050604002018036038101906121bb9190615c68565b905080602001516001600160401b03166000036121ea5760405162461bcd60e51b815260040161078190615c84565b6000815160058111156121ff576121ff61545c565b14861515146122205760405162461bcd60e51b815260040161078190615cac565b856122875760cb60008260000151600581111561223f5761223f61545c565b60058111156122505761225061545c565b81526020019081526020016000206000015481602001516001600160401b031661227a9190615cd6565b6122849086615b69565b94505b602081015161229f906001600160401b031684615b69565b6001808b01805480830182556000918252602090912084519101805493965084939092839160ff1916908360058111156122db576122db61545c565b02179055506020919091015181546001600160401b039091166101000268ffffffffffffffff001990911617905550612315600182615b69565b9050612189565b5083158061232c575060df548111155b6123675760405162461bcd60e51b815260206004820152600c60248201526b115e18d95959081b1a5b5a5d60a21b6044820152606401610781565b6002870181905560dd546007880155612381816006615cd6565b60dd60008282546123929190615b69565b9091555092979650505050505050565b60008481805b828110156125695760008989838181106123c4576123c4615bf2565b9050606002018036038101906123da9190615cf5565b905080604001516001600160401b03166000036124095760405162461bcd60e51b815260040161078190615c84565b6000816020015160058111156124215761242161545c565b14861515146124425760405162461bcd60e51b815260040161078190615cac565b856124a95760cc6000826020015160058111156124615761246161545c565b60058111156124725761247261545c565b81526020019081526020016000206001015481604001516001600160401b031661249c9190615cd6565b6124a69086615b69565b94505b60408101516124c1906001600160401b031684615b69565b60038c018054600181810183556000928352602090922084519101805493965084939092839160ff1916908360048111156124fe576124fe61545c565b021790555060208201518154829061ff0019166101008360058111156125265761252661545c565b02179055506040919091015181546001600160401b03909116620100000269ffffffffffffffff00001990911617905550612562600182615b69565b90506123a8565b5084915060005b8281101561270457600087878381811061258c5761258c615bf2565b9050604002018036038101906125a29190615c68565b905080602001516001600160401b03166000036125d15760405162461bcd60e51b815260040161078190615c84565b6000815160058111156125e6576125e661545c565b14861515146126075760405162461bcd60e51b815260040161078190615cac565b8561266e5760cc6000826000015160058111156126265761262661545c565b60058111156126375761263761545c565b81526020019081526020016000206000015481602001516001600160401b03166126619190615cd6565b61266b9086615b69565b94505b6020810151612686906001600160401b031684615b69565b60048c018054600181810183556000928352602090922084519101805493965084939092839160ff1916908360058111156126c3576126c361545c565b02179055506020919091015181546001600160401b039091166101000268ffffffffffffffff0019909116179055506126fd600182615b69565b9050612570565b50831580612714575060e0548111155b61274f5760405162461bcd60e51b815260206004820152600c60248201526b115e18d95959081b1a5b5a5d60a21b6044820152606401610781565b6005890181905560de805460088b01819055829190600090612772908490615b69565b90915550929998505050505050505050565b600082815260d460205260409020546001600160a01b03166127db5760405162461bcd60e51b815260206004820152601060248201526f139bc81c995c5d595cdd08195e1a5cdd60821b6044820152606401610781565b600082815260d460205260409020600601541561283a5760405162461bcd60e51b815260206004820152601f60248201527f52616e646f6d206e756d62657220616c72656164792066756c66696c6c6564006044820152606401610781565b600082815260d46020526040908190206006018290555182907f1ca8663227a7fe9919713a01d344afbb434e234f35a3e540a6ad924f88771f38906128829084815260200190565b60405180910390a25050565b600080546001546040516001600160a01b0362010000909304831692634000aea092169085906128cd9088908790602001918252602082015260400190565b6040516020818303038152906040526040518463ffffffff1660e01b81526004016128fa93929190615dc0565b6020604051808303816000875af1158015612919573d6000803e3d6000fd5b505050506040513d601f19601f8201168201806040525081019061293d9190615de7565b50600083815260026020818152604080842054815180840189905280830186905230606082015260808082018390528351808303909101815260a090910190925281519183019190912093879052919052612999906001615b69565b6000858152600260205260409020556129d98482604080516020808201949094528082019290925280518083038201815260609092019052805191012090565b9150505b92915050565b6040516001600160a01b0380851660248301528316604482015260648101829052612a1b9085906323b872dd60e01b90608401611cbb565b50505050565b600054610100900460ff1680612a3a575060005460ff16155b612a565760405162461bcd60e51b815260040161078190615b81565b600054610100900460ff16158015612a78576000805461ffff19166101011790555b612a806148a4565b612a8861490e565b801561094e576000805461ff001916905550565b600054610100900460ff1680612ab5575060005460ff16155b612ad15760405162461bcd60e51b815260040161078190615b81565b600054610100900460ff16158015612af3576000805461ffff19166101011790555b600180546001600160a01b0319166001600160a01b03858116919091179091556000805462010000600160b01b03191662010000928516929092029190911790558015610f5f576000805461ff0019169055505050565b604080516060810182526113888152611f40602082015261271091810191909152612b799060cd906003614ea7565b506040805160c0810182526003808252600660208301819052600593830193909352600460608301819052608083015260a082015261094e9160d39190614f91565b604080516060810182526111948152611f4060208201526127109181019190915261094e9060ce906003614ea7565b6040805160808101825261193981526123f160208083019190915261261e928201929092526126bf60608201526001600052600080516020615e97833981519152909152612c5b907ffe664b870b6415830e10a3269abd8d2ef60dbf28cb7ce091b8a7045ac1270a2e906004614ea7565b5060408051608081018252610f6c8152611d136020808301919091526123e79282019290925261266e60608201526002600052600080516020615e97833981519152909152612ccc907e8f70b7cc05adb7081a4d413fe98b575b7813e6fdc0ef4ededb88eca3839198906004614ea7565b506040805160808101825261042b81526112c0602080830191909152611e359282019290925261247560608201526003600052600080516020615e97833981519152909152612d3e907fce8e743729ab63aef4c5b8ee455bcdc1c443de4e0f556a4db677eb4e516aaace906004614ea7565b5060408051608081018252608f81526103e8602080830191909152610b7192820192909252611d4c606082015260046000819052600080516020615e97833981519152909252612db0917fcdce8f12ec756f0511bf00b1459ff529c8f5b2b16fcb98fd867fe59c46f271049190614ea7565b5060408051608081018252603081526101b36020808301919091526105f592820192909252610f6a60608201526005600052600080516020615e97833981519152909152612e21907f643cdfe74052c6370e3f6785f5c30688f0c420182326710e61e520e6f383d2c8906004614ea7565b50604080516080810182526121fc8152612598602080830191909152612692928201929092526126e460608201526001600052600080516020615f1e833981519152909152612e93907fd3e8d3e104f1e2891159c199ffa2e668f97e95f80814a73420bd12d98d49c6dd906004614ea7565b5060408051608081018252611b0081526120fa6020808301919091526124f69282019290925261269f60608201526002600052600080516020615f1e833981519152909152612f05907fbc5a50a8c53282994eb68ae5091b8be9ee8d6aa7f7846fa182ab1f70f7ee0dff906004614ea7565b5060408051608081018252610ad78152611453602080830191909152611e429282019290925261245b60608201526003600052600080516020615f1e833981519152909152612f77907fa4e2fb40f13aa0bb69a759b8f8fb0b142f0a5b710b1f12264abd765528f97814906004614ea7565b506040805160808101825261018181526103c2602080830191909152610a8592820192909252611c8c606082015260046000819052600080516020615f1e833981519152909252612fea917fc07c05d9fc3daf0211ef96094bb5c16e8e7dbee2e7014a44e296a11ce86891ee9190614ea7565b5060408051608081018252607e815261017a60208083019190915261052c92820192909252610e6a60608201526005600052600080516020615f1e83398151915290915261305b907f2e1ec3ed33b177f962201f470b6546ab76c1d0d8698264a40964b826d0d83894906004614ea7565b50604080516080810182526121bc81526126836020808301919091526126d6928201929092526126fa60608201526001600052600080516020615eb78339815191529091526130cd907fea857a22906f6457c683d765b787fa390ff98eca8ec573fe02b8e7f10c5802a4906004614ea7565b5060408051608081018252611c5081526124ab60208083019190915261260f928201929092526126d560608201526002600052600080516020615eb783398151915290915261313f907f533cf43898235486a919f0faafe6d23607caf3930ab02f58ff14227ad868a047906004614ea7565b5060408051608081018252610db88152611dba6020808301919091526121eb9282019290925261255960608201526003600052600080516020615eb78339815191529091526131b1907f904adf92d77dcf84a4fdda646c8fd074d40b007f093ed454f6d2996836a26d9c906004614ea7565b50604080516080810182526102ee81526108ca602080830191909152610d2f92820192909252611ccf606082015260046000819052600080516020615eb7833981519152909252613224917fa61de0c5c3d6777caef251dc9b1efca6b6cf82820a0281826020d0ec9ee1da649190614ea7565b506040805160808101825260fd81526103a060208083019190915261061992820192909252610e5760608201526005600052600080516020615eb7833981519152909152613295907ffd38d0b291ba24ab6de1bc6f1d8c26f0265ede5c188c2555e78868865bc68230906004614ea7565b5060408051608081018252612133815261267e6020808301919091526126f89282019290925261270560608201526001600052600080516020615ed7833981519152909152613307907f727600ef4e9604916e7f564895e5d50ef8ef70c17d07927c88590bc7d6e0691a906004614ea7565b5060408051608081018252611b8281526124a46020808301919091526126ab928201929092526126f360608201526002600052600080516020615ed7833981519152909152613379907f99d65849455a017332e4b82382660546b16083d0cf080c473498de773f334899906004614ea7565b5060408051608081018252610d588152611edc6020808301919091526124fa9282019290925261263a60608201526003600052600080516020615ed78339815191529091526133eb907f292fcf43716ba8bce99f84feb2ff221e8eb1cda29d6ff378569045ea92f705b3906004614ea7565b50604080516080810182526104398152610db960208083019190915261173992820192909252611fab606082015260046000819052600080516020615ed783398151915290925261345e917f92acf3f134cb405608504a9541bb97d30133696e2a02f61e725a21222f54e61b9190614ea7565b50604080516080810182526101ac81526106af602080830191909152610cf39282019290925261122c60608201526005600052600080516020615ed78339815191529091526134d0907f44d8789e3a2ee4356ae35e845215d7ec5e44c068d2085309815fb87ac5287646906004614ea7565b50604080516080810182526120d281526126666020808301919091526126f79282019290925261270c60608201526001600052600080516020615f3e833981519152909152613542907f574eac91ca95775ba2b2ad5da7e8c5e7faa129e8c75b45cd18a69a9dced34f8f906004614ea7565b5060408051608081018252611abe81526124366020808301919091526126949282019290925261270460608201526002600052600080516020615f3e8339815191529091526135b4907f7b450bf5d8051763c73e73e4ee4408c04a455469a70ae52e1eaf89defa0a3afd906004614ea7565b5060408051608081018252610c808152611e006020808301919091526124e0928201929092526126c060608201526003600052600080516020615f3e833981519152909152613626907f17b4597d54cd780b734fa27175b274d191a5d5b1c7c9e3bd845e683b96413f57906004614ea7565b50604080516080810182526103e88152610d486020808301919091526117d492820192909252612454606082015260046000819052600080516020615f3e833981519152909252613699917f65478e94c87b3db45e3a8130bb6c378e6b8ff9675494d1adb77ac406eb60e7569190614ea7565b506040805160808101825261021781526108c660208083019190915261122c92820192909252611c9e60608201526005600052600080516020615f3e83398151915290915261370b907f213c3a702b7432bc734d3caaf2058eadf8bb435ef31105090abe1d0723835828906004614ea7565b50604080516020810190915280600090526000805260d0602052613752907f790dca8aa28f25f1915553dd78bb1fae41686aabbb62ea6516ab2cafb7d25899906001615012565b506040805160208082019092526001808252600080527efa5413e7b01fc543d01f0911de573ace463b956369df4472f39030e8d98b779092526137b7917f25b01be6cb72412630d9e76b1d9618ee89cc753b67056bf597ab3ea92de424e29190615087565b507fe2eed184ba5729170d1e1285fbe30dcd0a0c4990644c3dd83fc9c42a83394860805460ff1916600a1790556040805160208181019092526001808252600081905260d090925261382b917f77f2c0ceb108931ae1752982c6028a6c43603b39c3741036378ca346c95925299190615012565b50604080516020808201909252600180825260008190527fb41c81a20ee1317ccb9b438d7e5d59d66d5a6ec10e50c28bfec0bae0f14bf527909252613892917fe512b835e822e507ca8979609afba516fbb62ba6a9c756cfea8a612c9fd6256e9190615087565b507f9209a51a4855be92a5d27bf127ce2a4a1fefc973085c5cf91cff7112d5eddc40805460ff1916600a1790556040805180820190915260028082526003602083810191909152600082905260d0905261390d917f67796f102ab9953d5beaba6be251ff75a6b998b676e68c019b9d36459937f409916150ed565b5060408051602080820190925260028082526000527f32ea06fcf2721a86a5d9ed09fff93f12af8d61fae22ffe196961f9320ec53d3f909152613973907f43b56c65a47a01de4d3f6348916701911dbe1578a6d06c4f88bc39fe0ce0da5e906001615087565b5060408051602080820190925260038082526000527f32ea06fcf2721a86a5d9ed09fff93f12af8d61fae22ffe196961f9320ec53d3f9091526139d9907f315ddc37e54a7e9a2e7e1c2d4a824f8b440491217683b6938f6b19c388b1f983906001615087565b507fdbdc0e3e4f01585ceadccb5892db6109363671934627d11956088ff1deb93e398054600860ff1991821681179092557f05de00b5cdf2ae4d3cf054d0bdcc64f1a531940e0024e4c98063b1696127e1438054909116909117905560408051808201909152600481526005602080830191909152600360005260d09052613a84907f34c6e0244416e67a7ae462a5c12db300aa242979ef7d4ef0490977b76b306b3c9060026150ed565b506040805160208082019092526003815260046000527f507fbfbc4604457cf48784aed8fcaf8ef1e156d984c943cc8583366a2705be5e909152613aeb907ffc7a546497cd637ff425efe90992d5bc6884d47d45846557934c0a7371d4705e906001615087565b506040805160208082019092526002815260056000527f507fbfbc4604457cf48784aed8fcaf8ef1e156d984c943cc8583366a2705be5e909152613b52907fc5ed3005ff731624f8e690b99f78b0bc93ef1ce77d4abead39796abbd23b468d906001615087565b507f0102fe3d79754a6b8b60bbf424d257c555e886ac3b2e01afa0a3e513c79378c4805460ff199081166005179091557fa6796e990c6ab6efb4f7e8c242ab77eb6eddb4af9a82f797889e36ef493c0ff48054909116600817905560408051808201909152600681526007602082810191909152600460005260d09052613bfc907f93c995069dffc32524680371ff1261c76b7f45e2275201a430eee446bd8b6bc59060026150ed565b50604080516020808201909252600180825260066000527f9205af8e73dcb82a487de88e541200134d0139807150268b54190865cc74beed909252613c63917f6110954103de24b5d92362eea1d45ff75adff65f84f39062d0e364cb2c3fdee59190615087565b50604080516020808201909252600180825260076000527f9205af8e73dcb82a487de88e541200134d0139807150268b54190865cc74beed909252613cca917fb4e8e269e9b93f982bd08b027b80f320d6cce3a47c3f22cd98b99fc7a050ccb69190615087565b507fe53120fe4ae60d3c365d6455e588a7eaa2ba1eafe22ba2fd9ede970eeaa1993f8054600560ff1991821681179092557f135e8607d8fd27ab07a701dc6b25652ee8791c61dd4e49c5f5910fa1b7c546fc805460029216821790556040805180820190915260088152600960208083019190915260009390935260d0909252613d75917f4bec66b44c9db5602a65c60c3538204a41c7f7deb4675b48ad2514f609ea4dc1916150ed565b5060408051808201909152600181526002602080830182905260086000527f69aae7959c049fca74f5e43400d862464e9dc9b5042b52fc51b955075024a8579052613de1917f3d62d970739aecab5279631fcbad0835e3476a03506c3e1fee3845494021395491615087565b506040805160208082019092526003815260096000527f69aae7959c049fca74f5e43400d862464e9dc9b5042b52fc51b955075024a857909152613e48907f195f39c03818da8d08a6533c47a475b267748755cfa8d1ee4a601bd7ace406e7906001615087565b507f9937565f1a9929970f049c709598c495ce10f0d56636b0b8b818e5d2e3fd4252805460ff1990811660019081179092557fa7bbce36d4195da39da0b8c04fe99a66ab50b07d0771cc8352ca68d7370e69d68054821690921790915560036000527fd829076cd14c662d75ed7398e0e40dd2d380fc5344116dd90eb6bca450336e8f6020527f8b65e0c78c69797976d88aa8fdb223ee3ac90e56c6c55783a972f7388a46ebbe80549091166002179055565b803b613f5f5760405162461bcd60e51b815260206004820152602d60248201527f455243313936373a206e657720696d706c656d656e746174696f6e206973206e60448201526c1bdd08184818dbdb9d1c9858dd609a1b6064820152608401610781565b7f360894a13ba1a3210667c828492db98dca3e2076cc3735a920a3ca505d382bbc80546001600160a01b0319166001600160a01b0392909216919091179055565b6060823b613fff5760405162461bcd60e51b815260206004820152602660248201527f416464726573733a2064656c65676174652063616c6c20746f206e6f6e2d636f6044820152651b9d1c9858dd60d21b6064820152608401610781565b600080846001600160a01b03168460405161401a9190615e04565b600060405180830381855af49150503d8060008114614055576040519150601f19603f3d011682016040523d82523d6000602084013e61405a565b606091505b50915091506140828282604051806060016040528060278152602001615ef76027913961496e565b95945050505050565b61409481613efb565b6040516001600160a01b038216907fbc7cd75a20ee27fd9adebab32041f755214dbc6bffa90cc0225b39da2e5c2d3b90600090a250565b6000614120826040518060400160405280602081526020017f5361666545524332303a206c6f772d6c6576656c2063616c6c206661696c6564815250856001600160a01b03166149ae9092919063ffffffff16565b805190915015610f5f578080602001905181019061413e9190615de7565b610f5f5760405162461bcd60e51b815260206004820152602a60248201527f5361666545524332303a204552433230206f7065726174696f6e20646964206e6044820152691bdd081cdd58d8d9595960b21b6064820152608401610781565b6141a5614f3d565b818152825160009081908190602085019060058111156141c7576141c761545c565b908160058111156141da576141da61545c565b905250600080875160058111156141f3576141f361545c565b03614200578791506142d7565b600061420e896127106149c5565b895191945091506142b19060cb9060009060058111156142305761423061545c565b60058111156142415761424161545c565b81526020810191909152604090810160002081516080810190925260010160048282826020028201916000905b82829054906101000a900461ffff1661ffff168152602001906002019060208260010104928301926001038202915080841161426e5790505050505050826149f0565b60ff8116604088015288519092506142cb90839085614a5b565b60ff1660808801529250505b61430c8260d38360ff16600681106142f1576142f1615bf2565b602081049091015460ff601f9092166101000a900416614bab565b60ff9081166060880152608087015116600090815260d060205260408120549193509061433a908490614bab565b608088015160ff908116600090815260d0602052604090208054939650919350909190831690811061436e5761436e615bf2565b90600052602060002090602091828204019190069054906101000a900460ff168660a0019060098111156143a4576143a461545c565b908160098111156143b7576143b761545c565b905250608086015160ff16600090815260d16020526040812060a08801516144149286929160098111156143ed576143ed61545c565b60098111156143fe576143fe61545c565b8152602081019190915260400160002054614bab565b608088015160ff16600090815260d16020526040812060a08a0151939650919350909160098111156144485761444861545c565b60098111156144595761445961545c565b81526020019081526020016000208160ff168154811061447b5761447b615bf2565b60009182526020808320818304015460ff601f9093166101000a9004821660c08a01526080890151909116825260d290526040812060a08801516145099286929160098111156144cd576144cd61545c565b60098111156144de576144de61545c565b81526020808201929092526040908101600090812060c08c015160ff90811683529352205416614bab565b60ff1660e0880152925061451c83614bc8565b87610100018160028111156145335761453361545c565b60028111156145445761454461545c565b9052508851909350614557908490614c61565b905086610120018160018111156145705761457061545c565b60018111156145815761458161545c565b90525061458f600688615b69565b60408051602081018c90529081018b90529094506060016040516020818303038152906040528051906020012060001c945050505093509350939050565b6146006040805160a081019091526000808252602082019081526020016000815260006020820181905260409091015290565b8181526020808401516000918291829185019060058111156146245761462461545c565b908160058111156146375761463761545c565b9052508551604085019060048111156146525761465261545c565b908160048111156146655761466561545c565b905250600080876020015160058111156146815761468161545c565b0361468e5787915061472b565b600061469c896127106149c5565b809250819450505061471e60cc60008a6020015160058111156146c1576146c161545c565b60058111156146d2576146d261545c565b81526020808201929092526040908101600020815160808101928390526002918201805461ffff168252909390926004929091849190860180841161426e5790505050505050826149f0565b60ff811660608801529150505b61473482614cfe565b60ff16608087015250614748866001615b69565b60408051602081018b90529081018a90529093506060016040516020818303038152906040528051906020012060001c9350505093509350939050565b6147b86040805160a081019091526000808252602082019081526020016000815260006020820181905260409091015290565b818152825160009081908190602085019060058111156147da576147da61545c565b908160058111156147ed576147ed61545c565b905250600080875160058111156148065761480661545c565b0361481357879150614850565b6000614821896127106149c5565b895191945091506148439060cc9060009060058111156146c1576146c161545c565b60ff811660608801529150505b61485b600583615e36565b60ff16600481111561486f5761486f61545c565b856040019060048111156148855761488561545c565b908160048111156148985761489861545c565b90525061473482614cfe565b600054610100900460ff16806148bd575060005460ff16155b6148d95760405162461bcd60e51b815260040161078190615b81565b600054610100900460ff16158015612a88576000805461ffff1916610101179055801561094e576000805461ff001916905550565b600054610100900460ff1680614927575060005460ff16155b6149435760405162461bcd60e51b815260040161078190615b81565b600054610100900460ff16158015614965576000805461ffff19166101011790555b612a88336120b1565b6060831561497d5750816149a7565b82511561498d5782518084602001fd5b8160405162461bcd60e51b81526004016107819190615e4a565b9392505050565b60606149bd8484600085614d7f565b949350505050565b6000806149d661ffff841685615e5d565b6149e461ffff851686615e36565b915091505b9250929050565b6000805b600460ff82161015614a4e578261ffff16848260ff1660048110614a1a57614a1a615bf2565b602002015161ffff161115614a3c57614a34816001615e71565b9150506129dd565b614a47600182615e71565b90506149f4565b506149a760046001615e71565b60008080846005811115614a7157614a7161545c565b03614a8157508190506000614ba3565b6000614a8f846127106149c5565b60ff8816600090815260cf602052604081209295509092509081876005811115614abb57614abb61545c565b6005811115614acc57614acc61545c565b81526020810191909152604090810160002081516080810190925260048282826020028201916000905b82829054906101000a900461ffff1661ffff1681526020019060020190602082600101049283019260010382029150808411614af65790505050505050905060005b600460ff82161015614b91578261ffff16828260ff1660048110614b5e57614b5e615bf2565b602002015161ffff161115614b7f57614b78816001615e71565b9350614b91565b614b8a600182615e71565b9050614b38565b50614b9e60046001615e71565b925050505b935093915050565b600080614bbb60ff841685615e5d565b6149e460ff851686615e36565b6000806000614bd9846127106149c5565b909350905060005b600360ff82161015614c5a5760cd8160ff1660038110614c0357614c03615bf2565b601091828204019190066002029054906101000a900461ffff1661ffff168261ffff161015614c48578060ff166002811115614c4157614c4161545c565b9250614c5a565b614c53600182615e71565b9050614be1565b5050915091565b6000808080846005811115614c7857614c7861545c565b14614cc15760cb6000856005811115614c9357614c9361545c565b6005811115614ca457614ca461545c565b815260208101919091526040016000206002015461ffff16614cc4565b60c85b90506000614cd4866127106149c5565b909450905061ffff80831690821611614cf05760019250614cf5565b600092505b50509250929050565b6000806000614d0f846127106149c5565b909350905060005b600360ff82161015614c5a5760ce8160ff1660038110614d3957614d39615bf2565b601091828204019190066002029054906101000a900461ffff1661ffff168261ffff161015614d6d57614c41816001615e71565b614d78600182615e71565b9050614d17565b606082471015614de05760405162461bcd60e51b815260206004820152602660248201527f416464726573733a20696e73756666696369656e742062616c616e636520666f6044820152651c8818d85b1b60d21b6064820152608401610781565b843b614e2e5760405162461bcd60e51b815260206004820152601d60248201527f416464726573733a2063616c6c20746f206e6f6e2d636f6e74726163740000006044820152606401610781565b600080866001600160a01b03168587604051614e4a9190615e04565b60006040518083038185875af1925050503d8060008114614e87576040519150601f19603f3d011682016040523d82523d6000602084013e614e8c565b606091505b5091509150614e9c82828661496e565b979650505050505050565b600183019183908215614f2d5791602002820160005b83821115614efd57835183826101000a81548161ffff021916908361ffff1602179055509260200192600201602081600101049283019260010302614ebd565b8015614f2b5782816101000a81549061ffff0219169055600201602081600101049283019260010302614efd565b505b50614f39929150615162565b5090565b6040805161014081018252600080825260208201819052918101829052606081018290526080810182905260a0810182905260c0810182905260e08101829052610100810182905261012081019190915290565b600183019183908215614f2d5791602002820160005b83821115614fe557835183826101000a81548160ff021916908360ff1602179055509260200192600101602081600001049283019260010302614fa7565b8015614f2b5782816101000a81549060ff0219169055600101602081600001049283019260010302614fe5565b82805482825590600052602060002090601f01602090048101928215614f2d5791602002820160005b83821115614fe557835183826101000a81548160ff021916908360098111156150665761506661545c565b0217905550926020019260010160208160000104928301926001030261503b565b82805482825590600052602060002090601f01602090048101928215614f2d57916020028201600083821115614fe557835183826101000a81548160ff021916908360ff1602179055509260200192600101602081600001049283019260010302614fa7565b82805482825590600052602060002090601f01602090048101928215614f2d5791602002820160005b83821115614fe557835183826101000a81548160ff021916908360098111156151415761514161545c565b02179055509260200192600101602081600001049283019260010302615116565b5b80821115614f395760008155600101615163565b6000806040838503121561518a57600080fd5b50508035926020909101359150565b6000602082840312156151ab57600080fd5b5035919050565b8035600681106151c157600080fd5b919050565b634e487b7160e01b600052604160045260246000fd5b604051606081016001600160401b03811182821017156151fe576151fe6151c6565b60405290565b604051601f8201601f191681016001600160401b038111828210171561522c5761522c6151c6565b604052919050565b803561ffff811681146151c157600080fd5b600082601f83011261525757600080fd5b604051608081018181106001600160401b0382111715615279576152796151c6565b60405280608084018581111561528e57600080fd5b845b818110156152af576152a181615234565b835260209283019201615290565b509195945050505050565b60008082840360e08112156152ce57600080fd5b6152d7846151b2565b925060c0601f19820112156152eb57600080fd5b506152f46151dc565b60208401358152604084013560208201526153128560608601615246565b6040820152809150509250929050565b80356001600160a01b03811681146151c157600080fd5b60006020828403121561534b57600080fd5b6149a782615322565b803560ff811681146151c157600080fd5b8035600a81106151c157600080fd5b60008060006060848603121561538957600080fd5b61539284615354565b92506153a060208501615365565b91506153ae60408501615354565b90509250925092565b600080604083850312156153ca57600080fd5b6153d383615322565b91506020808401356001600160401b03808211156153f057600080fd5b818601915086601f83011261540457600080fd5b813581811115615416576154166151c6565b615428601f8201601f19168501615204565b9150808252878482850101111561543e57600080fd5b80848401858401376000848284010152508093505050509250929050565b634e487b7160e01b600052602160045260246000fd5b600681106154825761548261545c565b9052565b600a81106154825761548261545c565b600381106154825761548261545c565b600281106154825761548261545c565b600081518084526020808501945080840160005b8381101561553257815180518852838101516154e8858a0182615472565b50604080820151600581106154ff576154ff61545c565b9089015260608181015160ff908116918a0191909152608091820151169088015260a090960195908201906001016154ca565b509495945050505050565b6001600160a01b0385168152602080820185905260806040808401829052855184830181905260009360a092909183870190898401875b82811015615625578151805185528681015161559288870182615472565b508581015160ff90811686880152606080830151821690870152898201511689860152878101516155c589870182615486565b5060c08181015160ff811687830152505060e08181015160ff8116878301525050610100808201516155f982880182615496565b5050610120908101519061560f868201836154a6565b5050610140939093019290850190600101615574565b505050868103606088015261563a81896154b6565b9b9a5050505050505050505050565b60006040828403121561565b57600080fd5b50919050565b60008083601f84011261567357600080fd5b5081356001600160401b0381111561568a57600080fd5b6020830191508360208260061b85010111156149e957600080fd5b60008083601f8401126156b757600080fd5b5081356001600160401b038111156156ce57600080fd5b6020830191508360206060830285010111156149e957600080fd5b6000806000806000806060878903121561570257600080fd5b86356001600160401b038082111561571957600080fd5b6157258a838b01615661565b9098509650602089013591508082111561573e57600080fd5b61574a8a838b016156a5565b9096509450604089013591508082111561576357600080fd5b5061577089828a01615661565b979a9699509497509295939492505050565b60008060006060848603121561579757600080fd5b6157a084615354565b92506157ae60208501615365565b9150604084013590509250925092565b6000602082840312156157d057600080fd5b6149a7826151b2565b60008082840360e08112156157ed57600080fd5b6157f6846151b2565b925060c0601f198201121561580a57600080fd5b506158136151dc565b602084013581526158278560408601615246565b602082015261531260c08501615234565b801515811461094e57600080fd5b60008060008060008060006080888a03121561586157600080fd5b87356001600160401b038082111561587857600080fd5b6158848b838c01615661565b909950975060208a013591508082111561589d57600080fd5b6158a98b838c016156a5565b909750955060408a01359150808211156158c257600080fd5b506158cf8a828b01615661565b90945092505060608801356158e381615838565b8091505092959891949750929550565b6000806040838503121561590657600080fd5b61590f83615354565b946020939093013593505050565b602081016129dd8284615486565b600080600080600080600060e0888a03121561594657600080fd5b61594f88615322565b965061595d60208901615322565b9550604088013594506060880135935061597960808901615322565b925061598760a08901615322565b915061599560c08901615322565b905092959891949750929550565b6000806000606084860312156159b857600080fd5b6159c184615354565b92506157ae602085016151b2565b6020808252818101527f4f776e61626c653a2063616c6c6572206973206e6f7420746865206f776e6572604082015260600190565b6020808252602c908201527f46756e6374696f6e206d7573742062652063616c6c6564207468726f7567682060408201526b19195b1959d85d1958d85b1b60a21b606082015260800190565b6020808252602c908201527f46756e6374696f6e206d7573742062652063616c6c6564207468726f7567682060408201526b6163746976652070726f787960a01b606082015260800190565b600060208284031215615aae57600080fd5b5051919050565b6001600160401b038116811461094e57600080fd5b600060208284031215615adc57600080fd5b81356149a781615ab5565b8135615af281615ab5565b6001600160401b03811690508154816001600160401b031982161783556020840135615b1d81615ab5565b6fffffffffffffffff00000000000000008160401b16836fffffffffffffffffffffffffffffffff198416171784555050505050565b634e487b7160e01b600052601160045260246000fd5b60008219821115615b7c57615b7c615b53565b500190565b6020808252602e908201527f496e697469616c697a61626c653a20636f6e747261637420697320616c72656160408201526d191e481a5b9a5d1a585b1a5e995960921b606082015260800190565b600060ff821660ff841680821015615be957615be9615b53565b90039392505050565b634e487b7160e01b600052603260045260246000fd5b600060408284031215615c1a57600080fd5b604051604081018181106001600160401b0382111715615c3c57615c3c6151c6565b604052905080615c4b836151b2565b81526020830135615c5b81615ab5565b6020919091015292915050565b600060408284031215615c7a57600080fd5b6149a78383615c08565b6020808252600e908201526d125b9d985b1a5908185b5bdd5b9d60921b604082015260600190565b60208082526010908201526f496e76616c696420626f78207479706560801b604082015260600190565b6000816000190483118215151615615cf057615cf0615b53565b500290565b600060608284031215615d0757600080fd5b604051606081018181106001600160401b0382111715615d2957615d296151c6565b604052823560058110615d3b57600080fd5b8152615d49602084016151b2565b60208201526040830135615d5c81615ab5565b60408201529392505050565b60005b83811015615d83578181015183820152602001615d6b565b83811115612a1b5750506000910152565b60008151808452615dac816020860160208601615d68565b601f01601f19169290920160200192915050565b60018060a01b03841681528260208201526060604082015260006140826060830184615d94565b600060208284031215615df957600080fd5b81516149a781615838565b60008251615e16818460208701615d68565b9190910192915050565b634e487b7160e01b600052601260045260246000fd5b600082615e4557615e45615e20565b500690565b6020815260006149a76020830184615d94565b600082615e6c57615e6c615e20565b500490565b600060ff821660ff84168060ff03821115615e8e57615e8e615b53565b01939250505056fe9bb4860ae4018b7a63008e1d4c4f2ef74d5a095e46377c820dc3f962c67498e80786b2e448a85075fbbd634a589a96f16f04f79fafbba799f8cb3c20a382e734487d9825d239fc0eb73c636da4d301a97d621defb19d737cd772aae6955d6a8c416464726573733a206c6f772d6c6576656c2064656c65676174652063616c6c206661696c6564d0ae466d391fc1f33c08f0ded38b0edd84e4ee092dcf838570f20223ba1511f631021ca95be3239c2860ded956bdf0d22be8c364ac32444eea91829f4dfdf13da2646970667358221220d8d78952852350da2ab16d60113bec138f6aaa43459815215a242337726f76c464736f6c634300080e0033",
  "devdoc": {
    "author": "Dmitry Yakovlevich",
    "details": "Users can use ETH or sILV to request minting.Minter uses an chainlink VRF to genrate randomness.",
    "events": {
      "FreeMintRequested(address,uint256)": {
        "details": "Emitted when user request free mint."
      },
      "MintRequested(address,bytes32)": {
        "details": "Emitted when user request mint."
      },
      "RequestFulfilled(bytes32,uint256)": {
        "details": "Emitted when chainlink fulfilled VRF request."
      },
      "TreasurySet(address)": {
        "details": "Emitted when treasury updated."
      }
    },
    "kind": "dev",
    "methods": {
      "freeMint((uint8,uint64)[],(uint8,uint8,uint64)[],(uint8,uint64)[])": {
        "details": "Request minting Portrait and Accesory NFTs.",
        "params": {
          "accessoryFullRandomMintParams": "accessory layer full random mint params.",
          "accessorySemiRandomMintParams": "accessory layer semi random mint params.",
          "portraitMintParams": "portrait layer mint params."
        }
      },
      "getPaidMintResult(bytes32)": {
        "details": "Get mintable portrait and accessory infos with chainlink random number",
        "params": {
          "requestId": "Request id of mint request."
        },
        "returns": {
          "accessories": "Mintable accessory on-chain metadata",
          "portraits": "Mintable portrait on-chain metadata",
          "requester": "Requester address",
          "seed": "Seed random number from chainlink"
        }
      },
      "initialize(address,address,bytes32,uint256,address,address,address)": {
        "details": "UUPSUpgradeable initializer",
        "params": {
          "_illuvitarsPriceOracle": "ILV/ETH Chainlink price feed base illuvitars price oracle",
          "_linkToken": "LINK token address",
          "_sIlv": "sILV2 token address",
          "_treasury": "Treasury address",
          "_vrfCoordinator": "Chainlink VRF Coordinator address",
          "_vrfFee": "Chainlink VRF Fee",
          "_vrfKeyhash": "Chainlink VRF Key Hash"
        }
      },
      "owner()": {
        "details": "Returns the address of the current owner."
      },
      "paidMint((uint8,uint64)[],(uint8,uint8,uint64)[],(uint8,uint64)[],bool)": {
        "details": "Request minting Portrait and Accesory NFTs.",
        "params": {
          "accessoryFullRandomMintParams": "accessory layer full random mint params.",
          "accessorySemiRandomMintParams": "accessory layer semi random mint params.",
          "portraitMintParams": "portrait layer mint params.",
          "useSIlv": "true to use sILV, false to use ETH."
        }
      },
      "renounceOwnership()": {
        "details": "Leaves the contract without owner. It will not be possible to call `onlyOwner` functions anymore. Can only be called by the current owner. NOTE: Renouncing ownership will leave the contract without an owner, thereby removing any functionality that is only available to the owner."
      },
      "setPortraitSaleWindow((uint64,uint64))": {
        "details": "Set portrait sale window.only owner can call this function.",
        "params": {
          "_saleWindow": "New sale window."
        }
      },
      "setTreasury(address)": {
        "details": "Set new treasury address.only owner can call this function.",
        "params": {
          "treasury_": "Treasury Address."
        }
      },
      "transferOwnership(address)": {
        "details": "Transfers ownership of the contract to a new account (`newOwner`). Can only be called by the current owner."
      },
      "upgradeTo(address)": {
        "details": "Upgrade the implementation of the proxy to `newImplementation`. Calls {_authorizeUpgrade}. Emits an {Upgraded} event."
      },
      "upgradeToAndCall(address,bytes)": {
        "details": "Upgrade the implementation of the proxy to `newImplementation`, and subsequently execute the function call encoded in `data`. Calls {_authorizeUpgrade}. Emits an {Upgraded} event."
      },
      "withdraw()": {
        "details": "Withdraw ether and sILV to treasury address.only owner can call this function."
      }
    },
    "stateVariables": {
      "EXPRESSION_COUNT": {
        "details": "expression count - Normal, Expression A, Expression B"
      },
      "PORTRAIT_MASK": {
        "details": "0: without accessory      1: bonded 1 slot      2: bonded 2 slot      3: bonded 3 slot      4: bonded 4 slot      5: bonded 5 slot"
      },
      "accessoryMintInfo": {
        "details": "Accessory mint information"
      },
      "backgroundLines": {
        "details": "Background line info per tier"
      },
      "backgroundStages": {
        "details": "Background stages info per (tier, line)"
      },
      "backgroundTierChances": {
        "details": "Background tier chances"
      },
      "backgroundVariations": {
        "details": "Background variation count per (tier, line, stage)"
      },
      "expressionProbability": {
        "details": "expression probability"
      },
      "freeRequestCount": {
        "details": "Free requests count"
      },
      "freeRequests": {
        "details": "User's free mint requests"
      },
      "illuvialCounts": {
        "details": "Illuvial count per tier"
      },
      "illuvitarsPriceOracle": {
        "details": "ILV/ETH Chainlink price feed address"
      },
      "mintRequests": {
        "details": "User's mint requests"
      },
      "nextAccessoryTokenId": {
        "details": "Next accessory token id to mint"
      },
      "nextPortraitTokenId": {
        "details": "Next portrait token id to mint"
      },
      "portraitMintInfo": {
        "details": "Portrait mint information"
      },
      "portraitSaleWindow": {
        "details": "Portrait sale window"
      },
      "sIlv": {
        "details": "sILV2 token address"
      },
      "stageProbability": {
        "details": "stage probability"
      },
      "treasury": {
        "details": "treasury address"
      },
      "vrfFee": {
        "details": "chainlink VRF fee"
      },
      "vrfKeyHash": {
        "details": "chainlink VRF key hash"
      }
    },
    "title": "Minter",
    "version": 1
  },
  "userdoc": {
    "kind": "user",
    "methods": {
      "freeMint((uint8,uint64)[],(uint8,uint8,uint64)[],(uint8,uint64)[])": {
        "notice": "Users pay ETH or sILV to request minting"
      },
      "paidMint((uint8,uint64)[],(uint8,uint8,uint64)[],(uint8,uint64)[],bool)": {
        "notice": "Users pay ETH or sILV to request minting"
      }
    },
    "notice": "Allow users to request minting Illuvitars.",
    "version": 1
  },
  "storageLayout": {
    "storage": [
      {
        "astId": 1089,
        "contract": "contracts/protocol/Minter.sol:Minter",
        "label": "_initialized",
        "offset": 0,
        "slot": "0",
        "type": "t_bool"
      },
      {
        "astId": 1092,
        "contract": "contracts/protocol/Minter.sol:Minter",
        "label": "_initializing",
        "offset": 1,
        "slot": "0",
        "type": "t_bool"
      },
      {
        "astId": 4381,
        "contract": "contracts/protocol/Minter.sol:Minter",
        "label": "LINK",
        "offset": 2,
        "slot": "0",
        "type": "t_contract(LinkTokenInterface)190"
      },
      {
        "astId": 4383,
        "contract": "contracts/protocol/Minter.sol:Minter",
        "label": "vrfCoordinator",
        "offset": 0,
        "slot": "1",
        "type": "t_address"
      },
      {
        "astId": 4387,
        "contract": "contracts/protocol/Minter.sol:Minter",
        "label": "nonces",
        "offset": 0,
        "slot": "2",
        "type": "t_mapping(t_bytes32,t_uint256)"
      },
      {
        "astId": 1072,
        "contract": "contracts/protocol/Minter.sol:Minter",
        "label": "__gap",
        "offset": 0,
        "slot": "3",
        "type": "t_array(t_uint256)50_storage"
      },
      {
        "astId": 1239,
        "contract": "contracts/protocol/Minter.sol:Minter",
        "label": "__gap",
        "offset": 0,
        "slot": "53",
        "type": "t_array(t_uint256)50_storage"
      },
      {
        "astId": 3249,
        "contract": "contracts/protocol/Minter.sol:Minter",
        "label": "__gap",
        "offset": 0,
        "slot": "103",
        "type": "t_array(t_uint256)50_storage"
      },
      {
        "astId": 560,
        "contract": "contracts/protocol/Minter.sol:Minter",
        "label": "_owner",
        "offset": 0,
        "slot": "153",
        "type": "t_address"
      },
      {
        "astId": 674,
        "contract": "contracts/protocol/Minter.sol:Minter",
        "label": "__gap",
        "offset": 0,
        "slot": "154",
        "type": "t_array(t_uint256)49_storage"
      },
      {
        "astId": 5153,
        "contract": "contracts/protocol/Minter.sol:Minter",
        "label": "portraitMintInfo",
        "offset": 0,
        "slot": "203",
        "type": "t_mapping(t_enum(BoxType)3979,t_struct(PortraitMintInfo)5375_storage)"
      },
      {
        "astId": 5160,
        "contract": "contracts/protocol/Minter.sol:Minter",
        "label": "accessoryMintInfo",
        "offset": 0,
        "slot": "204",
        "type": "t_mapping(t_enum(BoxType)3979,t_struct(AccessoryMintInfo)5384_storage)"
      },
      {
        "astId": 5165,
        "contract": "contracts/protocol/Minter.sol:Minter",
        "label": "expressionProbability",
        "offset": 0,
        "slot": "205",
        "type": "t_array(t_uint16)3_storage"
      },
      {
        "astId": 5170,
        "contract": "contracts/protocol/Minter.sol:Minter",
        "label": "stageProbability",
        "offset": 0,
        "slot": "206",
        "type": "t_array(t_uint16)3_storage"
      },
      {
        "astId": 5180,
        "contract": "contracts/protocol/Minter.sol:Minter",
        "label": "backgroundTierChances",
        "offset": 0,
        "slot": "207",
        "type": "t_mapping(t_uint8,t_mapping(t_enum(BoxType)3979,t_array(t_uint16)4_storage))"
      },
      {
        "astId": 5187,
        "contract": "contracts/protocol/Minter.sol:Minter",
        "label": "backgroundLines",
        "offset": 0,
        "slot": "208",
        "type": "t_mapping(t_uint8,t_array(t_enum(BackgroundLine)3997)dyn_storage)"
      },
      {
        "astId": 5196,
        "contract": "contracts/protocol/Minter.sol:Minter",
        "label": "backgroundStages",
        "offset": 0,
        "slot": "209",
        "type": "t_mapping(t_uint8,t_mapping(t_enum(BackgroundLine)3997,t_array(t_uint8)dyn_storage))"
      },
      {
        "astId": 5206,
        "contract": "contracts/protocol/Minter.sol:Minter",
        "label": "backgroundVariations",
        "offset": 0,
        "slot": "210",
        "type": "t_mapping(t_uint8,t_mapping(t_enum(BackgroundLine)3997,t_mapping(t_uint8,t_uint8)))"
      },
      {
        "astId": 5211,
        "contract": "contracts/protocol/Minter.sol:Minter",
        "label": "illuvialCounts",
        "offset": 0,
        "slot": "211",
        "type": "t_array(t_uint8)6_storage"
      },
      {
        "astId": 5217,
        "contract": "contracts/protocol/Minter.sol:Minter",
        "label": "mintRequests",
        "offset": 0,
        "slot": "212",
        "type": "t_mapping(t_bytes32,t_struct(MintRequest)5328_storage)"
      },
      {
        "astId": 5223,
        "contract": "contracts/protocol/Minter.sol:Minter",
        "label": "freeRequests",
        "offset": 0,
        "slot": "213",
        "type": "t_mapping(t_uint256,t_struct(MintRequest)5328_storage)"
      },
      {
        "astId": 5226,
        "contract": "contracts/protocol/Minter.sol:Minter",
        "label": "freeRequestCount",
        "offset": 0,
        "slot": "214",
        "type": "t_uint256"
      },
      {
        "astId": 5230,
        "contract": "contracts/protocol/Minter.sol:Minter",
        "label": "portraitSaleWindow",
        "offset": 0,
        "slot": "215",
        "type": "t_struct(SaleWindow)5389_storage"
      },
      {
        "astId": 5233,
        "contract": "contracts/protocol/Minter.sol:Minter",
        "label": "sIlv",
        "offset": 0,
        "slot": "216",
        "type": "t_address"
      },
      {
        "astId": 5236,
        "contract": "contracts/protocol/Minter.sol:Minter",
        "label": "treasury",
        "offset": 0,
        "slot": "217",
        "type": "t_address"
      },
      {
        "astId": 5240,
        "contract": "contracts/protocol/Minter.sol:Minter",
        "label": "illuvitarsPriceOracle",
        "offset": 0,
        "slot": "218",
        "type": "t_contract(IlluvitarsPriceOracle)4482"
      },
      {
        "astId": 5243,
        "contract": "contracts/protocol/Minter.sol:Minter",
        "label": "vrfKeyHash",
        "offset": 0,
        "slot": "219",
        "type": "t_bytes32"
      },
      {
        "astId": 5246,
        "contract": "contracts/protocol/Minter.sol:Minter",
        "label": "vrfFee",
        "offset": 0,
        "slot": "220",
        "type": "t_uint256"
      },
      {
        "astId": 5249,
        "contract": "contracts/protocol/Minter.sol:Minter",
        "label": "nextPortraitTokenId",
        "offset": 0,
        "slot": "221",
        "type": "t_uint256"
      },
      {
        "astId": 5252,
        "contract": "contracts/protocol/Minter.sol:Minter",
        "label": "nextAccessoryTokenId",
        "offset": 0,
        "slot": "222",
        "type": "t_uint256"
      },
      {
        "astId": 5254,
        "contract": "contracts/protocol/Minter.sol:Minter",
        "label": "freePortraitLimitPerTx",
        "offset": 0,
        "slot": "223",
        "type": "t_uint256"
      },
      {
        "astId": 5256,
        "contract": "contracts/protocol/Minter.sol:Minter",
        "label": "freeAccessoryLimitPerTx",
        "offset": 0,
        "slot": "224",
        "type": "t_uint256"
      }
    ],
    "types": {
      "t_address": {
        "encoding": "inplace",
        "label": "address",
        "numberOfBytes": "20"
      },
      "t_array(t_enum(BackgroundLine)3997)dyn_storage": {
        "base": "t_enum(BackgroundLine)3997",
        "encoding": "dynamic_array",
        "label": "enum BackgroundLine[]",
        "numberOfBytes": "32"
      },
      "t_array(t_struct(AccessoryFullRandomMintParams)5303_storage)dyn_storage": {
        "base": "t_struct(AccessoryFullRandomMintParams)5303_storage",
        "encoding": "dynamic_array",
        "label": "struct Minter.AccessoryFullRandomMintParams[]",
        "numberOfBytes": "32"
      },
      "t_array(t_struct(AccessorySemiRandomMintParams)5297_storage)dyn_storage": {
        "base": "t_struct(AccessorySemiRandomMintParams)5297_storage",
        "encoding": "dynamic_array",
        "label": "struct Minter.AccessorySemiRandomMintParams[]",
        "numberOfBytes": "32"
      },
      "t_array(t_struct(PortraitMintParams)5288_storage)dyn_storage": {
        "base": "t_struct(PortraitMintParams)5288_storage",
        "encoding": "dynamic_array",
        "label": "struct Minter.PortraitMintParams[]",
        "numberOfBytes": "32"
      },
      "t_array(t_uint16)3_storage": {
        "base": "t_uint16",
        "encoding": "inplace",
        "label": "uint16[3]",
        "numberOfBytes": "32"
      },
      "t_array(t_uint16)4_storage": {
        "base": "t_uint16",
        "encoding": "inplace",
        "label": "uint16[4]",
        "numberOfBytes": "32"
      },
      "t_array(t_uint256)49_storage": {
        "base": "t_uint256",
        "encoding": "inplace",
        "label": "uint256[49]",
        "numberOfBytes": "1568"
      },
      "t_array(t_uint256)50_storage": {
        "base": "t_uint256",
        "encoding": "inplace",
        "label": "uint256[50]",
        "numberOfBytes": "1600"
      },
      "t_array(t_uint8)6_storage": {
        "base": "t_uint8",
        "encoding": "inplace",
        "label": "uint8[6]",
        "numberOfBytes": "32"
      },
      "t_array(t_uint8)dyn_storage": {
        "base": "t_uint8",
        "encoding": "dynamic_array",
        "label": "uint8[]",
        "numberOfBytes": "32"
      },
      "t_bool": {
        "encoding": "inplace",
        "label": "bool",
        "numberOfBytes": "1"
      },
      "t_bytes32": {
        "encoding": "inplace",
        "label": "bytes32",
        "numberOfBytes": "32"
      },
      "t_contract(IlluvitarsPriceOracle)4482": {
        "encoding": "inplace",
        "label": "contract IlluvitarsPriceOracle",
        "numberOfBytes": "20"
      },
      "t_contract(LinkTokenInterface)190": {
        "encoding": "inplace",
        "label": "contract LinkTokenInterface",
        "numberOfBytes": "20"
      },
      "t_enum(AccessoryType)3972": {
        "encoding": "inplace",
        "label": "enum AccessoryType",
        "numberOfBytes": "1"
      },
      "t_enum(BackgroundLine)3997": {
        "encoding": "inplace",
        "label": "enum BackgroundLine",
        "numberOfBytes": "1"
      },
      "t_enum(BoxType)3979": {
        "encoding": "inplace",
        "label": "enum BoxType",
        "numberOfBytes": "1"
      },
      "t_mapping(t_bytes32,t_struct(MintRequest)5328_storage)": {
        "encoding": "mapping",
        "key": "t_bytes32",
        "label": "mapping(bytes32 => struct Minter.MintRequest)",
        "numberOfBytes": "32",
        "value": "t_struct(MintRequest)5328_storage"
      },
      "t_mapping(t_bytes32,t_uint256)": {
        "encoding": "mapping",
        "key": "t_bytes32",
        "label": "mapping(bytes32 => uint256)",
        "numberOfBytes": "32",
        "value": "t_uint256"
      },
      "t_mapping(t_enum(BackgroundLine)3997,t_array(t_uint8)dyn_storage)": {
        "encoding": "mapping",
        "key": "t_enum(BackgroundLine)3997",
        "label": "mapping(enum BackgroundLine => uint8[])",
        "numberOfBytes": "32",
        "value": "t_array(t_uint8)dyn_storage"
      },
      "t_mapping(t_enum(BackgroundLine)3997,t_mapping(t_uint8,t_uint8))": {
        "encoding": "mapping",
        "key": "t_enum(BackgroundLine)3997",
        "label": "mapping(enum BackgroundLine => mapping(uint8 => uint8))",
        "numberOfBytes": "32",
        "value": "t_mapping(t_uint8,t_uint8)"
      },
      "t_mapping(t_enum(BoxType)3979,t_array(t_uint16)4_storage)": {
        "encoding": "mapping",
        "key": "t_enum(BoxType)3979",
        "label": "mapping(enum BoxType => uint16[4])",
        "numberOfBytes": "32",
        "value": "t_array(t_uint16)4_storage"
      },
      "t_mapping(t_enum(BoxType)3979,t_struct(AccessoryMintInfo)5384_storage)": {
        "encoding": "mapping",
        "key": "t_enum(BoxType)3979",
        "label": "mapping(enum BoxType => struct Minter.AccessoryMintInfo)",
        "numberOfBytes": "32",
        "value": "t_struct(AccessoryMintInfo)5384_storage"
      },
      "t_mapping(t_enum(BoxType)3979,t_struct(PortraitMintInfo)5375_storage)": {
        "encoding": "mapping",
        "key": "t_enum(BoxType)3979",
        "label": "mapping(enum BoxType => struct Minter.PortraitMintInfo)",
        "numberOfBytes": "32",
        "value": "t_struct(PortraitMintInfo)5375_storage"
      },
      "t_mapping(t_uint256,t_struct(MintRequest)5328_storage)": {
        "encoding": "mapping",
        "key": "t_uint256",
        "label": "mapping(uint256 => struct Minter.MintRequest)",
        "numberOfBytes": "32",
        "value": "t_struct(MintRequest)5328_storage"
      },
      "t_mapping(t_uint8,t_array(t_enum(BackgroundLine)3997)dyn_storage)": {
        "encoding": "mapping",
        "key": "t_uint8",
        "label": "mapping(uint8 => enum BackgroundLine[])",
        "numberOfBytes": "32",
        "value": "t_array(t_enum(BackgroundLine)3997)dyn_storage"
      },
      "t_mapping(t_uint8,t_mapping(t_enum(BackgroundLine)3997,t_array(t_uint8)dyn_storage))": {
        "encoding": "mapping",
        "key": "t_uint8",
        "label": "mapping(uint8 => mapping(enum BackgroundLine => uint8[]))",
        "numberOfBytes": "32",
        "value": "t_mapping(t_enum(BackgroundLine)3997,t_array(t_uint8)dyn_storage)"
      },
      "t_mapping(t_uint8,t_mapping(t_enum(BackgroundLine)3997,t_mapping(t_uint8,t_uint8)))": {
        "encoding": "mapping",
        "key": "t_uint8",
        "label": "mapping(uint8 => mapping(enum BackgroundLine => mapping(uint8 => uint8)))",
        "numberOfBytes": "32",
        "value": "t_mapping(t_enum(BackgroundLine)3997,t_mapping(t_uint8,t_uint8))"
      },
      "t_mapping(t_uint8,t_mapping(t_enum(BoxType)3979,t_array(t_uint16)4_storage))": {
        "encoding": "mapping",
        "key": "t_uint8",
        "label": "mapping(uint8 => mapping(enum BoxType => uint16[4]))",
        "numberOfBytes": "32",
        "value": "t_mapping(t_enum(BoxType)3979,t_array(t_uint16)4_storage)"
      },
      "t_mapping(t_uint8,t_uint8)": {
        "encoding": "mapping",
        "key": "t_uint8",
        "label": "mapping(uint8 => uint8)",
        "numberOfBytes": "32",
        "value": "t_uint8"
      },
      "t_struct(AccessoryFullRandomMintParams)5303_storage": {
        "encoding": "inplace",
        "label": "struct Minter.AccessoryFullRandomMintParams",
        "members": [
          {
            "astId": 5300,
            "contract": "contracts/protocol/Minter.sol:Minter",
            "label": "boxType",
            "offset": 0,
            "slot": "0",
            "type": "t_enum(BoxType)3979"
          },
          {
            "astId": 5302,
            "contract": "contracts/protocol/Minter.sol:Minter",
            "label": "amount",
            "offset": 1,
            "slot": "0",
            "type": "t_uint64"
          }
        ],
        "numberOfBytes": "32"
      },
      "t_struct(AccessoryMintInfo)5384_storage": {
        "encoding": "inplace",
        "label": "struct Minter.AccessoryMintInfo",
        "members": [
          {
            "astId": 5377,
            "contract": "contracts/protocol/Minter.sol:Minter",
            "label": "randomPrice",
            "offset": 0,
            "slot": "0",
            "type": "t_uint256"
          },
          {
            "astId": 5379,
            "contract": "contracts/protocol/Minter.sol:Minter",
            "label": "semiRandomPrice",
            "offset": 0,
            "slot": "1",
            "type": "t_uint256"
          },
          {
            "astId": 5383,
            "contract": "contracts/protocol/Minter.sol:Minter",
            "label": "tierChances",
            "offset": 0,
            "slot": "2",
            "type": "t_array(t_uint16)4_storage"
          }
        ],
        "numberOfBytes": "96"
      },
      "t_struct(AccessorySemiRandomMintParams)5297_storage": {
        "encoding": "inplace",
        "label": "struct Minter.AccessorySemiRandomMintParams",
        "members": [
          {
            "astId": 5291,
            "contract": "contracts/protocol/Minter.sol:Minter",
            "label": "accessoryType",
            "offset": 0,
            "slot": "0",
            "type": "t_enum(AccessoryType)3972"
          },
          {
            "astId": 5294,
            "contract": "contracts/protocol/Minter.sol:Minter",
            "label": "boxType",
            "offset": 1,
            "slot": "0",
            "type": "t_enum(BoxType)3979"
          },
          {
            "astId": 5296,
            "contract": "contracts/protocol/Minter.sol:Minter",
            "label": "amount",
            "offset": 2,
            "slot": "0",
            "type": "t_uint64"
          }
        ],
        "numberOfBytes": "32"
      },
      "t_struct(MintRequest)5328_storage": {
        "encoding": "inplace",
        "label": "struct Minter.MintRequest",
        "members": [
          {
            "astId": 5305,
            "contract": "contracts/protocol/Minter.sol:Minter",
            "label": "requester",
            "offset": 0,
            "slot": "0",
            "type": "t_address"
          },
          {
            "astId": 5309,
            "contract": "contracts/protocol/Minter.sol:Minter",
            "label": "portraitMintParams",
            "offset": 0,
            "slot": "1",
            "type": "t_array(t_struct(PortraitMintParams)5288_storage)dyn_storage"
          },
          {
            "astId": 5311,
            "contract": "contracts/protocol/Minter.sol:Minter",
            "label": "portraitAmount",
            "offset": 0,
            "slot": "2",
            "type": "t_uint256"
          },
          {
            "astId": 5315,
            "contract": "contracts/protocol/Minter.sol:Minter",
            "label": "accessorySemiRandomMintParams",
            "offset": 0,
            "slot": "3",
            "type": "t_array(t_struct(AccessorySemiRandomMintParams)5297_storage)dyn_storage"
          },
          {
            "astId": 5319,
            "contract": "contracts/protocol/Minter.sol:Minter",
            "label": "accessoryFullRandomMintParams",
            "offset": 0,
            "slot": "4",
            "type": "t_array(t_struct(AccessoryFullRandomMintParams)5303_storage)dyn_storage"
          },
          {
            "astId": 5321,
            "contract": "contracts/protocol/Minter.sol:Minter",
            "label": "accessoryAmount",
            "offset": 0,
            "slot": "5",
            "type": "t_uint256"
          },
          {
            "astId": 5323,
            "contract": "contracts/protocol/Minter.sol:Minter",
            "label": "randomNumber",
            "offset": 0,
            "slot": "6",
            "type": "t_uint256"
          },
          {
            "astId": 5325,
            "contract": "contracts/protocol/Minter.sol:Minter",
            "label": "portraitStartTokenId",
            "offset": 0,
            "slot": "7",
            "type": "t_uint256"
          },
          {
            "astId": 5327,
            "contract": "contracts/protocol/Minter.sol:Minter",
            "label": "accessoryStartTokenId",
            "offset": 0,
            "slot": "8",
            "type": "t_uint256"
          }
        ],
        "numberOfBytes": "288"
      },
      "t_struct(PortraitMintInfo)5375_storage": {
        "encoding": "inplace",
        "label": "struct Minter.PortraitMintInfo",
        "members": [
          {
            "astId": 5368,
            "contract": "contracts/protocol/Minter.sol:Minter",
            "label": "price",
            "offset": 0,
            "slot": "0",
            "type": "t_uint256"
          },
          {
            "astId": 5372,
            "contract": "contracts/protocol/Minter.sol:Minter",
            "label": "tierChances",
            "offset": 0,
            "slot": "1",
            "type": "t_array(t_uint16)4_storage"
          },
          {
            "astId": 5374,
            "contract": "contracts/protocol/Minter.sol:Minter",
            "label": "holoProbability",
            "offset": 0,
            "slot": "2",
            "type": "t_uint16"
          }
        ],
        "numberOfBytes": "96"
      },
      "t_struct(PortraitMintParams)5288_storage": {
        "encoding": "inplace",
        "label": "struct Minter.PortraitMintParams",
        "members": [
          {
            "astId": 5285,
            "contract": "contracts/protocol/Minter.sol:Minter",
            "label": "boxType",
            "offset": 0,
            "slot": "0",
            "type": "t_enum(BoxType)3979"
          },
          {
            "astId": 5287,
            "contract": "contracts/protocol/Minter.sol:Minter",
            "label": "amount",
            "offset": 1,
            "slot": "0",
            "type": "t_uint64"
          }
        ],
        "numberOfBytes": "32"
      },
      "t_struct(SaleWindow)5389_storage": {
        "encoding": "inplace",
        "label": "struct Minter.SaleWindow",
        "members": [
          {
            "astId": 5386,
            "contract": "contracts/protocol/Minter.sol:Minter",
            "label": "start",
            "offset": 0,
            "slot": "0",
            "type": "t_uint64"
          },
          {
            "astId": 5388,
            "contract": "contracts/protocol/Minter.sol:Minter",
            "label": "end",
            "offset": 8,
            "slot": "0",
            "type": "t_uint64"
          }
        ],
        "numberOfBytes": "32"
      },
      "t_uint16": {
        "encoding": "inplace",
        "label": "uint16",
        "numberOfBytes": "2"
      },
      "t_uint256": {
        "encoding": "inplace",
        "label": "uint256",
        "numberOfBytes": "32"
      },
      "t_uint64": {
        "encoding": "inplace",
        "label": "uint64",
        "numberOfBytes": "8"
      },
      "t_uint8": {
        "encoding": "inplace",
        "label": "uint8",
        "numberOfBytes": "1"
      }
    }
  }
}