{
  "address": "0xEeD0851E7E51De44bFad160320A504418b60a49c",
  "abi": [
    {
      "anonymous": false,
      "inputs": [
        {
          "indexed": true,
          "internalType": "address",
          "name": "owner",
          "type": "address"
        },
        {
          "indexed": true,
          "internalType": "address",
          "name": "approved",
          "type": "address"
        },
        {
          "indexed": true,
          "internalType": "uint256",
          "name": "tokenId",
          "type": "uint256"
        }
      ],
      "name": "Approval",
      "type": "event"
    },
    {
      "anonymous": false,
      "inputs": [
        {
          "indexed": true,
          "internalType": "address",
          "name": "owner",
          "type": "address"
        },
        {
          "indexed": true,
          "internalType": "address",
          "name": "operator",
          "type": "address"
        },
        {
          "indexed": false,
          "internalType": "bool",
          "name": "approved",
          "type": "bool"
        }
      ],
      "name": "ApprovalForAll",
      "type": "event"
    },
    {
      "anonymous": false,
      "inputs": [
        {
          "indexed": false,
          "internalType": "string",
          "name": "baseUri",
          "type": "string"
        }
      ],
      "name": "BaseUriUpdated",
      "type": "event"
    },
    {
      "anonymous": false,
      "inputs": [
        {
          "indexed": true,
          "internalType": "address",
          "name": "previousOwner",
          "type": "address"
        },
        {
          "indexed": true,
          "internalType": "address",
          "name": "newOwner",
          "type": "address"
        }
      ],
      "name": "OwnershipTransferred",
      "type": "event"
    },
    {
      "anonymous": false,
      "inputs": [
        {
          "indexed": true,
          "internalType": "address",
          "name": "from",
          "type": "address"
        },
        {
          "indexed": true,
          "internalType": "address",
          "name": "to",
          "type": "address"
        },
        {
          "indexed": true,
          "internalType": "uint256",
          "name": "tokenId",
          "type": "uint256"
        }
      ],
      "name": "Transfer",
      "type": "event"
    },
    {
      "inputs": [
        {
          "internalType": "address",
          "name": "to",
          "type": "address"
        },
        {
          "internalType": "uint256",
          "name": "tokenId",
          "type": "uint256"
        }
      ],
      "name": "approve",
      "outputs": [],
      "stateMutability": "nonpayable",
      "type": "function"
    },
    {
      "inputs": [
        {
          "internalType": "address",
          "name": "owner",
          "type": "address"
        }
      ],
      "name": "balanceOf",
      "outputs": [
        {
          "internalType": "uint256",
          "name": "",
          "type": "uint256"
        }
      ],
      "stateMutability": "view",
      "type": "function"
    },
    {
      "inputs": [
        {
          "internalType": "uint256",
          "name": "tokenId",
          "type": "uint256"
        }
      ],
      "name": "getApproved",
      "outputs": [
        {
          "internalType": "address",
          "name": "",
          "type": "address"
        }
      ],
      "stateMutability": "view",
      "type": "function"
    },
    {
      "inputs": [],
      "name": "imxMinter",
      "outputs": [
        {
          "internalType": "address",
          "name": "",
          "type": "address"
        }
      ],
      "stateMutability": "view",
      "type": "function"
    },
    {
      "inputs": [
        {
          "internalType": "string",
          "name": "name_",
          "type": "string"
        },
        {
          "internalType": "string",
          "name": "symbol_",
          "type": "string"
        },
        {
          "internalType": "address",
          "name": "_minter",
          "type": "address"
        }
      ],
      "name": "initialize",
      "outputs": [],
      "stateMutability": "nonpayable",
      "type": "function"
    },
    {
      "inputs": [
        {
          "internalType": "address",
          "name": "owner",
          "type": "address"
        },
        {
          "internalType": "address",
          "name": "operator",
          "type": "address"
        }
      ],
      "name": "isApprovedForAll",
      "outputs": [
        {
          "internalType": "bool",
          "name": "",
          "type": "bool"
        }
      ],
      "stateMutability": "view",
      "type": "function"
    },
    {
      "inputs": [
        {
          "internalType": "uint256",
          "name": "",
          "type": "uint256"
        }
      ],
      "name": "metadata",
      "outputs": [
        {
          "internalType": "bool",
          "name": "initialized",
          "type": "bool"
        },
        {
          "internalType": "enum BoxType",
          "name": "boxType",
          "type": "uint8"
        },
        {
          "internalType": "uint8",
          "name": "tier",
          "type": "uint8"
        },
        {
          "internalType": "uint256",
          "name": "skinId",
          "type": "uint256"
        },
        {
          "internalType": "uint256",
          "name": "bodyId",
          "type": "uint256"
        },
        {
          "internalType": "uint256",
          "name": "eyeId",
          "type": "uint256"
        },
        {
          "internalType": "uint256",
          "name": "headId",
          "type": "uint256"
        },
        {
          "internalType": "uint256",
          "name": "propsId",
          "type": "uint256"
        }
      ],
      "stateMutability": "view",
      "type": "function"
    },
    {
      "inputs": [
        {
          "internalType": "address",
          "name": "to",
          "type": "address"
        },
        {
          "internalType": "uint256",
          "name": "quantity",
          "type": "uint256"
        },
        {
          "internalType": "bytes",
          "name": "mintingBlob",
          "type": "bytes"
        }
      ],
      "name": "mintFor",
      "outputs": [],
      "stateMutability": "nonpayable",
      "type": "function"
    },
    {
      "inputs": [],
      "name": "name",
      "outputs": [
        {
          "internalType": "string",
          "name": "",
          "type": "string"
        }
      ],
      "stateMutability": "view",
      "type": "function"
    },
    {
      "inputs": [],
      "name": "owner",
      "outputs": [
        {
          "internalType": "address",
          "name": "",
          "type": "address"
        }
      ],
      "stateMutability": "view",
      "type": "function"
    },
    {
      "inputs": [
        {
          "internalType": "uint256",
          "name": "tokenId",
          "type": "uint256"
        }
      ],
      "name": "ownerOf",
      "outputs": [
        {
          "internalType": "address",
          "name": "",
          "type": "address"
        }
      ],
      "stateMutability": "view",
      "type": "function"
    },
    {
      "inputs": [],
      "name": "renounceOwnership",
      "outputs": [],
      "stateMutability": "nonpayable",
      "type": "function"
    },
    {
      "inputs": [
        {
          "internalType": "address",
          "name": "from",
          "type": "address"
        },
        {
          "internalType": "address",
          "name": "to",
          "type": "address"
        },
        {
          "internalType": "uint256",
          "name": "tokenId",
          "type": "uint256"
        }
      ],
      "name": "safeTransferFrom",
      "outputs": [],
      "stateMutability": "nonpayable",
      "type": "function"
    },
    {
      "inputs": [
        {
          "internalType": "address",
          "name": "from",
          "type": "address"
        },
        {
          "internalType": "address",
          "name": "to",
          "type": "address"
        },
        {
          "internalType": "uint256",
          "name": "tokenId",
          "type": "uint256"
        },
        {
          "internalType": "bytes",
          "name": "_data",
          "type": "bytes"
        }
      ],
      "name": "safeTransferFrom",
      "outputs": [],
      "stateMutability": "nonpayable",
      "type": "function"
    },
    {
      "inputs": [
        {
          "internalType": "address",
          "name": "operator",
          "type": "address"
        },
        {
          "internalType": "bool",
          "name": "approved",
          "type": "bool"
        }
      ],
      "name": "setApprovalForAll",
      "outputs": [],
      "stateMutability": "nonpayable",
      "type": "function"
    },
    {
      "inputs": [
        {
          "internalType": "string",
          "name": "_baseUri_",
          "type": "string"
        }
      ],
      "name": "setBaseUri",
      "outputs": [],
      "stateMutability": "nonpayable",
      "type": "function"
    },
    {
      "inputs": [
        {
          "internalType": "bytes4",
          "name": "interfaceId",
          "type": "bytes4"
        }
      ],
      "name": "supportsInterface",
      "outputs": [
        {
          "internalType": "bool",
          "name": "",
          "type": "bool"
        }
      ],
      "stateMutability": "view",
      "type": "function"
    },
    {
      "inputs": [],
      "name": "symbol",
      "outputs": [
        {
          "internalType": "string",
          "name": "",
          "type": "string"
        }
      ],
      "stateMutability": "view",
      "type": "function"
    },
    {
      "inputs": [
        {
          "internalType": "uint256",
          "name": "index",
          "type": "uint256"
        }
      ],
      "name": "tokenByIndex",
      "outputs": [
        {
          "internalType": "uint256",
          "name": "",
          "type": "uint256"
        }
      ],
      "stateMutability": "view",
      "type": "function"
    },
    {
      "inputs": [
        {
          "internalType": "address",
          "name": "owner",
          "type": "address"
        },
        {
          "internalType": "uint256",
          "name": "index",
          "type": "uint256"
        }
      ],
      "name": "tokenOfOwnerByIndex",
      "outputs": [
        {
          "internalType": "uint256",
          "name": "",
          "type": "uint256"
        }
      ],
      "stateMutability": "view",
      "type": "function"
    },
    {
      "inputs": [
        {
          "internalType": "uint256",
          "name": "tokenId",
          "type": "uint256"
        }
      ],
      "name": "tokenURI",
      "outputs": [
        {
          "internalType": "string",
          "name": "",
          "type": "string"
        }
      ],
      "stateMutability": "view",
      "type": "function"
    },
    {
      "inputs": [],
      "name": "totalSupply",
      "outputs": [
        {
          "internalType": "uint256",
          "name": "",
          "type": "uint256"
        }
      ],
      "stateMutability": "view",
      "type": "function"
    },
    {
      "inputs": [
        {
          "internalType": "address",
          "name": "from",
          "type": "address"
        },
        {
          "internalType": "address",
          "name": "to",
          "type": "address"
        },
        {
          "internalType": "uint256",
          "name": "tokenId",
          "type": "uint256"
        }
      ],
      "name": "transferFrom",
      "outputs": [],
      "stateMutability": "nonpayable",
      "type": "function"
    },
    {
      "inputs": [
        {
          "internalType": "address",
          "name": "newOwner",
          "type": "address"
        }
      ],
      "name": "transferOwnership",
      "outputs": [],
      "stateMutability": "nonpayable",
      "type": "function"
    }
  ],
  "transactionHash": "0x292498cce7f524ce89c189fddf6b72ddf1df81ab03c409daf7e34d6df6f275be",
  "args": [],
  "numDeployments": 1,
  "solcInputHash": "9bdc976d344bc2eb84329ce4b7643821",
  "bytecode": "0x608060405234801561001057600080fd5b50612817806100206000396000f3fe608060405234801561001057600080fd5b50600436106101585760003560e01c806370a08231116100c3578063b88d4fde1161007c578063b88d4fde146102cb578063c87b56dd146102de578063e3684e39146102f1578063e985e9c51461035b578063f2fde38b14610397578063fb91a7d2146103aa57600080fd5b806370a0823114610271578063715018a6146102845780638da5cb5b1461028c57806395d89b411461029d578063a0bcfc7f146102a5578063a22cb465146102b857600080fd5b806319ee6e3f1161011557806319ee6e3f146101ff57806323b872dd146102125780632f745c591461022557806342842e0e146102385780634f6ccce71461024b5780636352211e1461025e57600080fd5b806301ffc9a71461015d57806306fdde0314610185578063077f224a1461019a578063081812fc146101af578063095ea7b3146101da57806318160ddd146101ed575b600080fd5b61017061016b366004611fe2565b6103bd565b60405190151581526020015b60405180910390f35b61018d6103e8565b60405161017c9190612057565b6101ad6101a8366004612132565b61047a565b005b6101c26101bd3660046121a6565b6104fd565b6040516001600160a01b03909116815260200161017c565b6101ad6101e83660046121bf565b610592565b6099545b60405190815260200161017c565b6101ad61020d3660046121e9565b6106a8565b6101ad610220366004612270565b610760565b6101f16102333660046121bf565b610791565b6101ad610246366004612270565b610827565b6101f16102593660046121a6565b610842565b6101c261026c3660046121a6565b6108d5565b6101f161027f3660046122ac565b61094c565b6101ad6109d3565b60c9546001600160a01b03166101c2565b61018d610a09565b6101ad6102b33660046122c7565b610a18565b6101ad6102c63660046122fc565b610a90565b6101ad6102d9366004612338565b610a9f565b61018d6102ec3660046121a6565b610ad1565b6103476102ff3660046121a6565b60fd6020526000908152604090208054600182015460028301546003840154600485015460059095015460ff8086169661010087048216966201000090049091169493929188565b60405161017c9897969594939291906123ca565b61017061036936600461242a565b6001600160a01b039182166000908152606a6020908152604080832093909416825291909152205460ff1690565b6101ad6103a53660046122ac565b610bac565b60fb546101c2906001600160a01b031681565b60006001600160e01b0319821663780e9d6360e01b14806103e257506103e282610c47565b92915050565b6060606580546103f79061245d565b80601f01602080910402602001604051908101604052809291908181526020018280546104239061245d565b80156104705780601f1061044557610100808354040283529160200191610470565b820191906000526020600020905b81548152906001019060200180831161045357829003601f168201915b5050505050905090565b600054610100900460ff1680610493575060005460ff16155b6104b85760405162461bcd60e51b81526004016104af90612498565b60405180910390fd5b600054610100900460ff161580156104da576000805461ffff19166101011790555b6104e5848484610c97565b80156104f7576000805461ff00191690555b50505050565b6000818152606760205260408120546001600160a01b03166105765760405162461bcd60e51b815260206004820152602c60248201527f4552433732313a20617070726f76656420717565727920666f72206e6f6e657860448201526b34b9ba32b73a103a37b5b2b760a11b60648201526084016104af565b506000908152606960205260409020546001600160a01b031690565b600061059d826108d5565b9050806001600160a01b0316836001600160a01b0316141561060b5760405162461bcd60e51b815260206004820152602160248201527f4552433732313a20617070726f76616c20746f2063757272656e74206f776e656044820152603960f91b60648201526084016104af565b336001600160a01b038216148061062757506106278133610369565b6106995760405162461bcd60e51b815260206004820152603860248201527f4552433732313a20617070726f76652063616c6c6572206973206e6f74206f7760448201527f6e6572206e6f7220617070726f76656420666f7220616c6c000000000000000060648201526084016104af565b6106a38383610d85565b505050565b826001146106eb5760405162461bcd60e51b815260206004820152601060248201526f416d6f756e74206d757374206265203160801b60448201526064016104af565b60fb546001600160a01b0316331461073c5760405162461bcd60e51b815260206004820152601460248201527331b0b63632b91034b9903737ba1036b4b73a32b960611b60448201526064016104af565b6000806107498484610df3565b91509150610758868383610fae565b505050505050565b61076a3382611100565b6107865760405162461bcd60e51b81526004016104af906124e6565b6106a38383836111f7565b600061079c8361094c565b82106107fe5760405162461bcd60e51b815260206004820152602b60248201527f455243373231456e756d657261626c653a206f776e657220696e646578206f7560448201526a74206f6620626f756e647360a81b60648201526084016104af565b506001600160a01b03919091166000908152609760209081526040808320938352929052205490565b6106a383838360405180602001604052806000815250610a9f565b600061084d60995490565b82106108b05760405162461bcd60e51b815260206004820152602c60248201527f455243373231456e756d657261626c653a20676c6f62616c20696e646578206f60448201526b7574206f6620626f756e647360a01b60648201526084016104af565b609982815481106108c3576108c3612537565b90600052602060002001549050919050565b6000818152606760205260408120546001600160a01b0316806103e25760405162461bcd60e51b815260206004820152602960248201527f4552433732313a206f776e657220717565727920666f72206e6f6e657869737460448201526832b73a103a37b5b2b760b91b60648201526084016104af565b60006001600160a01b0382166109b75760405162461bcd60e51b815260206004820152602a60248201527f4552433732313a2062616c616e636520717565727920666f7220746865207a65604482015269726f206164647265737360b01b60648201526084016104af565b506001600160a01b031660009081526068602052604090205490565b60c9546001600160a01b031633146109fd5760405162461bcd60e51b81526004016104af9061254d565b610a0760006113a2565b565b6060606680546103f79061245d565b60c9546001600160a01b03163314610a425760405162461bcd60e51b81526004016104af9061254d565b8051610a559060fc906020840190611f33565b507f24a9152dc695ecc801ad580886331ee12d7aac0fa2ae341a5ae3c2ccae36cb4f81604051610a859190612057565b60405180910390a150565b610a9b3383836113f4565b5050565b610aa93383611100565b610ac55760405162461bcd60e51b81526004016104af906124e6565b6104f7848484846114c3565b6000818152606760205260409020546060906001600160a01b0316610b505760405162461bcd60e51b815260206004820152602f60248201527f4552433732314d657461646174613a2055524920717565727920666f72206e6f60448201526e3732bc34b9ba32b73a103a37b5b2b760891b60648201526084016104af565b6000610b5a6114f6565b90506000815111610b7a5760405180602001604052806000815250610ba5565b80610b8484611505565b604051602001610b95929190612582565b6040516020818303038152906040525b9392505050565b60c9546001600160a01b03163314610bd65760405162461bcd60e51b81526004016104af9061254d565b6001600160a01b038116610c3b5760405162461bcd60e51b815260206004820152602660248201527f4f776e61626c653a206e6577206f776e657220697320746865207a65726f206160448201526564647265737360d01b60648201526084016104af565b610c44816113a2565b50565b60006001600160e01b031982166380ac58cd60e01b1480610c7857506001600160e01b03198216635b5e139f60e01b145b806103e257506301ffc9a760e01b6001600160e01b03198316146103e2565b600054610100900460ff1680610cb0575060005460ff16155b610ccc5760405162461bcd60e51b81526004016104af90612498565b600054610100900460ff16158015610cee576000805461ffff19166101011790555b610cf88484611603565b610d0061168a565b610d0861170d565b6001600160a01b038216610d535760405162461bcd60e51b81526020600482015260126024820152714d696e7465722063616e6e6f74207a65726f60701b60448201526064016104af565b60fb80546001600160a01b0319166001600160a01b03841617905580156104f7576000805461ff001916905550505050565b600081815260696020526040902080546001600160a01b0319166001600160a01b0384169081179091558190610dba826108d5565b6001600160a01b03167f8c5be1e5ebec7d5bd14f71427d1e84f3dd0314c0f7b2291e5b200ac8c7c3b92560405160405180910390a45050565b600060606000610e5185858080601f01602080910402602001604051908101604052809392919081815260200183838082843760009201829052506040805180820190915260018152601d60f91b6020820152935091506117749050565b90506000811215610e9b5760405162461bcd60e51b815260206004820152601460248201527314d95c185c985d1bdc881b5d5cdd08195e1a5cdd60621b60448201526064016104af565b6000610ef586600187610eae82876125c7565b92610ebb939291906125de565b8080601f01602080910402602001604051908101604052809392919081815260200183838082843760009201919091525061180c92505050565b905060006003610f0584886125c7565b610f0f91906125c7565b905080610f3357816040518060200160405280600081525094509450505050610fa7565b3660008888610f43876002612608565b90610f4f60018c6125c7565b92610f5c939291906125de565b9150915083828281818080601f016020809104026020016040519081016040528093929190818152602001838380828437600092019190915250959c50919a50505050505050505050505b9250929050565b610fb883836118e4565b600082815260fd602052604090205460ff166106a357600080600080600080600087806020019051810190610fed9190612620565b9650965096509650965096509650604051806101000160405280600115158152602001886005811115611022576110226123b4565b815260ff88166020808301919091526040808301899052606083018890526080830187905260a0830186905260c090920184905260008c815260fd8252919091208251815490151560ff19821681178355928401519192839161ff001990911661ffff199091161761010083600581111561109f5761109f6123b4565b02179055506040820151815460ff909116620100000262ff000019909116178155606082015160018201556080820151600282015560a0820151600382015560c0820151600482015560e09091015160059091015550505050505050505050565b6000818152606760205260408120546001600160a01b03166111795760405162461bcd60e51b815260206004820152602c60248201527f4552433732313a206f70657261746f7220717565727920666f72206e6f6e657860448201526b34b9ba32b73a103a37b5b2b760a11b60648201526084016104af565b6000611184836108d5565b9050806001600160a01b0316846001600160a01b031614806111bf5750836001600160a01b03166111b4846104fd565b6001600160a01b0316145b806111ef57506001600160a01b038082166000908152606a602090815260408083209388168352929052205460ff165b949350505050565b826001600160a01b031661120a826108d5565b6001600160a01b0316146112725760405162461bcd60e51b815260206004820152602960248201527f4552433732313a207472616e73666572206f6620746f6b656e2074686174206960448201526839903737ba1037bbb760b91b60648201526084016104af565b6001600160a01b0382166112d45760405162461bcd60e51b8152602060048201526024808201527f4552433732313a207472616e7366657220746f20746865207a65726f206164646044820152637265737360e01b60648201526084016104af565b6112df8383836118fe565b6112ea600082610d85565b6001600160a01b03831660009081526068602052604081208054600192906113139084906125c7565b90915550506001600160a01b0382166000908152606860205260408120805460019290611341908490612608565b909155505060008181526067602052604080822080546001600160a01b0319166001600160a01b0386811691821790925591518493918716917fddf252ad1be2c89b69c2b068fc378daa952ba7f163c4a11628f55a4df523b3ef91a4505050565b60c980546001600160a01b038381166001600160a01b0319831681179093556040519116919082907f8be0079c531659141344cd1fd0a4f28419497f9722a3daafe3b4186f6b6457e090600090a35050565b816001600160a01b0316836001600160a01b031614156114565760405162461bcd60e51b815260206004820152601960248201527f4552433732313a20617070726f766520746f2063616c6c65720000000000000060448201526064016104af565b6001600160a01b038381166000818152606a6020908152604080832094871680845294825291829020805460ff191686151590811790915591519182527f17307eab39ab6107e8899845ad3d59bd9653f200f220920489ca2b5937696c31910160405180910390a3505050565b6114ce8484846111f7565b6114da848484846119b6565b6104f75760405162461bcd60e51b81526004016104af90612691565b606060fc80546103f79061245d565b6060816115295750506040805180820190915260018152600360fc1b602082015290565b8160005b8115611553578061153d816126e3565b915061154c9050600a83612714565b915061152d565b60008167ffffffffffffffff81111561156e5761156e61206a565b6040519080825280601f01601f191660200182016040528015611598576020820181803683370190505b5090505b84156111ef576115ad6001836125c7565b91506115ba600a86612728565b6115c5906030612608565b60f81b8183815181106115da576115da612537565b60200101906001600160f81b031916908160001a9053506115fc600a86612714565b945061159c565b600054610100900460ff168061161c575060005460ff16155b6116385760405162461bcd60e51b81526004016104af90612498565b600054610100900460ff1615801561165a576000805461ffff19166101011790555b611662611ac3565b61166a611ac3565b6116748383611b2d565b80156106a3576000805461ff0019169055505050565b600054610100900460ff16806116a3575060005460ff16155b6116bf5760405162461bcd60e51b81526004016104af90612498565b600054610100900460ff161580156116e1576000805461ffff19166101011790555b6116e9611ac3565b6116f1611ac3565b6116f9611ac3565b8015610c44576000805461ff001916905550565b600054610100900460ff1680611726575060005460ff16155b6117425760405162461bcd60e51b81526004016104af90612498565b600054610100900460ff16158015611764576000805461ffff19166101011790555b61176c611ac3565b6116f9611bc2565b8151600090839060011461178a5761178a61273c565b825b85518110156117ff57816000815181106117a8576117a8612537565b602001015160f81c60f81b6001600160f81b0319168682815181106117cf576117cf612537565b01602001516001600160f81b03191614156117ed579150610ba59050565b806117f7816126e3565b91505061178c565b5060001995945050505050565b600080805b83518110156118dd57600084828151811061182e5761182e612537565b016020015160f81c90506030811080159061184a575060398111155b156118765761185a6030826125c7565b61186584600a612752565b61186f9190612608565b92506118ca565b60405162461bcd60e51b815260206004820152602360248201527f696e76616c696420696e7075742c206f6e6c79206e756d6265727320616c6c6f6044820152621dd95960ea1b60648201526084016104af565b50806118d5816126e3565b915050611811565b5092915050565b610a9b828260405180602001604052806000815250611c22565b6001600160a01b0383166119595761195481609980546000838152609a60205260408120829055600182018355919091527f72a152ddfb8e864297c917af52ea6c1c68aead0fee1a62673fcc7e0c94979d000155565b61197c565b816001600160a01b0316836001600160a01b03161461197c5761197c8382611c55565b6001600160a01b038216611993576106a381611cf2565b826001600160a01b0316826001600160a01b0316146106a3576106a38282611da1565b60006001600160a01b0384163b15611ab857604051630a85bd0160e11b81526001600160a01b0385169063150b7a02906119fa903390899088908890600401612771565b602060405180830381600087803b158015611a1457600080fd5b505af1925050508015611a44575060408051601f3d908101601f19168201909252611a41918101906127ae565b60015b611a9e573d808015611a72576040519150601f19603f3d011682016040523d82523d6000602084013e611a77565b606091505b508051611a965760405162461bcd60e51b81526004016104af90612691565b805181602001fd5b6001600160e01b031916630a85bd0160e11b1490506111ef565b506001949350505050565b600054610100900460ff1680611adc575060005460ff16155b611af85760405162461bcd60e51b81526004016104af90612498565b600054610100900460ff161580156116f9576000805461ffff19166101011790558015610c44576000805461ff001916905550565b600054610100900460ff1680611b46575060005460ff16155b611b625760405162461bcd60e51b81526004016104af90612498565b600054610100900460ff16158015611b84576000805461ffff19166101011790555b8251611b97906065906020860190611f33565b508151611bab906066906020850190611f33565b5080156106a3576000805461ff0019169055505050565b600054610100900460ff1680611bdb575060005460ff16155b611bf75760405162461bcd60e51b81526004016104af90612498565b600054610100900460ff16158015611c19576000805461ffff19166101011790555b6116f9336113a2565b611c2c8383611de5565b611c3960008484846119b6565b6106a35760405162461bcd60e51b81526004016104af90612691565b60006001611c628461094c565b611c6c91906125c7565b600083815260986020526040902054909150808214611cbf576001600160a01b03841660009081526097602090815260408083208584528252808320548484528184208190558352609890915290208190555b5060009182526098602090815260408084208490556001600160a01b039094168352609781528383209183525290812055565b609954600090611d04906001906125c7565b6000838152609a602052604081205460998054939450909284908110611d2c57611d2c612537565b906000526020600020015490508060998381548110611d4d57611d4d612537565b6000918252602080832090910192909255828152609a90915260408082208490558582528120556099805480611d8557611d856127cb565b6001900381819060005260206000200160009055905550505050565b6000611dac8361094c565b6001600160a01b039093166000908152609760209081526040808320868452825280832085905593825260989052919091209190915550565b6001600160a01b038216611e3b5760405162461bcd60e51b815260206004820181905260248201527f4552433732313a206d696e7420746f20746865207a65726f206164647265737360448201526064016104af565b6000818152606760205260409020546001600160a01b031615611ea05760405162461bcd60e51b815260206004820152601c60248201527f4552433732313a20746f6b656e20616c7265616479206d696e7465640000000060448201526064016104af565b611eac600083836118fe565b6001600160a01b0382166000908152606860205260408120805460019290611ed5908490612608565b909155505060008181526067602052604080822080546001600160a01b0319166001600160a01b03861690811790915590518392907fddf252ad1be2c89b69c2b068fc378daa952ba7f163c4a11628f55a4df523b3ef908290a45050565b828054611f3f9061245d565b90600052602060002090601f016020900481019282611f615760008555611fa7565b82601f10611f7a57805160ff1916838001178555611fa7565b82800160010185558215611fa7579182015b82811115611fa7578251825591602001919060010190611f8c565b50611fb3929150611fb7565b5090565b5b80821115611fb35760008155600101611fb8565b6001600160e01b031981168114610c4457600080fd5b600060208284031215611ff457600080fd5b8135610ba581611fcc565b60005b8381101561201a578181015183820152602001612002565b838111156104f75750506000910152565b60008151808452612043816020860160208601611fff565b601f01601f19169290920160200192915050565b602081526000610ba5602083018461202b565b634e487b7160e01b600052604160045260246000fd5b600067ffffffffffffffff8084111561209b5761209b61206a565b604051601f8501601f19908116603f011681019082821181831017156120c3576120c361206a565b816040528093508581528686860111156120dc57600080fd5b858560208301376000602087830101525050509392505050565b600082601f83011261210757600080fd5b610ba583833560208501612080565b80356001600160a01b038116811461212d57600080fd5b919050565b60008060006060848603121561214757600080fd5b833567ffffffffffffffff8082111561215f57600080fd5b61216b878388016120f6565b9450602086013591508082111561218157600080fd5b5061218e868287016120f6565b92505061219d60408501612116565b90509250925092565b6000602082840312156121b857600080fd5b5035919050565b600080604083850312156121d257600080fd5b6121db83612116565b946020939093013593505050565b600080600080606085870312156121ff57600080fd5b61220885612116565b935060208501359250604085013567ffffffffffffffff8082111561222c57600080fd5b818701915087601f83011261224057600080fd5b81358181111561224f57600080fd5b88602082850101111561226157600080fd5b95989497505060200194505050565b60008060006060848603121561228557600080fd5b61228e84612116565b925061229c60208501612116565b9150604084013590509250925092565b6000602082840312156122be57600080fd5b610ba582612116565b6000602082840312156122d957600080fd5b813567ffffffffffffffff8111156122f057600080fd5b6111ef848285016120f6565b6000806040838503121561230f57600080fd5b61231883612116565b91506020830135801515811461232d57600080fd5b809150509250929050565b6000806000806080858703121561234e57600080fd5b61235785612116565b935061236560208601612116565b925060408501359150606085013567ffffffffffffffff81111561238857600080fd5b8501601f8101871361239957600080fd5b6123a887823560208401612080565b91505092959194509250565b634e487b7160e01b600052602160045260246000fd5b88151581526101008101600689106123f257634e487b7160e01b600052602160045260246000fd5b602082019890985260ff9690961660408701526060860194909452608085019290925260a084015260c083015260e090910152919050565b6000806040838503121561243d57600080fd5b61244683612116565b915061245460208401612116565b90509250929050565b600181811c9082168061247157607f821691505b6020821081141561249257634e487b7160e01b600052602260045260246000fd5b50919050565b6020808252602e908201527f496e697469616c697a61626c653a20636f6e747261637420697320616c72656160408201526d191e481a5b9a5d1a585b1a5e995960921b606082015260800190565b60208082526031908201527f4552433732313a207472616e736665722063616c6c6572206973206e6f74206f6040820152701ddb995c881b9bdc88185c1c1c9bdd9959607a1b606082015260800190565b634e487b7160e01b600052603260045260246000fd5b6020808252818101527f4f776e61626c653a2063616c6c6572206973206e6f7420746865206f776e6572604082015260600190565b60008351612594818460208801611fff565b8351908301906125a8818360208801611fff565b01949350505050565b634e487b7160e01b600052601160045260246000fd5b6000828210156125d9576125d96125b1565b500390565b600080858511156125ee57600080fd5b838611156125fb57600080fd5b5050820193919092039150565b6000821982111561261b5761261b6125b1565b500190565b600080600080600080600060e0888a03121561263b57600080fd5b87516006811061264a57600080fd5b602089015190975060ff8116811461266157600080fd5b604089015160608a015160808b015160a08c015160c0909c01519a9d939c50919a90999198509650945092505050565b60208082526032908201527f4552433732313a207472616e7366657220746f206e6f6e20455243373231526560408201527131b2b4bb32b91034b6b83632b6b2b73a32b960711b606082015260800190565b60006000198214156126f7576126f76125b1565b5060010190565b634e487b7160e01b600052601260045260246000fd5b600082612723576127236126fe565b500490565b600082612737576127376126fe565b500690565b634e487b7160e01b600052600160045260246000fd5b600081600019048311821515161561276c5761276c6125b1565b500290565b6001600160a01b03858116825284166020820152604081018390526080606082018190526000906127a49083018461202b565b9695505050505050565b6000602082840312156127c057600080fd5b8151610ba581611fcc565b634e487b7160e01b600052603160045260246000fdfea2646970667358221220818fbd31018ac8c62e8bd20af6e403aee2c526213f1ed4183127ffedcbfcb5ca64736f6c63430008090033",
  "devdoc": {
    "author": "Dmitry Yakovlevich",
    "kind": "dev",
    "methods": {
      "approve(address,uint256)": {
        "details": "See {IERC721-approve}."
      },
      "balanceOf(address)": {
        "details": "See {IERC721-balanceOf}."
      },
      "getApproved(uint256)": {
        "details": "See {IERC721-getApproved}."
      },
      "initialize(string,string,address)": {
        "params": {
          "_minter": "NFT Minter Address.",
          "name_": "NFT Name.",
          "symbol_": "NFT Symbol."
        }
      },
      "isApprovedForAll(address,address)": {
        "details": "See {IERC721-isApprovedForAll}."
      },
      "name()": {
        "details": "See {IERC721Metadata-name}."
      },
      "owner()": {
        "details": "Returns the address of the current owner."
      },
      "ownerOf(uint256)": {
        "details": "See {IERC721-ownerOf}."
      },
      "renounceOwnership()": {
        "details": "Leaves the contract without owner. It will not be possible to call `onlyOwner` functions anymore. Can only be called by the current owner. NOTE: Renouncing ownership will leave the contract without an owner, thereby removing any functionality that is only available to the owner."
      },
      "safeTransferFrom(address,address,uint256)": {
        "details": "See {IERC721-safeTransferFrom}."
      },
      "safeTransferFrom(address,address,uint256,bytes)": {
        "details": "See {IERC721-safeTransferFrom}."
      },
      "setApprovalForAll(address,bool)": {
        "details": "See {IERC721-setApprovalForAll}."
      },
      "setBaseUri(string)": {
        "details": "only owner can call this function.",
        "params": {
          "_baseUri_": "base URI."
        }
      },
      "supportsInterface(bytes4)": {
        "details": "See {IERC165-supportsInterface}."
      },
      "symbol()": {
        "details": "See {IERC721Metadata-symbol}."
      },
      "tokenByIndex(uint256)": {
        "details": "See {IERC721Enumerable-tokenByIndex}."
      },
      "tokenOfOwnerByIndex(address,uint256)": {
        "details": "See {IERC721Enumerable-tokenOfOwnerByIndex}."
      },
      "tokenURI(uint256)": {
        "details": "See {IERC721Metadata-tokenURI}."
      },
      "totalSupply()": {
        "details": "See {IERC721Enumerable-totalSupply}."
      },
      "transferFrom(address,address,uint256)": {
        "details": "See {IERC721-transferFrom}."
      },
      "transferOwnership(address)": {
        "details": "Transfers ownership of the contract to a new account (`newOwner`). Can only be called by the current owner."
      }
    },
    "title": "PortraitLayer, this contract is inherited BaseIlluvitar contract, this contract contains the function of combination and NFT metadata.",
    "version": 1
  },
  "userdoc": {
    "events": {
      "BaseUriUpdated(string)": {
        "notice": "event emitted when base URI is set."
      }
    },
    "kind": "user",
    "methods": {
      "initialize(string,string,address)": {
        "notice": "Initialize Base Layer."
      },
      "setBaseUri(string)": {
        "notice": "Set base URI"
      }
    },
    "version": 1
  },
  "storageLayout": {
    "storage": [
      {
        "astId": 756,
        "contract": "contracts/PortraitLayer.sol:PortraitLayer",
        "label": "_initialized",
        "offset": 0,
        "slot": "0",
        "type": "t_bool"
      },
      {
        "astId": 759,
        "contract": "contracts/PortraitLayer.sol:PortraitLayer",
        "label": "_initializing",
        "offset": 1,
        "slot": "0",
        "type": "t_bool"
      },
      {
        "astId": 2503,
        "contract": "contracts/PortraitLayer.sol:PortraitLayer",
        "label": "__gap",
        "offset": 0,
        "slot": "1",
        "type": "t_array(t_uint256)50_storage"
      },
      {
        "astId": 2752,
        "contract": "contracts/PortraitLayer.sol:PortraitLayer",
        "label": "__gap",
        "offset": 0,
        "slot": "51",
        "type": "t_array(t_uint256)50_storage"
      },
      {
        "astId": 825,
        "contract": "contracts/PortraitLayer.sol:PortraitLayer",
        "label": "_name",
        "offset": 0,
        "slot": "101",
        "type": "t_string_storage"
      },
      {
        "astId": 827,
        "contract": "contracts/PortraitLayer.sol:PortraitLayer",
        "label": "_symbol",
        "offset": 0,
        "slot": "102",
        "type": "t_string_storage"
      },
      {
        "astId": 831,
        "contract": "contracts/PortraitLayer.sol:PortraitLayer",
        "label": "_owners",
        "offset": 0,
        "slot": "103",
        "type": "t_mapping(t_uint256,t_address)"
      },
      {
        "astId": 835,
        "contract": "contracts/PortraitLayer.sol:PortraitLayer",
        "label": "_balances",
        "offset": 0,
        "slot": "104",
        "type": "t_mapping(t_address,t_uint256)"
      },
      {
        "astId": 839,
        "contract": "contracts/PortraitLayer.sol:PortraitLayer",
        "label": "_tokenApprovals",
        "offset": 0,
        "slot": "105",
        "type": "t_mapping(t_uint256,t_address)"
      },
      {
        "astId": 845,
        "contract": "contracts/PortraitLayer.sol:PortraitLayer",
        "label": "_operatorApprovals",
        "offset": 0,
        "slot": "106",
        "type": "t_mapping(t_address,t_mapping(t_address,t_bool))"
      },
      {
        "astId": 1656,
        "contract": "contracts/PortraitLayer.sol:PortraitLayer",
        "label": "__gap",
        "offset": 0,
        "slot": "107",
        "type": "t_array(t_uint256)44_storage"
      },
      {
        "astId": 1830,
        "contract": "contracts/PortraitLayer.sol:PortraitLayer",
        "label": "_ownedTokens",
        "offset": 0,
        "slot": "151",
        "type": "t_mapping(t_address,t_mapping(t_uint256,t_uint256))"
      },
      {
        "astId": 1834,
        "contract": "contracts/PortraitLayer.sol:PortraitLayer",
        "label": "_ownedTokensIndex",
        "offset": 0,
        "slot": "152",
        "type": "t_mapping(t_uint256,t_uint256)"
      },
      {
        "astId": 1837,
        "contract": "contracts/PortraitLayer.sol:PortraitLayer",
        "label": "_allTokens",
        "offset": 0,
        "slot": "153",
        "type": "t_array(t_uint256)dyn_storage"
      },
      {
        "astId": 1841,
        "contract": "contracts/PortraitLayer.sol:PortraitLayer",
        "label": "_allTokensIndex",
        "offset": 0,
        "slot": "154",
        "type": "t_mapping(t_uint256,t_uint256)"
      },
      {
        "astId": 2156,
        "contract": "contracts/PortraitLayer.sol:PortraitLayer",
        "label": "__gap",
        "offset": 0,
        "slot": "155",
        "type": "t_array(t_uint256)46_storage"
      },
      {
        "astId": 635,
        "contract": "contracts/PortraitLayer.sol:PortraitLayer",
        "label": "_owner",
        "offset": 0,
        "slot": "201",
        "type": "t_address"
      },
      {
        "astId": 749,
        "contract": "contracts/PortraitLayer.sol:PortraitLayer",
        "label": "__gap",
        "offset": 0,
        "slot": "202",
        "type": "t_array(t_uint256)49_storage"
      },
      {
        "astId": 4430,
        "contract": "contracts/PortraitLayer.sol:PortraitLayer",
        "label": "imxMinter",
        "offset": 0,
        "slot": "251",
        "type": "t_address"
      },
      {
        "astId": 4432,
        "contract": "contracts/PortraitLayer.sol:PortraitLayer",
        "label": "__baseUri",
        "offset": 0,
        "slot": "252",
        "type": "t_string_storage"
      },
      {
        "astId": 6016,
        "contract": "contracts/PortraitLayer.sol:PortraitLayer",
        "label": "metadata",
        "offset": 0,
        "slot": "253",
        "type": "t_mapping(t_uint256,t_struct(Metadata)6011_storage)"
      }
    ],
    "types": {
      "t_address": {
        "encoding": "inplace",
        "label": "address",
        "numberOfBytes": "20"
      },
      "t_array(t_uint256)44_storage": {
        "base": "t_uint256",
        "encoding": "inplace",
        "label": "uint256[44]",
        "numberOfBytes": "1408"
      },
      "t_array(t_uint256)46_storage": {
        "base": "t_uint256",
        "encoding": "inplace",
        "label": "uint256[46]",
        "numberOfBytes": "1472"
      },
      "t_array(t_uint256)49_storage": {
        "base": "t_uint256",
        "encoding": "inplace",
        "label": "uint256[49]",
        "numberOfBytes": "1568"
      },
      "t_array(t_uint256)50_storage": {
        "base": "t_uint256",
        "encoding": "inplace",
        "label": "uint256[50]",
        "numberOfBytes": "1600"
      },
      "t_array(t_uint256)dyn_storage": {
        "base": "t_uint256",
        "encoding": "dynamic_array",
        "label": "uint256[]",
        "numberOfBytes": "32"
      },
      "t_bool": {
        "encoding": "inplace",
        "label": "bool",
        "numberOfBytes": "1"
      },
      "t_enum(BoxType)4564": {
        "encoding": "inplace",
        "label": "enum BoxType",
        "numberOfBytes": "1"
      },
      "t_mapping(t_address,t_bool)": {
        "encoding": "mapping",
        "key": "t_address",
        "label": "mapping(address => bool)",
        "numberOfBytes": "32",
        "value": "t_bool"
      },
      "t_mapping(t_address,t_mapping(t_address,t_bool))": {
        "encoding": "mapping",
        "key": "t_address",
        "label": "mapping(address => mapping(address => bool))",
        "numberOfBytes": "32",
        "value": "t_mapping(t_address,t_bool)"
      },
      "t_mapping(t_address,t_mapping(t_uint256,t_uint256))": {
        "encoding": "mapping",
        "key": "t_address",
        "label": "mapping(address => mapping(uint256 => uint256))",
        "numberOfBytes": "32",
        "value": "t_mapping(t_uint256,t_uint256)"
      },
      "t_mapping(t_address,t_uint256)": {
        "encoding": "mapping",
        "key": "t_address",
        "label": "mapping(address => uint256)",
        "numberOfBytes": "32",
        "value": "t_uint256"
      },
      "t_mapping(t_uint256,t_address)": {
        "encoding": "mapping",
        "key": "t_uint256",
        "label": "mapping(uint256 => address)",
        "numberOfBytes": "32",
        "value": "t_address"
      },
      "t_mapping(t_uint256,t_struct(Metadata)6011_storage)": {
        "encoding": "mapping",
        "key": "t_uint256",
        "label": "mapping(uint256 => struct PortraitLayer.Metadata)",
        "numberOfBytes": "32",
        "value": "t_struct(Metadata)6011_storage"
      },
      "t_mapping(t_uint256,t_uint256)": {
        "encoding": "mapping",
        "key": "t_uint256",
        "label": "mapping(uint256 => uint256)",
        "numberOfBytes": "32",
        "value": "t_uint256"
      },
      "t_string_storage": {
        "encoding": "bytes",
        "label": "string",
        "numberOfBytes": "32"
      },
      "t_struct(Metadata)6011_storage": {
        "encoding": "inplace",
        "label": "struct PortraitLayer.Metadata",
        "members": [
          {
            "astId": 5995,
            "contract": "contracts/PortraitLayer.sol:PortraitLayer",
            "label": "initialized",
            "offset": 0,
            "slot": "0",
            "type": "t_bool"
          },
          {
            "astId": 5998,
            "contract": "contracts/PortraitLayer.sol:PortraitLayer",
            "label": "boxType",
            "offset": 1,
            "slot": "0",
            "type": "t_enum(BoxType)4564"
          },
          {
            "astId": 6000,
            "contract": "contracts/PortraitLayer.sol:PortraitLayer",
            "label": "tier",
            "offset": 2,
            "slot": "0",
            "type": "t_uint8"
          },
          {
            "astId": 6002,
            "contract": "contracts/PortraitLayer.sol:PortraitLayer",
            "label": "skinId",
            "offset": 0,
            "slot": "1",
            "type": "t_uint256"
          },
          {
            "astId": 6004,
            "contract": "contracts/PortraitLayer.sol:PortraitLayer",
            "label": "bodyId",
            "offset": 0,
            "slot": "2",
            "type": "t_uint256"
          },
          {
            "astId": 6006,
            "contract": "contracts/PortraitLayer.sol:PortraitLayer",
            "label": "eyeId",
            "offset": 0,
            "slot": "3",
            "type": "t_uint256"
          },
          {
            "astId": 6008,
            "contract": "contracts/PortraitLayer.sol:PortraitLayer",
            "label": "headId",
            "offset": 0,
            "slot": "4",
            "type": "t_uint256"
          },
          {
            "astId": 6010,
            "contract": "contracts/PortraitLayer.sol:PortraitLayer",
            "label": "propsId",
            "offset": 0,
            "slot": "5",
            "type": "t_uint256"
          }
        ],
        "numberOfBytes": "192"
      },
      "t_uint256": {
        "encoding": "inplace",
        "label": "uint256",
        "numberOfBytes": "32"
      },
      "t_uint8": {
        "encoding": "inplace",
        "label": "uint8",
        "numberOfBytes": "1"
      }
    }
  }
}