{
  "address": "0x6CFF74EC0cA9975AEBc6b6B76c834d7e247A89Ca",
  "abi": [
    {
      "anonymous": false,
      "inputs": [
        {
          "indexed": false,
          "internalType": "address",
          "name": "previousAdmin",
          "type": "address"
        },
        {
          "indexed": false,
          "internalType": "address",
          "name": "newAdmin",
          "type": "address"
        }
      ],
      "name": "AdminChanged",
      "type": "event"
    },
    {
      "anonymous": false,
      "inputs": [
        {
          "indexed": true,
          "internalType": "address",
          "name": "owner",
          "type": "address"
        },
        {
          "indexed": true,
          "internalType": "address",
          "name": "approved",
          "type": "address"
        },
        {
          "indexed": true,
          "internalType": "uint256",
          "name": "tokenId",
          "type": "uint256"
        }
      ],
      "name": "Approval",
      "type": "event"
    },
    {
      "anonymous": false,
      "inputs": [
        {
          "indexed": true,
          "internalType": "address",
          "name": "owner",
          "type": "address"
        },
        {
          "indexed": true,
          "internalType": "address",
          "name": "operator",
          "type": "address"
        },
        {
          "indexed": false,
          "internalType": "bool",
          "name": "approved",
          "type": "bool"
        }
      ],
      "name": "ApprovalForAll",
      "type": "event"
    },
    {
      "anonymous": false,
      "inputs": [
        {
          "indexed": false,
          "internalType": "string",
          "name": "baseUri",
          "type": "string"
        }
      ],
      "name": "BaseUriUpdated",
      "type": "event"
    },
    {
      "anonymous": false,
      "inputs": [
        {
          "indexed": true,
          "internalType": "address",
          "name": "beacon",
          "type": "address"
        }
      ],
      "name": "BeaconUpgraded",
      "type": "event"
    },
    {
      "anonymous": false,
      "inputs": [
        {
          "indexed": true,
          "internalType": "uint256",
          "name": "tokenId",
          "type": "uint256"
        },
        {
          "indexed": false,
          "internalType": "bool",
          "name": "sale",
          "type": "bool"
        }
      ],
      "name": "OpenForSale",
      "type": "event"
    },
    {
      "anonymous": false,
      "inputs": [
        {
          "indexed": true,
          "internalType": "address",
          "name": "previousOwner",
          "type": "address"
        },
        {
          "indexed": true,
          "internalType": "address",
          "name": "newOwner",
          "type": "address"
        }
      ],
      "name": "OwnershipTransferred",
      "type": "event"
    },
    {
      "anonymous": false,
      "inputs": [
        {
          "indexed": true,
          "internalType": "address",
          "name": "from",
          "type": "address"
        },
        {
          "indexed": true,
          "internalType": "address",
          "name": "to",
          "type": "address"
        },
        {
          "indexed": true,
          "internalType": "uint256",
          "name": "tokenId",
          "type": "uint256"
        }
      ],
      "name": "Transfer",
      "type": "event"
    },
    {
      "anonymous": false,
      "inputs": [
        {
          "indexed": true,
          "internalType": "address",
          "name": "implementation",
          "type": "address"
        }
      ],
      "name": "Upgraded",
      "type": "event"
    },
    {
      "inputs": [
        {
          "internalType": "address",
          "name": "to",
          "type": "address"
        },
        {
          "internalType": "uint256",
          "name": "tokenId",
          "type": "uint256"
        }
      ],
      "name": "approve",
      "outputs": [],
      "stateMutability": "nonpayable",
      "type": "function"
    },
    {
      "inputs": [
        {
          "internalType": "address",
          "name": "owner",
          "type": "address"
        }
      ],
      "name": "balanceOf",
      "outputs": [
        {
          "internalType": "uint256",
          "name": "",
          "type": "uint256"
        }
      ],
      "stateMutability": "view",
      "type": "function"
    },
    {
      "inputs": [
        {
          "internalType": "uint256",
          "name": "tokenId",
          "type": "uint256"
        }
      ],
      "name": "getApproved",
      "outputs": [
        {
          "internalType": "address",
          "name": "",
          "type": "address"
        }
      ],
      "stateMutability": "view",
      "type": "function"
    },
    {
      "inputs": [],
      "name": "imxMinter",
      "outputs": [
        {
          "internalType": "address",
          "name": "",
          "type": "address"
        }
      ],
      "stateMutability": "view",
      "type": "function"
    },
    {
      "inputs": [
        {
          "internalType": "string",
          "name": "name_",
          "type": "string"
        },
        {
          "internalType": "string",
          "name": "symbol_",
          "type": "string"
        },
        {
          "internalType": "address",
          "name": "imxMinter_",
          "type": "address"
        }
      ],
      "name": "initialize",
      "outputs": [],
      "stateMutability": "nonpayable",
      "type": "function"
    },
    {
      "inputs": [
        {
          "internalType": "address",
          "name": "owner",
          "type": "address"
        },
        {
          "internalType": "address",
          "name": "operator",
          "type": "address"
        }
      ],
      "name": "isApprovedForAll",
      "outputs": [
        {
          "internalType": "bool",
          "name": "",
          "type": "bool"
        }
      ],
      "stateMutability": "view",
      "type": "function"
    },
    {
      "inputs": [
        {
          "internalType": "uint256",
          "name": "tokenId",
          "type": "uint256"
        },
        {
          "internalType": "bool",
          "name": "_sale",
          "type": "bool"
        }
      ],
      "name": "markForSale",
      "outputs": [],
      "stateMutability": "nonpayable",
      "type": "function"
    },
    {
      "inputs": [
        {
          "internalType": "uint256",
          "name": "",
          "type": "uint256"
        }
      ],
      "name": "metadata",
      "outputs": [
        {
          "internalType": "enum BoxType",
          "name": "boxType",
          "type": "uint8"
        },
        {
          "internalType": "uint8",
          "name": "tier",
          "type": "uint8"
        },
        {
          "internalType": "uint256",
          "name": "skinId",
          "type": "uint256"
        },
        {
          "internalType": "uint256",
          "name": "bodyId",
          "type": "uint256"
        },
        {
          "internalType": "uint256",
          "name": "eyeId",
          "type": "uint256"
        },
        {
          "internalType": "uint256",
          "name": "headId",
          "type": "uint256"
        },
        {
          "internalType": "uint256",
          "name": "propsId",
          "type": "uint256"
        }
      ],
      "stateMutability": "view",
      "type": "function"
    },
    {
      "inputs": [
        {
          "internalType": "uint256",
          "name": "",
          "type": "uint256"
        }
      ],
      "name": "metadataInitialized",
      "outputs": [
        {
          "internalType": "bool",
          "name": "",
          "type": "bool"
        }
      ],
      "stateMutability": "view",
      "type": "function"
    },
    {
      "inputs": [
        {
          "internalType": "address",
          "name": "to",
          "type": "address"
        },
        {
          "internalType": "uint256",
          "name": "quantity",
          "type": "uint256"
        },
        {
          "internalType": "bytes",
          "name": "mintingBlob",
          "type": "bytes"
        }
      ],
      "name": "mintFor",
      "outputs": [],
      "stateMutability": "nonpayable",
      "type": "function"
    },
    {
      "inputs": [],
      "name": "name",
      "outputs": [
        {
          "internalType": "string",
          "name": "",
          "type": "string"
        }
      ],
      "stateMutability": "view",
      "type": "function"
    },
    {
      "inputs": [
        {
          "internalType": "uint256",
          "name": "",
          "type": "uint256"
        }
      ],
      "name": "openForSale",
      "outputs": [
        {
          "internalType": "bool",
          "name": "",
          "type": "bool"
        }
      ],
      "stateMutability": "view",
      "type": "function"
    },
    {
      "inputs": [],
      "name": "owner",
      "outputs": [
        {
          "internalType": "address",
          "name": "",
          "type": "address"
        }
      ],
      "stateMutability": "view",
      "type": "function"
    },
    {
      "inputs": [
        {
          "internalType": "uint256",
          "name": "tokenId",
          "type": "uint256"
        }
      ],
      "name": "ownerOf",
      "outputs": [
        {
          "internalType": "address",
          "name": "",
          "type": "address"
        }
      ],
      "stateMutability": "view",
      "type": "function"
    },
    {
      "inputs": [],
      "name": "renounceOwnership",
      "outputs": [],
      "stateMutability": "nonpayable",
      "type": "function"
    },
    {
      "inputs": [
        {
          "internalType": "address",
          "name": "from",
          "type": "address"
        },
        {
          "internalType": "address",
          "name": "to",
          "type": "address"
        },
        {
          "internalType": "uint256",
          "name": "tokenId",
          "type": "uint256"
        }
      ],
      "name": "safeTransferFrom",
      "outputs": [],
      "stateMutability": "nonpayable",
      "type": "function"
    },
    {
      "inputs": [
        {
          "internalType": "address",
          "name": "from",
          "type": "address"
        },
        {
          "internalType": "address",
          "name": "to",
          "type": "address"
        },
        {
          "internalType": "uint256",
          "name": "tokenId",
          "type": "uint256"
        },
        {
          "internalType": "bytes",
          "name": "_data",
          "type": "bytes"
        }
      ],
      "name": "safeTransferFrom",
      "outputs": [],
      "stateMutability": "nonpayable",
      "type": "function"
    },
    {
      "inputs": [
        {
          "internalType": "address",
          "name": "operator",
          "type": "address"
        },
        {
          "internalType": "bool",
          "name": "approved",
          "type": "bool"
        }
      ],
      "name": "setApprovalForAll",
      "outputs": [],
      "stateMutability": "nonpayable",
      "type": "function"
    },
    {
      "inputs": [
        {
          "internalType": "string",
          "name": "_baseUri_",
          "type": "string"
        }
      ],
      "name": "setBaseUri",
      "outputs": [],
      "stateMutability": "nonpayable",
      "type": "function"
    },
    {
      "inputs": [
        {
          "internalType": "bytes4",
          "name": "interfaceId",
          "type": "bytes4"
        }
      ],
      "name": "supportsInterface",
      "outputs": [
        {
          "internalType": "bool",
          "name": "",
          "type": "bool"
        }
      ],
      "stateMutability": "view",
      "type": "function"
    },
    {
      "inputs": [],
      "name": "symbol",
      "outputs": [
        {
          "internalType": "string",
          "name": "",
          "type": "string"
        }
      ],
      "stateMutability": "view",
      "type": "function"
    },
    {
      "inputs": [
        {
          "internalType": "uint256",
          "name": "index",
          "type": "uint256"
        }
      ],
      "name": "tokenByIndex",
      "outputs": [
        {
          "internalType": "uint256",
          "name": "",
          "type": "uint256"
        }
      ],
      "stateMutability": "view",
      "type": "function"
    },
    {
      "inputs": [
        {
          "internalType": "address",
          "name": "owner",
          "type": "address"
        },
        {
          "internalType": "uint256",
          "name": "index",
          "type": "uint256"
        }
      ],
      "name": "tokenOfOwnerByIndex",
      "outputs": [
        {
          "internalType": "uint256",
          "name": "",
          "type": "uint256"
        }
      ],
      "stateMutability": "view",
      "type": "function"
    },
    {
      "inputs": [
        {
          "internalType": "uint256",
          "name": "tokenId",
          "type": "uint256"
        }
      ],
      "name": "tokenURI",
      "outputs": [
        {
          "internalType": "string",
          "name": "",
          "type": "string"
        }
      ],
      "stateMutability": "view",
      "type": "function"
    },
    {
      "inputs": [],
      "name": "totalSupply",
      "outputs": [
        {
          "internalType": "uint256",
          "name": "",
          "type": "uint256"
        }
      ],
      "stateMutability": "view",
      "type": "function"
    },
    {
      "inputs": [
        {
          "internalType": "address",
          "name": "from",
          "type": "address"
        },
        {
          "internalType": "address",
          "name": "to",
          "type": "address"
        },
        {
          "internalType": "uint256",
          "name": "tokenId",
          "type": "uint256"
        }
      ],
      "name": "transferFrom",
      "outputs": [],
      "stateMutability": "nonpayable",
      "type": "function"
    },
    {
      "inputs": [
        {
          "internalType": "address",
          "name": "newOwner",
          "type": "address"
        }
      ],
      "name": "transferOwnership",
      "outputs": [],
      "stateMutability": "nonpayable",
      "type": "function"
    },
    {
      "inputs": [
        {
          "internalType": "address",
          "name": "newImplementation",
          "type": "address"
        }
      ],
      "name": "upgradeTo",
      "outputs": [],
      "stateMutability": "nonpayable",
      "type": "function"
    },
    {
      "inputs": [
        {
          "internalType": "address",
          "name": "newImplementation",
          "type": "address"
        },
        {
          "internalType": "bytes",
          "name": "data",
          "type": "bytes"
        }
      ],
      "name": "upgradeToAndCall",
      "outputs": [],
      "stateMutability": "payable",
      "type": "function"
    }
  ],
  "transactionHash": "0x5ffee23223c84cae84fc6a3d69d892cef2186c4fcecbdfc76da085e59e0934ed",
  "args": [],
  "numDeployments": 1,
  "solcInputHash": "5a372eaae7f2fc2d6064458d7256e678",
  "bytecode": "0x60a06040523060805234801561001457600080fd5b506080516133bf61004560003960008181610a7e01528181610abe01528181610b610152610ba101526133bf6000f3fe6080604052600436106101c25760003560e01c806362f54f29116100f7578063a100560e11610095578063e3684e3911610064578063e3684e3914610515578063e985e9c514610580578063f2fde38b146105c9578063fb91a7d2146105e957600080fd5b8063a100560e14610495578063a22cb465146104b5578063b88d4fde146104d5578063c87b56dd146104f557600080fd5b8063715018a6116100d1578063715018a61461042c5780638da5cb5b1461044157806395d89b4114610460578063a0bcfc7f1461047557600080fd5b806362f54f29146103bb5780636352211e146103ec57806370a082311461040c57600080fd5b806319ee6e3f116101645780633659cfe61161013e5780633659cfe61461034857806342842e0e146103685780634f1ef286146103885780634f6ccce71461039b57600080fd5b806319ee6e3f146102e857806323b872dd146103085780632f745c591461032857600080fd5b8063081812fc116101a0578063081812fc14610240578063095ea7b31461027857806315f514161461029857806318160ddd146102c957600080fd5b806301ffc9a7146101c757806306fdde03146101fc578063077f224a1461021e575b600080fd5b3480156101d357600080fd5b506101e76101e2366004612a77565b61060a565b60405190151581526020015b60405180910390f35b34801561020857600080fd5b50610211610635565b6040516101f39190612aec565b34801561022a57600080fd5b5061023e610239366004612bbe565b6106c7565b005b34801561024c57600080fd5b5061026061025b366004612c32565b61074a565b6040516001600160a01b0390911681526020016101f3565b34801561028457600080fd5b5061023e610293366004612c4b565b6107df565b3480156102a457600080fd5b506101e76102b3366004612c32565b6101606020526000908152604090205460ff1681565b3480156102d557600080fd5b506099545b6040519081526020016101f3565b3480156102f457600080fd5b5061023e610303366004612c75565b6108f4565b34801561031457600080fd5b5061023e610323366004612cfc565b6109ad565b34801561033457600080fd5b506102da610343366004612c4b565b6109de565b34801561035457600080fd5b5061023e610363366004612d38565b610a74565b34801561037457600080fd5b5061023e610383366004612cfc565b610b3c565b61023e610396366004612d53565b610b57565b3480156103a757600080fd5b506102da6103b6366004612c32565b610c10565b3480156103c757600080fd5b506101e76103d6366004612c32565b6101616020526000908152604090205460ff1681565b3480156103f857600080fd5b50610260610407366004612c32565b610ca3565b34801561041857600080fd5b506102da610427366004612d38565b610d1a565b34801561043857600080fd5b5061023e610da1565b34801561044d57600080fd5b5061012d546001600160a01b0316610260565b34801561046c57600080fd5b50610211610dd8565b34801561048157600080fd5b5061023e610490366004612da1565b610de7565b3480156104a157600080fd5b5061023e6104b0366004612de6565b610e61565b3480156104c157600080fd5b5061023e6104d0366004612e12565b610f0b565b3480156104e157600080fd5b5061023e6104f0366004612e3c565b610f16565b34801561050157600080fd5b50610211610510366004612c32565b610f48565b34801561052157600080fd5b5061056d610530366004612c32565b61018d6020526000908152604090208054600182015460028301546003840154600485015460059095015460ff8086169661010090960416949087565b6040516101f39796959493929190612eba565b34801561058c57600080fd5b506101e761059b366004612f0d565b6001600160a01b039182166000908152606a6020908152604080832093909416825291909152205460ff1690565b3480156105d557600080fd5b5061023e6105e4366004612d38565b611023565b3480156105f557600080fd5b5061015f54610260906001600160a01b031681565b60006001600160e01b0319821663780e9d6360e01b148061062f575061062f826110bc565b92915050565b60606065805461064490612f37565b80601f016020809104026020016040519081016040528092919081815260200182805461067090612f37565b80156106bd5780601f10610692576101008083540402835291602001916106bd565b820191906000526020600020905b8154815290600101906020018083116106a057829003601f168201915b5050505050905090565b600054610100900460ff16806106e0575060005460ff16155b6107055760405162461bcd60e51b81526004016106fc90612f71565b60405180910390fd5b600054610100900460ff16158015610727576000805461ffff19166101011790555b61073284848461110c565b8015610744576000805461ff00191690555b50505050565b6000818152606760205260408120546001600160a01b03166107c35760405162461bcd60e51b815260206004820152602c60248201527f4552433732313a20617070726f76656420717565727920666f72206e6f6e657860448201526b34b9ba32b73a103a37b5b2b760a11b60648201526084016106fc565b506000908152606960205260409020546001600160a01b031690565b60006107ea82610ca3565b9050806001600160a01b0316836001600160a01b0316036108575760405162461bcd60e51b815260206004820152602160248201527f4552433732313a20617070726f76616c20746f2063757272656e74206f776e656044820152603960f91b60648201526084016106fc565b336001600160a01b03821614806108735750610873813361059b565b6108e55760405162461bcd60e51b815260206004820152603860248201527f4552433732313a20617070726f76652063616c6c6572206973206e6f74206f7760448201527f6e6572206e6f7220617070726f76656420666f7220616c6c000000000000000060648201526084016106fc565b6108ef83836111fb565b505050565b826001146109375760405162461bcd60e51b815260206004820152601060248201526f416d6f756e74206d757374206265203160801b60448201526064016106fc565b61015f546001600160a01b031633146109895760405162461bcd60e51b815260206004820152601460248201527331b0b63632b91034b9903737ba1036b4b73a32b960611b60448201526064016106fc565b6000806109968484611269565b915091506109a5868383611427565b505050505050565b6109b73382611564565b6109d35760405162461bcd60e51b81526004016106fc90612fbf565b6108ef83838361165b565b60006109e983610d1a565b8210610a4b5760405162461bcd60e51b815260206004820152602b60248201527f455243373231456e756d657261626c653a206f776e657220696e646578206f7560448201526a74206f6620626f756e647360a81b60648201526084016106fc565b506001600160a01b03919091166000908152609760209081526040808320938352929052205490565b6001600160a01b037f0000000000000000000000000000000000000000000000000000000000000000163003610abc5760405162461bcd60e51b81526004016106fc90613010565b7f00000000000000000000000000000000000000000000000000000000000000006001600160a01b0316610aee611806565b6001600160a01b031614610b145760405162461bcd60e51b81526004016106fc9061305c565b610b1d81611834565b60408051600080825260208201909252610b399183919061185f565b50565b6108ef83838360405180602001604052806000815250610f16565b6001600160a01b037f0000000000000000000000000000000000000000000000000000000000000000163003610b9f5760405162461bcd60e51b81526004016106fc90613010565b7f00000000000000000000000000000000000000000000000000000000000000006001600160a01b0316610bd1611806565b6001600160a01b031614610bf75760405162461bcd60e51b81526004016106fc9061305c565b610c0082611834565b610c0c8282600161185f565b5050565b6000610c1b60995490565b8210610c7e5760405162461bcd60e51b815260206004820152602c60248201527f455243373231456e756d657261626c653a20676c6f62616c20696e646578206f60448201526b7574206f6620626f756e647360a01b60648201526084016106fc565b60998281548110610c9157610c916130a8565b90600052602060002001549050919050565b6000818152606760205260408120546001600160a01b03168061062f5760405162461bcd60e51b815260206004820152602960248201527f4552433732313a206f776e657220717565727920666f72206e6f6e657869737460448201526832b73a103a37b5b2b760b91b60648201526084016106fc565b60006001600160a01b038216610d855760405162461bcd60e51b815260206004820152602a60248201527f4552433732313a2062616c616e636520717565727920666f7220746865207a65604482015269726f206164647265737360b01b60648201526084016106fc565b506001600160a01b031660009081526068602052604090205490565b61012d546001600160a01b03163314610dcc5760405162461bcd60e51b81526004016106fc906130be565b610dd660006119aa565b565b60606066805461064490612f37565b61012d546001600160a01b03163314610e125760405162461bcd60e51b81526004016106fc906130be565b8051610e26906101629060208401906129c8565b507f24a9152dc695ecc801ad580886331ee12d7aac0fa2ae341a5ae3c2ccae36cb4f81604051610e569190612aec565b60405180910390a150565b33610e6b83610ca3565b6001600160a01b031614610eb35760405162461bcd60e51b815260206004820152600f60248201526e2737ba103a37b5b2b71037bbb732b960891b60448201526064016106fc565b60008281526101606020908152604091829020805460ff1916841515908117909155915191825283917f036fedb4eda8fe38b1b365630323b1545fcc52250cc798e273becc0c5b26bf58910160405180910390a25050565b610c0c3383836119fd565b610f203383611564565b610f3c5760405162461bcd60e51b81526004016106fc90612fbf565b61074484848484611acb565b6000818152606760205260409020546060906001600160a01b0316610fc75760405162461bcd60e51b815260206004820152602f60248201527f4552433732314d657461646174613a2055524920717565727920666f72206e6f60448201526e3732bc34b9ba32b73a103a37b5b2b760891b60648201526084016106fc565b6000610fd1611afe565b90506000815111610ff1576040518060200160405280600081525061101c565b80610ffb84611b0e565b60405160200161100c9291906130f3565b6040516020818303038152906040525b9392505050565b61012d546001600160a01b0316331461104e5760405162461bcd60e51b81526004016106fc906130be565b6001600160a01b0381166110b35760405162461bcd60e51b815260206004820152602660248201527f4f776e61626c653a206e6577206f776e657220697320746865207a65726f206160448201526564647265737360d01b60648201526084016106fc565b610b39816119aa565b60006001600160e01b031982166380ac58cd60e01b14806110ed57506001600160e01b03198216635b5e139f60e01b145b8061062f57506301ffc9a760e01b6001600160e01b031983161461062f565b600054610100900460ff1680611125575060005460ff16155b6111415760405162461bcd60e51b81526004016106fc90612f71565b600054610100900460ff16158015611163576000805461ffff19166101011790555b61116d8484611c0f565b611175611c96565b61117d611d19565b6001600160a01b0382166111c85760405162461bcd60e51b81526020600482015260126024820152714d696e7465722063616e6e6f74207a65726f60701b60448201526064016106fc565b61015f80546001600160a01b0319166001600160a01b0384161790558015610744576000805461ff001916905550505050565b600081815260696020526040902080546001600160a01b0319166001600160a01b038416908117909155819061123082610ca3565b6001600160a01b03167f8c5be1e5ebec7d5bd14f71427d1e84f3dd0314c0f7b2291e5b200ac8c7c3b92560405160405180910390a45050565b6000606060006112c785858080601f01602080910402602001604051908101604052809392919081815260200183838082843760009201829052506040805180820190915260018152601d60f91b602082015293509150611d809050565b905060008112156113115760405162461bcd60e51b815260206004820152601460248201527314d95c185c985d1bdc881b5d5cdd08195e1a5cdd60621b60448201526064016106fc565b600061136b866001876113248287613138565b926113319392919061314f565b8080601f016020809104026020016040519081016040528093929190818152602001838380828437600092019190915250611e1792505050565b90506000600361137b8488613138565b6113859190613138565b9050806000036113ac57816040518060200160405280600081525094509450505050611420565b36600088886113bc876002613179565b906113c860018c613138565b926113d59392919061314f565b9150915083828281818080601f016020809104026020016040519081016040528093929190818152602001838380828437600092019190915250959c50919a50505050505050505050505b9250929050565b6114318383611eef565b6000828152610161602052604090205460ff166108ef57600080600080600080600061145c88611f09565b96509650965096509650965096506040518060e0016040528088600581111561148757611487612ea4565b815260ff88166020808301919091526040808301899052606083018890526080830187905260a0830186905260c090920184905260008c815261018d9091522081518154829060ff191660018360058111156114e5576114e5612ea4565b0217905550602082810151825460ff9091166101000261ff0019909116178255604080840151600180850191909155606085015160028501556080850151600385015560a0850151600485015560c09094015160059093019290925560008c815261016190915220805460ff1916909117905550505050505050505050565b6000818152606760205260408120546001600160a01b03166115dd5760405162461bcd60e51b815260206004820152602c60248201527f4552433732313a206f70657261746f7220717565727920666f72206e6f6e657860448201526b34b9ba32b73a103a37b5b2b760a11b60648201526084016106fc565b60006115e883610ca3565b9050806001600160a01b0316846001600160a01b031614806116235750836001600160a01b03166116188461074a565b6001600160a01b0316145b8061165357506001600160a01b038082166000908152606a602090815260408083209388168352929052205460ff165b949350505050565b826001600160a01b031661166e82610ca3565b6001600160a01b0316146116d65760405162461bcd60e51b815260206004820152602960248201527f4552433732313a207472616e73666572206f6620746f6b656e2074686174206960448201526839903737ba1037bbb760b91b60648201526084016106fc565b6001600160a01b0382166117385760405162461bcd60e51b8152602060048201526024808201527f4552433732313a207472616e7366657220746f20746865207a65726f206164646044820152637265737360e01b60648201526084016106fc565b6117438383836120b9565b61174e6000826111fb565b6001600160a01b0383166000908152606860205260408120805460019290611777908490613138565b90915550506001600160a01b03821660009081526068602052604081208054600192906117a5908490613179565b909155505060008181526067602052604080822080546001600160a01b0319166001600160a01b0386811691821790925591518493918716917fddf252ad1be2c89b69c2b068fc378daa952ba7f163c4a11628f55a4df523b3ef91a4505050565b7f360894a13ba1a3210667c828492db98dca3e2076cc3735a920a3ca505d382bbc546001600160a01b031690565b61012d546001600160a01b03163314610b395760405162461bcd60e51b81526004016106fc906130be565b6000611869611806565b905061187484612171565b6000835111806118815750815b15611892576118908484612216565b505b7f4910fdfa16fed3260ed0e7147f7cc6da11a60208b5b9406d12a635614ffd9143805460ff166119a357805460ff191660011781556040516001600160a01b038316602482015261191190869060440160408051601f198184030181529190526020810180516001600160e01b0316631b2ce7f360e11b179052612216565b50805460ff19168155611922611806565b6001600160a01b0316826001600160a01b03161461199a5760405162461bcd60e51b815260206004820152602f60248201527f45524331393637557067726164653a207570677261646520627265616b73206660448201526e75727468657220757067726164657360881b60648201526084016106fc565b6119a385612301565b5050505050565b61012d80546001600160a01b038381166001600160a01b0319831681179093556040519116919082907f8be0079c531659141344cd1fd0a4f28419497f9722a3daafe3b4186f6b6457e090600090a35050565b816001600160a01b0316836001600160a01b031603611a5e5760405162461bcd60e51b815260206004820152601960248201527f4552433732313a20617070726f766520746f2063616c6c65720000000000000060448201526064016106fc565b6001600160a01b038381166000818152606a6020908152604080832094871680845294825291829020805460ff191686151590811790915591519182527f17307eab39ab6107e8899845ad3d59bd9653f200f220920489ca2b5937696c31910160405180910390a3505050565b611ad684848461165b565b611ae284848484612341565b6107445760405162461bcd60e51b81526004016106fc90613191565b6060610162805461064490612f37565b606081600003611b355750506040805180820190915260018152600360fc1b602082015290565b8160005b8115611b5f5780611b49816131e3565b9150611b589050600a83613212565b9150611b39565b60008167ffffffffffffffff811115611b7a57611b7a612aff565b6040519080825280601f01601f191660200182016040528015611ba4576020820181803683370190505b5090505b841561165357611bb9600183613138565b9150611bc6600a86613226565b611bd1906030613179565b60f81b818381518110611be657611be66130a8565b60200101906001600160f81b031916908160001a905350611c08600a86613212565b9450611ba8565b600054610100900460ff1680611c28575060005460ff16155b611c445760405162461bcd60e51b81526004016106fc90612f71565b600054610100900460ff16158015611c66576000805461ffff19166101011790555b611c6e612442565b611c76612442565b611c8083836124ac565b80156108ef576000805461ff0019169055505050565b600054610100900460ff1680611caf575060005460ff16155b611ccb5760405162461bcd60e51b81526004016106fc90612f71565b600054610100900460ff16158015611ced576000805461ffff19166101011790555b611cf5612442565b611cfd612442565b611d05612442565b8015610b39576000805461ff001916905550565b600054610100900460ff1680611d32575060005460ff16155b611d4e5760405162461bcd60e51b81526004016106fc90612f71565b600054610100900460ff16158015611d70576000805461ffff19166101011790555b611d78612442565b611d05612541565b81516000908390600114611d9657611d9661323a565b825b8551811015611e0a5781600081518110611db457611db46130a8565b602001015160f81c60f81b6001600160f81b031916868281518110611ddb57611ddb6130a8565b01602001516001600160f81b03191603611df857915061101c9050565b80611e02816131e3565b915050611d98565b5060001995945050505050565b600080805b8351811015611ee8576000848281518110611e3957611e396130a8565b016020015160f81c905060308110801590611e55575060398111155b15611e8157611e65603082613138565b611e7084600a613250565b611e7a9190613179565b9250611ed5565b60405162461bcd60e51b815260206004820152602360248201527f696e76616c696420696e7075742c206f6e6c79206e756d6265727320616c6c6f6044820152621dd95960ea1b60648201526084016106fc565b5080611ee0816131e3565b915050611e1c565b5092915050565b610c0c8282604051806020016040528060008152506125a1565b6000806000806000806000806000905060008951905060005b818160ff16101561201557611f598b8260ff1681518110611f4557611f456130a8565b01602001516001600160f81b0319166125d4565b15612003578260ff16600003611fad5760308b8260ff1681518110611f8057611f806130a8565b0160200151611f92919060f81c61326f565b60ff166005811115611fa657611fa6612ea4565b9950611ff5565b8260ff16600103611ff55760308b8260ff1681518110611fcf57611fcf6130a8565b0160200151611fe1919060f81c61326f565b9850611fee600182613292565b9050612015565b612000600184613292565b92505b61200e600182613292565b9050611f22565b61201f8b826125f3565b909850905061202e8b826125f3565b909750905061203d8b826125f3565b909650905061204c8b826125f3565b909550905061205b8b826125f3565b909450905060ff811682146120ab5760405162461bcd60e51b815260206004820152601660248201527515dc9bdb99c8189b1d595c1c9a5b9d08199bdc9b585d60521b60448201526064016106fc565b505050919395979092949650565b6001600160a01b0383166121145761210f81609980546000838152609a60205260408120829055600182018355919091527f72a152ddfb8e864297c917af52ea6c1c68aead0fee1a62673fcc7e0c94979d000155565b612137565b816001600160a01b0316836001600160a01b0316146121375761213783826126b1565b6001600160a01b03821661214e576108ef8161274e565b826001600160a01b0316826001600160a01b0316146108ef576108ef82826127fd565b803b6121d55760405162461bcd60e51b815260206004820152602d60248201527f455243313936373a206e657720696d706c656d656e746174696f6e206973206e60448201526c1bdd08184818dbdb9d1c9858dd609a1b60648201526084016106fc565b7f360894a13ba1a3210667c828492db98dca3e2076cc3735a920a3ca505d382bbc80546001600160a01b0319166001600160a01b0392909216919091179055565b6060823b6122755760405162461bcd60e51b815260206004820152602660248201527f416464726573733a2064656c65676174652063616c6c20746f206e6f6e2d636f6044820152651b9d1c9858dd60d21b60648201526084016106fc565b600080846001600160a01b03168460405161229091906132b7565b600060405180830381855af49150503d80600081146122cb576040519150601f19603f3d011682016040523d82523d6000602084013e6122d0565b606091505b50915091506122f8828260405180606001604052806027815260200161336360279139612841565b95945050505050565b61230a81612171565b6040516001600160a01b038216907fbc7cd75a20ee27fd9adebab32041f755214dbc6bffa90cc0225b39da2e5c2d3b90600090a250565b60006001600160a01b0384163b1561243757604051630a85bd0160e11b81526001600160a01b0385169063150b7a02906123859033908990889088906004016132d3565b6020604051808303816000875af19250505080156123c0575060408051601f3d908101601f191682019092526123bd91810190613310565b60015b61241d573d8080156123ee576040519150601f19603f3d011682016040523d82523d6000602084013e6123f3565b606091505b5080516000036124155760405162461bcd60e51b81526004016106fc90613191565b805181602001fd5b6001600160e01b031916630a85bd0160e11b149050611653565b506001949350505050565b600054610100900460ff168061245b575060005460ff16155b6124775760405162461bcd60e51b81526004016106fc90612f71565b600054610100900460ff16158015611d05576000805461ffff19166101011790558015610b39576000805461ff001916905550565b600054610100900460ff16806124c5575060005460ff16155b6124e15760405162461bcd60e51b81526004016106fc90612f71565b600054610100900460ff16158015612503576000805461ffff19166101011790555b82516125169060659060208601906129c8565b50815161252a9060669060208501906129c8565b5080156108ef576000805461ff0019169055505050565b600054610100900460ff168061255a575060005460ff16155b6125765760405162461bcd60e51b81526004016106fc90612f71565b600054610100900460ff16158015612598576000805461ffff19166101011790555b611d05336119aa565b6125ab838361287a565b6125b86000848484612341565b6108ef5760405162461bcd60e51b81526004016106fc90613191565b6000603060f883901c1080159061062f575050603a60f89190911c1090565b6000815b83518160ff1610156126315761261b848260ff1681518110611f4557611f456130a8565b61263157806126298161332d565b9150506125f7565b83518160ff16101561142057612655848260ff1681518110611f4557611f456130a8565b1561142057612665600a83613250565b91506030848260ff168151811061267e5761267e6130a8565b0160200151612690919060f81c61326f565b61269d9060ff1683613179565b9150806126a98161332d565b915050612631565b600060016126be84610d1a565b6126c89190613138565b60008381526098602052604090205490915080821461271b576001600160a01b03841660009081526097602090815260408083208584528252808320548484528184208190558352609890915290208190555b5060009182526098602090815260408084208490556001600160a01b039094168352609781528383209183525290812055565b60995460009061276090600190613138565b6000838152609a602052604081205460998054939450909284908110612788576127886130a8565b9060005260206000200154905080609983815481106127a9576127a96130a8565b6000918252602080832090910192909255828152609a909152604080822084905585825281205560998054806127e1576127e161334c565b6001900381819060005260206000200160009055905550505050565b600061280883610d1a565b6001600160a01b039093166000908152609760209081526040808320868452825280832085905593825260989052919091209190915550565b6060831561285057508161101c565b8251156128605782518084602001fd5b8160405162461bcd60e51b81526004016106fc9190612aec565b6001600160a01b0382166128d05760405162461bcd60e51b815260206004820181905260248201527f4552433732313a206d696e7420746f20746865207a65726f206164647265737360448201526064016106fc565b6000818152606760205260409020546001600160a01b0316156129355760405162461bcd60e51b815260206004820152601c60248201527f4552433732313a20746f6b656e20616c7265616479206d696e7465640000000060448201526064016106fc565b612941600083836120b9565b6001600160a01b038216600090815260686020526040812080546001929061296a908490613179565b909155505060008181526067602052604080822080546001600160a01b0319166001600160a01b03861690811790915590518392907fddf252ad1be2c89b69c2b068fc378daa952ba7f163c4a11628f55a4df523b3ef908290a45050565b8280546129d490612f37565b90600052602060002090601f0160209004810192826129f65760008555612a3c565b82601f10612a0f57805160ff1916838001178555612a3c565b82800160010185558215612a3c579182015b82811115612a3c578251825591602001919060010190612a21565b50612a48929150612a4c565b5090565b5b80821115612a485760008155600101612a4d565b6001600160e01b031981168114610b3957600080fd5b600060208284031215612a8957600080fd5b813561101c81612a61565b60005b83811015612aaf578181015183820152602001612a97565b838111156107445750506000910152565b60008151808452612ad8816020860160208601612a94565b601f01601f19169290920160200192915050565b60208152600061101c6020830184612ac0565b634e487b7160e01b600052604160045260246000fd5b600082601f830112612b2657600080fd5b813567ffffffffffffffff80821115612b4157612b41612aff565b604051601f8301601f19908116603f01168101908282118183101715612b6957612b69612aff565b81604052838152866020858801011115612b8257600080fd5b836020870160208301376000602085830101528094505050505092915050565b80356001600160a01b0381168114612bb957600080fd5b919050565b600080600060608486031215612bd357600080fd5b833567ffffffffffffffff80821115612beb57600080fd5b612bf787838801612b15565b94506020860135915080821115612c0d57600080fd5b50612c1a86828701612b15565b925050612c2960408501612ba2565b90509250925092565b600060208284031215612c4457600080fd5b5035919050565b60008060408385031215612c5e57600080fd5b612c6783612ba2565b946020939093013593505050565b60008060008060608587031215612c8b57600080fd5b612c9485612ba2565b935060208501359250604085013567ffffffffffffffff80821115612cb857600080fd5b818701915087601f830112612ccc57600080fd5b813581811115612cdb57600080fd5b886020828501011115612ced57600080fd5b95989497505060200194505050565b600080600060608486031215612d1157600080fd5b612d1a84612ba2565b9250612d2860208501612ba2565b9150604084013590509250925092565b600060208284031215612d4a57600080fd5b61101c82612ba2565b60008060408385031215612d6657600080fd5b612d6f83612ba2565b9150602083013567ffffffffffffffff811115612d8b57600080fd5b612d9785828601612b15565b9150509250929050565b600060208284031215612db357600080fd5b813567ffffffffffffffff811115612dca57600080fd5b61165384828501612b15565b80358015158114612bb957600080fd5b60008060408385031215612df957600080fd5b82359150612e0960208401612dd6565b90509250929050565b60008060408385031215612e2557600080fd5b612e2e83612ba2565b9150612e0960208401612dd6565b60008060008060808587031215612e5257600080fd5b612e5b85612ba2565b9350612e6960208601612ba2565b925060408501359150606085013567ffffffffffffffff811115612e8c57600080fd5b612e9887828801612b15565b91505092959194509250565b634e487b7160e01b600052602160045260246000fd5b60e0810160068910612edc57634e487b7160e01b600052602160045260246000fd5b97815260ff96909616602087015260408601949094526060850192909252608084015260a083015260c09091015290565b60008060408385031215612f2057600080fd5b612f2983612ba2565b9150612e0960208401612ba2565b600181811c90821680612f4b57607f821691505b602082108103612f6b57634e487b7160e01b600052602260045260246000fd5b50919050565b6020808252602e908201527f496e697469616c697a61626c653a20636f6e747261637420697320616c72656160408201526d191e481a5b9a5d1a585b1a5e995960921b606082015260800190565b60208082526031908201527f4552433732313a207472616e736665722063616c6c6572206973206e6f74206f6040820152701ddb995c881b9bdc88185c1c1c9bdd9959607a1b606082015260800190565b6020808252602c908201527f46756e6374696f6e206d7573742062652063616c6c6564207468726f7567682060408201526b19195b1959d85d1958d85b1b60a21b606082015260800190565b6020808252602c908201527f46756e6374696f6e206d7573742062652063616c6c6564207468726f7567682060408201526b6163746976652070726f787960a01b606082015260800190565b634e487b7160e01b600052603260045260246000fd5b6020808252818101527f4f776e61626c653a2063616c6c6572206973206e6f7420746865206f776e6572604082015260600190565b60008351613105818460208801612a94565b835190830190613119818360208801612a94565b01949350505050565b634e487b7160e01b600052601160045260246000fd5b60008282101561314a5761314a613122565b500390565b6000808585111561315f57600080fd5b8386111561316c57600080fd5b5050820193919092039150565b6000821982111561318c5761318c613122565b500190565b60208082526032908201527f4552433732313a207472616e7366657220746f206e6f6e20455243373231526560408201527131b2b4bb32b91034b6b83632b6b2b73a32b960711b606082015260800190565b6000600182016131f5576131f5613122565b5060010190565b634e487b7160e01b600052601260045260246000fd5b600082613221576132216131fc565b500490565b600082613235576132356131fc565b500690565b634e487b7160e01b600052600160045260246000fd5b600081600019048311821515161561326a5761326a613122565b500290565b600060ff821660ff84168082101561328957613289613122565b90039392505050565b600060ff821660ff84168060ff038211156132af576132af613122565b019392505050565b600082516132c9818460208701612a94565b9190910192915050565b6001600160a01b038581168252841660208201526040810183905260806060820181905260009061330690830184612ac0565b9695505050505050565b60006020828403121561332257600080fd5b815161101c81612a61565b600060ff821660ff810361334357613343613122565b60010192915050565b634e487b7160e01b600052603160045260246000fdfe416464726573733a206c6f772d6c6576656c2064656c65676174652063616c6c206661696c6564a26469706673582212207233619246e6562c46a285f0dd49be74953a8030919a8edff972cc6095b35e4764736f6c634300080e0033",
  "devdoc": {
    "author": "Dmitry Yakovlevich",
    "details": "inherit BaseIlluvitar",
    "kind": "dev",
    "methods": {
      "approve(address,uint256)": {
        "details": "See {IERC721-approve}."
      },
      "balanceOf(address)": {
        "details": "See {IERC721-balanceOf}."
      },
      "getApproved(uint256)": {
        "details": "See {IERC721-getApproved}."
      },
      "initialize(string,string,address)": {
        "details": "Initialize Portrait Layer.",
        "params": {
          "imxMinter_": "IMX Minter Address",
          "name_": "NFT Name",
          "symbol_": "NFT Symbol"
        }
      },
      "isApprovedForAll(address,address)": {
        "details": "See {IERC721-isApprovedForAll}."
      },
      "markForSale(uint256,bool)": {
        "details": "Mark for sale",
        "params": {
          "_sale": "true or false",
          "tokenId": "tokenId"
        }
      },
      "mintFor(address,uint256,bytes)": {
        "details": "Used to withdraw from IMX",
        "params": {
          "mintingBlob": "IMX minting blob string - {tokenId:blueprint}",
          "quantity": "quantity - must be 1",
          "to": "Recipient address"
        }
      },
      "name()": {
        "details": "See {IERC721Metadata-name}."
      },
      "owner()": {
        "details": "Returns the address of the current owner."
      },
      "ownerOf(uint256)": {
        "details": "See {IERC721-ownerOf}."
      },
      "renounceOwnership()": {
        "details": "Leaves the contract without owner. It will not be possible to call `onlyOwner` functions anymore. Can only be called by the current owner. NOTE: Renouncing ownership will leave the contract without an owner, thereby removing any functionality that is only available to the owner."
      },
      "safeTransferFrom(address,address,uint256)": {
        "details": "See {IERC721-safeTransferFrom}."
      },
      "safeTransferFrom(address,address,uint256,bytes)": {
        "details": "See {IERC721-safeTransferFrom}."
      },
      "setApprovalForAll(address,bool)": {
        "details": "See {IERC721-setApprovalForAll}."
      },
      "setBaseUri(string)": {
        "details": "Set base URI",
        "params": {
          "_baseUri_": "base URI."
        }
      },
      "supportsInterface(bytes4)": {
        "details": "See {IERC165-supportsInterface}."
      },
      "symbol()": {
        "details": "See {IERC721Metadata-symbol}."
      },
      "tokenByIndex(uint256)": {
        "details": "See {IERC721Enumerable-tokenByIndex}."
      },
      "tokenOfOwnerByIndex(address,uint256)": {
        "details": "See {IERC721Enumerable-tokenOfOwnerByIndex}."
      },
      "tokenURI(uint256)": {
        "details": "See {IERC721Metadata-tokenURI}."
      },
      "totalSupply()": {
        "details": "See {IERC721Enumerable-totalSupply}."
      },
      "transferFrom(address,address,uint256)": {
        "details": "See {IERC721-transferFrom}."
      },
      "transferOwnership(address)": {
        "details": "Transfers ownership of the contract to a new account (`newOwner`). Can only be called by the current owner."
      },
      "upgradeTo(address)": {
        "details": "Upgrade the implementation of the proxy to `newImplementation`. Calls {_authorizeUpgrade}. Emits an {Upgraded} event."
      },
      "upgradeToAndCall(address,bytes)": {
        "details": "Upgrade the implementation of the proxy to `newImplementation`, and subsequently execute the function call encoded in `data`. Calls {_authorizeUpgrade}. Emits an {Upgraded} event."
      }
    },
    "stateVariables": {
      "metadata": {
        "details": "Portrait metadata"
      }
    },
    "title": "Portrait Layer",
    "version": 1
  },
  "userdoc": {
    "kind": "user",
    "methods": {
      "markForSale(uint256,bool)": {
        "notice": "Illuvitars cannot be used in game if they are open for sale"
      },
      "setBaseUri(string)": {
        "notice": "only owner can call this function."
      }
    },
    "version": 1
  },
  "storageLayout": {
    "storage": [
      {
        "astId": 1089,
        "contract": "contracts/PortraitLayer.sol:PortraitLayer",
        "label": "_initialized",
        "offset": 0,
        "slot": "0",
        "type": "t_bool"
      },
      {
        "astId": 1092,
        "contract": "contracts/PortraitLayer.sol:PortraitLayer",
        "label": "_initializing",
        "offset": 1,
        "slot": "0",
        "type": "t_bool"
      },
      {
        "astId": 3249,
        "contract": "contracts/PortraitLayer.sol:PortraitLayer",
        "label": "__gap",
        "offset": 0,
        "slot": "1",
        "type": "t_array(t_uint256)50_storage"
      },
      {
        "astId": 3558,
        "contract": "contracts/PortraitLayer.sol:PortraitLayer",
        "label": "__gap",
        "offset": 0,
        "slot": "51",
        "type": "t_array(t_uint256)50_storage"
      },
      {
        "astId": 1571,
        "contract": "contracts/PortraitLayer.sol:PortraitLayer",
        "label": "_name",
        "offset": 0,
        "slot": "101",
        "type": "t_string_storage"
      },
      {
        "astId": 1573,
        "contract": "contracts/PortraitLayer.sol:PortraitLayer",
        "label": "_symbol",
        "offset": 0,
        "slot": "102",
        "type": "t_string_storage"
      },
      {
        "astId": 1577,
        "contract": "contracts/PortraitLayer.sol:PortraitLayer",
        "label": "_owners",
        "offset": 0,
        "slot": "103",
        "type": "t_mapping(t_uint256,t_address)"
      },
      {
        "astId": 1581,
        "contract": "contracts/PortraitLayer.sol:PortraitLayer",
        "label": "_balances",
        "offset": 0,
        "slot": "104",
        "type": "t_mapping(t_address,t_uint256)"
      },
      {
        "astId": 1585,
        "contract": "contracts/PortraitLayer.sol:PortraitLayer",
        "label": "_tokenApprovals",
        "offset": 0,
        "slot": "105",
        "type": "t_mapping(t_uint256,t_address)"
      },
      {
        "astId": 1591,
        "contract": "contracts/PortraitLayer.sol:PortraitLayer",
        "label": "_operatorApprovals",
        "offset": 0,
        "slot": "106",
        "type": "t_mapping(t_address,t_mapping(t_address,t_bool))"
      },
      {
        "astId": 2402,
        "contract": "contracts/PortraitLayer.sol:PortraitLayer",
        "label": "__gap",
        "offset": 0,
        "slot": "107",
        "type": "t_array(t_uint256)44_storage"
      },
      {
        "astId": 2576,
        "contract": "contracts/PortraitLayer.sol:PortraitLayer",
        "label": "_ownedTokens",
        "offset": 0,
        "slot": "151",
        "type": "t_mapping(t_address,t_mapping(t_uint256,t_uint256))"
      },
      {
        "astId": 2580,
        "contract": "contracts/PortraitLayer.sol:PortraitLayer",
        "label": "_ownedTokensIndex",
        "offset": 0,
        "slot": "152",
        "type": "t_mapping(t_uint256,t_uint256)"
      },
      {
        "astId": 2583,
        "contract": "contracts/PortraitLayer.sol:PortraitLayer",
        "label": "_allTokens",
        "offset": 0,
        "slot": "153",
        "type": "t_array(t_uint256)dyn_storage"
      },
      {
        "astId": 2587,
        "contract": "contracts/PortraitLayer.sol:PortraitLayer",
        "label": "_allTokensIndex",
        "offset": 0,
        "slot": "154",
        "type": "t_mapping(t_uint256,t_uint256)"
      },
      {
        "astId": 2902,
        "contract": "contracts/PortraitLayer.sol:PortraitLayer",
        "label": "__gap",
        "offset": 0,
        "slot": "155",
        "type": "t_array(t_uint256)46_storage"
      },
      {
        "astId": 1072,
        "contract": "contracts/PortraitLayer.sol:PortraitLayer",
        "label": "__gap",
        "offset": 0,
        "slot": "201",
        "type": "t_array(t_uint256)50_storage"
      },
      {
        "astId": 1239,
        "contract": "contracts/PortraitLayer.sol:PortraitLayer",
        "label": "__gap",
        "offset": 0,
        "slot": "251",
        "type": "t_array(t_uint256)50_storage"
      },
      {
        "astId": 560,
        "contract": "contracts/PortraitLayer.sol:PortraitLayer",
        "label": "_owner",
        "offset": 0,
        "slot": "301",
        "type": "t_address"
      },
      {
        "astId": 674,
        "contract": "contracts/PortraitLayer.sol:PortraitLayer",
        "label": "__gap",
        "offset": 0,
        "slot": "302",
        "type": "t_array(t_uint256)49_storage"
      },
      {
        "astId": 3789,
        "contract": "contracts/PortraitLayer.sol:PortraitLayer",
        "label": "imxMinter",
        "offset": 0,
        "slot": "351",
        "type": "t_address"
      },
      {
        "astId": 3794,
        "contract": "contracts/PortraitLayer.sol:PortraitLayer",
        "label": "openForSale",
        "offset": 0,
        "slot": "352",
        "type": "t_mapping(t_uint256,t_bool)"
      },
      {
        "astId": 3799,
        "contract": "contracts/PortraitLayer.sol:PortraitLayer",
        "label": "metadataInitialized",
        "offset": 0,
        "slot": "353",
        "type": "t_mapping(t_uint256,t_bool)"
      },
      {
        "astId": 3802,
        "contract": "contracts/PortraitLayer.sol:PortraitLayer",
        "label": "__baseUri",
        "offset": 0,
        "slot": "354",
        "type": "t_string_storage"
      },
      {
        "astId": 3987,
        "contract": "contracts/PortraitLayer.sol:PortraitLayer",
        "label": "__gap",
        "offset": 0,
        "slot": "355",
        "type": "t_array(t_uint256)42_storage"
      },
      {
        "astId": 4033,
        "contract": "contracts/PortraitLayer.sol:PortraitLayer",
        "label": "metadata",
        "offset": 0,
        "slot": "397",
        "type": "t_mapping(t_uint256,t_struct(Metadata)4027_storage)"
      }
    ],
    "types": {
      "t_address": {
        "encoding": "inplace",
        "label": "address",
        "numberOfBytes": "20"
      },
      "t_array(t_uint256)42_storage": {
        "base": "t_uint256",
        "encoding": "inplace",
        "label": "uint256[42]",
        "numberOfBytes": "1344"
      },
      "t_array(t_uint256)44_storage": {
        "base": "t_uint256",
        "encoding": "inplace",
        "label": "uint256[44]",
        "numberOfBytes": "1408"
      },
      "t_array(t_uint256)46_storage": {
        "base": "t_uint256",
        "encoding": "inplace",
        "label": "uint256[46]",
        "numberOfBytes": "1472"
      },
      "t_array(t_uint256)49_storage": {
        "base": "t_uint256",
        "encoding": "inplace",
        "label": "uint256[49]",
        "numberOfBytes": "1568"
      },
      "t_array(t_uint256)50_storage": {
        "base": "t_uint256",
        "encoding": "inplace",
        "label": "uint256[50]",
        "numberOfBytes": "1600"
      },
      "t_array(t_uint256)dyn_storage": {
        "base": "t_uint256",
        "encoding": "dynamic_array",
        "label": "uint256[]",
        "numberOfBytes": "32"
      },
      "t_bool": {
        "encoding": "inplace",
        "label": "bool",
        "numberOfBytes": "1"
      },
      "t_enum(BoxType)4003": {
        "encoding": "inplace",
        "label": "enum BoxType",
        "numberOfBytes": "1"
      },
      "t_mapping(t_address,t_bool)": {
        "encoding": "mapping",
        "key": "t_address",
        "label": "mapping(address => bool)",
        "numberOfBytes": "32",
        "value": "t_bool"
      },
      "t_mapping(t_address,t_mapping(t_address,t_bool))": {
        "encoding": "mapping",
        "key": "t_address",
        "label": "mapping(address => mapping(address => bool))",
        "numberOfBytes": "32",
        "value": "t_mapping(t_address,t_bool)"
      },
      "t_mapping(t_address,t_mapping(t_uint256,t_uint256))": {
        "encoding": "mapping",
        "key": "t_address",
        "label": "mapping(address => mapping(uint256 => uint256))",
        "numberOfBytes": "32",
        "value": "t_mapping(t_uint256,t_uint256)"
      },
      "t_mapping(t_address,t_uint256)": {
        "encoding": "mapping",
        "key": "t_address",
        "label": "mapping(address => uint256)",
        "numberOfBytes": "32",
        "value": "t_uint256"
      },
      "t_mapping(t_uint256,t_address)": {
        "encoding": "mapping",
        "key": "t_uint256",
        "label": "mapping(uint256 => address)",
        "numberOfBytes": "32",
        "value": "t_address"
      },
      "t_mapping(t_uint256,t_bool)": {
        "encoding": "mapping",
        "key": "t_uint256",
        "label": "mapping(uint256 => bool)",
        "numberOfBytes": "32",
        "value": "t_bool"
      },
      "t_mapping(t_uint256,t_struct(Metadata)4027_storage)": {
        "encoding": "mapping",
        "key": "t_uint256",
        "label": "mapping(uint256 => struct PortraitLayer.Metadata)",
        "numberOfBytes": "32",
        "value": "t_struct(Metadata)4027_storage"
      },
      "t_mapping(t_uint256,t_uint256)": {
        "encoding": "mapping",
        "key": "t_uint256",
        "label": "mapping(uint256 => uint256)",
        "numberOfBytes": "32",
        "value": "t_uint256"
      },
      "t_string_storage": {
        "encoding": "bytes",
        "label": "string",
        "numberOfBytes": "32"
      },
      "t_struct(Metadata)4027_storage": {
        "encoding": "inplace",
        "label": "struct PortraitLayer.Metadata",
        "members": [
          {
            "astId": 4014,
            "contract": "contracts/PortraitLayer.sol:PortraitLayer",
            "label": "boxType",
            "offset": 0,
            "slot": "0",
            "type": "t_enum(BoxType)4003"
          },
          {
            "astId": 4016,
            "contract": "contracts/PortraitLayer.sol:PortraitLayer",
            "label": "tier",
            "offset": 1,
            "slot": "0",
            "type": "t_uint8"
          },
          {
            "astId": 4018,
            "contract": "contracts/PortraitLayer.sol:PortraitLayer",
            "label": "skinId",
            "offset": 0,
            "slot": "1",
            "type": "t_uint256"
          },
          {
            "astId": 4020,
            "contract": "contracts/PortraitLayer.sol:PortraitLayer",
            "label": "bodyId",
            "offset": 0,
            "slot": "2",
            "type": "t_uint256"
          },
          {
            "astId": 4022,
            "contract": "contracts/PortraitLayer.sol:PortraitLayer",
            "label": "eyeId",
            "offset": 0,
            "slot": "3",
            "type": "t_uint256"
          },
          {
            "astId": 4024,
            "contract": "contracts/PortraitLayer.sol:PortraitLayer",
            "label": "headId",
            "offset": 0,
            "slot": "4",
            "type": "t_uint256"
          },
          {
            "astId": 4026,
            "contract": "contracts/PortraitLayer.sol:PortraitLayer",
            "label": "propsId",
            "offset": 0,
            "slot": "5",
            "type": "t_uint256"
          }
        ],
        "numberOfBytes": "192"
      },
      "t_uint256": {
        "encoding": "inplace",
        "label": "uint256",
        "numberOfBytes": "32"
      },
      "t_uint8": {
        "encoding": "inplace",
        "label": "uint8",
        "numberOfBytes": "1"
      }
    }
  }
}