{
  "address": "0x06278ffCc7Bb5844423Bab184A799B1f9e851C1b",
  "abi": [
    {
      "anonymous": false,
      "inputs": [
        {
          "indexed": false,
          "internalType": "address",
          "name": "previousAdmin",
          "type": "address"
        },
        {
          "indexed": false,
          "internalType": "address",
          "name": "newAdmin",
          "type": "address"
        }
      ],
      "name": "AdminChanged",
      "type": "event"
    },
    {
      "anonymous": false,
      "inputs": [
        {
          "indexed": true,
          "internalType": "address",
          "name": "owner",
          "type": "address"
        },
        {
          "indexed": true,
          "internalType": "address",
          "name": "approved",
          "type": "address"
        },
        {
          "indexed": true,
          "internalType": "uint256",
          "name": "tokenId",
          "type": "uint256"
        }
      ],
      "name": "Approval",
      "type": "event"
    },
    {
      "anonymous": false,
      "inputs": [
        {
          "indexed": true,
          "internalType": "address",
          "name": "owner",
          "type": "address"
        },
        {
          "indexed": true,
          "internalType": "address",
          "name": "operator",
          "type": "address"
        },
        {
          "indexed": false,
          "internalType": "bool",
          "name": "approved",
          "type": "bool"
        }
      ],
      "name": "ApprovalForAll",
      "type": "event"
    },
    {
      "anonymous": false,
      "inputs": [
        {
          "indexed": false,
          "internalType": "string",
          "name": "baseUri",
          "type": "string"
        }
      ],
      "name": "BaseUriUpdated",
      "type": "event"
    },
    {
      "anonymous": false,
      "inputs": [
        {
          "indexed": true,
          "internalType": "address",
          "name": "beacon",
          "type": "address"
        }
      ],
      "name": "BeaconUpgraded",
      "type": "event"
    },
    {
      "anonymous": false,
      "inputs": [
        {
          "indexed": true,
          "internalType": "uint256",
          "name": "tokenId",
          "type": "uint256"
        },
        {
          "indexed": false,
          "internalType": "bool",
          "name": "sale",
          "type": "bool"
        }
      ],
      "name": "OpenForSale",
      "type": "event"
    },
    {
      "anonymous": false,
      "inputs": [
        {
          "indexed": true,
          "internalType": "address",
          "name": "previousOwner",
          "type": "address"
        },
        {
          "indexed": true,
          "internalType": "address",
          "name": "newOwner",
          "type": "address"
        }
      ],
      "name": "OwnershipTransferred",
      "type": "event"
    },
    {
      "anonymous": false,
      "inputs": [
        {
          "indexed": true,
          "internalType": "address",
          "name": "from",
          "type": "address"
        },
        {
          "indexed": true,
          "internalType": "address",
          "name": "to",
          "type": "address"
        },
        {
          "indexed": true,
          "internalType": "uint256",
          "name": "tokenId",
          "type": "uint256"
        }
      ],
      "name": "Transfer",
      "type": "event"
    },
    {
      "anonymous": false,
      "inputs": [
        {
          "indexed": true,
          "internalType": "address",
          "name": "implementation",
          "type": "address"
        }
      ],
      "name": "Upgraded",
      "type": "event"
    },
    {
      "inputs": [
        {
          "internalType": "address",
          "name": "to",
          "type": "address"
        },
        {
          "internalType": "uint256",
          "name": "tokenId",
          "type": "uint256"
        }
      ],
      "name": "approve",
      "outputs": [],
      "stateMutability": "nonpayable",
      "type": "function"
    },
    {
      "inputs": [
        {
          "internalType": "address",
          "name": "owner",
          "type": "address"
        }
      ],
      "name": "balanceOf",
      "outputs": [
        {
          "internalType": "uint256",
          "name": "",
          "type": "uint256"
        }
      ],
      "stateMutability": "view",
      "type": "function"
    },
    {
      "inputs": [
        {
          "internalType": "uint256",
          "name": "tokenId",
          "type": "uint256"
        }
      ],
      "name": "getApproved",
      "outputs": [
        {
          "internalType": "address",
          "name": "",
          "type": "address"
        }
      ],
      "stateMutability": "view",
      "type": "function"
    },
    {
      "inputs": [],
      "name": "imxMinter",
      "outputs": [
        {
          "internalType": "address",
          "name": "",
          "type": "address"
        }
      ],
      "stateMutability": "view",
      "type": "function"
    },
    {
      "inputs": [
        {
          "internalType": "string",
          "name": "name_",
          "type": "string"
        },
        {
          "internalType": "string",
          "name": "symbol_",
          "type": "string"
        },
        {
          "internalType": "address",
          "name": "imxMinter_",
          "type": "address"
        }
      ],
      "name": "initialize",
      "outputs": [],
      "stateMutability": "nonpayable",
      "type": "function"
    },
    {
      "inputs": [
        {
          "internalType": "address",
          "name": "owner",
          "type": "address"
        },
        {
          "internalType": "address",
          "name": "operator",
          "type": "address"
        }
      ],
      "name": "isApprovedForAll",
      "outputs": [
        {
          "internalType": "bool",
          "name": "",
          "type": "bool"
        }
      ],
      "stateMutability": "view",
      "type": "function"
    },
    {
      "inputs": [
        {
          "internalType": "uint256",
          "name": "tokenId",
          "type": "uint256"
        },
        {
          "internalType": "bool",
          "name": "_sale",
          "type": "bool"
        }
      ],
      "name": "markForSale",
      "outputs": [],
      "stateMutability": "nonpayable",
      "type": "function"
    },
    {
      "inputs": [
        {
          "internalType": "uint256",
          "name": "",
          "type": "uint256"
        }
      ],
      "name": "metadata",
      "outputs": [
        {
          "internalType": "enum BoxType",
          "name": "boxType",
          "type": "uint8"
        },
        {
          "internalType": "uint8",
          "name": "tier",
          "type": "uint8"
        },
        {
          "internalType": "enum AccessoryType",
          "name": "accessoryType",
          "type": "uint8"
        }
      ],
      "stateMutability": "view",
      "type": "function"
    },
    {
      "inputs": [
        {
          "internalType": "uint256",
          "name": "",
          "type": "uint256"
        }
      ],
      "name": "metadataInitialized",
      "outputs": [
        {
          "internalType": "bool",
          "name": "",
          "type": "bool"
        }
      ],
      "stateMutability": "view",
      "type": "function"
    },
    {
      "inputs": [
        {
          "internalType": "address",
          "name": "to",
          "type": "address"
        },
        {
          "internalType": "uint256",
          "name": "quantity",
          "type": "uint256"
        },
        {
          "internalType": "bytes",
          "name": "mintingBlob",
          "type": "bytes"
        }
      ],
      "name": "mintFor",
      "outputs": [],
      "stateMutability": "nonpayable",
      "type": "function"
    },
    {
      "inputs": [],
      "name": "name",
      "outputs": [
        {
          "internalType": "string",
          "name": "",
          "type": "string"
        }
      ],
      "stateMutability": "view",
      "type": "function"
    },
    {
      "inputs": [
        {
          "internalType": "uint256",
          "name": "",
          "type": "uint256"
        }
      ],
      "name": "openForSale",
      "outputs": [
        {
          "internalType": "bool",
          "name": "",
          "type": "bool"
        }
      ],
      "stateMutability": "view",
      "type": "function"
    },
    {
      "inputs": [],
      "name": "owner",
      "outputs": [
        {
          "internalType": "address",
          "name": "",
          "type": "address"
        }
      ],
      "stateMutability": "view",
      "type": "function"
    },
    {
      "inputs": [
        {
          "internalType": "uint256",
          "name": "tokenId",
          "type": "uint256"
        }
      ],
      "name": "ownerOf",
      "outputs": [
        {
          "internalType": "address",
          "name": "",
          "type": "address"
        }
      ],
      "stateMutability": "view",
      "type": "function"
    },
    {
      "inputs": [],
      "name": "renounceOwnership",
      "outputs": [],
      "stateMutability": "nonpayable",
      "type": "function"
    },
    {
      "inputs": [
        {
          "internalType": "address",
          "name": "from",
          "type": "address"
        },
        {
          "internalType": "address",
          "name": "to",
          "type": "address"
        },
        {
          "internalType": "uint256",
          "name": "tokenId",
          "type": "uint256"
        }
      ],
      "name": "safeTransferFrom",
      "outputs": [],
      "stateMutability": "nonpayable",
      "type": "function"
    },
    {
      "inputs": [
        {
          "internalType": "address",
          "name": "from",
          "type": "address"
        },
        {
          "internalType": "address",
          "name": "to",
          "type": "address"
        },
        {
          "internalType": "uint256",
          "name": "tokenId",
          "type": "uint256"
        },
        {
          "internalType": "bytes",
          "name": "_data",
          "type": "bytes"
        }
      ],
      "name": "safeTransferFrom",
      "outputs": [],
      "stateMutability": "nonpayable",
      "type": "function"
    },
    {
      "inputs": [
        {
          "internalType": "address",
          "name": "operator",
          "type": "address"
        },
        {
          "internalType": "bool",
          "name": "approved",
          "type": "bool"
        }
      ],
      "name": "setApprovalForAll",
      "outputs": [],
      "stateMutability": "nonpayable",
      "type": "function"
    },
    {
      "inputs": [
        {
          "internalType": "string",
          "name": "_baseUri_",
          "type": "string"
        }
      ],
      "name": "setBaseUri",
      "outputs": [],
      "stateMutability": "nonpayable",
      "type": "function"
    },
    {
      "inputs": [
        {
          "internalType": "bytes4",
          "name": "interfaceId",
          "type": "bytes4"
        }
      ],
      "name": "supportsInterface",
      "outputs": [
        {
          "internalType": "bool",
          "name": "",
          "type": "bool"
        }
      ],
      "stateMutability": "view",
      "type": "function"
    },
    {
      "inputs": [],
      "name": "symbol",
      "outputs": [
        {
          "internalType": "string",
          "name": "",
          "type": "string"
        }
      ],
      "stateMutability": "view",
      "type": "function"
    },
    {
      "inputs": [
        {
          "internalType": "uint256",
          "name": "index",
          "type": "uint256"
        }
      ],
      "name": "tokenByIndex",
      "outputs": [
        {
          "internalType": "uint256",
          "name": "",
          "type": "uint256"
        }
      ],
      "stateMutability": "view",
      "type": "function"
    },
    {
      "inputs": [
        {
          "internalType": "address",
          "name": "owner",
          "type": "address"
        },
        {
          "internalType": "uint256",
          "name": "index",
          "type": "uint256"
        }
      ],
      "name": "tokenOfOwnerByIndex",
      "outputs": [
        {
          "internalType": "uint256",
          "name": "",
          "type": "uint256"
        }
      ],
      "stateMutability": "view",
      "type": "function"
    },
    {
      "inputs": [
        {
          "internalType": "uint256",
          "name": "tokenId",
          "type": "uint256"
        }
      ],
      "name": "tokenURI",
      "outputs": [
        {
          "internalType": "string",
          "name": "",
          "type": "string"
        }
      ],
      "stateMutability": "view",
      "type": "function"
    },
    {
      "inputs": [],
      "name": "totalSupply",
      "outputs": [
        {
          "internalType": "uint256",
          "name": "",
          "type": "uint256"
        }
      ],
      "stateMutability": "view",
      "type": "function"
    },
    {
      "inputs": [
        {
          "internalType": "address",
          "name": "from",
          "type": "address"
        },
        {
          "internalType": "address",
          "name": "to",
          "type": "address"
        },
        {
          "internalType": "uint256",
          "name": "tokenId",
          "type": "uint256"
        }
      ],
      "name": "transferFrom",
      "outputs": [],
      "stateMutability": "nonpayable",
      "type": "function"
    },
    {
      "inputs": [
        {
          "internalType": "address",
          "name": "newOwner",
          "type": "address"
        }
      ],
      "name": "transferOwnership",
      "outputs": [],
      "stateMutability": "nonpayable",
      "type": "function"
    },
    {
      "inputs": [
        {
          "internalType": "address",
          "name": "newImplementation",
          "type": "address"
        }
      ],
      "name": "upgradeTo",
      "outputs": [],
      "stateMutability": "nonpayable",
      "type": "function"
    },
    {
      "inputs": [
        {
          "internalType": "address",
          "name": "newImplementation",
          "type": "address"
        },
        {
          "internalType": "bytes",
          "name": "data",
          "type": "bytes"
        }
      ],
      "name": "upgradeToAndCall",
      "outputs": [],
      "stateMutability": "payable",
      "type": "function"
    }
  ],
  "transactionHash": "0x9bcc0a429086510bfd46865d4245cb9e6f7d9b7c64a73bac305fa8e3c0ff6bff",
  "args": [
    "Illuvitar Props Accessory",
    "IPA",
    "0x4527BE8f31E2ebFbEF4fCADDb5a17447B27d2aef"
  ],
  "numDeployments": 1,
  "solcInputHash": "06cf6f7d424c880753e44b1d0403b09f",
  "bytecode": "0x60a06040523060805234801561001457600080fd5b5060805161320461004560003960008181610a6601528181610aa601528181610b490152610b8901526132046000f3fe6080604052600436106101c25760003560e01c806362f54f29116100f7578063a100560e11610095578063e3684e3911610064578063e3684e3914610515578063e985e9c514610568578063f2fde38b146105b1578063fb91a7d2146105d157600080fd5b8063a100560e14610495578063a22cb465146104b5578063b88d4fde146104d5578063c87b56dd146104f557600080fd5b8063715018a6116100d1578063715018a61461042c5780638da5cb5b1461044157806395d89b4114610460578063a0bcfc7f1461047557600080fd5b806362f54f29146103bb5780636352211e146103ec57806370a082311461040c57600080fd5b806319ee6e3f116101645780633659cfe61161013e5780633659cfe61461034857806342842e0e146103685780634f1ef286146103885780634f6ccce71461039b57600080fd5b806319ee6e3f146102e857806323b872dd146103085780632f745c591461032857600080fd5b8063081812fc116101a0578063081812fc14610240578063095ea7b31461027857806315f514161461029857806318160ddd146102c957600080fd5b806301ffc9a7146101c757806306fdde03146101fc578063077f224a1461021e575b600080fd5b3480156101d357600080fd5b506101e76101e23660046128f0565b6105f2565b60405190151581526020015b60405180910390f35b34801561020857600080fd5b5061021161061d565b6040516101f39190612965565b34801561022a57600080fd5b5061023e610239366004612a37565b6106af565b005b34801561024c57600080fd5b5061026061025b366004612aab565b610732565b6040516001600160a01b0390911681526020016101f3565b34801561028457600080fd5b5061023e610293366004612ac4565b6107c7565b3480156102a457600080fd5b506101e76102b3366004612aab565b6101606020526000908152604090205460ff1681565b3480156102d557600080fd5b506099545b6040519081526020016101f3565b3480156102f457600080fd5b5061023e610303366004612aee565b6108dc565b34801561031457600080fd5b5061023e610323366004612b75565b610995565b34801561033457600080fd5b506102da610343366004612ac4565b6109c6565b34801561035457600080fd5b5061023e610363366004612bb1565b610a5c565b34801561037457600080fd5b5061023e610383366004612b75565b610b24565b61023e610396366004612bcc565b610b3f565b3480156103a757600080fd5b506102da6103b6366004612aab565b610bf8565b3480156103c757600080fd5b506101e76103d6366004612aab565b6101616020526000908152604090205460ff1681565b3480156103f857600080fd5b50610260610407366004612aab565b610c8b565b34801561041857600080fd5b506102da610427366004612bb1565b610d02565b34801561043857600080fd5b5061023e610d89565b34801561044d57600080fd5b5061012d546001600160a01b0316610260565b34801561046c57600080fd5b50610211610dc0565b34801561048157600080fd5b5061023e610490366004612c1a565b610dcf565b3480156104a157600080fd5b5061023e6104b0366004612c5f565b610e49565b3480156104c157600080fd5b5061023e6104d0366004612c8b565b610ebc565b3480156104e157600080fd5b5061023e6104f0366004612cb5565b610ec7565b34801561050157600080fd5b50610211610510366004612aab565b610ef9565b34801561052157600080fd5b50610559610530366004612aab565b61018d6020526000908152604090205460ff808216916101008104821691620100009091041683565b6040516101f393929190612d33565b34801561057457600080fd5b506101e7610583366004612d71565b6001600160a01b039182166000908152606a6020908152604080832093909416825291909152205460ff1690565b3480156105bd57600080fd5b5061023e6105cc366004612bb1565b610fd4565b3480156105dd57600080fd5b5061015f54610260906001600160a01b031681565b60006001600160e01b0319821663780e9d6360e01b148061061757506106178261106d565b92915050565b60606065805461062c90612d9b565b80601f016020809104026020016040519081016040528092919081815260200182805461065890612d9b565b80156106a55780601f1061067a576101008083540402835291602001916106a5565b820191906000526020600020905b81548152906001019060200180831161068857829003601f168201915b5050505050905090565b600054610100900460ff16806106c8575060005460ff16155b6106ed5760405162461bcd60e51b81526004016106e490612dd5565b60405180910390fd5b600054610100900460ff1615801561070f576000805461ffff19166101011790555b61071a8484846110bd565b801561072c576000805461ff00191690555b50505050565b6000818152606760205260408120546001600160a01b03166107ab5760405162461bcd60e51b815260206004820152602c60248201527f4552433732313a20617070726f76656420717565727920666f72206e6f6e657860448201526b34b9ba32b73a103a37b5b2b760a11b60648201526084016106e4565b506000908152606960205260409020546001600160a01b031690565b60006107d282610c8b565b9050806001600160a01b0316836001600160a01b03160361083f5760405162461bcd60e51b815260206004820152602160248201527f4552433732313a20617070726f76616c20746f2063757272656e74206f776e656044820152603960f91b60648201526084016106e4565b336001600160a01b038216148061085b575061085b8133610583565b6108cd5760405162461bcd60e51b815260206004820152603860248201527f4552433732313a20617070726f76652063616c6c6572206973206e6f74206f7760448201527f6e6572206e6f7220617070726f76656420666f7220616c6c000000000000000060648201526084016106e4565b6108d783836111ac565b505050565b8260011461091f5760405162461bcd60e51b815260206004820152601060248201526f416d6f756e74206d757374206265203160801b60448201526064016106e4565b61015f546001600160a01b031633146109715760405162461bcd60e51b815260206004820152601460248201527331b0b63632b91034b9903737ba1036b4b73a32b960611b60448201526064016106e4565b60008061097e848461121a565b9150915061098d8683836113d8565b505050505050565b61099f33826114ee565b6109bb5760405162461bcd60e51b81526004016106e490612e23565b6108d78383836115e5565b60006109d183610d02565b8210610a335760405162461bcd60e51b815260206004820152602b60248201527f455243373231456e756d657261626c653a206f776e657220696e646578206f7560448201526a74206f6620626f756e647360a81b60648201526084016106e4565b506001600160a01b03919091166000908152609760209081526040808320938352929052205490565b6001600160a01b037f0000000000000000000000000000000000000000000000000000000000000000163003610aa45760405162461bcd60e51b81526004016106e490612e74565b7f00000000000000000000000000000000000000000000000000000000000000006001600160a01b0316610ad6611790565b6001600160a01b031614610afc5760405162461bcd60e51b81526004016106e490612ec0565b610b05816117be565b60408051600080825260208201909252610b21918391906117e9565b50565b6108d783838360405180602001604052806000815250610ec7565b6001600160a01b037f0000000000000000000000000000000000000000000000000000000000000000163003610b875760405162461bcd60e51b81526004016106e490612e74565b7f00000000000000000000000000000000000000000000000000000000000000006001600160a01b0316610bb9611790565b6001600160a01b031614610bdf5760405162461bcd60e51b81526004016106e490612ec0565b610be8826117be565b610bf4828260016117e9565b5050565b6000610c0360995490565b8210610c665760405162461bcd60e51b815260206004820152602c60248201527f455243373231456e756d657261626c653a20676c6f62616c20696e646578206f60448201526b7574206f6620626f756e647360a01b60648201526084016106e4565b60998281548110610c7957610c79612f0c565b90600052602060002001549050919050565b6000818152606760205260408120546001600160a01b0316806106175760405162461bcd60e51b815260206004820152602960248201527f4552433732313a206f776e657220717565727920666f72206e6f6e657869737460448201526832b73a103a37b5b2b760b91b60648201526084016106e4565b60006001600160a01b038216610d6d5760405162461bcd60e51b815260206004820152602a60248201527f4552433732313a2062616c616e636520717565727920666f7220746865207a65604482015269726f206164647265737360b01b60648201526084016106e4565b506001600160a01b031660009081526068602052604090205490565b61012d546001600160a01b03163314610db45760405162461bcd60e51b81526004016106e490612f22565b610dbe6000611934565b565b60606066805461062c90612d9b565b61012d546001600160a01b03163314610dfa5760405162461bcd60e51b81526004016106e490612f22565b8051610e0e90610162906020840190612841565b507f24a9152dc695ecc801ad580886331ee12d7aac0fa2ae341a5ae3c2ccae36cb4f81604051610e3e9190612965565b60405180910390a150565b33610e5383610c8b565b6001600160a01b031614610e9b5760405162461bcd60e51b815260206004820152600f60248201526e2737ba103a37b5b2b71037bbb732b960891b60448201526064016106e4565b60009182526101606020526040909120805460ff1916911515919091179055565b610bf4338383611987565b610ed133836114ee565b610eed5760405162461bcd60e51b81526004016106e490612e23565b61072c84848484611a55565b6000818152606760205260409020546060906001600160a01b0316610f785760405162461bcd60e51b815260206004820152602f60248201527f4552433732314d657461646174613a2055524920717565727920666f72206e6f60448201526e3732bc34b9ba32b73a103a37b5b2b760891b60648201526084016106e4565b6000610f82611a88565b90506000815111610fa25760405180602001604052806000815250610fcd565b80610fac84611a98565b604051602001610fbd929190612f57565b6040516020818303038152906040525b9392505050565b61012d546001600160a01b03163314610fff5760405162461bcd60e51b81526004016106e490612f22565b6001600160a01b0381166110645760405162461bcd60e51b815260206004820152602660248201527f4f776e61626c653a206e6577206f776e657220697320746865207a65726f206160448201526564647265737360d01b60648201526084016106e4565b610b2181611934565b60006001600160e01b031982166380ac58cd60e01b148061109e57506001600160e01b03198216635b5e139f60e01b145b8061061757506301ffc9a760e01b6001600160e01b0319831614610617565b600054610100900460ff16806110d6575060005460ff16155b6110f25760405162461bcd60e51b81526004016106e490612dd5565b600054610100900460ff16158015611114576000805461ffff19166101011790555b61111e8484611b99565b611126611c20565b61112e611ca3565b6001600160a01b0382166111795760405162461bcd60e51b81526020600482015260126024820152714d696e7465722063616e6e6f74207a65726f60701b60448201526064016106e4565b61015f80546001600160a01b0319166001600160a01b038416179055801561072c576000805461ff001916905550505050565b600081815260696020526040902080546001600160a01b0319166001600160a01b03841690811790915581906111e182610c8b565b6001600160a01b03167f8c5be1e5ebec7d5bd14f71427d1e84f3dd0314c0f7b2291e5b200ac8c7c3b92560405160405180910390a45050565b60006060600061127885858080601f01602080910402602001604051908101604052809392919081815260200183838082843760009201829052506040805180820190915260018152601d60f91b602082015293509150611d0a9050565b905060008112156112c25760405162461bcd60e51b815260206004820152601460248201527314d95c185c985d1bdc881b5d5cdd08195e1a5cdd60621b60448201526064016106e4565b600061131c866001876112d58287612f9c565b926112e293929190612fb3565b8080601f016020809104026020016040519081016040528093929190818152602001838380828437600092019190915250611da192505050565b90506000600361132c8488612f9c565b6113369190612f9c565b90508060000361135d578160405180602001604052806000815250945094505050506113d1565b366000888861136d876002612fdd565b9061137960018c612f9c565b9261138693929190612fb3565b9150915083828281818080601f016020809104026020016040519081016040528093929190818152602001838380828437600092019190915250959c50919a50505050505050505050505b9250929050565b6113e28383611e79565b6000828152610161602052604090205460ff166108d757600080600061140784611e93565b925092509250604051806060016040528084600581111561142a5761142a612d1d565b81526020018360ff16815260200182600481111561144a5761144a612d1d565b9052600086815261018d6020526040902081518154829060ff1916600183600581111561147957611479612d1d565b02179055506020820151815460ff9091166101000261ff0019821681178355604084015191839162ff0000191662ffff001990911617620100008360048111156114c5576114c5612d1d565b02179055505050600085815261016160205260409020805460ff19166001179055505050505050565b6000818152606760205260408120546001600160a01b03166115675760405162461bcd60e51b815260206004820152602c60248201527f4552433732313a206f70657261746f7220717565727920666f72206e6f6e657860448201526b34b9ba32b73a103a37b5b2b760a11b60648201526084016106e4565b600061157283610c8b565b9050806001600160a01b0316846001600160a01b031614806115ad5750836001600160a01b03166115a284610732565b6001600160a01b0316145b806115dd57506001600160a01b038082166000908152606a602090815260408083209388168352929052205460ff165b949350505050565b826001600160a01b03166115f882610c8b565b6001600160a01b0316146116605760405162461bcd60e51b815260206004820152602960248201527f4552433732313a207472616e73666572206f6620746f6b656e2074686174206960448201526839903737ba1037bbb760b91b60648201526084016106e4565b6001600160a01b0382166116c25760405162461bcd60e51b8152602060048201526024808201527f4552433732313a207472616e7366657220746f20746865207a65726f206164646044820152637265737360e01b60648201526084016106e4565b6116cd838383611ff0565b6116d86000826111ac565b6001600160a01b0383166000908152606860205260408120805460019290611701908490612f9c565b90915550506001600160a01b038216600090815260686020526040812080546001929061172f908490612fdd565b909155505060008181526067602052604080822080546001600160a01b0319166001600160a01b0386811691821790925591518493918716917fddf252ad1be2c89b69c2b068fc378daa952ba7f163c4a11628f55a4df523b3ef91a4505050565b7f360894a13ba1a3210667c828492db98dca3e2076cc3735a920a3ca505d382bbc546001600160a01b031690565b61012d546001600160a01b03163314610b215760405162461bcd60e51b81526004016106e490612f22565b60006117f3611790565b90506117fe846120a8565b60008351118061180b5750815b1561181c5761181a848461214d565b505b7f4910fdfa16fed3260ed0e7147f7cc6da11a60208b5b9406d12a635614ffd9143805460ff1661192d57805460ff191660011781556040516001600160a01b038316602482015261189b90869060440160408051601f198184030181529190526020810180516001600160e01b0316631b2ce7f360e11b17905261214d565b50805460ff191681556118ac611790565b6001600160a01b0316826001600160a01b0316146119245760405162461bcd60e51b815260206004820152602f60248201527f45524331393637557067726164653a207570677261646520627265616b73206660448201526e75727468657220757067726164657360881b60648201526084016106e4565b61192d85612238565b5050505050565b61012d80546001600160a01b038381166001600160a01b0319831681179093556040519116919082907f8be0079c531659141344cd1fd0a4f28419497f9722a3daafe3b4186f6b6457e090600090a35050565b816001600160a01b0316836001600160a01b0316036119e85760405162461bcd60e51b815260206004820152601960248201527f4552433732313a20617070726f766520746f2063616c6c65720000000000000060448201526064016106e4565b6001600160a01b038381166000818152606a6020908152604080832094871680845294825291829020805460ff191686151590811790915591519182527f17307eab39ab6107e8899845ad3d59bd9653f200f220920489ca2b5937696c31910160405180910390a3505050565b611a608484846115e5565b611a6c84848484612278565b61072c5760405162461bcd60e51b81526004016106e490612ff5565b6060610162805461062c90612d9b565b606081600003611abf5750506040805180820190915260018152600360fc1b602082015290565b8160005b8115611ae95780611ad381613047565b9150611ae29050600a83613076565b9150611ac3565b60008167ffffffffffffffff811115611b0457611b04612978565b6040519080825280601f01601f191660200182016040528015611b2e576020820181803683370190505b5090505b84156115dd57611b43600183612f9c565b9150611b50600a8661308a565b611b5b906030612fdd565b60f81b818381518110611b7057611b70612f0c565b60200101906001600160f81b031916908160001a905350611b92600a86613076565b9450611b32565b600054610100900460ff1680611bb2575060005460ff16155b611bce5760405162461bcd60e51b81526004016106e490612dd5565b600054610100900460ff16158015611bf0576000805461ffff19166101011790555b611bf8612379565b611c00612379565b611c0a83836123e3565b80156108d7576000805461ff0019169055505050565b600054610100900460ff1680611c39575060005460ff16155b611c555760405162461bcd60e51b81526004016106e490612dd5565b600054610100900460ff16158015611c77576000805461ffff19166101011790555b611c7f612379565b611c87612379565b611c8f612379565b8015610b21576000805461ff001916905550565b600054610100900460ff1680611cbc575060005460ff16155b611cd85760405162461bcd60e51b81526004016106e490612dd5565b600054610100900460ff16158015611cfa576000805461ffff19166101011790555b611d02612379565b611c8f612478565b81516000908390600114611d2057611d2061309e565b825b8551811015611d945781600081518110611d3e57611d3e612f0c565b602001015160f81c60f81b6001600160f81b031916868281518110611d6557611d65612f0c565b01602001516001600160f81b03191603611d82579150610fcd9050565b80611d8c81613047565b915050611d22565b5060001995945050505050565b600080805b8351811015611e72576000848281518110611dc357611dc3612f0c565b016020015160f81c905060308110801590611ddf575060398111155b15611e0b57611def603082612f9c565b611dfa84600a6130b4565b611e049190612fdd565b9250611e5f565b60405162461bcd60e51b815260206004820152602360248201527f696e76616c696420696e7075742c206f6e6c79206e756d6265727320616c6c6f6044820152621dd95960ea1b60648201526084016106e4565b5080611e6a81613047565b915050611da6565b5092915050565b610bf48282604051806020016040528060008152506124d8565b6040805160038082526080820190925260009182918291829182916020820160608036833701905050865190915060005b81811015611f6757611ef5888281518110611ee157611ee1612f0c565b01602001516001600160f81b03191661250b565b15611f55576030888281518110611f0e57611f0e612f0c565b0160200151611f20919060f81c6130d3565b838560ff1681518110611f3557611f35612f0c565b60ff90921660209283029190910190910152611f526001856130f6565b93505b611f60600182612fdd565b9050611ec4565b5081600081518110611f7b57611f7b612f0c565b602002602001015160ff166005811115611f9757611f97612d1d565b955081600181518110611fac57611fac612f0c565b6020026020010151945081600281518110611fc957611fc9612f0c565b602002602001015160ff166004811115611fe557611fe5612d1d565b959794965050505050565b6001600160a01b03831661204b5761204681609980546000838152609a60205260408120829055600182018355919091527f72a152ddfb8e864297c917af52ea6c1c68aead0fee1a62673fcc7e0c94979d000155565b61206e565b816001600160a01b0316836001600160a01b03161461206e5761206e838261252a565b6001600160a01b038216612085576108d7816125c7565b826001600160a01b0316826001600160a01b0316146108d7576108d78282612676565b803b61210c5760405162461bcd60e51b815260206004820152602d60248201527f455243313936373a206e657720696d706c656d656e746174696f6e206973206e60448201526c1bdd08184818dbdb9d1c9858dd609a1b60648201526084016106e4565b7f360894a13ba1a3210667c828492db98dca3e2076cc3735a920a3ca505d382bbc80546001600160a01b0319166001600160a01b0392909216919091179055565b6060823b6121ac5760405162461bcd60e51b815260206004820152602660248201527f416464726573733a2064656c65676174652063616c6c20746f206e6f6e2d636f6044820152651b9d1c9858dd60d21b60648201526084016106e4565b600080846001600160a01b0316846040516121c7919061311b565b600060405180830381855af49150503d8060008114612202576040519150601f19603f3d011682016040523d82523d6000602084013e612207565b606091505b509150915061222f82826040518060600160405280602781526020016131a8602791396126ba565b95945050505050565b612241816120a8565b6040516001600160a01b038216907fbc7cd75a20ee27fd9adebab32041f755214dbc6bffa90cc0225b39da2e5c2d3b90600090a250565b60006001600160a01b0384163b1561236e57604051630a85bd0160e11b81526001600160a01b0385169063150b7a02906122bc903390899088908890600401613137565b6020604051808303816000875af19250505080156122f7575060408051601f3d908101601f191682019092526122f491810190613174565b60015b612354573d808015612325576040519150601f19603f3d011682016040523d82523d6000602084013e61232a565b606091505b50805160000361234c5760405162461bcd60e51b81526004016106e490612ff5565b805181602001fd5b6001600160e01b031916630a85bd0160e11b1490506115dd565b506001949350505050565b600054610100900460ff1680612392575060005460ff16155b6123ae5760405162461bcd60e51b81526004016106e490612dd5565b600054610100900460ff16158015611c8f576000805461ffff19166101011790558015610b21576000805461ff001916905550565b600054610100900460ff16806123fc575060005460ff16155b6124185760405162461bcd60e51b81526004016106e490612dd5565b600054610100900460ff1615801561243a576000805461ffff19166101011790555b825161244d906065906020860190612841565b508151612461906066906020850190612841565b5080156108d7576000805461ff0019169055505050565b600054610100900460ff1680612491575060005460ff16155b6124ad5760405162461bcd60e51b81526004016106e490612dd5565b600054610100900460ff161580156124cf576000805461ffff19166101011790555b611c8f33611934565b6124e283836126f3565b6124ef6000848484612278565b6108d75760405162461bcd60e51b81526004016106e490612ff5565b6000603060f883901c10801590610617575050603a60f89190911c1090565b6000600161253784610d02565b6125419190612f9c565b600083815260986020526040902054909150808214612594576001600160a01b03841660009081526097602090815260408083208584528252808320548484528184208190558352609890915290208190555b5060009182526098602090815260408084208490556001600160a01b039094168352609781528383209183525290812055565b6099546000906125d990600190612f9c565b6000838152609a60205260408120546099805493945090928490811061260157612601612f0c565b90600052602060002001549050806099838154811061262257612622612f0c565b6000918252602080832090910192909255828152609a9091526040808220849055858252812055609980548061265a5761265a613191565b6001900381819060005260206000200160009055905550505050565b600061268183610d02565b6001600160a01b039093166000908152609760209081526040808320868452825280832085905593825260989052919091209190915550565b606083156126c9575081610fcd565b8251156126d95782518084602001fd5b8160405162461bcd60e51b81526004016106e49190612965565b6001600160a01b0382166127495760405162461bcd60e51b815260206004820181905260248201527f4552433732313a206d696e7420746f20746865207a65726f206164647265737360448201526064016106e4565b6000818152606760205260409020546001600160a01b0316156127ae5760405162461bcd60e51b815260206004820152601c60248201527f4552433732313a20746f6b656e20616c7265616479206d696e7465640000000060448201526064016106e4565b6127ba60008383611ff0565b6001600160a01b03821660009081526068602052604081208054600192906127e3908490612fdd565b909155505060008181526067602052604080822080546001600160a01b0319166001600160a01b03861690811790915590518392907fddf252ad1be2c89b69c2b068fc378daa952ba7f163c4a11628f55a4df523b3ef908290a45050565b82805461284d90612d9b565b90600052602060002090601f01602090048101928261286f57600085556128b5565b82601f1061288857805160ff19168380011785556128b5565b828001600101855582156128b5579182015b828111156128b557825182559160200191906001019061289a565b506128c19291506128c5565b5090565b5b808211156128c157600081556001016128c6565b6001600160e01b031981168114610b2157600080fd5b60006020828403121561290257600080fd5b8135610fcd816128da565b60005b83811015612928578181015183820152602001612910565b8381111561072c5750506000910152565b6000815180845261295181602086016020860161290d565b601f01601f19169290920160200192915050565b602081526000610fcd6020830184612939565b634e487b7160e01b600052604160045260246000fd5b600082601f83011261299f57600080fd5b813567ffffffffffffffff808211156129ba576129ba612978565b604051601f8301601f19908116603f011681019082821181831017156129e2576129e2612978565b816040528381528660208588010111156129fb57600080fd5b836020870160208301376000602085830101528094505050505092915050565b80356001600160a01b0381168114612a3257600080fd5b919050565b600080600060608486031215612a4c57600080fd5b833567ffffffffffffffff80821115612a6457600080fd5b612a708783880161298e565b94506020860135915080821115612a8657600080fd5b50612a938682870161298e565b925050612aa260408501612a1b565b90509250925092565b600060208284031215612abd57600080fd5b5035919050565b60008060408385031215612ad757600080fd5b612ae083612a1b565b946020939093013593505050565b60008060008060608587031215612b0457600080fd5b612b0d85612a1b565b935060208501359250604085013567ffffffffffffffff80821115612b3157600080fd5b818701915087601f830112612b4557600080fd5b813581811115612b5457600080fd5b886020828501011115612b6657600080fd5b95989497505060200194505050565b600080600060608486031215612b8a57600080fd5b612b9384612a1b565b9250612ba160208501612a1b565b9150604084013590509250925092565b600060208284031215612bc357600080fd5b610fcd82612a1b565b60008060408385031215612bdf57600080fd5b612be883612a1b565b9150602083013567ffffffffffffffff811115612c0457600080fd5b612c108582860161298e565b9150509250929050565b600060208284031215612c2c57600080fd5b813567ffffffffffffffff811115612c4357600080fd5b6115dd8482850161298e565b80358015158114612a3257600080fd5b60008060408385031215612c7257600080fd5b82359150612c8260208401612c4f565b90509250929050565b60008060408385031215612c9e57600080fd5b612ca783612a1b565b9150612c8260208401612c4f565b60008060008060808587031215612ccb57600080fd5b612cd485612a1b565b9350612ce260208601612a1b565b925060408501359150606085013567ffffffffffffffff811115612d0557600080fd5b612d118782880161298e565b91505092959194509250565b634e487b7160e01b600052602160045260246000fd5b6060810160068510612d4757612d47612d1d565b84825260ff8416602083015260058310612d6357612d63612d1d565b826040830152949350505050565b60008060408385031215612d8457600080fd5b612d8d83612a1b565b9150612c8260208401612a1b565b600181811c90821680612daf57607f821691505b602082108103612dcf57634e487b7160e01b600052602260045260246000fd5b50919050565b6020808252602e908201527f496e697469616c697a61626c653a20636f6e747261637420697320616c72656160408201526d191e481a5b9a5d1a585b1a5e995960921b606082015260800190565b60208082526031908201527f4552433732313a207472616e736665722063616c6c6572206973206e6f74206f6040820152701ddb995c881b9bdc88185c1c1c9bdd9959607a1b606082015260800190565b6020808252602c908201527f46756e6374696f6e206d7573742062652063616c6c6564207468726f7567682060408201526b19195b1959d85d1958d85b1b60a21b606082015260800190565b6020808252602c908201527f46756e6374696f6e206d7573742062652063616c6c6564207468726f7567682060408201526b6163746976652070726f787960a01b606082015260800190565b634e487b7160e01b600052603260045260246000fd5b6020808252818101527f4f776e61626c653a2063616c6c6572206973206e6f7420746865206f776e6572604082015260600190565b60008351612f6981846020880161290d565b835190830190612f7d81836020880161290d565b01949350505050565b634e487b7160e01b600052601160045260246000fd5b600082821015612fae57612fae612f86565b500390565b60008085851115612fc357600080fd5b83861115612fd057600080fd5b5050820193919092039150565b60008219821115612ff057612ff0612f86565b500190565b60208082526032908201527f4552433732313a207472616e7366657220746f206e6f6e20455243373231526560408201527131b2b4bb32b91034b6b83632b6b2b73a32b960711b606082015260800190565b60006001820161305957613059612f86565b5060010190565b634e487b7160e01b600052601260045260246000fd5b60008261308557613085613060565b500490565b60008261309957613099613060565b500690565b634e487b7160e01b600052600160045260246000fd5b60008160001904831182151516156130ce576130ce612f86565b500290565b600060ff821660ff8416808210156130ed576130ed612f86565b90039392505050565b600060ff821660ff84168060ff0382111561311357613113612f86565b019392505050565b6000825161312d81846020870161290d565b9190910192915050565b6001600160a01b038581168252841660208201526040810183905260806060820181905260009061316a90830184612939565b9695505050505050565b60006020828403121561318657600080fd5b8151610fcd816128da565b634e487b7160e01b600052603160045260246000fdfe416464726573733a206c6f772d6c6576656c2064656c65676174652063616c6c206661696c6564a264697066735822122042e54992dbdfbaf081c9530b46d271579bd84ed4c45de9b919d4c6901ae9793064736f6c634300080e0033",
  "devdoc": {
    "author": "Dmitry Yakovlevich",
    "details": "inherit BaseIlluvitar",
    "kind": "dev",
    "methods": {
      "approve(address,uint256)": {
        "details": "See {IERC721-approve}."
      },
      "balanceOf(address)": {
        "details": "See {IERC721-balanceOf}."
      },
      "getApproved(uint256)": {
        "details": "See {IERC721-getApproved}."
      },
      "initialize(string,string,address)": {
        "params": {
          "imxMinter_": "NFT Minter Address.",
          "name_": "NFT Name.",
          "symbol_": "NFT Symbol."
        }
      },
      "isApprovedForAll(address,address)": {
        "details": "See {IERC721-isApprovedForAll}."
      },
      "markForSale(uint256,bool)": {
        "details": "Mark for sale",
        "params": {
          "_sale": "true or false",
          "tokenId": "tokenId"
        }
      },
      "mintFor(address,uint256,bytes)": {
        "details": "Used to withdraw from IMX",
        "params": {
          "mintingBlob": "IMX minting blob string - {tokenId:blueprint}",
          "quantity": "quantity - must be 1",
          "to": "Recipient address"
        }
      },
      "name()": {
        "details": "See {IERC721Metadata-name}."
      },
      "owner()": {
        "details": "Returns the address of the current owner."
      },
      "ownerOf(uint256)": {
        "details": "See {IERC721-ownerOf}."
      },
      "renounceOwnership()": {
        "details": "Leaves the contract without owner. It will not be possible to call `onlyOwner` functions anymore. Can only be called by the current owner. NOTE: Renouncing ownership will leave the contract without an owner, thereby removing any functionality that is only available to the owner."
      },
      "safeTransferFrom(address,address,uint256)": {
        "details": "See {IERC721-safeTransferFrom}."
      },
      "safeTransferFrom(address,address,uint256,bytes)": {
        "details": "See {IERC721-safeTransferFrom}."
      },
      "setApprovalForAll(address,bool)": {
        "details": "See {IERC721-setApprovalForAll}."
      },
      "setBaseUri(string)": {
        "details": "Set base URI",
        "params": {
          "_baseUri_": "base URI."
        }
      },
      "supportsInterface(bytes4)": {
        "details": "See {IERC165-supportsInterface}."
      },
      "symbol()": {
        "details": "See {IERC721Metadata-symbol}."
      },
      "tokenByIndex(uint256)": {
        "details": "See {IERC721Enumerable-tokenByIndex}."
      },
      "tokenOfOwnerByIndex(address,uint256)": {
        "details": "See {IERC721Enumerable-tokenOfOwnerByIndex}."
      },
      "tokenURI(uint256)": {
        "details": "See {IERC721Metadata-tokenURI}."
      },
      "totalSupply()": {
        "details": "See {IERC721Enumerable-totalSupply}."
      },
      "transferFrom(address,address,uint256)": {
        "details": "See {IERC721-transferFrom}."
      },
      "transferOwnership(address)": {
        "details": "Transfers ownership of the contract to a new account (`newOwner`). Can only be called by the current owner."
      },
      "upgradeTo(address)": {
        "details": "Upgrade the implementation of the proxy to `newImplementation`. Calls {_authorizeUpgrade}. Emits an {Upgraded} event."
      },
      "upgradeToAndCall(address,bytes)": {
        "details": "Upgrade the implementation of the proxy to `newImplementation`, and subsequently execute the function call encoded in `data`. Calls {_authorizeUpgrade}. Emits an {Upgraded} event."
      }
    },
    "stateVariables": {
      "metadata": {
        "details": "Accessory metadata"
      }
    },
    "title": "Accessory Layer",
    "version": 1
  },
  "userdoc": {
    "kind": "user",
    "methods": {
      "initialize(string,string,address)": {
        "notice": "Initialize Accessory NFT."
      },
      "markForSale(uint256,bool)": {
        "notice": "Illuvitars cannot be used in game if they are open for sale"
      },
      "setBaseUri(string)": {
        "notice": "only owner can call this function."
      }
    },
    "version": 1
  },
  "storageLayout": {
    "storage": [
      {
        "astId": 1089,
        "contract": "contracts/AccessoryLayer.sol:AccessoryLayer",
        "label": "_initialized",
        "offset": 0,
        "slot": "0",
        "type": "t_bool"
      },
      {
        "astId": 1092,
        "contract": "contracts/AccessoryLayer.sol:AccessoryLayer",
        "label": "_initializing",
        "offset": 1,
        "slot": "0",
        "type": "t_bool"
      },
      {
        "astId": 3249,
        "contract": "contracts/AccessoryLayer.sol:AccessoryLayer",
        "label": "__gap",
        "offset": 0,
        "slot": "1",
        "type": "t_array(t_uint256)50_storage"
      },
      {
        "astId": 3558,
        "contract": "contracts/AccessoryLayer.sol:AccessoryLayer",
        "label": "__gap",
        "offset": 0,
        "slot": "51",
        "type": "t_array(t_uint256)50_storage"
      },
      {
        "astId": 1571,
        "contract": "contracts/AccessoryLayer.sol:AccessoryLayer",
        "label": "_name",
        "offset": 0,
        "slot": "101",
        "type": "t_string_storage"
      },
      {
        "astId": 1573,
        "contract": "contracts/AccessoryLayer.sol:AccessoryLayer",
        "label": "_symbol",
        "offset": 0,
        "slot": "102",
        "type": "t_string_storage"
      },
      {
        "astId": 1577,
        "contract": "contracts/AccessoryLayer.sol:AccessoryLayer",
        "label": "_owners",
        "offset": 0,
        "slot": "103",
        "type": "t_mapping(t_uint256,t_address)"
      },
      {
        "astId": 1581,
        "contract": "contracts/AccessoryLayer.sol:AccessoryLayer",
        "label": "_balances",
        "offset": 0,
        "slot": "104",
        "type": "t_mapping(t_address,t_uint256)"
      },
      {
        "astId": 1585,
        "contract": "contracts/AccessoryLayer.sol:AccessoryLayer",
        "label": "_tokenApprovals",
        "offset": 0,
        "slot": "105",
        "type": "t_mapping(t_uint256,t_address)"
      },
      {
        "astId": 1591,
        "contract": "contracts/AccessoryLayer.sol:AccessoryLayer",
        "label": "_operatorApprovals",
        "offset": 0,
        "slot": "106",
        "type": "t_mapping(t_address,t_mapping(t_address,t_bool))"
      },
      {
        "astId": 2402,
        "contract": "contracts/AccessoryLayer.sol:AccessoryLayer",
        "label": "__gap",
        "offset": 0,
        "slot": "107",
        "type": "t_array(t_uint256)44_storage"
      },
      {
        "astId": 2576,
        "contract": "contracts/AccessoryLayer.sol:AccessoryLayer",
        "label": "_ownedTokens",
        "offset": 0,
        "slot": "151",
        "type": "t_mapping(t_address,t_mapping(t_uint256,t_uint256))"
      },
      {
        "astId": 2580,
        "contract": "contracts/AccessoryLayer.sol:AccessoryLayer",
        "label": "_ownedTokensIndex",
        "offset": 0,
        "slot": "152",
        "type": "t_mapping(t_uint256,t_uint256)"
      },
      {
        "astId": 2583,
        "contract": "contracts/AccessoryLayer.sol:AccessoryLayer",
        "label": "_allTokens",
        "offset": 0,
        "slot": "153",
        "type": "t_array(t_uint256)dyn_storage"
      },
      {
        "astId": 2587,
        "contract": "contracts/AccessoryLayer.sol:AccessoryLayer",
        "label": "_allTokensIndex",
        "offset": 0,
        "slot": "154",
        "type": "t_mapping(t_uint256,t_uint256)"
      },
      {
        "astId": 2902,
        "contract": "contracts/AccessoryLayer.sol:AccessoryLayer",
        "label": "__gap",
        "offset": 0,
        "slot": "155",
        "type": "t_array(t_uint256)46_storage"
      },
      {
        "astId": 1072,
        "contract": "contracts/AccessoryLayer.sol:AccessoryLayer",
        "label": "__gap",
        "offset": 0,
        "slot": "201",
        "type": "t_array(t_uint256)50_storage"
      },
      {
        "astId": 1239,
        "contract": "contracts/AccessoryLayer.sol:AccessoryLayer",
        "label": "__gap",
        "offset": 0,
        "slot": "251",
        "type": "t_array(t_uint256)50_storage"
      },
      {
        "astId": 560,
        "contract": "contracts/AccessoryLayer.sol:AccessoryLayer",
        "label": "_owner",
        "offset": 0,
        "slot": "301",
        "type": "t_address"
      },
      {
        "astId": 674,
        "contract": "contracts/AccessoryLayer.sol:AccessoryLayer",
        "label": "__gap",
        "offset": 0,
        "slot": "302",
        "type": "t_array(t_uint256)49_storage"
      },
      {
        "astId": 3789,
        "contract": "contracts/AccessoryLayer.sol:AccessoryLayer",
        "label": "imxMinter",
        "offset": 0,
        "slot": "351",
        "type": "t_address"
      },
      {
        "astId": 3794,
        "contract": "contracts/AccessoryLayer.sol:AccessoryLayer",
        "label": "openForSale",
        "offset": 0,
        "slot": "352",
        "type": "t_mapping(t_uint256,t_bool)"
      },
      {
        "astId": 3799,
        "contract": "contracts/AccessoryLayer.sol:AccessoryLayer",
        "label": "metadataInitialized",
        "offset": 0,
        "slot": "353",
        "type": "t_mapping(t_uint256,t_bool)"
      },
      {
        "astId": 3802,
        "contract": "contracts/AccessoryLayer.sol:AccessoryLayer",
        "label": "__baseUri",
        "offset": 0,
        "slot": "354",
        "type": "t_string_storage"
      },
      {
        "astId": 3982,
        "contract": "contracts/AccessoryLayer.sol:AccessoryLayer",
        "label": "__gap",
        "offset": 0,
        "slot": "355",
        "type": "t_array(t_uint256)42_storage"
      },
      {
        "astId": 3593,
        "contract": "contracts/AccessoryLayer.sol:AccessoryLayer",
        "label": "metadata",
        "offset": 0,
        "slot": "397",
        "type": "t_mapping(t_uint256,t_struct(Metadata)3587_storage)"
      }
    ],
    "types": {
      "t_address": {
        "encoding": "inplace",
        "label": "address",
        "numberOfBytes": "20"
      },
      "t_array(t_uint256)42_storage": {
        "base": "t_uint256",
        "encoding": "inplace",
        "label": "uint256[42]",
        "numberOfBytes": "1344"
      },
      "t_array(t_uint256)44_storage": {
        "base": "t_uint256",
        "encoding": "inplace",
        "label": "uint256[44]",
        "numberOfBytes": "1408"
      },
      "t_array(t_uint256)46_storage": {
        "base": "t_uint256",
        "encoding": "inplace",
        "label": "uint256[46]",
        "numberOfBytes": "1472"
      },
      "t_array(t_uint256)49_storage": {
        "base": "t_uint256",
        "encoding": "inplace",
        "label": "uint256[49]",
        "numberOfBytes": "1568"
      },
      "t_array(t_uint256)50_storage": {
        "base": "t_uint256",
        "encoding": "inplace",
        "label": "uint256[50]",
        "numberOfBytes": "1600"
      },
      "t_array(t_uint256)dyn_storage": {
        "base": "t_uint256",
        "encoding": "dynamic_array",
        "label": "uint256[]",
        "numberOfBytes": "32"
      },
      "t_bool": {
        "encoding": "inplace",
        "label": "bool",
        "numberOfBytes": "1"
      },
      "t_enum(AccessoryType)3991": {
        "encoding": "inplace",
        "label": "enum AccessoryType",
        "numberOfBytes": "1"
      },
      "t_enum(BoxType)3998": {
        "encoding": "inplace",
        "label": "enum BoxType",
        "numberOfBytes": "1"
      },
      "t_mapping(t_address,t_bool)": {
        "encoding": "mapping",
        "key": "t_address",
        "label": "mapping(address => bool)",
        "numberOfBytes": "32",
        "value": "t_bool"
      },
      "t_mapping(t_address,t_mapping(t_address,t_bool))": {
        "encoding": "mapping",
        "key": "t_address",
        "label": "mapping(address => mapping(address => bool))",
        "numberOfBytes": "32",
        "value": "t_mapping(t_address,t_bool)"
      },
      "t_mapping(t_address,t_mapping(t_uint256,t_uint256))": {
        "encoding": "mapping",
        "key": "t_address",
        "label": "mapping(address => mapping(uint256 => uint256))",
        "numberOfBytes": "32",
        "value": "t_mapping(t_uint256,t_uint256)"
      },
      "t_mapping(t_address,t_uint256)": {
        "encoding": "mapping",
        "key": "t_address",
        "label": "mapping(address => uint256)",
        "numberOfBytes": "32",
        "value": "t_uint256"
      },
      "t_mapping(t_uint256,t_address)": {
        "encoding": "mapping",
        "key": "t_uint256",
        "label": "mapping(uint256 => address)",
        "numberOfBytes": "32",
        "value": "t_address"
      },
      "t_mapping(t_uint256,t_bool)": {
        "encoding": "mapping",
        "key": "t_uint256",
        "label": "mapping(uint256 => bool)",
        "numberOfBytes": "32",
        "value": "t_bool"
      },
      "t_mapping(t_uint256,t_struct(Metadata)3587_storage)": {
        "encoding": "mapping",
        "key": "t_uint256",
        "label": "mapping(uint256 => struct AccessoryLayer.Metadata)",
        "numberOfBytes": "32",
        "value": "t_struct(Metadata)3587_storage"
      },
      "t_mapping(t_uint256,t_uint256)": {
        "encoding": "mapping",
        "key": "t_uint256",
        "label": "mapping(uint256 => uint256)",
        "numberOfBytes": "32",
        "value": "t_uint256"
      },
      "t_string_storage": {
        "encoding": "bytes",
        "label": "string",
        "numberOfBytes": "32"
      },
      "t_struct(Metadata)3587_storage": {
        "encoding": "inplace",
        "label": "struct AccessoryLayer.Metadata",
        "members": [
          {
            "astId": 3581,
            "contract": "contracts/AccessoryLayer.sol:AccessoryLayer",
            "label": "boxType",
            "offset": 0,
            "slot": "0",
            "type": "t_enum(BoxType)3998"
          },
          {
            "astId": 3583,
            "contract": "contracts/AccessoryLayer.sol:AccessoryLayer",
            "label": "tier",
            "offset": 1,
            "slot": "0",
            "type": "t_uint8"
          },
          {
            "astId": 3586,
            "contract": "contracts/AccessoryLayer.sol:AccessoryLayer",
            "label": "accessoryType",
            "offset": 2,
            "slot": "0",
            "type": "t_enum(AccessoryType)3991"
          }
        ],
        "numberOfBytes": "32"
      },
      "t_uint256": {
        "encoding": "inplace",
        "label": "uint256",
        "numberOfBytes": "32"
      },
      "t_uint8": {
        "encoding": "inplace",
        "label": "uint8",
        "numberOfBytes": "1"
      }
    }
  }
}