{
  "address": "0x3Dbd2251c4369bCCf4d60226C4B7761EEc09c48A",
  "abi": [
    {
      "inputs": [
        {
          "internalType": "string",
          "name": "_name",
          "type": "string"
        },
        {
          "internalType": "string",
          "name": "_symbol",
          "type": "string"
        }
      ],
      "stateMutability": "nonpayable",
      "type": "constructor"
    },
    {
      "anonymous": false,
      "inputs": [
        {
          "indexed": true,
          "internalType": "address",
          "name": "owner",
          "type": "address"
        },
        {
          "indexed": true,
          "internalType": "address",
          "name": "spender",
          "type": "address"
        },
        {
          "indexed": false,
          "internalType": "uint256",
          "name": "value",
          "type": "uint256"
        }
      ],
      "name": "Approval",
      "type": "event"
    },
    {
      "anonymous": false,
      "inputs": [
        {
          "indexed": true,
          "internalType": "address",
          "name": "from",
          "type": "address"
        },
        {
          "indexed": true,
          "internalType": "address",
          "name": "to",
          "type": "address"
        },
        {
          "indexed": false,
          "internalType": "uint256",
          "name": "value",
          "type": "uint256"
        }
      ],
      "name": "Transfer",
      "type": "event"
    },
    {
      "inputs": [
        {
          "internalType": "address",
          "name": "owner",
          "type": "address"
        },
        {
          "internalType": "address",
          "name": "spender",
          "type": "address"
        }
      ],
      "name": "allowance",
      "outputs": [
        {
          "internalType": "uint256",
          "name": "",
          "type": "uint256"
        }
      ],
      "stateMutability": "view",
      "type": "function"
    },
    {
      "inputs": [
        {
          "internalType": "address",
          "name": "spender",
          "type": "address"
        },
        {
          "internalType": "uint256",
          "name": "amount",
          "type": "uint256"
        }
      ],
      "name": "approve",
      "outputs": [
        {
          "internalType": "bool",
          "name": "",
          "type": "bool"
        }
      ],
      "stateMutability": "nonpayable",
      "type": "function"
    },
    {
      "inputs": [
        {
          "internalType": "address",
          "name": "owner",
          "type": "address"
        },
        {
          "internalType": "address",
          "name": "spender",
          "type": "address"
        },
        {
          "internalType": "uint256",
          "name": "value",
          "type": "uint256"
        }
      ],
      "name": "approveInternal",
      "outputs": [],
      "stateMutability": "nonpayable",
      "type": "function"
    },
    {
      "inputs": [
        {
          "internalType": "address",
          "name": "account",
          "type": "address"
        }
      ],
      "name": "balanceOf",
      "outputs": [
        {
          "internalType": "uint256",
          "name": "",
          "type": "uint256"
        }
      ],
      "stateMutability": "view",
      "type": "function"
    },
    {
      "inputs": [],
      "name": "decimals",
      "outputs": [
        {
          "internalType": "uint8",
          "name": "",
          "type": "uint8"
        }
      ],
      "stateMutability": "view",
      "type": "function"
    },
    {
      "inputs": [
        {
          "internalType": "address",
          "name": "spender",
          "type": "address"
        },
        {
          "internalType": "uint256",
          "name": "subtractedValue",
          "type": "uint256"
        }
      ],
      "name": "decreaseAllowance",
      "outputs": [
        {
          "internalType": "bool",
          "name": "",
          "type": "bool"
        }
      ],
      "stateMutability": "nonpayable",
      "type": "function"
    },
    {
      "inputs": [
        {
          "internalType": "address",
          "name": "spender",
          "type": "address"
        },
        {
          "internalType": "uint256",
          "name": "addedValue",
          "type": "uint256"
        }
      ],
      "name": "increaseAllowance",
      "outputs": [
        {
          "internalType": "bool",
          "name": "",
          "type": "bool"
        }
      ],
      "stateMutability": "nonpayable",
      "type": "function"
    },
    {
      "inputs": [
        {
          "internalType": "address",
          "name": "account",
          "type": "address"
        },
        {
          "internalType": "uint256",
          "name": "amount",
          "type": "uint256"
        }
      ],
      "name": "mint",
      "outputs": [],
      "stateMutability": "nonpayable",
      "type": "function"
    },
    {
      "inputs": [],
      "name": "name",
      "outputs": [
        {
          "internalType": "string",
          "name": "",
          "type": "string"
        }
      ],
      "stateMutability": "view",
      "type": "function"
    },
    {
      "inputs": [],
      "name": "removeBalanceOfOverride",
      "outputs": [],
      "stateMutability": "nonpayable",
      "type": "function"
    },
    {
      "inputs": [],
      "name": "removeTransferFromSuccessOverride",
      "outputs": [],
      "stateMutability": "nonpayable",
      "type": "function"
    },
    {
      "inputs": [],
      "name": "removeTransferSuccessOverride",
      "outputs": [],
      "stateMutability": "nonpayable",
      "type": "function"
    },
    {
      "inputs": [
        {
          "internalType": "uint256",
          "name": "_value",
          "type": "uint256"
        }
      ],
      "name": "setBalanceOfOverride",
      "outputs": [],
      "stateMutability": "nonpayable",
      "type": "function"
    },
    {
      "inputs": [
        {
          "internalType": "bool",
          "name": "_value",
          "type": "bool"
        }
      ],
      "name": "setTransferFromSuccessOverride",
      "outputs": [],
      "stateMutability": "nonpayable",
      "type": "function"
    },
    {
      "inputs": [
        {
          "internalType": "bool",
          "name": "_value",
          "type": "bool"
        }
      ],
      "name": "setTransferSuccessOverride",
      "outputs": [],
      "stateMutability": "nonpayable",
      "type": "function"
    },
    {
      "inputs": [],
      "name": "symbol",
      "outputs": [
        {
          "internalType": "string",
          "name": "",
          "type": "string"
        }
      ],
      "stateMutability": "view",
      "type": "function"
    },
    {
      "inputs": [],
      "name": "totalSupply",
      "outputs": [
        {
          "internalType": "uint256",
          "name": "",
          "type": "uint256"
        }
      ],
      "stateMutability": "view",
      "type": "function"
    },
    {
      "inputs": [
        {
          "internalType": "address",
          "name": "recipient",
          "type": "address"
        },
        {
          "internalType": "uint256",
          "name": "amount",
          "type": "uint256"
        }
      ],
      "name": "transfer",
      "outputs": [
        {
          "internalType": "bool",
          "name": "",
          "type": "bool"
        }
      ],
      "stateMutability": "nonpayable",
      "type": "function"
    },
    {
      "inputs": [
        {
          "internalType": "address",
          "name": "sender",
          "type": "address"
        },
        {
          "internalType": "address",
          "name": "recipient",
          "type": "address"
        },
        {
          "internalType": "uint256",
          "name": "amount",
          "type": "uint256"
        }
      ],
      "name": "transferFrom",
      "outputs": [
        {
          "internalType": "bool",
          "name": "",
          "type": "bool"
        }
      ],
      "stateMutability": "nonpayable",
      "type": "function"
    },
    {
      "inputs": [
        {
          "internalType": "address",
          "name": "from",
          "type": "address"
        },
        {
          "internalType": "address",
          "name": "to",
          "type": "address"
        },
        {
          "internalType": "uint256",
          "name": "value",
          "type": "uint256"
        }
      ],
      "name": "transferInternal",
      "outputs": [],
      "stateMutability": "nonpayable",
      "type": "function"
    }
  ],
  "transactionHash": "0xe7fa48c23fd3e1af6b5939c9b223ad8a856029caaf4a511bc6d4f81aa5e4e32e",
  "args": [
    "sILV2",
    "Escrowed Illuvium"
  ],
  "numDeployments": 1,
  "solcInputHash": "2e82c4b0653578927693e72609d6d9e2",
  "bytecode": "0x60806040523480156200001157600080fd5b5060405162000e6e38038062000e6e8339810160408190526200003491620001e1565b8151829082906200004d9060039060208501906200006e565b508051620000639060049060208401906200006e565b505050505062000287565b8280546200007c906200024b565b90600052602060002090601f016020900481019282620000a05760008555620000eb565b82601f10620000bb57805160ff1916838001178555620000eb565b82800160010185558215620000eb579182015b82811115620000eb578251825591602001919060010190620000ce565b50620000f9929150620000fd565b5090565b5b80821115620000f95760008155600101620000fe565b634e487b7160e01b600052604160045260246000fd5b600082601f8301126200013c57600080fd5b81516001600160401b038082111562000159576200015962000114565b604051601f8301601f19908116603f0116810190828211818310171562000184576200018462000114565b81604052838152602092508683858801011115620001a157600080fd5b600091505b83821015620001c55785820183015181830184015290820190620001a6565b83821115620001d75760008385830101525b9695505050505050565b60008060408385031215620001f557600080fd5b82516001600160401b03808211156200020d57600080fd5b6200021b868387016200012a565b935060208501519150808211156200023257600080fd5b5062000241858286016200012a565b9150509250929050565b600181811c908216806200026057607f821691505b6020821081036200028157634e487b7160e01b600052602260045260246000fd5b50919050565b610bd780620002976000396000f3fe608060405234801561001057600080fd5b506004361061012c5760003560e01c806370a08231116100ad578063be2b5dff11610071578063be2b5dff14610255578063c421c91c14610275578063dd62ed3e146102a0578063e680e3ab146102b3578063e8fa6d88146102e457600080fd5b806370a082311461020557806395d89b4114610218578063a457c2d714610220578063a9059cbb14610233578063b77346341461024657600080fd5b806323b872dd116100f457806323b872dd146101aa578063313ce567146101bd57806339509351146101cc57806340c10f19146101df57806356189cb4146101f257600080fd5b806306fdde0314610131578063095ea7b31461014f5780630ba7184f1461017257806318160ddd14610185578063222f5be014610197575b600080fd5b6101396102f3565b60405161014691906109e1565b60405180910390f35b61016261015d366004610a52565b610385565b6040519015158152602001610146565b6101836007805462ff000019169055565b005b6002545b604051908152602001610146565b6101836101a5366004610a7c565b61039d565b6101626101b8366004610a7c565b6103ad565b60405160128152602001610146565b6101626101da366004610a52565b61040a565b6101836101ed366004610a52565b61042c565b610183610200366004610a7c565b61043a565b610189610213366004610ab8565b610445565b61013961047a565b61016261022e366004610a52565b610489565b610162610241366004610a52565b610514565b6101836005805460ff19169055565b610183610263366004610ad3565b6005805460ff19166001179055600655565b610183610283366004610aec565b600780549115156101000261ffff19909216919091176001179055565b6101896102ae366004610b0e565b610548565b6101836102c1366004610aec565b6007805491151563010000000263ffff0000199092169190911762010000179055565b6101836007805460ff19169055565b60606003805461030290610b41565b80601f016020809104026020016040519081016040528092919081815260200182805461032e90610b41565b801561037b5780601f106103505761010080835404028352916020019161037b565b820191906000526020600020905b81548152906001019060200180831161035e57829003601f168201915b5050505050905090565b600033610393818585610573565b5060019392505050565b6103a8838383610697565b505050565b6000806103bb858585610867565b60075490915062010000900460ff16156103e35750506007546301000000900460ff16610403565b60075460ff1615610400575050600754610100900460ff16610403565b90505b9392505050565b60003361039381858561041d8383610548565b6104279190610b7b565b610573565b6104368282610880565b5050565b6103a8838383610573565b60055460009060ff16610470576001600160a01b038216600090815260208190526040902054610474565b6006545b92915050565b60606004805461030290610b41565b600033816104978286610548565b9050838110156104fc5760405162461bcd60e51b815260206004820152602560248201527f45524332303a2064656372656173656420616c6c6f77616e63652062656c6f77604482015264207a65726f60d81b60648201526084015b60405180910390fd5b6105098286868403610573565b506001949350505050565b600080610521848461095f565b60075490915060ff166105345780610540565b600754610100900460ff165b949350505050565b6001600160a01b03918216600090815260016020908152604080832093909416825291909152205490565b6001600160a01b0383166105d55760405162461bcd60e51b8152602060048201526024808201527f45524332303a20617070726f76652066726f6d20746865207a65726f206164646044820152637265737360e01b60648201526084016104f3565b6001600160a01b0382166106365760405162461bcd60e51b815260206004820152602260248201527f45524332303a20617070726f766520746f20746865207a65726f206164647265604482015261737360f01b60648201526084016104f3565b6001600160a01b0383811660008181526001602090815260408083209487168084529482529182902085905590518481527f8c5be1e5ebec7d5bd14f71427d1e84f3dd0314c0f7b2291e5b200ac8c7c3b925910160405180910390a3505050565b6001600160a01b0383166106fb5760405162461bcd60e51b815260206004820152602560248201527f45524332303a207472616e736665722066726f6d20746865207a65726f206164604482015264647265737360d81b60648201526084016104f3565b6001600160a01b03821661075d5760405162461bcd60e51b815260206004820152602360248201527f45524332303a207472616e7366657220746f20746865207a65726f206164647260448201526265737360e81b60648201526084016104f3565b6001600160a01b038316600090815260208190526040902054818110156107d55760405162461bcd60e51b815260206004820152602660248201527f45524332303a207472616e7366657220616d6f756e7420657863656564732062604482015265616c616e636560d01b60648201526084016104f3565b6001600160a01b0380851660009081526020819052604080822085850390559185168152908120805484929061080c908490610b7b565b92505081905550826001600160a01b0316846001600160a01b03167fddf252ad1be2c89b69c2b068fc378daa952ba7f163c4a11628f55a4df523b3ef8460405161085891815260200190565b60405180910390a35b50505050565b60003361087585828561096d565b610509858585610697565b6001600160a01b0382166108d65760405162461bcd60e51b815260206004820152601f60248201527f45524332303a206d696e7420746f20746865207a65726f20616464726573730060448201526064016104f3565b80600260008282546108e89190610b7b565b90915550506001600160a01b03821660009081526020819052604081208054839290610915908490610b7b565b90915550506040518181526001600160a01b038316906000907fddf252ad1be2c89b69c2b068fc378daa952ba7f163c4a11628f55a4df523b3ef9060200160405180910390a35050565b600033610393818585610697565b60006109798484610548565b9050600019811461086157818110156109d45760405162461bcd60e51b815260206004820152601d60248201527f45524332303a20696e73756666696369656e7420616c6c6f77616e636500000060448201526064016104f3565b6108618484848403610573565b600060208083528351808285015260005b81811015610a0e578581018301518582016040015282016109f2565b81811115610a20576000604083870101525b50601f01601f1916929092016040019392505050565b80356001600160a01b0381168114610a4d57600080fd5b919050565b60008060408385031215610a6557600080fd5b610a6e83610a36565b946020939093013593505050565b600080600060608486031215610a9157600080fd5b610a9a84610a36565b9250610aa860208501610a36565b9150604084013590509250925092565b600060208284031215610aca57600080fd5b61040382610a36565b600060208284031215610ae557600080fd5b5035919050565b600060208284031215610afe57600080fd5b8135801515811461040357600080fd5b60008060408385031215610b2157600080fd5b610b2a83610a36565b9150610b3860208401610a36565b90509250929050565b600181811c90821680610b5557607f821691505b602082108103610b7557634e487b7160e01b600052602260045260246000fd5b50919050565b60008219821115610b9c57634e487b7160e01b600052601160045260246000fd5b50019056fea2646970667358221220666a092901da9c2bba441e4472b64b9f21146d56b7e39920d7ca9b00c74f523064736f6c634300080e0033",
  "devdoc": {
    "author": "Basil Gorin, Yuri Fernandes",
    "kind": "dev",
    "methods": {
      "allowance(address,address)": {
        "details": "See {IERC20-allowance}."
      },
      "approve(address,uint256)": {
        "details": "See {IERC20-approve}. NOTE: If `amount` is the maximum `uint256`, the allowance is not updated on `transferFrom`. This is semantically equivalent to an infinite approval. Requirements: - `spender` cannot be the zero address."
      },
      "balanceOf(address)": {
        "details": "See {IERC20-balanceOf}."
      },
      "constructor": {
        "details": "Creates/deploys an ERC20 Mock instance",
        "params": {
          "_name": "token name (ERC20Metadata)",
          "_symbol": "toke symbol (ERC20Metadata)"
        }
      },
      "decimals()": {
        "details": "Returns the number of decimals used to get its user representation. For example, if `decimals` equals `2`, a balance of `505` tokens should be displayed to a user as `5.05` (`505 / 10 ** 2`). Tokens usually opt for a value of 18, imitating the relationship between Ether and Wei. This is the value {ERC20} uses, unless this function is overridden; NOTE: This information is only used for _display_ purposes: it in no way affects any of the arithmetic of the contract, including {IERC20-balanceOf} and {IERC20-transfer}."
      },
      "decreaseAllowance(address,uint256)": {
        "details": "Atomically decreases the allowance granted to `spender` by the caller. This is an alternative to {approve} that can be used as a mitigation for problems described in {IERC20-approve}. Emits an {Approval} event indicating the updated allowance. Requirements: - `spender` cannot be the zero address. - `spender` must have allowance for the caller of at least `subtractedValue`."
      },
      "increaseAllowance(address,uint256)": {
        "details": "Atomically increases the allowance granted to `spender` by the caller. This is an alternative to {approve} that can be used as a mitigation for problems described in {IERC20-approve}. Emits an {Approval} event indicating the updated allowance. Requirements: - `spender` cannot be the zero address."
      },
      "name()": {
        "details": "Returns the name of the token."
      },
      "removeBalanceOfOverride()": {
        "details": "Removes balanceOf() override"
      },
      "removeTransferFromSuccessOverride()": {
        "details": "Removes transferFrom() override"
      },
      "removeTransferSuccessOverride()": {
        "details": "Removes transfer() and transferFrom() override"
      },
      "setBalanceOfOverride(uint256)": {
        "details": "Sets balanceOf() override"
      },
      "setTransferFromSuccessOverride(bool)": {
        "details": "Sets transferFrom() override"
      },
      "setTransferSuccessOverride(bool)": {
        "details": "Sets transfer() and transferFrom() override"
      },
      "symbol()": {
        "details": "Returns the symbol of the token, usually a shorter version of the name."
      },
      "totalSupply()": {
        "details": "See {IERC20-totalSupply}."
      },
      "transfer(address,uint256)": {
        "details": "See {IERC20-transfer}. Requirements: - `to` cannot be the zero address. - the caller must have a balance of at least `amount`."
      },
      "transferFrom(address,address,uint256)": {
        "details": "See {IERC20-transferFrom}. Emits an {Approval} event indicating the updated allowance. This is not required by the EIP. See the note at the beginning of {ERC20}. NOTE: Does not update the allowance if the current allowance is the maximum `uint256`. Requirements: - `from` and `to` cannot be the zero address. - `from` must have a balance of at least `amount`. - the caller must have allowance for ``from``'s tokens of at least `amount`."
      }
    },
    "stateVariables": {
      "_balanceOfOverride": {
        "details": "Defines if balanceOf() return value should be overridden"
      },
      "_balanceOfValue": {
        "details": "Overrides balanceOf() return value if `_balanceOfOverride` is true"
      },
      "_transferFromSuccessOverride": {
        "details": "Defines if transferFrom() return value should be overridden"
      },
      "_transferFromSuccessValue": {
        "details": "Overrides transferFrom() return value if `_transferSuccessOverride` is true"
      },
      "_transferSuccessOverride": {
        "details": "Defines if transfer() and transferFrom() return value should be overridden"
      },
      "_transferSuccessValue": {
        "details": "Overrides transfer() and transferFrom() return value if `_transferSuccessOverride` is true"
      }
    },
    "title": "ERC20 Mock",
    "version": 1
  },
  "userdoc": {
    "kind": "user",
    "methods": {},
    "notice": "Zeppelin-based ERC20 Mock simulates an ERC20 token, used for testing purposes;      it has unrestricted access to the mint() function",
    "version": 1
  },
  "storageLayout": {
    "storage": [
      {
        "astId": 863,
        "contract": "contracts/mock/ERC20Mock.sol:ERC20Mock",
        "label": "_balances",
        "offset": 0,
        "slot": "0",
        "type": "t_mapping(t_address,t_uint256)"
      },
      {
        "astId": 869,
        "contract": "contracts/mock/ERC20Mock.sol:ERC20Mock",
        "label": "_allowances",
        "offset": 0,
        "slot": "1",
        "type": "t_mapping(t_address,t_mapping(t_address,t_uint256))"
      },
      {
        "astId": 871,
        "contract": "contracts/mock/ERC20Mock.sol:ERC20Mock",
        "label": "_totalSupply",
        "offset": 0,
        "slot": "2",
        "type": "t_uint256"
      },
      {
        "astId": 873,
        "contract": "contracts/mock/ERC20Mock.sol:ERC20Mock",
        "label": "_name",
        "offset": 0,
        "slot": "3",
        "type": "t_string_storage"
      },
      {
        "astId": 875,
        "contract": "contracts/mock/ERC20Mock.sol:ERC20Mock",
        "label": "_symbol",
        "offset": 0,
        "slot": "4",
        "type": "t_string_storage"
      },
      {
        "astId": 2155,
        "contract": "contracts/mock/ERC20Mock.sol:ERC20Mock",
        "label": "_balanceOfOverride",
        "offset": 0,
        "slot": "5",
        "type": "t_bool"
      },
      {
        "astId": 2158,
        "contract": "contracts/mock/ERC20Mock.sol:ERC20Mock",
        "label": "_balanceOfValue",
        "offset": 0,
        "slot": "6",
        "type": "t_uint256"
      },
      {
        "astId": 2161,
        "contract": "contracts/mock/ERC20Mock.sol:ERC20Mock",
        "label": "_transferSuccessOverride",
        "offset": 0,
        "slot": "7",
        "type": "t_bool"
      },
      {
        "astId": 2164,
        "contract": "contracts/mock/ERC20Mock.sol:ERC20Mock",
        "label": "_transferSuccessValue",
        "offset": 1,
        "slot": "7",
        "type": "t_bool"
      },
      {
        "astId": 2167,
        "contract": "contracts/mock/ERC20Mock.sol:ERC20Mock",
        "label": "_transferFromSuccessOverride",
        "offset": 2,
        "slot": "7",
        "type": "t_bool"
      },
      {
        "astId": 2170,
        "contract": "contracts/mock/ERC20Mock.sol:ERC20Mock",
        "label": "_transferFromSuccessValue",
        "offset": 3,
        "slot": "7",
        "type": "t_bool"
      }
    ],
    "types": {
      "t_address": {
        "encoding": "inplace",
        "label": "address",
        "numberOfBytes": "20"
      },
      "t_bool": {
        "encoding": "inplace",
        "label": "bool",
        "numberOfBytes": "1"
      },
      "t_mapping(t_address,t_mapping(t_address,t_uint256))": {
        "encoding": "mapping",
        "key": "t_address",
        "label": "mapping(address => mapping(address => uint256))",
        "numberOfBytes": "32",
        "value": "t_mapping(t_address,t_uint256)"
      },
      "t_mapping(t_address,t_uint256)": {
        "encoding": "mapping",
        "key": "t_address",
        "label": "mapping(address => uint256)",
        "numberOfBytes": "32",
        "value": "t_uint256"
      },
      "t_string_storage": {
        "encoding": "bytes",
        "label": "string",
        "numberOfBytes": "32"
      },
      "t_uint256": {
        "encoding": "inplace",
        "label": "uint256",
        "numberOfBytes": "32"
      }
    }
  }
}